{
  "_format": "hh-sol-artifact-1",
  "contractName": "AAProject",
  "sourceName": "src/contracts/AAProject.sol",
  "abi": [
    {
      "inputs": [
        {
          "internalType": "string",
          "name": "_name",
          "type": "string"
        },
        {
          "internalType": "address",
          "name": "_defaultToken",
          "type": "address"
        },
        {
          "internalType": "address",
          "name": "_forwarder",
          "type": "address"
        },
        {
          "internalType": "address",
          "name": "_accessManager",
          "type": "address"
        },
        {
          "internalType": "address",
          "name": "_triggerManager",
          "type": "address"
        }
      ],
      "stateMutability": "nonpayable",
      "type": "constructor"
    },
    {
      "inputs": [
        {
          "internalType": "address",
          "name": "target",
          "type": "address"
        }
      ],
      "name": "AddressEmptyCode",
      "type": "error"
    },
    {
      "inputs": [],
      "name": "FailedInnerCall",
      "type": "error"
    },
    {
      "anonymous": false,
      "inputs": [
        {
          "indexed": true,
          "internalType": "address",
          "name": "",
          "type": "address"
        }
      ],
      "name": "BeneficiaryAdded",
      "type": "event"
    },
    {
      "anonymous": false,
      "inputs": [
        {
          "indexed": true,
          "internalType": "address",
          "name": "",
          "type": "address"
        }
      ],
      "name": "BeneficiaryRemoved",
      "type": "event"
    },
    {
      "anonymous": false,
      "inputs": [
        {
          "indexed": true,
          "internalType": "address",
          "name": "beneficiary",
          "type": "address"
        },
        {
          "indexed": true,
          "internalType": "address",
          "name": "token",
          "type": "address"
        },
        {
          "indexed": true,
          "internalType": "address",
          "name": "assigner",
          "type": "address"
        }
      ],
      "name": "ClaimAssigned",
      "type": "event"
    },
    {
      "anonymous": false,
      "inputs": [
        {
          "indexed": true,
          "internalType": "address",
          "name": "tokenAddress",
          "type": "address"
        },
        {
          "indexed": false,
          "internalType": "uint256",
          "name": "amount",
          "type": "uint256"
        }
      ],
      "name": "TokenBudgetDecrease",
      "type": "event"
    },
    {
      "anonymous": false,
      "inputs": [
        {
          "indexed": true,
          "internalType": "address",
          "name": "tokenAddress",
          "type": "address"
        },
        {
          "indexed": false,
          "internalType": "uint256",
          "name": "amount",
          "type": "uint256"
        }
      ],
      "name": "TokenBudgetIncrease",
      "type": "event"
    },
    {
      "anonymous": false,
      "inputs": [
        {
          "indexed": true,
          "internalType": "address",
          "name": "token",
          "type": "address"
        },
        {
          "indexed": true,
          "internalType": "address",
          "name": "from",
          "type": "address"
        },
        {
          "indexed": false,
          "internalType": "uint256",
          "name": "amount",
          "type": "uint256"
        }
      ],
      "name": "TokenReceived",
      "type": "event"
    },
    {
      "anonymous": false,
      "inputs": [
        {
          "indexed": true,
          "internalType": "address",
          "name": "tokenAddress",
          "type": "address"
        }
      ],
      "name": "TokenRegistered",
      "type": "event"
    },
    {
      "anonymous": false,
      "inputs": [
        {
          "indexed": true,
          "internalType": "address",
          "name": "token",
          "type": "address"
        },
        {
          "indexed": true,
          "internalType": "address",
          "name": "to",
          "type": "address"
        },
        {
          "indexed": false,
          "internalType": "uint256",
          "name": "amount",
          "type": "uint256"
        }
      ],
      "name": "TokenTransfer",
      "type": "event"
    },
    {
      "anonymous": false,
      "inputs": [
        {
          "indexed": true,
          "internalType": "address",
          "name": "vendorAddress",
          "type": "address"
        },
        {
          "indexed": false,
          "internalType": "bool",
          "name": "status",
          "type": "bool"
        }
      ],
      "name": "VendorUpdated",
      "type": "event"
    },
    {
      "inputs": [],
      "name": "AccessManager",
      "outputs": [
        {
          "internalType": "contract IAccessManager",
          "name": "",
          "type": "address"
        }
      ],
      "stateMutability": "view",
      "type": "function"
    },
    {
      "inputs": [],
      "name": "IID_RAHAT_PROJECT",
      "outputs": [
        {
          "internalType": "bytes4",
          "name": "",
          "type": "bytes4"
        }
      ],
      "stateMutability": "view",
      "type": "function"
    },
    {
      "inputs": [],
      "name": "TriggerManager",
      "outputs": [
        {
          "internalType": "contract ITriggerManager",
          "name": "",
          "type": "address"
        }
      ],
      "stateMutability": "view",
      "type": "function"
    },
    {
      "inputs": [
        {
          "internalType": "address",
          "name": "_address",
          "type": "address"
        }
      ],
      "name": "addBeneficiary",
      "outputs": [],
      "stateMutability": "nonpayable",
      "type": "function"
    },
    {
      "inputs": [
        {
          "internalType": "address",
          "name": "_beneficiary",
          "type": "address"
        },
        {
          "internalType": "address",
          "name": "_tokenAddress",
          "type": "address"
        },
        {
          "internalType": "uint256",
          "name": "_tokenAssigned",
          "type": "uint256"
        }
      ],
      "name": "assignClaims",
      "outputs": [],
      "stateMutability": "nonpayable",
      "type": "function"
    },
    {
      "inputs": [],
      "name": "beneficiaryCount",
      "outputs": [
        {
          "internalType": "uint256",
          "name": "",
          "type": "uint256"
        }
      ],
      "stateMutability": "view",
      "type": "function"
    },
    {
      "inputs": [
        {
          "internalType": "address",
          "name": "_address",
          "type": "address"
        }
      ],
      "name": "checkVendorStatus",
      "outputs": [
        {
          "internalType": "bool",
          "name": "_vendorStatus",
          "type": "bool"
        }
      ],
      "stateMutability": "view",
      "type": "function"
    },
    {
      "inputs": [],
      "name": "defaultToken",
      "outputs": [
        {
          "internalType": "address",
          "name": "",
          "type": "address"
        }
      ],
      "stateMutability": "view",
      "type": "function"
    },
    {
      "inputs": [
        {
          "internalType": "address",
          "name": "_tokenAddress",
          "type": "address"
        },
        {
          "internalType": "uint256",
          "name": "_amount",
          "type": "uint256"
        }
      ],
      "name": "increaseTokenBudget",
      "outputs": [],
      "stateMutability": "nonpayable",
      "type": "function"
    },
    {
      "inputs": [
        {
          "internalType": "address",
          "name": "_address",
          "type": "address"
        }
      ],
      "name": "isBeneficiary",
      "outputs": [
        {
          "internalType": "bool",
          "name": "",
          "type": "bool"
        }
      ],
      "stateMutability": "view",
      "type": "function"
    },
    {
      "inputs": [
        {
          "internalType": "address",
          "name": "forwarder",
          "type": "address"
        }
      ],
      "name": "isTrustedForwarder",
      "outputs": [
        {
          "internalType": "bool",
          "name": "",
          "type": "bool"
        }
      ],
      "stateMutability": "view",
      "type": "function"
    },
    {
      "inputs": [
        {
          "internalType": "bytes[]",
          "name": "data",
          "type": "bytes[]"
        }
      ],
      "name": "multicall",
      "outputs": [
        {
          "internalType": "bytes[]",
          "name": "results",
          "type": "bytes[]"
        }
      ],
      "stateMutability": "nonpayable",
      "type": "function"
    },
    {
      "inputs": [],
      "name": "name",
      "outputs": [
        {
          "internalType": "string",
          "name": "",
          "type": "string"
        }
      ],
      "stateMutability": "view",
      "type": "function"
    },
    {
      "inputs": [
        {
          "internalType": "address",
          "name": "",
          "type": "address"
        }
      ],
      "name": "registeredTokens",
      "outputs": [
        {
          "internalType": "bool",
          "name": "",
          "type": "bool"
        }
      ],
      "stateMutability": "view",
      "type": "function"
    },
    {
      "inputs": [
        {
          "internalType": "address",
          "name": "_address",
          "type": "address"
        }
      ],
      "name": "removeBeneficiary",
      "outputs": [],
      "stateMutability": "nonpayable",
      "type": "function"
    },
    {
      "inputs": [
        {
          "internalType": "bytes4",
          "name": "interfaceId",
          "type": "bytes4"
        }
      ],
      "name": "supportsInterface",
      "outputs": [
        {
          "internalType": "bool",
          "name": "",
          "type": "bool"
        }
      ],
      "stateMutability": "view",
      "type": "function"
    },
    {
      "inputs": [
        {
          "internalType": "address",
          "name": "_tokenAddress",
          "type": "address"
        }
      ],
      "name": "tokenBudget",
      "outputs": [
        {
          "internalType": "uint256",
          "name": "",
          "type": "uint256"
        }
      ],
      "stateMutability": "view",
      "type": "function"
    },
    {
      "inputs": [],
      "name": "trustedForwarder",
      "outputs": [
        {
          "internalType": "address",
          "name": "",
          "type": "address"
        }
      ],
      "stateMutability": "view",
      "type": "function"
    }
  ],
  "bytecode": "0x60a06040523480156200001157600080fd5b506040516200171a3803806200171a8339810160408190526200003491620000c6565b8285600462000044828262000277565b50506001600160a01b03908116608052600980546001600160a01b0319908116968316969096179055600780548616938216939093179092556008805490941691161790915550620003439050565b634e487b7160e01b600052604160045260246000fd5b80516001600160a01b0381168114620000c157600080fd5b919050565b600080600080600060a08688031215620000df57600080fd5b85516001600160401b0380821115620000f757600080fd5b818801915088601f8301126200010c57600080fd5b81518181111562000121576200012162000093565b604051601f8201601f19908116603f011681019083821181831017156200014c576200014c62000093565b81604052828152602093508b848487010111156200016957600080fd5b600091505b828210156200018d57848201840151818301850152908301906200016e565b6000848483010152809950505050620001a8818901620000a9565b95505050620001ba60408701620000a9565b9250620001ca60608701620000a9565b9150620001da60808701620000a9565b90509295509295909350565b600181811c90821680620001fb57607f821691505b6020821081036200021c57634e487b7160e01b600052602260045260246000fd5b50919050565b601f82111562000272576000816000526020600020601f850160051c810160208610156200024d5750805b601f850160051c820191505b818110156200026e5782815560010162000259565b5050505b505050565b81516001600160401b0381111562000293576200029362000093565b620002ab81620002a48454620001e6565b8462000222565b602080601f831160018114620002e35760008415620002ca5750858301515b600019600386901b1c1916600185901b1785556200026e565b600085815260208120601f198616915b828110156200031457888601518255948401946001909101908401620002f3565b5085821015620003335787850151600019600388901b60f8161c191681555b5050505050600190811b01905550565b6080516113ad6200036d600039600081816101f3015281816102a00152610d0e01526113ad6000f3fe608060405234801561001057600080fd5b50600436106101165760003560e01c80636f4efa36116100a25780638c0bd916116100715780638c0bd916146102c457806397b53ca3146102e75780639d19b226146102fa578063ac9650d81461030d578063eb681e621461032d57600080fd5b80636f4efa3614610249578063734b2a7c1461027557806374c13fda1461028b5780637da0a8771461029e57600080fd5b8063314346be116100e9578063314346be146101a75780634fe21571146101bc578063572b6c05146101e35780635926651d1461022357806359633a1c1461023657600080fd5b806301ffc9a71461011b57806306fdde03146101545780630af2a89b146101695780631fe9497c14610194575b600080fd5b61013f610129366004610f64565b6001600160e01b031916634bf831d160e11b1490565b60405190151581526020015b60405180910390f35b61015c610356565b60405161014b9190610fde565b60075461017c906001600160a01b031681565b6040516001600160a01b03909116815260200161014b565b60085461017c906001600160a01b031681565b6101ba6101b536600461100d565b6103e4565b005b6101ca634bf831d160e11b81565b6040516001600160e01b0319909116815260200161014b565b61013f6101f1366004611049565b7f00000000000000000000000000000000000000000000000000000000000000006001600160a01b0390811691161490565b6101ba610231366004611049565b610565565b6101ba610244366004611049565b61060e565b61013f610257366004611049565b6001600160a01b031660009081526003602052604090205460ff1690565b61027d6106b4565b60405190815260200161014b565b60095461017c906001600160a01b031681565b7f000000000000000000000000000000000000000000000000000000000000000061017c565b61013f6102d2366004611049565b600c6020526000908152604090205460ff1681565b6101ba6102f5366004611064565b6106c5565b61013f610308366004611049565b61083f565b61032061031b36600461108e565b610852565b60405161014b9190611103565b61027d61033b366004611049565b6001600160a01b031660009081526001602052604090205490565b6004805461036390611167565b80601f016020809104026020016040519081016040528092919081815260200182805461038f90611167565b80156103dc5780601f106103b1576101008083540402835291602001916103dc565b820191906000526020600020905b8154815290600101906020018083116103bf57829003601f168201915b505050505081565b6007546001600160a01b03166324d7806c6103fd6109b1565b6040516001600160e01b031960e084901b1681526001600160a01b039091166004820152602401602060405180830381865afa158015610441573d6000803e3d6000fd5b505050506040513d601f19601f8201168201806040525081019061046591906111a1565b61048a5760405162461bcd60e51b8152600401610481906111c3565b60405180910390fd5b600860009054906101000a90046001600160a01b03166001600160a01b031663f36807516040518163ffffffff1660e01b8152600401602060405180830381865afa1580156104dd573d6000803e3d6000fd5b505050506040513d601f19601f8201168201806040525081019061050191906111a1565b61054d5760405162461bcd60e51b815260206004820152601a60248201527f646973747269627574696f6e206e6f74207472696767657265640000000000006044820152606401610481565b61056083838361055b6109b1565b6109bb565b505050565b6007546001600160a01b03166324d7806c61057e6109b1565b6040516001600160e01b031960e084901b1681526001600160a01b039091166004820152602401602060405180830381865afa1580156105c2573d6000803e3d6000fd5b505050506040513d601f19601f820116820180604052508101906105e691906111a1565b6106025760405162461bcd60e51b8152600401610481906111c3565b61060b81610ade565b50565b6007546001600160a01b03166324d7806c6106276109b1565b6040516001600160e01b031960e084901b1681526001600160a01b039091166004820152602401602060405180830381865afa15801561066b573d6000803e3d6000fd5b505050506040513d601f19601f8201168201806040525081019061068f91906111a1565b6106ab5760405162461bcd60e51b8152600401610481906111c3565b61060b81610b31565b60006106c06005610b81565b905090565b6007546001600160a01b03166324d7806c6106de6109b1565b6040516001600160e01b031960e084901b1681526001600160a01b039091166004820152602401602060405180830381865afa158015610722573d6000803e3d6000fd5b505050506040513d601f19601f8201168201806040525081019061074691906111a1565b6107625760405162461bcd60e51b8152600401610481906111c3565b6001600160a01b0382166000908152600160205260409020546107858282611208565b836001600160a01b03166318160ddd6040518163ffffffff1660e01b8152600401602060405180830381865afa1580156107c3573d6000803e3d6000fd5b505050506040513d601f19601f820116820180604052508101906107e7919061121b565b10156108355760405162461bcd60e51b815260206004820152601960248201527f47726561746572207468616e20746f74616c20737570706c79000000000000006044820152606401610481565b6105608383610b8b565b600061084c600583610c63565b92915050565b6060600061085e6109b1565b6001600160a01b0316336001600160a01b0316146108c957600036610884601482611234565b61088f928290611247565b8080601f0160208091040260200160405190810160405280939291908181526020018383808284376000920191909152506108d992505050565b6040805160008152602081019091525b90508267ffffffffffffffff8111156108f4576108f4611271565b60405190808252806020026020018201604052801561092757816020015b60608152602001906001900390816109125790505b50915060005b838110156109a9576109843086868481811061094b5761094b611287565b905060200281019061095d919061129d565b85604051602001610970939291906112eb565b604051602081830303815290604052610c88565b83828151811061099657610996611287565b602090810291909101015260010161092d565b505092915050565b60006106c0610cfe565b6001600160a01b038316600090815260016020526040902054828111610a195760405162461bcd60e51b81526020600482015260136024820152721d1bdad95b88189d5919d95d08195e18d95959606a1b6044820152606401610481565b60405163a9059cbb60e01b81526001600160a01b0386811660048301526024820185905285169063a9059cbb906044016020604051808303816000875af1158015610a68573d6000803e3d6000fd5b505050506040513d601f19601f82011682018060405250810190610a8c91906111a1565b50816001600160a01b0316846001600160a01b0316866001600160a01b03167feb1af03631473cb26a0692e7db7c4284c5cb931143431dde2ba575fdb1cdb0bf60405160405180910390a45050505050565b610ae9600582610c63565b610b22576040516001600160a01b038216907fc3e089fc6227e049d0e41c3d7a383d57efe69c1955c5752f7e5a9b5f1f11302090600090a25b610b2d600582610d73565b5050565b610b3c600582610c63565b15610b76576040516001600160a01b038216907f72977dad29432f655f11c2f0e72ef5124bb9ade7a512fb7a43a9f504df22342890600090a25b610b2d600582610d88565b600061084c825490565b6001600160a01b03821660009081526001602052604081208054839290610bb3908490611208565b90915550506040518181526001600160a01b038316907fe49f42d07d8046279c22af872fe6bc5678c4dfc38ace0f43b8e8d5a03d0e8f109060200160405180910390a26001600160a01b03821660009081526002602052604090205460ff16610b2d576001600160a01b038216600081815260026020526040808220805460ff19166001179055517f158412daecdc1456d01568828bcdb18464cc7f1ce0215ddbc3f3cfede9d1e63d9190a25050565b6001600160a01b038116600090815260018301602052604081205415155b9392505050565b6060600080846001600160a01b031684604051610ca59190611312565b600060405180830381855af49150503d8060008114610ce0576040519150601f19603f3d011682016040523d82523d6000602084013e610ce5565b606091505b5091509150610cf5858383610d9d565b95945050505050565b6000366014336001600160a01b037f000000000000000000000000000000000000000000000000000000000000000016148015610d3b5750808210155b15610d6b57600036610d4d8385611234565b610d58928290611247565b610d619161132e565b60601c9250505090565b339250505090565b6000610c81836001600160a01b038416610df9565b6000610c81836001600160a01b038416610e48565b606082610db257610dad82610f3b565b610c81565b8151158015610dc957506001600160a01b0384163b155b15610df257604051639996b31560e01b81526001600160a01b0385166004820152602401610481565b5092915050565b6000818152600183016020526040812054610e405750815460018181018455600084815260208082209093018490558454848252828601909352604090209190915561084c565b50600061084c565b60008181526001830160205260408120548015610f31576000610e6c600183611234565b8554909150600090610e8090600190611234565b9050808214610ee5576000866000018281548110610ea057610ea0611287565b9060005260206000200154905080876000018481548110610ec357610ec3611287565b6000918252602080832090910192909255918252600188019052604090208390555b8554869080610ef657610ef6611361565b60019003818190600052602060002001600090559055856001016000868152602001908152602001600020600090556001935050505061084c565b600091505061084c565b805115610f4b5780518082602001fd5b604051630a12f52160e11b815260040160405180910390fd5b600060208284031215610f7657600080fd5b81356001600160e01b031981168114610c8157600080fd5b60005b83811015610fa9578181015183820152602001610f91565b50506000910152565b60008151808452610fca816020860160208601610f8e565b601f01601f19169290920160200192915050565b602081526000610c816020830184610fb2565b80356001600160a01b038116811461100857600080fd5b919050565b60008060006060848603121561102257600080fd5b61102b84610ff1565b925061103960208501610ff1565b9150604084013590509250925092565b60006020828403121561105b57600080fd5b610c8182610ff1565b6000806040838503121561107757600080fd5b61108083610ff1565b946020939093013593505050565b600080602083850312156110a157600080fd5b823567ffffffffffffffff808211156110b957600080fd5b818501915085601f8301126110cd57600080fd5b8135818111156110dc57600080fd5b8660208260051b85010111156110f157600080fd5b60209290920196919550909350505050565b600060208083016020845280855180835260408601915060408160051b87010192506020870160005b8281101561115a57603f19888603018452611148858351610fb2565b9450928501929085019060010161112c565b5092979650505050505050565b600181811c9082168061117b57607f821691505b60208210810361119b57634e487b7160e01b600052602260045260246000fd5b50919050565b6000602082840312156111b357600080fd5b81518015158114610c8157600080fd5b6020808252601590820152744f6e6c792041646d696e2063616e2061636365737360581b604082015260600190565b634e487b7160e01b600052601160045260246000fd5b8082018082111561084c5761084c6111f2565b60006020828403121561122d57600080fd5b5051919050565b8181038181111561084c5761084c6111f2565b6000808585111561125757600080fd5b8386111561126457600080fd5b5050820193919092039150565b634e487b7160e01b600052604160045260246000fd5b634e487b7160e01b600052603260045260246000fd5b6000808335601e198436030181126112b457600080fd5b83018035915067ffffffffffffffff8211156112cf57600080fd5b6020019150368190038213156112e457600080fd5b9250929050565b828482376000838201600081528351611308818360208801610f8e565b0195945050505050565b60008251611324818460208701610f8e565b9190910192915050565b6bffffffffffffffffffffffff1981358181169160148510156109a95760149490940360031b84901b1690921692915050565b634e487b7160e01b600052603160045260246000fdfea26469706673582212200a0e468e7c66af7cc9fa47d730b3a202556d686128a728364052c00e5e91b7af64736f6c63430008170033",
  "linkReferences": {},
  "deployedLinkReferences": {}
}