{
  "_format": "hh-sol-artifact-1",
  "contractName": "RahatTreasury",
  "sourceName": "src/contracts/RahatTreasury.sol",
  "abi": [
    {
      "anonymous": false,
      "inputs": [
        {
          "indexed": true,
          "internalType": "uint256",
          "name": "treasuryId",
          "type": "uint256"
        },
        {
          "indexed": false,
          "internalType": "uint256",
          "name": "increasedamount",
          "type": "uint256"
        }
      ],
      "name": "BudgetIncreased",
      "type": "event"
    },
    {
      "anonymous": false,
      "inputs": [
        {
          "indexed": true,
          "internalType": "uint256",
          "name": "treasuryId",
          "type": "uint256"
        },
        {
          "indexed": false,
          "internalType": "uint256",
          "name": "amount",
          "type": "uint256"
        }
      ],
      "name": "BudgetRedeemed",
      "type": "event"
    },
    {
      "anonymous": false,
      "inputs": [
        {
          "indexed": true,
          "internalType": "string",
          "name": "year",
          "type": "string"
        },
        {
          "indexed": false,
          "internalType": "uint256",
          "name": "budget",
          "type": "uint256"
        },
        {
          "indexed": true,
          "internalType": "string",
          "name": "country",
          "type": "string"
        }
      ],
      "name": "TreasuryCreated",
      "type": "event"
    },
    {
      "inputs": [
        {
          "internalType": "uint256",
          "name": "_treasuryId",
          "type": "uint256"
        }
      ],
      "name": "checkBudget",
      "outputs": [
        {
          "components": [
            {
              "internalType": "string",
              "name": "year",
              "type": "string"
            },
            {
              "internalType": "uint256",
              "name": "budget",
              "type": "uint256"
            },
            {
              "internalType": "string",
              "name": "country",
              "type": "string"
            }
          ],
          "internalType": "struct IRahatTreasury.Treasury",
          "name": "treasuryDetails",
          "type": "tuple"
        }
      ],
      "stateMutability": "view",
      "type": "function"
    },
    {
      "inputs": [
        {
          "internalType": "string",
          "name": "_year",
          "type": "string"
        },
        {
          "internalType": "uint256",
          "name": "_budget",
          "type": "uint256"
        },
        {
          "internalType": "string",
          "name": "_country",
          "type": "string"
        }
      ],
      "name": "createTreasury",
      "outputs": [
        {
          "internalType": "uint256",
          "name": "treasuryId",
          "type": "uint256"
        }
      ],
      "stateMutability": "nonpayable",
      "type": "function"
    },
    {
      "inputs": [
        {
          "internalType": "uint256",
          "name": "_treasuryId",
          "type": "uint256"
        },
        {
          "internalType": "uint256",
          "name": "_amount",
          "type": "uint256"
        }
      ],
      "name": "increaseBudget",
      "outputs": [],
      "stateMutability": "nonpayable",
      "type": "function"
    },
    {
      "inputs": [
        {
          "internalType": "uint256",
          "name": "_treasuryId",
          "type": "uint256"
        },
        {
          "internalType": "uint256",
          "name": "_amount",
          "type": "uint256"
        }
      ],
      "name": "redeemToken",
      "outputs": [],
      "stateMutability": "nonpayable",
      "type": "function"
    },
    {
      "inputs": [
        {
          "internalType": "uint256",
          "name": "",
          "type": "uint256"
        }
      ],
      "name": "treasury",
      "outputs": [
        {
          "internalType": "string",
          "name": "year",
          "type": "string"
        },
        {
          "internalType": "uint256",
          "name": "budget",
          "type": "uint256"
        },
        {
          "internalType": "string",
          "name": "country",
          "type": "string"
        }
      ],
      "stateMutability": "view",
      "type": "function"
    },
    {
      "inputs": [],
      "name": "treasuryCount",
      "outputs": [
        {
          "internalType": "uint256",
          "name": "",
          "type": "uint256"
        }
      ],
      "stateMutability": "view",
      "type": "function"
    }
  ],
  "bytecode": "0x608060405234801561001057600080fd5b50610a0d806100206000396000f3fe608060405234801561001057600080fd5b50600436106100625760003560e01c806308f9c0c2146100675780634c5430a014610090578063b26590f3146100b2578063c0d10bd3146100c7578063c4001eae146100de578063ca551b02146100f1575b600080fd5b61007a6100753660046105f9565b610104565b6040516100879190610662565b60405180910390f35b6100a361009e3660046105f9565b610275565b604051610087939291906106ae565b6100c56100c03660046106e3565b6103a7565b005b6100d060015481565b604051908152602001610087565b6100d06100ec3660046107a8565b61046b565b6100c56100ff3660046106e3565b610543565b61012860405180606001604052806060815260200160008152602001606081525090565b6000828152602081905260409081902081516060810190925280548290829061015090610815565b80601f016020809104026020016040519081016040528092919081815260200182805461017c90610815565b80156101c95780601f1061019e576101008083540402835291602001916101c9565b820191906000526020600020905b8154815290600101906020018083116101ac57829003601f168201915b50505050508152602001600182015481526020016002820180546101ec90610815565b80601f016020809104026020016040519081016040528092919081815260200182805461021890610815565b80156102655780601f1061023a57610100808354040283529160200191610265565b820191906000526020600020905b81548152906001019060200180831161024857829003601f168201915b5050505050815250509050919050565b60006020819052908152604090208054819061029090610815565b80601f01602080910402602001604051908101604052809291908181526020018280546102bc90610815565b80156103095780601f106102de57610100808354040283529160200191610309565b820191906000526020600020905b8154815290600101906020018083116102ec57829003601f168201915b50505050509080600101549080600201805461032490610815565b80601f016020809104026020016040519081016040528092919081815260200182805461035090610815565b801561039d5780601f106103725761010080835404028352916020019161039d565b820191906000526020600020905b81548152906001019060200180831161038057829003601f168201915b5050505050905083565b60008281526020819052604081206002810180549192916103c790610815565b90501161041b5760405162461bcd60e51b815260206004820152601b60248201527f74726561737572793a627564676574206e6f742063726561746564000000000060448201526064015b60405180910390fd5b81816001015461042b9190610865565b600182015560405182815283907f5e846d4c47d20e1c7a8cf49b4eeb3de20e7c6f1438e393f47ff4c16f8401eb75906020015b60405180910390a2505050565b600060016000815461047c9061087e565b9182905550604080516060810182528681526020808201879052818301869052600084815290819052919091208151929350909181906104bc90826108e8565b5060208201516001820155604082015160028201906104db90826108e8565b50506040516104ec915083906109a8565b60405180910390208460405161050291906109a8565b604051908190038120858252907f26c5f494fc9ac5cd146cb4f8d998cc43e793c6ac29856997101d516d9b3f9f6f9060200160405180910390a39392505050565b600082815260208190526040812060028101805491929161056390610815565b9050116105b25760405162461bcd60e51b815260206004820152601b60248201527f74726561737572793a627564676574206e6f74206372656174656400000000006044820152606401610412565b8181600101546105c291906109c4565b600182015560405182815283907f081bcbca014f01e46288f8ac0f702a01ec043b0f2aa77b8b222501bbfef447779060200161045e565b60006020828403121561060b57600080fd5b5035919050565b60005b8381101561062d578181015183820152602001610615565b50506000910152565b6000815180845261064e816020860160208601610612565b601f01601f19169290920160200192915050565b60208152600082516060602084015261067e6080840182610636565b9050602084015160408401526040840151601f198483030160608501526106a58282610636565b95945050505050565b6060815260006106c16060830186610636565b84602084015282810360408401526106d98185610636565b9695505050505050565b600080604083850312156106f657600080fd5b50508035926020909101359150565b634e487b7160e01b600052604160045260246000fd5b600082601f83011261072c57600080fd5b813567ffffffffffffffff8082111561074757610747610705565b604051601f8301601f19908116603f0116810190828211818310171561076f5761076f610705565b8160405283815286602085880101111561078857600080fd5b836020870160208301376000602085830101528094505050505092915050565b6000806000606084860312156107bd57600080fd5b833567ffffffffffffffff808211156107d557600080fd5b6107e18783880161071b565b94506020860135935060408601359150808211156107fe57600080fd5b5061080b8682870161071b565b9150509250925092565b600181811c9082168061082957607f821691505b60208210810361084957634e487b7160e01b600052602260045260246000fd5b50919050565b634e487b7160e01b600052601160045260246000fd5b808201808211156108785761087861084f565b92915050565b6000600182016108905761089061084f565b5060010190565b601f8211156108e3576000816000526020600020601f850160051c810160208610156108c05750805b601f850160051c820191505b818110156108df578281556001016108cc565b5050505b505050565b815167ffffffffffffffff81111561090257610902610705565b610916816109108454610815565b84610897565b602080601f83116001811461094b57600084156109335750858301515b600019600386901b1c1916600185901b1785556108df565b600085815260208120601f198616915b8281101561097a5788860151825594840194600190910190840161095b565b50858210156109985787850151600019600388901b60f8161c191681555b5050505050600190811b01905550565b600082516109ba818460208701610612565b9190910192915050565b818103818111156108785761087861084f56fea2646970667358221220a207f9e5a09752a097feb7443d4bffaee3ae023d4a26a1b7fc453db497fa1c8f64736f6c63430008170033",
  "linkReferences": {},
  "deployedLinkReferences": {}
}