{
  "_format": "hh-sol-artifact-1",
  "contractName": "TriggerManager",
  "sourceName": "src/contracts/TriggerManager.sol",
  "abi": [
    {
      "inputs": [
        {
          "internalType": "uint256",
          "name": "_requiredTriggers",
          "type": "uint256"
        }
      ],
      "stateMutability": "nonpayable",
      "type": "constructor"
    },
    {
      "anonymous": false,
      "inputs": [
        {
          "indexed": true,
          "internalType": "bytes32",
          "name": "sourceId",
          "type": "bytes32"
        },
        {
          "indexed": false,
          "internalType": "address",
          "name": "triggerAddress",
          "type": "address"
        }
      ],
      "name": "TriggerInitialized",
      "type": "event"
    },
    {
      "anonymous": false,
      "inputs": [
        {
          "indexed": true,
          "internalType": "bytes32",
          "name": "sourceId",
          "type": "bytes32"
        },
        {
          "indexed": false,
          "internalType": "string",
          "name": "sourceName",
          "type": "string"
        },
        {
          "indexed": false,
          "internalType": "string",
          "name": "sourceDetails",
          "type": "string"
        },
        {
          "indexed": false,
          "internalType": "address",
          "name": "triggerAddress",
          "type": "address"
        }
      ],
      "name": "TriggerSourceUpdated",
      "type": "event"
    },
    {
      "inputs": [],
      "name": "getTriggerCount",
      "outputs": [
        {
          "internalType": "uint256",
          "name": "",
          "type": "uint256"
        }
      ],
      "stateMutability": "view",
      "type": "function"
    },
    {
      "inputs": [],
      "name": "hasTriggered",
      "outputs": [
        {
          "internalType": "bool",
          "name": "",
          "type": "bool"
        }
      ],
      "stateMutability": "view",
      "type": "function"
    },
    {
      "inputs": [
        {
          "internalType": "bytes32",
          "name": "sourceId",
          "type": "bytes32"
        }
      ],
      "name": "removeTriggerSource",
      "outputs": [],
      "stateMutability": "nonpayable",
      "type": "function"
    },
    {
      "inputs": [],
      "name": "requiredTriggers",
      "outputs": [
        {
          "internalType": "uint256",
          "name": "",
          "type": "uint256"
        }
      ],
      "stateMutability": "view",
      "type": "function"
    },
    {
      "inputs": [
        {
          "internalType": "uint256",
          "name": "_requiredTriggers",
          "type": "uint256"
        }
      ],
      "name": "setRequiredTriggers",
      "outputs": [],
      "stateMutability": "nonpayable",
      "type": "function"
    },
    {
      "inputs": [
        {
          "internalType": "bytes32",
          "name": "sourceId",
          "type": "bytes32"
        }
      ],
      "name": "trigger",
      "outputs": [],
      "stateMutability": "nonpayable",
      "type": "function"
    },
    {
      "inputs": [
        {
          "internalType": "bytes32",
          "name": "",
          "type": "bytes32"
        }
      ],
      "name": "triggerSources",
      "outputs": [
        {
          "internalType": "string",
          "name": "sourceName",
          "type": "string"
        },
        {
          "internalType": "string",
          "name": "sourceDetails",
          "type": "string"
        },
        {
          "internalType": "address",
          "name": "triggerAddress",
          "type": "address"
        }
      ],
      "stateMutability": "view",
      "type": "function"
    },
    {
      "inputs": [
        {
          "internalType": "uint256",
          "name": "",
          "type": "uint256"
        }
      ],
      "name": "triggers",
      "outputs": [
        {
          "internalType": "bytes32",
          "name": "sourceId",
          "type": "bytes32"
        },
        {
          "internalType": "address",
          "name": "triggerAddress",
          "type": "address"
        }
      ],
      "stateMutability": "view",
      "type": "function"
    },
    {
      "inputs": [
        {
          "internalType": "bytes32",
          "name": "sourceId",
          "type": "bytes32"
        },
        {
          "internalType": "string",
          "name": "sourceName",
          "type": "string"
        },
        {
          "internalType": "string",
          "name": "sourceDetails",
          "type": "string"
        },
        {
          "internalType": "address",
          "name": "triggerAddress",
          "type": "address"
        }
      ],
      "name": "updateTriggerSource",
      "outputs": [],
      "stateMutability": "nonpayable",
      "type": "function"
    }
  ],
  "bytecode": "0x608060405234801561001057600080fd5b50604051610ad3380380610ad383398101604081905261002f91610037565b600455610050565b60006020828403121561004957600080fd5b5051919050565b610a748061005f6000396000f3fe608060405234801561001057600080fd5b50600436106100935760003560e01c8063a78dd42e11610066578063a78dd42e146100fd578063ce6460581461012d578063d07d0fef14610140578063eb4b6fbf14610149578063f36807511461015c57600080fd5b8063451fd2cf146100985780634c097cb4146100ad5780637268d02a146100c0578063742cd89b146100eb575b600080fd5b6100ab6100a63660046106da565b600455565b005b6100ab6100bb3660046106da565b610172565b6100d36100ce3660046106da565b610287565b6040516100e293929190610739565b60405180910390f35b6003545b6040519081526020016100e2565b61011061010b3660046106da565b6103c2565b604080519283526001600160a01b039091166020830152016100e2565b6100ab61013b36600461081a565b6103f9565b6100ef60045481565b6100ab6101573660046106da565b6104c5565b60045460035460405191111581526020016100e2565b61017d60008261050d565b6101be5760405162461bcd60e51b815260206004820152600e60248201526d496e76616c696420736f7572636560901b604482015260640160405180910390fd5b6040805180820182528281523360208083018281526003805460018101825560009190915293517fc2575a0e9e593c00f959f8c92f12db2869c3395a3b0502d05e2516446f71f85b600290950294850155517fc2575a0e9e593c00f959f8c92f12db2869c3395a3b0502d05e2516446f71f85c90930180546001600160a01b0319166001600160a01b0390941693909317909255915191825282917fbaa941691c3e722e4079145bbaff3c7db7a113341e1444a8543b6c9589ccdd50910160405180910390a250565b6002602052600090815260409020805481906102a2906108a6565b80601f01602080910402602001604051908101604052809291908181526020018280546102ce906108a6565b801561031b5780601f106102f05761010080835404028352916020019161031b565b820191906000526020600020905b8154815290600101906020018083116102fe57829003601f168201915b505050505090806001018054610330906108a6565b80601f016020809104026020016040519081016040528092919081815260200182805461035c906108a6565b80156103a95780601f1061037e576101008083540402835291602001916103a9565b820191906000526020600020905b81548152906001019060200180831161038c57829003601f168201915b505050600290930154919250506001600160a01b031683565b600381815481106103d257600080fd5b6000918252602090912060029091020180546001909101549091506001600160a01b031682565b61040460008561052a565b506040805160608101825284815260208082018590526001600160a01b038416828401526000878152600290915291909120815181906104449082610931565b50602082015160018201906104599082610931565b5060409182015160029190910180546001600160a01b0319166001600160a01b039092169190911790555184907f1db83fc58c2f94e852e82fe09eff5f65dd62d90752f59738783f9c15ecaac1de906104b790869086908690610739565b60405180910390a250505050565b6104d0600082610536565b506000818152600260205260408120906104ea8282610684565b6104f8600183016000610684565b5060020180546001600160a01b031916905550565b600081815260018301602052604081205415155b90505b92915050565b60006105218383610542565b60006105218383610591565b600081815260018301602052604081205461058957508154600181810184556000848152602080822090930184905584548482528286019093526040902091909155610524565b506000610524565b6000818152600183016020526040812054801561067a5760006105b56001836109f1565b85549091506000906105c9906001906109f1565b905080821461062e5760008660000182815481106105e9576105e9610a12565b906000526020600020015490508087600001848154811061060c5761060c610a12565b6000918252602080832090910192909255918252600188019052604090208390555b855486908061063f5761063f610a28565b600190038181906000526020600020016000905590558560010160008681526020019081526020016000206000905560019350505050610524565b6000915050610524565b508054610690906108a6565b6000825580601f106106a0575050565b601f0160209004906000526020600020908101906106be91906106c1565b50565b5b808211156106d657600081556001016106c2565b5090565b6000602082840312156106ec57600080fd5b5035919050565b6000815180845260005b81811015610719576020818501810151868301820152016106fd565b506000602082860101526020601f19601f83011685010191505092915050565b60608152600061074c60608301866106f3565b828103602084015261075e81866106f3565b91505060018060a01b0383166040830152949350505050565b634e487b7160e01b600052604160045260246000fd5b600082601f83011261079e57600080fd5b813567ffffffffffffffff808211156107b9576107b9610777565b604051601f8301601f19908116603f011681019082821181831017156107e1576107e1610777565b816040528381528660208588010111156107fa57600080fd5b836020870160208301376000602085830101528094505050505092915050565b6000806000806080858703121561083057600080fd5b84359350602085013567ffffffffffffffff8082111561084f57600080fd5b61085b8883890161078d565b9450604087013591508082111561087157600080fd5b5061087e8782880161078d565b92505060608501356001600160a01b038116811461089b57600080fd5b939692955090935050565b600181811c908216806108ba57607f821691505b6020821081036108da57634e487b7160e01b600052602260045260246000fd5b50919050565b601f82111561092c576000816000526020600020601f850160051c810160208610156109095750805b601f850160051c820191505b8181101561092857828155600101610915565b5050505b505050565b815167ffffffffffffffff81111561094b5761094b610777565b61095f8161095984546108a6565b846108e0565b602080601f831160018114610994576000841561097c5750858301515b600019600386901b1c1916600185901b178555610928565b600085815260208120601f198616915b828110156109c3578886015182559484019460019091019084016109a4565b50858210156109e15787850151600019600388901b60f8161c191681555b5050505050600190811b01905550565b8181038181111561052457634e487b7160e01b600052601160045260246000fd5b634e487b7160e01b600052603260045260246000fd5b634e487b7160e01b600052603160045260246000fdfea264697066735822122050055c61e754210d7d8f7e18d6df8a58a42028b9e1f82afd757b673793ad8d4d64736f6c63430008170033",
  "linkReferences": {},
  "deployedLinkReferences": {}
}