{
  "_format": "hh-sol-artifact-1",
  "contractName": "AAProject",
  "sourceName": "src/contracts/AAProject.sol",
  "abi": [
    {
      "inputs": [
        {
          "internalType": "address",
          "name": "_address",
          "type": "address"
        }
      ],
      "name": "addBeneficiary",
      "outputs": [],
      "stateMutability": "nonpayable",
      "type": "function"
    },
    {
      "inputs": [
        {
          "internalType": "string",
          "name": "_name",
          "type": "string"
        },
        {
          "internalType": "address",
          "name": "_defaultToken",
          "type": "address"
        },
        {
          "internalType": "address",
          "name": "_forwarder",
          "type": "address"
        },
        {
          "internalType": "address",
          "name": "_triggerManager",
          "type": "address"
        }
      ],
      "stateMutability": "nonpayable",
      "type": "constructor"
    },
    {
      "inputs": [
        {
          "internalType": "address",
          "name": "target",
          "type": "address"
        }
      ],
      "name": "AddressEmptyCode",
      "type": "error"
    },
    {
      "inputs": [
        {
          "internalType": "address",
          "name": "_beneficiary",
          "type": "address"
        },
        {
          "internalType": "uint256",
          "name": "_tokenAssigned",
          "type": "uint256"
        }
      ],
      "name": "assignClaims",
      "outputs": [],
      "stateMutability": "nonpayable",
      "type": "function"
    },
    {
      "inputs": [
        {
          "internalType": "address",
          "name": "_address",
          "type": "address"
        },
        {
          "internalType": "uint256",
          "name": "_amount",
          "type": "uint256"
        }
      ],
      "name": "assignTokenToBeneficiary",
      "outputs": [],
      "stateMutability": "nonpayable",
      "type": "function"
    },
    {
      "inputs": [],
      "name": "FailedCall",
      "type": "error"
    },
    {
      "anonymous": false,
      "inputs": [
        {
          "indexed": true,
          "internalType": "address",
          "name": "beneficiary",
          "type": "address"
        },
        {
          "indexed": true,
          "internalType": "uint256",
          "name": "amount",
          "type": "uint256"
        }
      ],
      "name": "BenTokensAssigned",
      "type": "event"
    },
    {
      "anonymous": false,
      "inputs": [
        {
          "indexed": true,
          "internalType": "address",
          "name": "",
          "type": "address"
        }
      ],
      "name": "BeneficiaryAdded",
      "type": "event"
    },
    {
      "anonymous": false,
      "inputs": [
        {
          "indexed": true,
          "internalType": "address",
          "name": "",
          "type": "address"
        }
      ],
      "name": "BeneficiaryRemoved",
      "type": "event"
    },
    {
      "anonymous": false,
      "inputs": [
        {
          "indexed": true,
          "internalType": "address",
          "name": "beneficiary",
          "type": "address"
        },
        {
          "indexed": true,
          "internalType": "address",
          "name": "token",
          "type": "address"
        },
        {
          "indexed": true,
          "internalType": "address",
          "name": "assigner",
          "type": "address"
        }
      ],
      "name": "ClaimAssigned",
      "type": "event"
    },
    {
      "inputs": [
        {
          "internalType": "address",
          "name": "_tokenAddress",
          "type": "address"
        },
        {
          "internalType": "uint256",
          "name": "_amount",
          "type": "uint256"
        }
      ],
      "name": "increaseTokenBudget",
      "outputs": [],
      "stateMutability": "nonpayable",
      "type": "function"
    },
    {
      "inputs": [
        {
          "internalType": "bytes[]",
          "name": "data",
          "type": "bytes[]"
        }
      ],
      "name": "multicall",
      "outputs": [
        {
          "internalType": "bytes[]",
          "name": "results",
          "type": "bytes[]"
        }
      ],
      "stateMutability": "nonpayable",
      "type": "function"
    },
    {
      "inputs": [
        {
          "internalType": "address",
          "name": "_address",
          "type": "address"
        }
      ],
      "name": "removeBeneficiary",
      "outputs": [],
      "stateMutability": "nonpayable",
      "type": "function"
    },
    {
      "anonymous": false,
      "inputs": [
        {
          "indexed": true,
          "internalType": "address",
          "name": "tokenAddress",
          "type": "address"
        },
        {
          "indexed": false,
          "internalType": "uint256",
          "name": "amount",
          "type": "uint256"
        }
      ],
      "name": "TokenBudgetDecrease",
      "type": "event"
    },
    {
      "anonymous": false,
      "inputs": [
        {
          "indexed": true,
          "internalType": "address",
          "name": "tokenAddress",
          "type": "address"
        },
        {
          "indexed": false,
          "internalType": "uint256",
          "name": "amount",
          "type": "uint256"
        }
      ],
      "name": "TokenBudgetIncrease",
      "type": "event"
    },
    {
      "anonymous": false,
      "inputs": [
        {
          "indexed": true,
          "internalType": "address",
          "name": "token",
          "type": "address"
        },
        {
          "indexed": true,
          "internalType": "address",
          "name": "from",
          "type": "address"
        },
        {
          "indexed": false,
          "internalType": "uint256",
          "name": "amount",
          "type": "uint256"
        }
      ],
      "name": "TokenReceived",
      "type": "event"
    },
    {
      "anonymous": false,
      "inputs": [
        {
          "indexed": true,
          "internalType": "address",
          "name": "tokenAddress",
          "type": "address"
        }
      ],
      "name": "TokenRegistered",
      "type": "event"
    },
    {
      "anonymous": false,
      "inputs": [
        {
          "indexed": true,
          "internalType": "address",
          "name": "token",
          "type": "address"
        },
        {
          "indexed": true,
          "internalType": "address",
          "name": "to",
          "type": "address"
        },
        {
          "indexed": false,
          "internalType": "uint256",
          "name": "amount",
          "type": "uint256"
        }
      ],
      "name": "TokenTransfer",
      "type": "event"
    },
    {
      "anonymous": false,
      "inputs": [
        {
          "indexed": true,
          "internalType": "address",
          "name": "vendorAddress",
          "type": "address"
        },
        {
          "indexed": false,
          "internalType": "bool",
          "name": "status",
          "type": "bool"
        }
      ],
      "name": "VendorUpdated",
      "type": "event"
    },
    {
      "inputs": [],
      "name": "beneficiaryCount",
      "outputs": [
        {
          "internalType": "uint256",
          "name": "",
          "type": "uint256"
        }
      ],
      "stateMutability": "view",
      "type": "function"
    },
    {
      "inputs": [
        {
          "internalType": "address",
          "name": "",
          "type": "address"
        }
      ],
      "name": "benTokens",
      "outputs": [
        {
          "internalType": "uint256",
          "name": "",
          "type": "uint256"
        }
      ],
      "stateMutability": "view",
      "type": "function"
    },
    {
      "inputs": [
        {
          "internalType": "address",
          "name": "_address",
          "type": "address"
        }
      ],
      "name": "checkVendorStatus",
      "outputs": [
        {
          "internalType": "bool",
          "name": "_vendorStatus",
          "type": "bool"
        }
      ],
      "stateMutability": "view",
      "type": "function"
    },
    {
      "inputs": [],
      "name": "defaultToken",
      "outputs": [
        {
          "internalType": "address",
          "name": "",
          "type": "address"
        }
      ],
      "stateMutability": "view",
      "type": "function"
    },
    {
      "inputs": [],
      "name": "IID_RAHAT_PROJECT",
      "outputs": [
        {
          "internalType": "bytes4",
          "name": "",
          "type": "bytes4"
        }
      ],
      "stateMutability": "view",
      "type": "function"
    },
    {
      "inputs": [
        {
          "internalType": "address",
          "name": "_address",
          "type": "address"
        }
      ],
      "name": "isBeneficiary",
      "outputs": [
        {
          "internalType": "bool",
          "name": "",
          "type": "bool"
        }
      ],
      "stateMutability": "view",
      "type": "function"
    },
    {
      "inputs": [
        {
          "internalType": "address",
          "name": "forwarder",
          "type": "address"
        }
      ],
      "name": "isTrustedForwarder",
      "outputs": [
        {
          "internalType": "bool",
          "name": "",
          "type": "bool"
        }
      ],
      "stateMutability": "view",
      "type": "function"
    },
    {
      "inputs": [],
      "name": "name",
      "outputs": [
        {
          "internalType": "string",
          "name": "",
          "type": "string"
        }
      ],
      "stateMutability": "view",
      "type": "function"
    },
    {
      "inputs": [
        {
          "internalType": "address",
          "name": "",
          "type": "address"
        }
      ],
      "name": "registeredTokens",
      "outputs": [
        {
          "internalType": "bool",
          "name": "",
          "type": "bool"
        }
      ],
      "stateMutability": "view",
      "type": "function"
    },
    {
      "inputs": [
        {
          "internalType": "bytes4",
          "name": "interfaceId",
          "type": "bytes4"
        }
      ],
      "name": "supportsInterface",
      "outputs": [
        {
          "internalType": "bool",
          "name": "",
          "type": "bool"
        }
      ],
      "stateMutability": "view",
      "type": "function"
    },
    {
      "inputs": [
        {
          "internalType": "address",
          "name": "_tokenAddress",
          "type": "address"
        }
      ],
      "name": "tokenBudget",
      "outputs": [
        {
          "internalType": "uint256",
          "name": "",
          "type": "uint256"
        }
      ],
      "stateMutability": "view",
      "type": "function"
    },
    {
      "inputs": [],
      "name": "totalClaimsAssigned",
      "outputs": [
        {
          "internalType": "uint256",
          "name": "_totalClaims",
          "type": "uint256"
        }
      ],
      "stateMutability": "view",
      "type": "function"
    },
    {
      "inputs": [],
      "name": "TriggerManager",
      "outputs": [
        {
          "internalType": "contract ITriggerManager",
          "name": "",
          "type": "address"
        }
      ],
      "stateMutability": "view",
      "type": "function"
    },
    {
      "inputs": [],
      "name": "trustedForwarder",
      "outputs": [
        {
          "internalType": "address",
          "name": "",
          "type": "address"
        }
      ],
      "stateMutability": "view",
      "type": "function"
    }
  ],
  "bytecode": "60a060405234801562000010575f80fd5b50604051620024f7380380620024f78339818101604052810190620000369190620002f0565b81848060049081620000499190620005b5565b50508073ffffffffffffffffffffffffffffffffffffffff1660808173ffffffffffffffffffffffffffffffffffffffff1681525050508260085f6101000a81548173ffffffffffffffffffffffffffffffffffffffff021916908373ffffffffffffffffffffffffffffffffffffffff1602179055508060075f6101000a81548173ffffffffffffffffffffffffffffffffffffffff021916908373ffffffffffffffffffffffffffffffffffffffff1602179055505050505062000699565b5f604051905090565b5f80fd5b5f80fd5b5f80fd5b5f80fd5b5f601f19601f8301169050919050565b7f4e487b71000000000000000000000000000000000000000000000000000000005f52604160045260245ffd5b6200016b8262000123565b810181811067ffffffffffffffff821117156200018d576200018c62000133565b5b80604052505050565b5f620001a16200010a565b9050620001af828262000160565b919050565b5f67ffffffffffffffff821115620001d157620001d062000133565b5b620001dc8262000123565b9050602081019050919050565b5f5b8381101562000208578082015181840152602081019050620001eb565b5f8484015250505050565b5f620002296200022384620001b4565b62000196565b9050828152602081018484840111156200024857620002476200011f565b5b62000255848285620001e9565b509392505050565b5f82601f8301126200027457620002736200011b565b5b81516200028684826020860162000213565b91505092915050565b5f73ffffffffffffffffffffffffffffffffffffffff82169050919050565b5f620002ba826200028f565b9050919050565b620002cc81620002ae565b8114620002d7575f80fd5b50565b5f81519050620002ea81620002c1565b92915050565b5f805f80608085870312156200030b576200030a62000113565b5b5f85015167ffffffffffffffff8111156200032b576200032a62000117565b5b62000339878288016200025d565b94505060206200034c87828801620002da565b93505060406200035f87828801620002da565b92505060606200037287828801620002da565b91505092959194509250565b5f81519050919050565b7f4e487b71000000000000000000000000000000000000000000000000000000005f52602260045260245ffd5b5f6002820490506001821680620003cd57607f821691505b602082108103620003e357620003e262000388565b5b50919050565b5f819050815f5260205f209050919050565b5f6020601f8301049050919050565b5f82821b905092915050565b5f60088302620004477fffffffffffffffffffffffffffffffffffffffffffffffffffffffffffffffff826200040a565b6200045386836200040a565b95508019841693508086168417925050509392505050565b5f819050919050565b5f819050919050565b5f6200049d6200049762000491846200046b565b62000474565b6200046b565b9050919050565b5f819050919050565b620004b8836200047d565b620004d0620004c782620004a4565b84845462000416565b825550505050565b5f90565b620004e6620004d8565b620004f3818484620004ad565b505050565b5b818110156200051a576200050e5f82620004dc565b600181019050620004f9565b5050565b601f82111562000569576200053381620003e9565b6200053e84620003fb565b810160208510156200054e578190505b620005666200055d85620003fb565b830182620004f8565b50505b505050565b5f82821c905092915050565b5f6200058b5f19846008026200056e565b1980831691505092915050565b5f620005a583836200057a565b9150826002028217905092915050565b620005c0826200037e565b67ffffffffffffffff811115620005dc57620005db62000133565b5b620005e88254620003b5565b620005f58282856200051e565b5f60209050601f8311600181146200062b575f841562000616578287015190505b62000622858262000598565b86555062000691565b601f1984166200063b86620003e9565b5f5b8281101562000664578489015182556001820191506020850194506020810190506200063d565b8683101562000684578489015162000680601f8916826200057a565b8355505b6001600288020188555050505b505050505050565b608051611e45620006b25f395f6106fd0152611e455ff3fe608060405234801561000f575f80fd5b506004361061012a575f3560e01c80636f4efa36116100ab57806397b53ca31161006f57806397b53ca3146103445780639d19b22614610360578063aa12214f14610390578063ac9650d8146103ac578063eb681e62146103dc5761012a565b80636f4efa361461028a578063734b2a7c146102ba57806374c13fda146102d85780637da0a877146102f65780638c0bd916146103145761012a565b8063501773ba116100f2578063501773ba146101d6578063572b6c05146102065780635926651d1461023657806359633a1c1461025257806364c20dc11461026e5761012a565b806301ffc9a71461012e57806306fdde031461015e5780631fe9497c1461017c5780634fc3171b1461019a5780634fe21571146101b8575b5f80fd5b61014860048036038101906101439190611454565b61040c565b6040516101559190611499565b60405180910390f35b610166610475565b604051610173919061153c565b60405180910390f35b610184610501565b60405161019191906115d6565b60405180910390f35b6101a2610526565b6040516101af9190611607565b60405180910390f35b6101c06105ac565b6040516101cd919061162f565b60405180910390f35b6101f060048036038101906101eb9190611683565b6105d0565b6040516101fd9190611607565b60405180910390f35b610220600480360381019061021b9190611683565b6105e5565b60405161022d9190611499565b60405180910390f35b610250600480360381019061024b9190611683565b610623565b005b61026c60048036038101906102679190611683565b61062f565b005b610288600480360381019061028391906116d8565b61063b565b005b6102a4600480360381019061029f9190611683565b610673565b6040516102b19190611499565b60405180910390f35b6102c26106c5565b6040516102cf9190611607565b60405180910390f35b6102e06106d5565b6040516102ed9190611725565b60405180910390f35b6102fe6106fa565b60405161030b9190611725565b60405180910390f35b61032e60048036038101906103299190611683565b610721565b60405161033b9190611499565b60405180910390f35b61035e600480360381019061035991906116d8565b61073e565b005b61037a60048036038101906103759190611683565b610813565b6040516103879190611499565b60405180910390f35b6103aa60048036038101906103a591906116d8565b61082f565b005b6103c660048036038101906103c1919061179f565b61090a565b6040516103d391906118f7565b60405180910390f35b6103f660048036038101906103f19190611683565b610ae8565b6040516104039190611607565b60405180910390f35b5f7f97f063a2000000000000000000000000000000000000000000000000000000007bffffffffffffffffffffffffffffffffffffffffffffffffffffffff1916827bffffffffffffffffffffffffffffffffffffffffffffffffffffffff1916149050919050565b6004805461048290611944565b80601f01602080910402602001604051908101604052809291908181526020018280546104ae90611944565b80156104f95780601f106104d0576101008083540402835291602001916104f9565b820191905f5260205f20905b8154815290600101906020018083116104dc57829003601f168201915b505050505081565b60075f9054906101000a900473ffffffffffffffffffffffffffffffffffffffff1681565b5f805f90505b6105366005610b2e565b8110156105a857600c5f610554836005610b4190919063ffffffff16565b73ffffffffffffffffffffffffffffffffffffffff1673ffffffffffffffffffffffffffffffffffffffff1681526020019081526020015f20548261059991906119a1565b9150808060010191505061052c565b5090565b7f97f063a20000000000000000000000000000000000000000000000000000000081565b600c602052805f5260405f205f915090505481565b5f6105ee6106fa565b73ffffffffffffffffffffffffffffffffffffffff168273ffffffffffffffffffffffffffffffffffffffff16149050919050565b61062c81610b58565b50565b61063881610bcc565b50565b61066f8260085f9054906101000a900473ffffffffffffffffffffffffffffffffffffffff168361066a610c41565b610c4f565b5050565b5f60035f8373ffffffffffffffffffffffffffffffffffffffff1673ffffffffffffffffffffffffffffffffffffffff1681526020019081526020015f205f9054906101000a900460ff169050919050565b5f6106d06005610b2e565b905090565b60085f9054906101000a900473ffffffffffffffffffffffffffffffffffffffff1681565b5f7f0000000000000000000000000000000000000000000000000000000000000000905090565b600b602052805f5260405f205f915054906101000a900460ff1681565b5f61074883610ae8565b9050818161075691906119a1565b8373ffffffffffffffffffffffffffffffffffffffff166318160ddd6040518163ffffffff1660e01b8152600401602060405180830381865afa15801561079f573d5f803e3d5ffd5b505050506040513d601f19601f820116820180604052508101906107c391906119e8565b1015610804576040517f08c379a00000000000000000000000000000000000000000000000000000000081526004016107fb90611a5d565b60405180910390fd5b61080e8383610e4c565b505050565b5f610828826005610fd890919063ffffffff16565b9050919050565b61083882610b58565b80600c5f8473ffffffffffffffffffffffffffffffffffffffff1673ffffffffffffffffffffffffffffffffffffffff1681526020019081526020015f205461088191906119a1565b600c5f8473ffffffffffffffffffffffffffffffffffffffff1673ffffffffffffffffffffffffffffffffffffffff1681526020019081526020015f2081905550808273ffffffffffffffffffffffffffffffffffffffff167fef5648f5b1a6a7e4e9314d032b440a9f2c124b6e584c8fb4eb8d057f11b0069560405160405180910390a35050565b60605f610915610c41565b73ffffffffffffffffffffffffffffffffffffffff163373ffffffffffffffffffffffffffffffffffffffff16146109b5575f36610951611005565b5f36905061095f9190611a7b565b90809261096e93929190611ab6565b8080601f0160208091040260200160405190810160405280939291908181526020018383808284375f81840152601f19601f82011690508083019250505050505050610a03565b5f67ffffffffffffffff8111156109cf576109ce611af0565b5b6040519080825280601f01601f191660200182016040528015610a015781602001600182028036833780820191505090505b505b90508383905067ffffffffffffffff811115610a2257610a21611af0565b5b604051908082528060200260200182016040528015610a5557816020015b6060815260200190600190039081610a405790505b5091505f5b84849050811015610ae057610ab530868684818110610a7c57610a7b611b1d565b5b9050602002810190610a8e9190611b56565b85604051602001610aa193929190611c24565b604051602081830303815290604052611013565b838281518110610ac857610ac7611b1d565b5b60200260200101819052508080600101915050610a5a565b505092915050565b5f60015f8373ffffffffffffffffffffffffffffffffffffffff1673ffffffffffffffffffffffffffffffffffffffff1681526020019081526020015f20549050919050565b5f610b3a825f01611093565b9050919050565b5f610b4e835f01836110a2565b5f1c905092915050565b610b6c816005610fd890919063ffffffff16565b610bb4578073ffffffffffffffffffffffffffffffffffffffff167fc3e089fc6227e049d0e41c3d7a383d57efe69c1955c5752f7e5a9b5f1f11302060405160405180910390a25b610bc88160056110c990919063ffffffff16565b5050565b610be0816005610fd890919063ffffffff16565b15610c29578073ffffffffffffffffffffffffffffffffffffffff167f72977dad29432f655f11c2f0e72ef5124bb9ade7a512fb7a43a9f504df22342860405160405180910390a25b610c3d8160056110f690919063ffffffff16565b5050565b5f610c4a611123565b905090565b81600c5f8673ffffffffffffffffffffffffffffffffffffffff1673ffffffffffffffffffffffffffffffffffffffff1681526020019081526020015f20541015610ccf576040517f08c379a0000000000000000000000000000000000000000000000000000000008152600401610cc690611c93565b60405180910390fd5b8273ffffffffffffffffffffffffffffffffffffffff1663a9059cbb85846040518363ffffffff1660e01b8152600401610d0a929190611cb1565b6020604051808303815f875af1158015610d26573d5f803e3d5ffd5b505050506040513d601f19601f82011682018060405250810190610d4a9190611d02565b5081600c5f8673ffffffffffffffffffffffffffffffffffffffff1673ffffffffffffffffffffffffffffffffffffffff1681526020019081526020015f2054610d949190611a7b565b600c5f8673ffffffffffffffffffffffffffffffffffffffff1673ffffffffffffffffffffffffffffffffffffffff1681526020019081526020015f20819055508073ffffffffffffffffffffffffffffffffffffffff168373ffffffffffffffffffffffffffffffffffffffff168573ffffffffffffffffffffffffffffffffffffffff167feb1af03631473cb26a0692e7db7c4284c5cb931143431dde2ba575fdb1cdb0bf60405160405180910390a450505050565b8060015f8473ffffffffffffffffffffffffffffffffffffffff1673ffffffffffffffffffffffffffffffffffffffff1681526020019081526020015f205f828254610e9891906119a1565b925050819055508173ffffffffffffffffffffffffffffffffffffffff167fe49f42d07d8046279c22af872fe6bc5678c4dfc38ace0f43b8e8d5a03d0e8f1082604051610ee59190611607565b60405180910390a260025f8373ffffffffffffffffffffffffffffffffffffffff1673ffffffffffffffffffffffffffffffffffffffff1681526020019081526020015f205f9054906101000a900460ff16610fd457600160025f8473ffffffffffffffffffffffffffffffffffffffff1673ffffffffffffffffffffffffffffffffffffffff1681526020019081526020015f205f6101000a81548160ff0219169083151502179055508173ffffffffffffffffffffffffffffffffffffffff167f158412daecdc1456d01568828bcdb18464cc7f1ce0215ddbc3f3cfede9d1e63d60405160405180910390a25b5050565b5f610ffd835f018373ffffffffffffffffffffffffffffffffffffffff165f1b611194565b905092915050565b5f61100e6111b4565b905090565b60605f808473ffffffffffffffffffffffffffffffffffffffff168460405161103c9190611d2d565b5f60405180830381855af49150503d805f8114611074576040519150601f19603f3d011682016040523d82523d5f602084013e611079565b606091505b50915091506110898583836111bc565b9250505092915050565b5f815f01805490509050919050565b5f825f0182815481106110b8576110b7611b1d565b5b905f5260205f200154905092915050565b5f6110ee835f018373ffffffffffffffffffffffffffffffffffffffff165f1b611249565b905092915050565b5f61111b835f018373ffffffffffffffffffffffffffffffffffffffff165f1b6112b0565b905092915050565b5f805f36905090505f611134611005565b905061113f336105e5565b801561114b5750808210155b15611184575f36828461115e9190611a7b565b90809261116d93929190611ab6565b906111789190611d84565b60601c92505050611191565b61118c6113ac565b925050505b90565b5f80836001015f8481526020019081526020015f20541415905092915050565b5f6014905090565b6060826111d1576111cc826113b3565b611241565b5f82511480156111f757505f8473ffffffffffffffffffffffffffffffffffffffff163b145b1561123957836040517f9996b3150000000000000000000000000000000000000000000000000000000081526004016112309190611725565b60405180910390fd5b819050611242565b5b9392505050565b5f6112548383611194565b6112a657825f0182908060018154018082558091505060019003905f5260205f20015f9091909190915055825f0180549050836001015f8481526020019081526020015f2081905550600190506112aa565b5f90505b92915050565b5f80836001015f8481526020019081526020015f205490505f81146113a1575f6001826112dd9190611a7b565b90505f6001865f01805490506112f39190611a7b565b9050808214611359575f865f01828154811061131257611311611b1d565b5b905f5260205f200154905080875f01848154811061133357611332611b1d565b5b905f5260205f20018190555083876001015f8381526020019081526020015f2081905550505b855f0180548061136c5761136b611de2565b5b600190038181905f5260205f20015f90559055856001015f8681526020019081526020015f205f9055600193505050506113a6565b5f9150505b92915050565b5f33905090565b5f815111156113c55780518082602001fd5b6040517fd6bda27500000000000000000000000000000000000000000000000000000000815260040160405180910390fd5b5f80fd5b5f80fd5b5f7fffffffff0000000000000000000000000000000000000000000000000000000082169050919050565b611433816113ff565b811461143d575f80fd5b50565b5f8135905061144e8161142a565b92915050565b5f60208284031215611469576114686113f7565b5b5f61147684828501611440565b91505092915050565b5f8115159050919050565b6114938161147f565b82525050565b5f6020820190506114ac5f83018461148a565b92915050565b5f81519050919050565b5f82825260208201905092915050565b5f5b838110156114e95780820151818401526020810190506114ce565b5f8484015250505050565b5f601f19601f8301169050919050565b5f61150e826114b2565b61151881856114bc565b93506115288185602086016114cc565b611531816114f4565b840191505092915050565b5f6020820190508181035f8301526115548184611504565b905092915050565b5f73ffffffffffffffffffffffffffffffffffffffff82169050919050565b5f819050919050565b5f61159e6115996115948461155c565b61157b565b61155c565b9050919050565b5f6115af82611584565b9050919050565b5f6115c0826115a5565b9050919050565b6115d0816115b6565b82525050565b5f6020820190506115e95f8301846115c7565b92915050565b5f819050919050565b611601816115ef565b82525050565b5f60208201905061161a5f8301846115f8565b92915050565b611629816113ff565b82525050565b5f6020820190506116425f830184611620565b92915050565b5f6116528261155c565b9050919050565b61166281611648565b811461166c575f80fd5b50565b5f8135905061167d81611659565b92915050565b5f60208284031215611698576116976113f7565b5b5f6116a58482850161166f565b91505092915050565b6116b7816115ef565b81146116c1575f80fd5b50565b5f813590506116d2816116ae565b92915050565b5f80604083850312156116ee576116ed6113f7565b5b5f6116fb8582860161166f565b925050602061170c858286016116c4565b9150509250929050565b61171f81611648565b82525050565b5f6020820190506117385f830184611716565b92915050565b5f80fd5b5f80fd5b5f80fd5b5f8083601f84011261175f5761175e61173e565b5b8235905067ffffffffffffffff81111561177c5761177b611742565b5b60208301915083602082028301111561179857611797611746565b5b9250929050565b5f80602083850312156117b5576117b46113f7565b5b5f83013567ffffffffffffffff8111156117d2576117d16113fb565b5b6117de8582860161174a565b92509250509250929050565b5f81519050919050565b5f82825260208201905092915050565b5f819050602082019050919050565b5f81519050919050565b5f82825260208201905092915050565b5f61183782611813565b611841818561181d565b93506118518185602086016114cc565b61185a816114f4565b840191505092915050565b5f611870838361182d565b905092915050565b5f602082019050919050565b5f61188e826117ea565b61189881856117f4565b9350836020820285016118aa85611804565b805f5b858110156118e557848403895281516118c68582611865565b94506118d183611878565b925060208a019950506001810190506118ad565b50829750879550505050505092915050565b5f6020820190508181035f83015261190f8184611884565b905092915050565b7f4e487b71000000000000000000000000000000000000000000000000000000005f52602260045260245ffd5b5f600282049050600182168061195b57607f821691505b60208210810361196e5761196d611917565b5b50919050565b7f4e487b71000000000000000000000000000000000000000000000000000000005f52601160045260245ffd5b5f6119ab826115ef565b91506119b6836115ef565b92508282019050808211156119ce576119cd611974565b5b92915050565b5f815190506119e2816116ae565b92915050565b5f602082840312156119fd576119fc6113f7565b5b5f611a0a848285016119d4565b91505092915050565b7f47726561746572207468616e20746f74616c20737570706c79000000000000005f82015250565b5f611a476019836114bc565b9150611a5282611a13565b602082019050919050565b5f6020820190508181035f830152611a7481611a3b565b9050919050565b5f611a85826115ef565b9150611a90836115ef565b9250828203905081811115611aa857611aa7611974565b5b92915050565b5f80fd5b5f80fd5b5f8085851115611ac957611ac8611aae565b5b83861115611ada57611ad9611ab2565b5b6001850283019150848603905094509492505050565b7f4e487b71000000000000000000000000000000000000000000000000000000005f52604160045260245ffd5b7f4e487b71000000000000000000000000000000000000000000000000000000005f52603260045260245ffd5b5f80fd5b5f80fd5b5f80fd5b5f8083356001602003843603038112611b7257611b71611b4a565b5b80840192508235915067ffffffffffffffff821115611b9457611b93611b4e565b5b602083019250600182023603831315611bb057611baf611b52565b5b509250929050565b5f81905092915050565b828183375f83830152505050565b5f611bdb8385611bb8565b9350611be8838584611bc2565b82840190509392505050565b5f611bfe82611813565b611c088185611bb8565b9350611c188185602086016114cc565b80840191505092915050565b5f611c30828587611bd0565b9150611c3c8284611bf4565b9150819050949350505050565b7f6e6f7420656e6f7567682062616c616e636500000000000000000000000000005f82015250565b5f611c7d6012836114bc565b9150611c8882611c49565b602082019050919050565b5f6020820190508181035f830152611caa81611c71565b9050919050565b5f604082019050611cc45f830185611716565b611cd160208301846115f8565b9392505050565b611ce18161147f565b8114611ceb575f80fd5b50565b5f81519050611cfc81611cd8565b92915050565b5f60208284031215611d1757611d166113f7565b5b5f611d2484828501611cee565b91505092915050565b5f611d388284611bf4565b915081905092915050565b5f82905092915050565b5f7fffffffffffffffffffffffffffffffffffffffff00000000000000000000000082169050919050565b5f82821b905092915050565b5f611d8f8383611d43565b82611d9a8135611d4d565b92506014821015611dda57611dd57fffffffffffffffffffffffffffffffffffffffff00000000000000000000000083601403600802611d78565b831692505b505092915050565b7f4e487b71000000000000000000000000000000000000000000000000000000005f52603160045260245ffdfea2646970667358221220cce2e5a46ac3fe1657f1d24ba593d21253a98068dfc565730ffc2c78c922244964736f6c63430008170033",
  "deployedBytecode": "0x608060405234801561001057600080fd5b506004361061012c5760003560e01c80636f4efa36116100ad57806397b53ca31161007157806397b53ca3146103125780639d19b22614610325578063aa12214f14610338578063ac9650d81461034b578063eb681e621461036b57600080fd5b80636f4efa3614610282578063734b2a7c146102ae57806374c13fda146102b65780637da0a877146102c95780638c0bd916146102ef57600080fd5b8063501773ba116100f4578063501773ba146101e7578063572b6c05146102075780635926651d1461024757806359633a1c1461025c57806364c20dc11461026f57600080fd5b806301ffc9a71461013157806306fdde031461016a5780631fe9497c1461017f5780634fc3171b146101aa5780634fe21571146101c0575b600080fd5b61015561013f366004610d9c565b6001600160e01b031916634bf831d160e11b1490565b60405190151581526020015b60405180910390f35b610172610394565b6040516101619190610e16565b600754610192906001600160a01b031681565b6040516001600160a01b039091168152602001610161565b6101b2610422565b604051908152602001610161565b6101ce634bf831d160e11b81565b6040516001600160e01b03199091168152602001610161565b6101b26101f5366004610e45565b600c6020526000908152604090205481565b610155610215366004610e45565b7f00000000000000000000000000000000000000000000000000000000000000006001600160a01b0390811691161490565b61025a610255366004610e45565b610478565b005b61025a61026a366004610e45565b610484565b61025a61027d366004610e60565b61048d565b610155610290366004610e45565b6001600160a01b031660009081526003602052604090205460ff1690565b6101b26104b1565b600854610192906001600160a01b031681565b7f0000000000000000000000000000000000000000000000000000000000000000610192565b6101556102fd366004610e45565b600b6020526000908152604090205460ff1681565b61025a610320366004610e60565b6104c2565b610155610333366004610e45565b6105a9565b61025a610346366004610e60565b6105bc565b61035e610359366004610e8a565b610631565b6040516101619190610eff565b6101b2610379366004610e45565b6001600160a01b031660009081526001602052604090205490565b600480546103a190610f63565b80601f01602080910402602001604051908101604052809291908181526020018280546103cd90610f63565b801561041a5780601f106103ef5761010080835404028352916020019161041a565b820191906000526020600020905b8154815290600101906020018083116103fd57829003601f168201915b505050505081565b6000805b6104306005610790565b81101561047457600c600061044660058461079a565b6001600160a01b0316815260208101919091526040016000205461046a9083610fb3565b9150600101610426565b5090565b610481816107ad565b50565b610481816107fc565b6008546104ad9083906001600160a01b0316836104a861084c565b610856565b5050565b60006104bd6005610790565b905090565b6001600160a01b0382166000908152600160205260409020546104e58282610fb3565b836001600160a01b03166318160ddd6040518163ffffffff1660e01b8152600401602060405180830381865afa158015610523573d6000803e3d6000fd5b505050506040513d601f19601f820116820180604052508101906105479190610fc6565b101561059a5760405162461bcd60e51b815260206004820152601960248201527f47726561746572207468616e20746f74616c20737570706c790000000000000060448201526064015b60405180910390fd5b6105a4838361099c565b505050565b60006105b6600583610a74565b92915050565b6105c5826107ad565b6001600160a01b0382166000908152600c60205260409020546105e9908290610fb3565b6001600160a01b0383166000818152600c602052604080822093909355915183927fef5648f5b1a6a7e4e9314d032b440a9f2c124b6e584c8fb4eb8d057f11b0069591a35050565b6060600061063d61084c565b6001600160a01b0316336001600160a01b0316146106a857600036610663601482610fdf565b61066e928290610ff2565b8080601f0160208091040260200160405190810160405280939291908181526020018383808284376000920191909152506106b892505050565b6040805160008152602081019091525b90508267ffffffffffffffff8111156106d3576106d361101c565b60405190808252806020026020018201604052801561070657816020015b60608152602001906001900390816106f15790505b50915060005b83811015610788576107633086868481811061072a5761072a611032565b905060200281019061073c9190611048565b8560405160200161074f93929190611096565b604051602081830303815290604052610a96565b83828151811061077557610775611032565b602090810291909101015260010161070c565b505092915050565b60006105b6825490565b60006107a68383610b0c565b9392505050565b6107b8600582610a74565b6107f1576040516001600160a01b038216907fc3e089fc6227e049d0e41c3d7a383d57efe69c1955c5752f7e5a9b5f1f11302090600090a25b6104ad600582610b36565b610807600582610a74565b15610841576040516001600160a01b038216907f72977dad29432f655f11c2f0e72ef5124bb9ade7a512fb7a43a9f504df22342890600090a25b6104ad600582610b4b565b60006104bd610b60565b6001600160a01b0384166000908152600c60205260409020548211156108b35760405162461bcd60e51b81526020600482015260126024820152716e6f7420656e6f7567682062616c616e636560701b6044820152606401610591565b60405163a9059cbb60e01b81526001600160a01b0385811660048301526024820184905284169063a9059cbb906044016020604051808303816000875af1158015610902573d6000803e3d6000fd5b505050506040513d601f19601f8201168201806040525081019061092691906110bd565b506001600160a01b0384166000908152600c602052604090205461094b908390610fdf565b6001600160a01b038086166000818152600c602052604080822094909455925184831693928716927feb1af03631473cb26a0692e7db7c4284c5cb931143431dde2ba575fdb1cdb0bf91a450505050565b6001600160a01b038216600090815260016020526040812080548392906109c4908490610fb3565b90915550506040518181526001600160a01b038316907fe49f42d07d8046279c22af872fe6bc5678c4dfc38ace0f43b8e8d5a03d0e8f109060200160405180910390a26001600160a01b03821660009081526002602052604090205460ff166104ad576001600160a01b038216600081815260026020526040808220805460ff19166001179055517f158412daecdc1456d01568828bcdb18464cc7f1ce0215ddbc3f3cfede9d1e63d9190a25050565b6001600160a01b038116600090815260018301602052604081205415156107a6565b6060600080846001600160a01b031684604051610ab391906110df565b600060405180830381855af49150503d8060008114610aee576040519150601f19603f3d011682016040523d82523d6000602084013e610af3565b606091505b5091509150610b03858383610bd5565b95945050505050565b6000826000018281548110610b2357610b23611032565b9060005260206000200154905092915050565b60006107a6836001600160a01b038416610c31565b60006107a6836001600160a01b038416610c80565b6000366014336001600160a01b037f000000000000000000000000000000000000000000000000000000000000000016148015610b9d5750808210155b15610bcd57600036610baf8385610fdf565b610bba928290610ff2565b610bc3916110fb565b60601c9250505090565b339250505090565b606082610bea57610be582610d73565b6107a6565b8151158015610c0157506001600160a01b0384163b155b15610c2a57604051639996b31560e01b81526001600160a01b0385166004820152602401610591565b5092915050565b6000818152600183016020526040812054610c78575081546001818101845560008481526020808220909301849055845484825282860190935260409020919091556105b6565b5060006105b6565b60008181526001830160205260408120548015610d69576000610ca4600183610fdf565b8554909150600090610cb890600190610fdf565b9050808214610d1d576000866000018281548110610cd857610cd8611032565b9060005260206000200154905080876000018481548110610cfb57610cfb611032565b6000918252602080832090910192909255918252600188019052604090208390555b8554869080610d2e57610d2e61112e565b6001900381819060005260206000200160009055905585600101600086815260200190815260200160002060009055600193505050506105b6565b60009150506105b6565b805115610d835780518082602001fd5b604051630a12f52160e11b815260040160405180910390fd5b600060208284031215610dae57600080fd5b81356001600160e01b0319811681146107a657600080fd5b60005b83811015610de1578181015183820152602001610dc9565b50506000910152565b60008151808452610e02816020860160208601610dc6565b601f01601f19169290920160200192915050565b6020815260006107a66020830184610dea565b80356001600160a01b0381168114610e4057600080fd5b919050565b600060208284031215610e5757600080fd5b6107a682610e29565b60008060408385031215610e7357600080fd5b610e7c83610e29565b946020939093013593505050565b60008060208385031215610e9d57600080fd5b823567ffffffffffffffff80821115610eb557600080fd5b818501915085601f830112610ec957600080fd5b813581811115610ed857600080fd5b8660208260051b8501011115610eed57600080fd5b60209290920196919550909350505050565b600060208083016020845280855180835260408601915060408160051b87010192506020870160005b82811015610f5657603f19888603018452610f44858351610dea565b94509285019290850190600101610f28565b5092979650505050505050565b600181811c90821680610f7757607f821691505b602082108103610f9757634e487b7160e01b600052602260045260246000fd5b50919050565b634e487b7160e01b600052601160045260246000fd5b808201808211156105b6576105b6610f9d565b600060208284031215610fd857600080fd5b5051919050565b818103818111156105b6576105b6610f9d565b6000808585111561100257600080fd5b8386111561100f57600080fd5b5050820193919092039150565b634e487b7160e01b600052604160045260246000fd5b634e487b7160e01b600052603260045260246000fd5b6000808335601e1984360301811261105f57600080fd5b83018035915067ffffffffffffffff82111561107a57600080fd5b60200191503681900382131561108f57600080fd5b9250929050565b8284823760008382016000815283516110b3818360208801610dc6565b0195945050505050565b6000602082840312156110cf57600080fd5b815180151581146107a657600080fd5b600082516110f1818460208701610dc6565b9190910192915050565b6bffffffffffffffffffffffff1981358181169160148510156107885760149490940360031b84901b1690921692915050565b634e487b7160e01b600052603160045260246000fdfea26469706673582212204b40afd86f0b7a506d57e1b25b425c8ca223ab496ca3fd867088ea21ba19d91664736f6c63430008170033",
  "linkReferences": {},
  "deployedLinkReferences": {}
}