{
  "_format": "hh-sol-artifact-1",
  "contractName": "AAProject",
  "sourceName": "src/contracts/AAProject.sol",
  "abi": [
    {
      "inputs": [
        {
          "internalType": "string",
          "name": "_name",
          "type": "string"
        },
        {
          "internalType": "address",
          "name": "_defaultToken",
          "type": "address"
        },
        {
          "internalType": "address",
          "name": "_forwarder",
          "type": "address"
        },
        {
          "internalType": "address",
          "name": "_accessManager",
          "type": "address"
        },
        {
          "internalType": "address",
          "name": "_triggerManager",
          "type": "address"
        }
      ],
      "stateMutability": "nonpayable",
      "type": "constructor"
    },
    {
      "inputs": [
        {
          "internalType": "address",
          "name": "authority",
          "type": "address"
        }
      ],
      "name": "AccessManagedInvalidAuthority",
      "type": "error"
    },
    {
      "inputs": [
        {
          "internalType": "address",
          "name": "caller",
          "type": "address"
        },
        {
          "internalType": "uint32",
          "name": "delay",
          "type": "uint32"
        }
      ],
      "name": "AccessManagedRequiredDelay",
      "type": "error"
    },
    {
      "inputs": [
        {
          "internalType": "address",
          "name": "caller",
          "type": "address"
        }
      ],
      "name": "AccessManagedUnauthorized",
      "type": "error"
    },
    {
      "inputs": [
        {
          "internalType": "address",
          "name": "target",
          "type": "address"
        }
      ],
      "name": "AddressEmptyCode",
      "type": "error"
    },
    {
      "inputs": [],
      "name": "FailedInnerCall",
      "type": "error"
    },
    {
      "anonymous": false,
      "inputs": [
        {
          "indexed": false,
          "internalType": "address",
          "name": "authority",
          "type": "address"
        }
      ],
      "name": "AuthorityUpdated",
      "type": "event"
    },
    {
      "anonymous": false,
      "inputs": [
        {
          "indexed": true,
          "internalType": "address",
          "name": "beneficiary",
          "type": "address"
        },
        {
          "indexed": true,
          "internalType": "uint256",
          "name": "amount",
          "type": "uint256"
        }
      ],
      "name": "BenTokensAssigned",
      "type": "event"
    },
    {
      "anonymous": false,
      "inputs": [
        {
          "indexed": true,
          "internalType": "address",
          "name": "",
          "type": "address"
        }
      ],
      "name": "BeneficiaryAdded",
      "type": "event"
    },
    {
      "anonymous": false,
      "inputs": [
        {
          "indexed": true,
          "internalType": "address",
          "name": "",
          "type": "address"
        }
      ],
      "name": "BeneficiaryRemoved",
      "type": "event"
    },
    {
      "anonymous": false,
      "inputs": [
        {
          "indexed": true,
          "internalType": "address",
          "name": "vendor",
          "type": "address"
        },
        {
          "indexed": true,
          "internalType": "address",
          "name": "beneficiary",
          "type": "address"
        },
        {
          "indexed": true,
          "internalType": "uint256",
          "name": "amount",
          "type": "uint256"
        }
      ],
      "name": "CashTokenTransferred",
      "type": "event"
    },
    {
      "anonymous": false,
      "inputs": [
        {
          "indexed": true,
          "internalType": "address",
          "name": "beneficiary",
          "type": "address"
        },
        {
          "indexed": true,
          "internalType": "address",
          "name": "token",
          "type": "address"
        },
        {
          "indexed": true,
          "internalType": "address",
          "name": "assigner",
          "type": "address"
        }
      ],
      "name": "ClaimAssigned",
      "type": "event"
    },
    {
      "anonymous": false,
      "inputs": [
        {
          "indexed": true,
          "internalType": "address",
          "name": "tokenAddress",
          "type": "address"
        },
        {
          "indexed": false,
          "internalType": "uint256",
          "name": "amount",
          "type": "uint256"
        }
      ],
      "name": "TokenBudgetDecrease",
      "type": "event"
    },
    {
      "anonymous": false,
      "inputs": [
        {
          "indexed": true,
          "internalType": "address",
          "name": "tokenAddress",
          "type": "address"
        },
        {
          "indexed": false,
          "internalType": "uint256",
          "name": "amount",
          "type": "uint256"
        }
      ],
      "name": "TokenBudgetIncrease",
      "type": "event"
    },
    {
      "anonymous": false,
      "inputs": [
        {
          "indexed": true,
          "internalType": "address",
          "name": "token",
          "type": "address"
        },
        {
          "indexed": true,
          "internalType": "address",
          "name": "from",
          "type": "address"
        },
        {
          "indexed": false,
          "internalType": "uint256",
          "name": "amount",
          "type": "uint256"
        }
      ],
      "name": "TokenReceived",
      "type": "event"
    },
    {
      "anonymous": false,
      "inputs": [
        {
          "indexed": true,
          "internalType": "address",
          "name": "tokenAddress",
          "type": "address"
        }
      ],
      "name": "TokenRegistered",
      "type": "event"
    },
    {
      "anonymous": false,
      "inputs": [
        {
          "indexed": true,
          "internalType": "address",
          "name": "token",
          "type": "address"
        },
        {
          "indexed": true,
          "internalType": "address",
          "name": "to",
          "type": "address"
        },
        {
          "indexed": false,
          "internalType": "uint256",
          "name": "amount",
          "type": "uint256"
        }
      ],
      "name": "TokenTransfer",
      "type": "event"
    },
    {
      "anonymous": false,
      "inputs": [
        {
          "indexed": true,
          "internalType": "address",
          "name": "beneficiary",
          "type": "address"
        },
        {
          "indexed": true,
          "internalType": "address",
          "name": "vendor",
          "type": "address"
        },
        {
          "indexed": true,
          "internalType": "uint256",
          "name": "amount",
          "type": "uint256"
        }
      ],
      "name": "TokenTransferred",
      "type": "event"
    },
    {
      "anonymous": false,
      "inputs": [
        {
          "indexed": true,
          "internalType": "address",
          "name": "vendorAddress",
          "type": "address"
        },
        {
          "indexed": false,
          "internalType": "bool",
          "name": "status",
          "type": "bool"
        }
      ],
      "name": "VendorUpdated",
      "type": "event"
    },
    {
      "inputs": [],
      "name": "IID_RAHAT_PROJECT",
      "outputs": [
        {
          "internalType": "bytes4",
          "name": "",
          "type": "bytes4"
        }
      ],
      "stateMutability": "view",
      "type": "function"
    },
    {
      "inputs": [],
      "name": "TriggerManager",
      "outputs": [
        {
          "internalType": "contract ITriggerManager",
          "name": "",
          "type": "address"
        }
      ],
      "stateMutability": "view",
      "type": "function"
    },
    {
      "inputs": [
        {
          "internalType": "address",
          "name": "_address",
          "type": "address"
        }
      ],
      "name": "addBeneficiary",
      "outputs": [],
      "stateMutability": "nonpayable",
      "type": "function"
    },
    {
      "inputs": [
        {
          "internalType": "address",
          "name": "_beneficiary",
          "type": "address"
        },
        {
          "internalType": "uint256",
          "name": "_tokenAssigned",
          "type": "uint256"
        }
      ],
      "name": "assignClaims",
      "outputs": [],
      "stateMutability": "nonpayable",
      "type": "function"
    },
    {
      "inputs": [
        {
          "internalType": "address",
          "name": "_address",
          "type": "address"
        },
        {
          "internalType": "uint256",
          "name": "_amount",
          "type": "uint256"
        }
      ],
      "name": "assignTokenToBeneficiary",
      "outputs": [],
      "stateMutability": "nonpayable",
      "type": "function"
    },
    {
      "inputs": [],
      "name": "authority",
      "outputs": [
        {
          "internalType": "address",
          "name": "",
          "type": "address"
        }
      ],
      "stateMutability": "view",
      "type": "function"
    },
    {
      "inputs": [
        {
          "internalType": "address",
          "name": "",
          "type": "address"
        }
      ],
      "name": "benCashTokens",
      "outputs": [
        {
          "internalType": "uint256",
          "name": "",
          "type": "uint256"
        }
      ],
      "stateMutability": "view",
      "type": "function"
    },
    {
      "inputs": [
        {
          "internalType": "address",
          "name": "",
          "type": "address"
        }
      ],
      "name": "benTokens",
      "outputs": [
        {
          "internalType": "uint256",
          "name": "",
          "type": "uint256"
        }
      ],
      "stateMutability": "view",
      "type": "function"
    },
    {
      "inputs": [],
      "name": "beneficiaryCount",
      "outputs": [
        {
          "internalType": "uint256",
          "name": "",
          "type": "uint256"
        }
      ],
      "stateMutability": "view",
      "type": "function"
    },
    {
      "inputs": [
        {
          "internalType": "address",
          "name": "_address",
          "type": "address"
        }
      ],
      "name": "checkVendorStatus",
      "outputs": [
        {
          "internalType": "bool",
          "name": "_vendorStatus",
          "type": "bool"
        }
      ],
      "stateMutability": "view",
      "type": "function"
    },
    {
      "inputs": [],
      "name": "defaultToken",
      "outputs": [
        {
          "internalType": "address",
          "name": "",
          "type": "address"
        }
      ],
      "stateMutability": "view",
      "type": "function"
    },
    {
      "inputs": [
        {
          "internalType": "address",
          "name": "_tokenAddress",
          "type": "address"
        },
        {
          "internalType": "uint256",
          "name": "_amount",
          "type": "uint256"
        }
      ],
      "name": "increaseTokenBudget",
      "outputs": [],
      "stateMutability": "nonpayable",
      "type": "function"
    },
    {
      "inputs": [
        {
          "internalType": "address",
          "name": "_address",
          "type": "address"
        }
      ],
      "name": "isBeneficiary",
      "outputs": [
        {
          "internalType": "bool",
          "name": "",
          "type": "bool"
        }
      ],
      "stateMutability": "view",
      "type": "function"
    },
    {
      "inputs": [],
      "name": "isConsumingScheduledOp",
      "outputs": [
        {
          "internalType": "bytes4",
          "name": "",
          "type": "bytes4"
        }
      ],
      "stateMutability": "view",
      "type": "function"
    },
    {
      "inputs": [
        {
          "internalType": "address",
          "name": "forwarder",
          "type": "address"
        }
      ],
      "name": "isTrustedForwarder",
      "outputs": [
        {
          "internalType": "bool",
          "name": "",
          "type": "bool"
        }
      ],
      "stateMutability": "view",
      "type": "function"
    },
    {
      "inputs": [
        {
          "internalType": "bytes[]",
          "name": "data",
          "type": "bytes[]"
        }
      ],
      "name": "multicall",
      "outputs": [
        {
          "internalType": "bytes[]",
          "name": "results",
          "type": "bytes[]"
        }
      ],
      "stateMutability": "nonpayable",
      "type": "function"
    },
    {
      "inputs": [],
      "name": "name",
      "outputs": [
        {
          "internalType": "string",
          "name": "",
          "type": "string"
        }
      ],
      "stateMutability": "view",
      "type": "function"
    },
    {
      "inputs": [
        {
          "internalType": "address",
          "name": "",
          "type": "address"
        }
      ],
      "name": "registeredTokens",
      "outputs": [
        {
          "internalType": "bool",
          "name": "",
          "type": "bool"
        }
      ],
      "stateMutability": "view",
      "type": "function"
    },
    {
      "inputs": [
        {
          "internalType": "address",
          "name": "_address",
          "type": "address"
        }
      ],
      "name": "removeBeneficiary",
      "outputs": [],
      "stateMutability": "nonpayable",
      "type": "function"
    },
    {
      "inputs": [
        {
          "internalType": "address",
          "name": "newAuthority",
          "type": "address"
        }
      ],
      "name": "setAuthority",
      "outputs": [],
      "stateMutability": "nonpayable",
      "type": "function"
    },
    {
      "inputs": [
        {
          "internalType": "bytes4",
          "name": "interfaceId",
          "type": "bytes4"
        }
      ],
      "name": "supportsInterface",
      "outputs": [
        {
          "internalType": "bool",
          "name": "",
          "type": "bool"
        }
      ],
      "stateMutability": "view",
      "type": "function"
    },
    {
      "inputs": [
        {
          "internalType": "address",
          "name": "_tokenAddress",
          "type": "address"
        }
      ],
      "name": "tokenBudget",
      "outputs": [
        {
          "internalType": "uint256",
          "name": "",
          "type": "uint256"
        }
      ],
      "stateMutability": "view",
      "type": "function"
    },
    {
      "inputs": [],
      "name": "totalClaimsAssigned",
      "outputs": [
        {
          "internalType": "uint256",
          "name": "_totalClaims",
          "type": "uint256"
        }
      ],
      "stateMutability": "view",
      "type": "function"
    },
    {
      "inputs": [
        {
          "internalType": "address",
          "name": "_benAddress",
          "type": "address"
        },
        {
          "internalType": "address",
          "name": "_vendorAddress",
          "type": "address"
        },
        {
          "internalType": "uint256",
          "name": "_amount",
          "type": "uint256"
        }
      ],
      "name": "transferTokenToVendor",
      "outputs": [],
      "stateMutability": "nonpayable",
      "type": "function"
    },
    {
      "inputs": [
        {
          "internalType": "address",
          "name": "_benAddress",
          "type": "address"
        },
        {
          "internalType": "address",
          "name": "_vendorAddress",
          "type": "address"
        },
        {
          "internalType": "address",
          "name": "_cashTokenAddress",
          "type": "address"
        },
        {
          "internalType": "uint256",
          "name": "_amount",
          "type": "uint256"
        }
      ],
      "name": "transferTokenToVendorForCashToken",
      "outputs": [],
      "stateMutability": "nonpayable",
      "type": "function"
    },
    {
      "inputs": [],
      "name": "trustedForwarder",
      "outputs": [
        {
          "internalType": "address",
          "name": "",
          "type": "address"
        }
      ],
      "stateMutability": "view",
      "type": "function"
    }
  ],
  "bytecode": "0x60a06040523480156200001157600080fd5b5060405162001fc838038062001fc883398101604081905262000034916200011d565b8183866004620000458282620002ce565b50506001600160a01b03166080526200005e8162000096565b50600980546001600160a01b039586166001600160a01b0319918216179091556008805492909516911617909255506200039a915050565b600780546001600160a01b0319166001600160a01b0383169081179091556040519081527f2f658b440c35314f52658ea8a740e05b284cdc84dc9ae01e891f21b8933e7cad9060200160405180910390a150565b634e487b7160e01b600052604160045260246000fd5b80516001600160a01b03811681146200011857600080fd5b919050565b600080600080600060a086880312156200013657600080fd5b85516001600160401b03808211156200014e57600080fd5b818801915088601f8301126200016357600080fd5b815181811115620001785762000178620000ea565b604051601f8201601f19908116603f01168101908382118183101715620001a357620001a3620000ea565b81604052828152602093508b84848701011115620001c057600080fd5b600091505b82821015620001e45784820184015181830185015290830190620001c5565b6000848483010152809950505050620001ff81890162000100565b95505050620002116040870162000100565b9250620002216060870162000100565b9150620002316080870162000100565b90509295509295909350565b600181811c908216806200025257607f821691505b6020821081036200027357634e487b7160e01b600052602260045260246000fd5b50919050565b601f821115620002c9576000816000526020600020601f850160051c81016020861015620002a45750805b601f850160051c820191505b81811015620002c557828155600101620002b0565b5050505b505050565b81516001600160401b03811115620002ea57620002ea620000ea565b6200030281620002fb84546200023d565b8462000279565b602080601f8311600181146200033a5760008415620003215750858301515b600019600386901b1c1916600185901b178555620002c5565b600085815260208120601f198616915b828110156200036b578886015182559484019460019091019084016200034a565b50858210156200038a5787850151600019600388901b60f8161c191681555b5050505050600190811b01905550565b608051611c0b620003bd6000396000818161032601526105210152611c0b6000f3fe608060405234801561001057600080fd5b506004361061018e5760003560e01c806374c13fda116100de57806397b53ca311610097578063ac9650d811610071578063ac9650d8146103ce578063bf7e214f146103ee578063cd9f35af146103ff578063eb681e621461041257600080fd5b806397b53ca3146103955780639d19b226146103a8578063aa12214f146103bb57600080fd5b806374c13fda146102fe5780637a9e5e4b146103115780637da0a877146103245780638359710c1461034a5780638c0bd9161461036a5780638fb360371461038d57600080fd5b8063572b6c051161014b5780635cecc13b116101255780635cecc13b146102a457806364c20dc1146102b75780636f4efa36146102ca578063734b2a7c146102f657600080fd5b8063572b6c05146102695780635926651d1461027c57806359633a1c1461029157600080fd5b806301ffc9a71461019357806306fdde03146101cc5780631fe9497c146101e15780634fc3171b1461020c5780634fe2157114610222578063501773ba14610249575b600080fd5b6101b76101a13660046116ef565b6001600160e01b031916634bf831d160e11b1490565b60405190151581526020015b60405180910390f35b6101d461043b565b6040516101c39190611769565b6008546101f4906001600160a01b031681565b6040516001600160a01b0390911681526020016101c3565b6102146104c9565b6040519081526020016101c3565b610230634bf831d160e11b81565b6040516001600160e01b031990911681526020016101c3565b610214610257366004611798565b600d6020526000908152604090205481565b6101b7610277366004611798565b61051f565b61028f61028a366004611798565b610551565b005b61028f61029f366004611798565b61055d565b61028f6102b23660046117b3565b610566565b61028f6102c53660046117fe565b61082d565b6101b76102d8366004611798565b6001600160a01b031660009081526003602052604090205460ff1690565b610214610851565b6009546101f4906001600160a01b031681565b61028f61031f366004611798565b610862565b7f00000000000000000000000000000000000000000000000000000000000000006101f4565b610214610358366004611798565b600e6020526000908152604090205481565b6101b7610378366004611798565b600c6020526000908152604090205460ff1681565b6102306108fa565b61028f6103a33660046117fe565b610920565b6101b76103b6366004611798565b610a02565b61028f6103c93660046117fe565b610a15565b6103e16103dc366004611828565b610b63565b6040516101c3919061189d565b6007546001600160a01b03166101f4565b61028f61040d366004611901565b610cc2565b610214610420366004611798565b6001600160a01b031660009081526001602052604090205490565b600480546104489061193d565b80601f01602080910402602001604051908101604052809291908181526020018280546104749061193d565b80156104c15780601f10610496576101008083540402835291602001916104c1565b820191906000526020600020905b8154815290600101906020018083116104a457829003601f168201915b505050505081565b6000805b6104d76005610e46565b81101561051b57600d60006104ed600584610e50565b6001600160a01b03168152602081019190915260400160002054610511908361198d565b91506001016104cd565b5090565b7f00000000000000000000000000000000000000000000000000000000000000006001600160a01b0390811691161490565b61055a81610e63565b50565b61055a81610eb2565b6001600160a01b0384166000908152600d60205260409020548111156105c75760405162461bcd60e51b81526020600482015260116024820152706e6f7420656e6f7567682062616c61636560781b60448201526064015b60405180910390fd5b6001600160a01b0384166000908152600d6020526040812080548392906105ef9084906119a0565b909155505060095460405163a9059cbb60e01b81526001600160a01b038581166004830152602482018490529091169063a9059cbb906044016020604051808303816000875af1158015610647573d6000803e3d6000fd5b505050506040513d601f19601f8201168201806040525081019061066b91906119c3565b6106b75760405162461bcd60e51b815260206004820152601b60248201527f76616c756520746f6b656e207472616e73666572206661696c6564000000000060448201526064016105be565b6040516323b872dd60e01b81526001600160a01b0384811660048301528581166024830152604482018390528316906323b872dd906064016020604051808303816000875af115801561070e573d6000803e3d6000fd5b505050506040513d601f19601f8201168201806040525081019061073291906119c3565b61077e5760405162461bcd60e51b815260206004820152601a60248201527f6361736820746f6b656e207472616e73666572206661696c656400000000000060448201526064016105be565b6001600160a01b0384166000908152600e6020526040812080548392906107a690849061198d565b909155505060405181906001600160a01b0380861691908716907f9c8515990fd8c61431c4ac8db9b81475f90c292a1dda77731e56c22e64fc764390600090a480846001600160a01b0316846001600160a01b03167f2e19a4d5c1fb736220c60efa253732a85a7cccf89acb11be3ed32f566545272060405160405180910390a450505050565b60095461084d9083906001600160a01b031683610848610f02565b610f0c565b5050565b600061085d6005610e46565b905090565b600061086c610f02565b90506108806007546001600160a01b031690565b6001600160a01b0316816001600160a01b0316146108bb5760405162d1953b60e31b81526001600160a01b03821660048201526024016105be565b816001600160a01b03163b6000036108f1576040516361798f2f60e11b81526001600160a01b03831660048201526024016105be565b61084d82611052565b600754600090600160a01b900460ff166109145750600090565b50638fb3603760e01b90565b6001600160a01b038216600090815260016020526040902054610943828261198d565b836001600160a01b03166318160ddd6040518163ffffffff1660e01b8152600401602060405180830381865afa158015610981573d6000803e3d6000fd5b505050506040513d601f19601f820116820180604052508101906109a591906119de565b10156109f35760405162461bcd60e51b815260206004820152601960248201527f47726561746572207468616e20746f74616c20737570706c790000000000000060448201526064016105be565b6109fd83836110a6565b505050565b6000610a0f60058361117e565b92915050565b610a2d610a20610f02565b610a286111a0565b6111b3565b80610a366104c9565b610a40919061198d565b6009546040516370a0823160e01b81523060048201526001600160a01b03909116906370a0823190602401602060405180830381865afa158015610a88573d6000803e3d6000fd5b505050506040513d601f19601f82011682018060405250810190610aac91906119de565b1015610aee5760405162461bcd60e51b81526020600482015260116024820152706e6f7420656e6f75676820746f6b656e7360781b60448201526064016105be565b610af782610e63565b6001600160a01b0382166000908152600d6020526040902054610b1b90829061198d565b6001600160a01b0383166000818152600d602052604080822093909355915183927fef5648f5b1a6a7e4e9314d032b440a9f2c124b6e584c8fb4eb8d057f11b0069591a35050565b60606000610b6f610f02565b6001600160a01b0316336001600160a01b031614610bda57600036610b956014826119a0565b610ba09282906119f7565b8080601f016020809104026020016040519081016040528093929190818152602001838380828437600092019190915250610bea92505050565b6040805160008152602081019091525b90508267ffffffffffffffff811115610c0557610c05611a21565b604051908082528060200260200182016040528015610c3857816020015b6060815260200190600190039081610c235790505b50915060005b83811015610cba57610c9530868684818110610c5c57610c5c611a37565b9050602002810190610c6e9190611a4d565b85604051602001610c8193929190611a9b565b6040516020818303038152906040526112b3565b838281518110610ca757610ca7611a37565b6020908102919091010152600101610c3e565b505092915050565b6001600160a01b0383166000908152600d6020526040902054811115610d1e5760405162461bcd60e51b81526020600482015260116024820152706e6f7420656e6f7567682062616c61636560781b60448201526064016105be565b6001600160a01b0383166000908152600d602052604081208054839290610d469084906119a0565b909155505060095460405163a9059cbb60e01b81526001600160a01b038481166004830152602482018490529091169063a9059cbb906044016020604051808303816000875af1158015610d9e573d6000803e3d6000fd5b505050506040513d601f19601f82011682018060405250810190610dc291906119c3565b610e005760405162461bcd60e51b815260206004820152600f60248201526e1d1c985b9cd9995c8819985a5b1959608a1b60448201526064016105be565b80826001600160a01b0316846001600160a01b03167f9c8515990fd8c61431c4ac8db9b81475f90c292a1dda77731e56c22e64fc764360405160405180910390a4505050565b6000610a0f825490565b6000610e5c8383611329565b9392505050565b610e6e60058261117e565b610ea7576040516001600160a01b038216907fc3e089fc6227e049d0e41c3d7a383d57efe69c1955c5752f7e5a9b5f1f11302090600090a25b61084d600582611353565b610ebd60058261117e565b15610ef7576040516001600160a01b038216907f72977dad29432f655f11c2f0e72ef5124bb9ade7a512fb7a43a9f504df22342890600090a25b61084d600582611368565b600061085d61137d565b6001600160a01b0384166000908152600d6020526040902054821115610f695760405162461bcd60e51b81526020600482015260126024820152716e6f7420656e6f7567682062616c616e636560701b60448201526064016105be565b60405163a9059cbb60e01b81526001600160a01b0385811660048301526024820184905284169063a9059cbb906044016020604051808303816000875af1158015610fb8573d6000803e3d6000fd5b505050506040513d601f19601f82011682018060405250810190610fdc91906119c3565b506001600160a01b0384166000908152600d60205260409020546110019083906119a0565b6001600160a01b038086166000818152600d602052604080822094909455925184831693928716927feb1af03631473cb26a0692e7db7c4284c5cb931143431dde2ba575fdb1cdb0bf91a450505050565b600780546001600160a01b0319166001600160a01b0383169081179091556040519081527f2f658b440c35314f52658ea8a740e05b284cdc84dc9ae01e891f21b8933e7cad9060200160405180910390a150565b6001600160a01b038216600090815260016020526040812080548392906110ce90849061198d565b90915550506040518181526001600160a01b038316907fe49f42d07d8046279c22af872fe6bc5678c4dfc38ace0f43b8e8d5a03d0e8f109060200160405180910390a26001600160a01b03821660009081526002602052604090205460ff1661084d576001600160a01b038216600081815260026020526040808220805460ff19166001179055517f158412daecdc1456d01568828bcdb18464cc7f1ce0215ddbc3f3cfede9d1e63d9190a25050565b6001600160a01b03811660009081526001830160205260408120541515610e5c565b3660006111ab6113cf565b915091509091565b6000806111e96111cb6007546001600160a01b031690565b86306111db60046000898b6119f7565b6111e491611ac2565b61141c565b91509150816112ac5763ffffffff811615611289576007805460ff60a01b198116600160a01b17909155604051634a63ebf760e11b81526001600160a01b03909116906394c7d7ee9061124490889088908890600401611af0565b600060405180830381600087803b15801561125e57600080fd5b505af1158015611272573d6000803e3d6000fd5b50506007805460ff60a01b19169055506112ac9050565b60405162d1953b60e31b81526001600160a01b03861660048201526024016105be565b5050505050565b6060600080846001600160a01b0316846040516112d09190611b30565b600060405180830381855af49150503d806000811461130b576040519150601f19603f3d011682016040523d82523d6000602084013e611310565b606091505b5091509150611320858383611528565b95945050505050565b600082600001828154811061134057611340611a37565b9060005260206000200154905092915050565b6000610e5c836001600160a01b038416611584565b6000610e5c836001600160a01b0384166115d3565b600036601461138b3361051f565b80156113975750808210155b156113c7576000366113a983856119a0565b6113b49282906119f7565b6113bd91611b4c565b60601c9250505090565b339250505090565b3660008160146113de3361051f565b80156113ea5750808210155b1561141457600080366113fd84866119a0565b9261140a939291906119f7565b9350935050509091565b60003661140a565b6040516001600160a01b03848116602483015283811660448301526001600160e01b03198316606483015260009182918291829189169060840160408051601f198184030181529181526020820180516001600160e01b031663b700961360e01b1790525161148b9190611b30565b600060405180830381855afa9150503d80600081146114c6576040519150601f19603f3d011682016040523d82523d6000602084013e6114cb565b606091505b5091509150811561151d5760408151106114fd57808060200190518101906114f39190611b7f565b909450925061151d565b602081511061151d578080602001905181019061151a91906119c3565b93505b505094509492505050565b60608261153d57611538826116c6565b610e5c565b815115801561155457506001600160a01b0384163b155b1561157d57604051639996b31560e01b81526001600160a01b03851660048201526024016105be565b5092915050565b60008181526001830160205260408120546115cb57508154600181810184556000848152602080822090930184905584548482528286019093526040902091909155610a0f565b506000610a0f565b600081815260018301602052604081205480156116bc5760006115f76001836119a0565b855490915060009061160b906001906119a0565b905080821461167057600086600001828154811061162b5761162b611a37565b906000526020600020015490508087600001848154811061164e5761164e611a37565b6000918252602080832090910192909255918252600188019052604090208390555b855486908061168157611681611bbf565b600190038181906000526020600020016000905590558560010160008681526020019081526020016000206000905560019350505050610a0f565b6000915050610a0f565b8051156116d65780518082602001fd5b604051630a12f52160e11b815260040160405180910390fd5b60006020828403121561170157600080fd5b81356001600160e01b031981168114610e5c57600080fd5b60005b8381101561173457818101518382015260200161171c565b50506000910152565b60008151808452611755816020860160208601611719565b601f01601f19169290920160200192915050565b602081526000610e5c602083018461173d565b80356001600160a01b038116811461179357600080fd5b919050565b6000602082840312156117aa57600080fd5b610e5c8261177c565b600080600080608085870312156117c957600080fd5b6117d28561177c565b93506117e06020860161177c565b92506117ee6040860161177c565b9396929550929360600135925050565b6000806040838503121561181157600080fd5b61181a8361177c565b946020939093013593505050565b6000806020838503121561183b57600080fd5b823567ffffffffffffffff8082111561185357600080fd5b818501915085601f83011261186757600080fd5b81358181111561187657600080fd5b8660208260051b850101111561188b57600080fd5b60209290920196919550909350505050565b600060208083016020845280855180835260408601915060408160051b87010192506020870160005b828110156118f457603f198886030184526118e285835161173d565b945092850192908501906001016118c6565b5092979650505050505050565b60008060006060848603121561191657600080fd5b61191f8461177c565b925061192d6020850161177c565b9150604084013590509250925092565b600181811c9082168061195157607f821691505b60208210810361197157634e487b7160e01b600052602260045260246000fd5b50919050565b634e487b7160e01b600052601160045260246000fd5b80820180821115610a0f57610a0f611977565b81810381811115610a0f57610a0f611977565b8051801515811461179357600080fd5b6000602082840312156119d557600080fd5b610e5c826119b3565b6000602082840312156119f057600080fd5b5051919050565b60008085851115611a0757600080fd5b83861115611a1457600080fd5b5050820193919092039150565b634e487b7160e01b600052604160045260246000fd5b634e487b7160e01b600052603260045260246000fd5b6000808335601e19843603018112611a6457600080fd5b83018035915067ffffffffffffffff821115611a7f57600080fd5b602001915036819003821315611a9457600080fd5b9250929050565b828482376000838201600081528351611ab8818360208801611719565b0195945050505050565b6001600160e01b03198135818116916004851015610cba5760049490940360031b84901b1690921692915050565b6001600160a01b03841681526040602082018190528101829052818360608301376000818301606090810191909152601f909201601f1916010192915050565b60008251611b42818460208701611719565b9190910192915050565b6bffffffffffffffffffffffff198135818116916014851015610cba5760149490940360031b84901b1690921692915050565b60008060408385031215611b9257600080fd5b611b9b836119b3565b9150602083015163ffffffff81168114611bb457600080fd5b809150509250929050565b634e487b7160e01b600052603160045260246000fdfea2646970667358221220108a083a096cd7f727f9cfe2f7fc5099370d0e7de26a83a6ffeedf38d5bf2a9764736f6c63430008170033",
  "linkReferences": {},
  "deployedLinkReferences": {}
}