{
  "_format": "hh-sol-artifact-1",
  "contractName": "AAProject",
  "sourceName": "src/contracts/AAProject.sol",
  "abi": [
    {
      "inputs": [
        {
          "internalType": "string",
          "name": "_name",
          "type": "string"
        },
        {
          "internalType": "address",
          "name": "_defaultToken",
          "type": "address"
        },
        {
          "internalType": "address",
          "name": "_forwarder",
          "type": "address"
        },
        {
          "internalType": "address",
          "name": "_accessManager",
          "type": "address"
        },
        {
          "internalType": "address",
          "name": "_triggerManager",
          "type": "address"
        }
      ],
      "stateMutability": "nonpayable",
      "type": "constructor"
    },
    {
      "inputs": [
        {
          "internalType": "address",
          "name": "authority",
          "type": "address"
        }
      ],
      "name": "AccessManagedInvalidAuthority",
      "type": "error"
    },
    {
      "inputs": [
        {
          "internalType": "address",
          "name": "caller",
          "type": "address"
        },
        {
          "internalType": "uint32",
          "name": "delay",
          "type": "uint32"
        }
      ],
      "name": "AccessManagedRequiredDelay",
      "type": "error"
    },
    {
      "inputs": [
        {
          "internalType": "address",
          "name": "caller",
          "type": "address"
        }
      ],
      "name": "AccessManagedUnauthorized",
      "type": "error"
    },
    {
      "inputs": [
        {
          "internalType": "address",
          "name": "target",
          "type": "address"
        }
      ],
      "name": "AddressEmptyCode",
      "type": "error"
    },
    {
      "inputs": [],
      "name": "FailedInnerCall",
      "type": "error"
    },
    {
      "anonymous": false,
      "inputs": [
        {
          "indexed": false,
          "internalType": "address",
          "name": "authority",
          "type": "address"
        }
      ],
      "name": "AuthorityUpdated",
      "type": "event"
    },
    {
      "anonymous": false,
      "inputs": [
        {
          "indexed": true,
          "internalType": "address",
          "name": "beneficiary",
          "type": "address"
        },
        {
          "indexed": true,
          "internalType": "uint256",
          "name": "amount",
          "type": "uint256"
        }
      ],
      "name": "BenTokensAssigned",
      "type": "event"
    },
    {
      "anonymous": false,
      "inputs": [
        {
          "indexed": true,
          "internalType": "address",
          "name": "",
          "type": "address"
        }
      ],
      "name": "BeneficiaryAdded",
      "type": "event"
    },
    {
      "anonymous": false,
      "inputs": [
        {
          "indexed": true,
          "internalType": "address",
          "name": "",
          "type": "address"
        }
      ],
      "name": "BeneficiaryRemoved",
      "type": "event"
    },
    {
      "anonymous": false,
      "inputs": [
        {
          "indexed": true,
          "internalType": "address",
          "name": "beneficiary",
          "type": "address"
        },
        {
          "indexed": true,
          "internalType": "address",
          "name": "token",
          "type": "address"
        },
        {
          "indexed": true,
          "internalType": "address",
          "name": "assigner",
          "type": "address"
        }
      ],
      "name": "ClaimAssigned",
      "type": "event"
    },
    {
      "anonymous": false,
      "inputs": [
        {
          "indexed": true,
          "internalType": "address",
          "name": "tokenAddress",
          "type": "address"
        },
        {
          "indexed": false,
          "internalType": "uint256",
          "name": "amount",
          "type": "uint256"
        }
      ],
      "name": "TokenBudgetDecrease",
      "type": "event"
    },
    {
      "anonymous": false,
      "inputs": [
        {
          "indexed": true,
          "internalType": "address",
          "name": "tokenAddress",
          "type": "address"
        },
        {
          "indexed": false,
          "internalType": "uint256",
          "name": "amount",
          "type": "uint256"
        }
      ],
      "name": "TokenBudgetIncrease",
      "type": "event"
    },
    {
      "anonymous": false,
      "inputs": [
        {
          "indexed": true,
          "internalType": "address",
          "name": "token",
          "type": "address"
        },
        {
          "indexed": true,
          "internalType": "address",
          "name": "from",
          "type": "address"
        },
        {
          "indexed": false,
          "internalType": "uint256",
          "name": "amount",
          "type": "uint256"
        }
      ],
      "name": "TokenReceived",
      "type": "event"
    },
    {
      "anonymous": false,
      "inputs": [
        {
          "indexed": true,
          "internalType": "address",
          "name": "tokenAddress",
          "type": "address"
        }
      ],
      "name": "TokenRegistered",
      "type": "event"
    },
    {
      "anonymous": false,
      "inputs": [
        {
          "indexed": true,
          "internalType": "address",
          "name": "token",
          "type": "address"
        },
        {
          "indexed": true,
          "internalType": "address",
          "name": "to",
          "type": "address"
        },
        {
          "indexed": false,
          "internalType": "uint256",
          "name": "amount",
          "type": "uint256"
        }
      ],
      "name": "TokenTransfer",
      "type": "event"
    },
    {
      "anonymous": false,
      "inputs": [
        {
          "indexed": true,
          "internalType": "address",
          "name": "vendorAddress",
          "type": "address"
        },
        {
          "indexed": false,
          "internalType": "bool",
          "name": "status",
          "type": "bool"
        }
      ],
      "name": "VendorUpdated",
      "type": "event"
    },
    {
      "inputs": [],
      "name": "IID_RAHAT_PROJECT",
      "outputs": [
        {
          "internalType": "bytes4",
          "name": "",
          "type": "bytes4"
        }
      ],
      "stateMutability": "view",
      "type": "function"
    },
    {
      "inputs": [],
      "name": "TriggerManager",
      "outputs": [
        {
          "internalType": "contract ITriggerManager",
          "name": "",
          "type": "address"
        }
      ],
      "stateMutability": "view",
      "type": "function"
    },
    {
      "inputs": [
        {
          "internalType": "address",
          "name": "_address",
          "type": "address"
        }
      ],
      "name": "addBeneficiary",
      "outputs": [],
      "stateMutability": "nonpayable",
      "type": "function"
    },
    {
      "inputs": [
        {
          "internalType": "address",
          "name": "_beneficiary",
          "type": "address"
        },
        {
          "internalType": "uint256",
          "name": "_tokenAssigned",
          "type": "uint256"
        }
      ],
      "name": "assignClaims",
      "outputs": [],
      "stateMutability": "nonpayable",
      "type": "function"
    },
    {
      "inputs": [
        {
          "internalType": "address",
          "name": "_address",
          "type": "address"
        },
        {
          "internalType": "uint256",
          "name": "_amount",
          "type": "uint256"
        }
      ],
      "name": "assignTokenToBeneficiary",
      "outputs": [],
      "stateMutability": "nonpayable",
      "type": "function"
    },
    {
      "inputs": [],
      "name": "authority",
      "outputs": [
        {
          "internalType": "address",
          "name": "",
          "type": "address"
        }
      ],
      "stateMutability": "view",
      "type": "function"
    },
    {
      "inputs": [
        {
          "internalType": "address",
          "name": "",
          "type": "address"
        }
      ],
      "name": "benTokens",
      "outputs": [
        {
          "internalType": "uint256",
          "name": "",
          "type": "uint256"
        }
      ],
      "stateMutability": "view",
      "type": "function"
    },
    {
      "inputs": [],
      "name": "beneficiaryCount",
      "outputs": [
        {
          "internalType": "uint256",
          "name": "",
          "type": "uint256"
        }
      ],
      "stateMutability": "view",
      "type": "function"
    },
    {
      "inputs": [
        {
          "internalType": "address",
          "name": "_address",
          "type": "address"
        }
      ],
      "name": "checkVendorStatus",
      "outputs": [
        {
          "internalType": "bool",
          "name": "_vendorStatus",
          "type": "bool"
        }
      ],
      "stateMutability": "view",
      "type": "function"
    },
    {
      "inputs": [],
      "name": "defaultToken",
      "outputs": [
        {
          "internalType": "address",
          "name": "",
          "type": "address"
        }
      ],
      "stateMutability": "view",
      "type": "function"
    },
    {
      "inputs": [
        {
          "internalType": "address",
          "name": "_tokenAddress",
          "type": "address"
        },
        {
          "internalType": "uint256",
          "name": "_amount",
          "type": "uint256"
        }
      ],
      "name": "increaseTokenBudget",
      "outputs": [],
      "stateMutability": "nonpayable",
      "type": "function"
    },
    {
      "inputs": [
        {
          "internalType": "address",
          "name": "_address",
          "type": "address"
        }
      ],
      "name": "isBeneficiary",
      "outputs": [
        {
          "internalType": "bool",
          "name": "",
          "type": "bool"
        }
      ],
      "stateMutability": "view",
      "type": "function"
    },
    {
      "inputs": [],
      "name": "isConsumingScheduledOp",
      "outputs": [
        {
          "internalType": "bytes4",
          "name": "",
          "type": "bytes4"
        }
      ],
      "stateMutability": "view",
      "type": "function"
    },
    {
      "inputs": [
        {
          "internalType": "address",
          "name": "forwarder",
          "type": "address"
        }
      ],
      "name": "isTrustedForwarder",
      "outputs": [
        {
          "internalType": "bool",
          "name": "",
          "type": "bool"
        }
      ],
      "stateMutability": "view",
      "type": "function"
    },
    {
      "inputs": [
        {
          "internalType": "bytes[]",
          "name": "data",
          "type": "bytes[]"
        }
      ],
      "name": "multicall",
      "outputs": [
        {
          "internalType": "bytes[]",
          "name": "results",
          "type": "bytes[]"
        }
      ],
      "stateMutability": "nonpayable",
      "type": "function"
    },
    {
      "inputs": [],
      "name": "name",
      "outputs": [
        {
          "internalType": "string",
          "name": "",
          "type": "string"
        }
      ],
      "stateMutability": "view",
      "type": "function"
    },
    {
      "inputs": [
        {
          "internalType": "address",
          "name": "",
          "type": "address"
        }
      ],
      "name": "registeredTokens",
      "outputs": [
        {
          "internalType": "bool",
          "name": "",
          "type": "bool"
        }
      ],
      "stateMutability": "view",
      "type": "function"
    },
    {
      "inputs": [
        {
          "internalType": "address",
          "name": "_address",
          "type": "address"
        }
      ],
      "name": "removeBeneficiary",
      "outputs": [],
      "stateMutability": "nonpayable",
      "type": "function"
    },
    {
      "inputs": [
        {
          "internalType": "address",
          "name": "newAuthority",
          "type": "address"
        }
      ],
      "name": "setAuthority",
      "outputs": [],
      "stateMutability": "nonpayable",
      "type": "function"
    },
    {
      "inputs": [
        {
          "internalType": "bytes4",
          "name": "interfaceId",
          "type": "bytes4"
        }
      ],
      "name": "supportsInterface",
      "outputs": [
        {
          "internalType": "bool",
          "name": "",
          "type": "bool"
        }
      ],
      "stateMutability": "view",
      "type": "function"
    },
    {
      "inputs": [
        {
          "internalType": "address",
          "name": "_tokenAddress",
          "type": "address"
        }
      ],
      "name": "tokenBudget",
      "outputs": [
        {
          "internalType": "uint256",
          "name": "",
          "type": "uint256"
        }
      ],
      "stateMutability": "view",
      "type": "function"
    },
    {
      "inputs": [],
      "name": "totalClaimsAssigned",
      "outputs": [
        {
          "internalType": "uint256",
          "name": "_totalClaims",
          "type": "uint256"
        }
      ],
      "stateMutability": "view",
      "type": "function"
    },
    {
      "inputs": [],
      "name": "trustedForwarder",
      "outputs": [
        {
          "internalType": "address",
          "name": "",
          "type": "address"
        }
      ],
      "stateMutability": "view",
      "type": "function"
    }
  ],
  "bytecode": "0x60a06040523480156200001157600080fd5b5060405162001a7438038062001a7483398101604081905262000034916200011d565b8183866004620000458282620002ce565b50506001600160a01b03166080526200005e8162000096565b50600980546001600160a01b039586166001600160a01b0319918216179091556008805492909516911617909255506200039a915050565b600780546001600160a01b0319166001600160a01b0383169081179091556040519081527f2f658b440c35314f52658ea8a740e05b284cdc84dc9ae01e891f21b8933e7cad9060200160405180910390a150565b634e487b7160e01b600052604160045260246000fd5b80516001600160a01b03811681146200011857600080fd5b919050565b600080600080600060a086880312156200013657600080fd5b85516001600160401b03808211156200014e57600080fd5b818801915088601f8301126200016357600080fd5b815181811115620001785762000178620000ea565b604051601f8201601f19908116603f01168101908382118183101715620001a357620001a3620000ea565b81604052828152602093508b84848701011115620001c057600080fd5b600091505b82821015620001e45784820184015181830185015290830190620001c5565b6000848483010152809950505050620001ff81890162000100565b95505050620002116040870162000100565b9250620002216060870162000100565b9150620002316080870162000100565b90509295509295909350565b600181811c908216806200025257607f821691505b6020821081036200027357634e487b7160e01b600052602260045260246000fd5b50919050565b601f821115620002c9576000816000526020600020601f850160051c81016020861015620002a45750805b601f850160051c820191505b81811015620002c557828155600101620002b0565b5050505b505050565b81516001600160401b03811115620002ea57620002ea620000ea565b6200030281620002fb84546200023d565b8462000279565b602080601f8311600181146200033a5760008415620003215750858301515b600019600386901b1c1916600185901b178555620002c5565b600085815260208120601f198616915b828110156200036b578886015182559484019460019091019084016200034a565b50858210156200038a5787850151600019600388901b60f8161c191681555b5050505050600190811b01905550565b6080516116b7620003bd600039600081816102d2015261049a01526116b76000f3fe608060405234801561001057600080fd5b506004361061014d5760003560e01c8063734b2a7c116100c357806397b53ca31161007c57806397b53ca3146103215780639d19b22614610334578063aa12214f14610347578063ac9650d81461035a578063bf7e214f1461037a578063eb681e621461038b57600080fd5b8063734b2a7c146102a257806374c13fda146102aa5780637a9e5e4b146102bd5780637da0a877146102d05780638c0bd916146102f65780638fb360371461031957600080fd5b8063501773ba11610115578063501773ba14610208578063572b6c05146102285780635926651d1461023b57806359633a1c1461025057806364c20dc1146102635780636f4efa361461027657600080fd5b806301ffc9a71461015257806306fdde031461018b5780631fe9497c146101a05780634fc3171b146101cb5780634fe21571146101e1575b600080fd5b610176610160366004611222565b6001600160e01b031916634bf831d160e11b1490565b60405190151581526020015b60405180910390f35b6101936103b4565b604051610182919061129c565b6008546101b3906001600160a01b031681565b6040516001600160a01b039091168152602001610182565b6101d3610442565b604051908152602001610182565b6101ef634bf831d160e11b81565b6040516001600160e01b03199091168152602001610182565b6101d36102163660046112cb565b600d6020526000908152604090205481565b6101766102363660046112cb565b610498565b61024e6102493660046112cb565b6104ca565b005b61024e61025e3660046112cb565b6104d6565b61024e6102713660046112e6565b6104df565b6101766102843660046112cb565b6001600160a01b031660009081526003602052604090205460ff1690565b6101d3610503565b6009546101b3906001600160a01b031681565b61024e6102cb3660046112cb565b610514565b7f00000000000000000000000000000000000000000000000000000000000000006101b3565b6101766103043660046112cb565b600c6020526000908152604090205460ff1681565b6101ef6105b1565b61024e61032f3660046112e6565b6105d7565b6101766103423660046112cb565b6106b9565b61024e6103553660046112e6565b6106cc565b61036d610368366004611310565b61081a565b6040516101829190611385565b6007546001600160a01b03166101b3565b6101d36103993660046112cb565b6001600160a01b031660009081526001602052604090205490565b600480546103c1906113e9565b80601f01602080910402602001604051908101604052809291908181526020018280546103ed906113e9565b801561043a5780601f1061040f5761010080835404028352916020019161043a565b820191906000526020600020905b81548152906001019060200180831161041d57829003601f168201915b505050505081565b6000805b6104506005610979565b81101561049457600d6000610466600584610983565b6001600160a01b0316815260208101919091526040016000205461048a9083611439565b9150600101610446565b5090565b7f00000000000000000000000000000000000000000000000000000000000000006001600160a01b0390811691161490565b6104d381610996565b50565b6104d3816109e5565b6009546104ff9083906001600160a01b0316836104fa610a35565b610a3f565b5050565b600061050f6005610979565b905090565b600061051e610a35565b90506105326007546001600160a01b031690565b6001600160a01b0316816001600160a01b0316146105725760405162d1953b60e31b81526001600160a01b03821660048201526024015b60405180910390fd5b816001600160a01b03163b6000036105a8576040516361798f2f60e11b81526001600160a01b0383166004820152602401610569565b6104ff82610b85565b600754600090600160a01b900460ff166105cb5750600090565b50638fb3603760e01b90565b6001600160a01b0382166000908152600160205260409020546105fa8282611439565b836001600160a01b03166318160ddd6040518163ffffffff1660e01b8152600401602060405180830381865afa158015610638573d6000803e3d6000fd5b505050506040513d601f19601f8201168201806040525081019061065c919061144c565b10156106aa5760405162461bcd60e51b815260206004820152601960248201527f47726561746572207468616e20746f74616c20737570706c79000000000000006044820152606401610569565b6106b48383610bd9565b505050565b60006106c6600583610cb1565b92915050565b6106e46106d7610a35565b6106df610cd3565b610ce6565b806106ed610442565b6106f79190611439565b6009546040516370a0823160e01b81523060048201526001600160a01b03909116906370a0823190602401602060405180830381865afa15801561073f573d6000803e3d6000fd5b505050506040513d601f19601f82011682018060405250810190610763919061144c565b10156107a55760405162461bcd60e51b81526020600482015260116024820152706e6f7420656e6f75676820746f6b656e7360781b6044820152606401610569565b6107ae82610996565b6001600160a01b0382166000908152600d60205260409020546107d2908290611439565b6001600160a01b0383166000818152600d602052604080822093909355915183927fef5648f5b1a6a7e4e9314d032b440a9f2c124b6e584c8fb4eb8d057f11b0069591a35050565b60606000610826610a35565b6001600160a01b0316336001600160a01b0316146108915760003661084c601482611465565b610857928290611478565b8080601f0160208091040260200160405190810160405280939291908181526020018383808284376000920191909152506108a192505050565b6040805160008152602081019091525b90508267ffffffffffffffff8111156108bc576108bc6114a2565b6040519080825280602002602001820160405280156108ef57816020015b60608152602001906001900390816108da5790505b50915060005b838110156109715761094c30868684818110610913576109136114b8565b905060200281019061092591906114ce565b856040516020016109389392919061151c565b604051602081830303815290604052610de6565b83828151811061095e5761095e6114b8565b60209081029190910101526001016108f5565b505092915050565b60006106c6825490565b600061098f8383610e5c565b9392505050565b6109a1600582610cb1565b6109da576040516001600160a01b038216907fc3e089fc6227e049d0e41c3d7a383d57efe69c1955c5752f7e5a9b5f1f11302090600090a25b6104ff600582610e86565b6109f0600582610cb1565b15610a2a576040516001600160a01b038216907f72977dad29432f655f11c2f0e72ef5124bb9ade7a512fb7a43a9f504df22342890600090a25b6104ff600582610e9b565b600061050f610eb0565b6001600160a01b0384166000908152600d6020526040902054821115610a9c5760405162461bcd60e51b81526020600482015260126024820152716e6f7420656e6f7567682062616c616e636560701b6044820152606401610569565b60405163a9059cbb60e01b81526001600160a01b0385811660048301526024820184905284169063a9059cbb906044016020604051808303816000875af1158015610aeb573d6000803e3d6000fd5b505050506040513d601f19601f82011682018060405250810190610b0f9190611553565b506001600160a01b0384166000908152600d6020526040902054610b34908390611465565b6001600160a01b038086166000818152600d602052604080822094909455925184831693928716927feb1af03631473cb26a0692e7db7c4284c5cb931143431dde2ba575fdb1cdb0bf91a450505050565b600780546001600160a01b0319166001600160a01b0383169081179091556040519081527f2f658b440c35314f52658ea8a740e05b284cdc84dc9ae01e891f21b8933e7cad9060200160405180910390a150565b6001600160a01b03821660009081526001602052604081208054839290610c01908490611439565b90915550506040518181526001600160a01b038316907fe49f42d07d8046279c22af872fe6bc5678c4dfc38ace0f43b8e8d5a03d0e8f109060200160405180910390a26001600160a01b03821660009081526002602052604090205460ff166104ff576001600160a01b038216600081815260026020526040808220805460ff19166001179055517f158412daecdc1456d01568828bcdb18464cc7f1ce0215ddbc3f3cfede9d1e63d9190a25050565b6001600160a01b0381166000908152600183016020526040812054151561098f565b366000610cde610f02565b915091509091565b600080610d1c610cfe6007546001600160a01b031690565b8630610d0e60046000898b611478565b610d179161156e565b610f4f565b9150915081610ddf5763ffffffff811615610dbc576007805460ff60a01b198116600160a01b17909155604051634a63ebf760e11b81526001600160a01b03909116906394c7d7ee90610d779088908890889060040161159c565b600060405180830381600087803b158015610d9157600080fd5b505af1158015610da5573d6000803e3d6000fd5b50506007805460ff60a01b1916905550610ddf9050565b60405162d1953b60e31b81526001600160a01b0386166004820152602401610569565b5050505050565b6060600080846001600160a01b031684604051610e0391906115dc565b600060405180830381855af49150503d8060008114610e3e576040519150601f19603f3d011682016040523d82523d6000602084013e610e43565b606091505b5091509150610e5385838361105b565b95945050505050565b6000826000018281548110610e7357610e736114b8565b9060005260206000200154905092915050565b600061098f836001600160a01b0384166110b7565b600061098f836001600160a01b038416611106565b6000366014610ebe33610498565b8015610eca5750808210155b15610efa57600036610edc8385611465565b610ee7928290611478565b610ef0916115f8565b60601c9250505090565b339250505090565b366000816014610f1133610498565b8015610f1d5750808210155b15610f475760008036610f308486611465565b92610f3d93929190611478565b9350935050509091565b600036610f3d565b6040516001600160a01b03848116602483015283811660448301526001600160e01b03198316606483015260009182918291829189169060840160408051601f198184030181529181526020820180516001600160e01b031663b700961360e01b17905251610fbe91906115dc565b600060405180830381855afa9150503d8060008114610ff9576040519150601f19603f3d011682016040523d82523d6000602084013e610ffe565b606091505b509150915081156110505760408151106110305780806020019051810190611026919061162b565b9094509250611050565b6020815110611050578080602001905181019061104d9190611553565b93505b505094509492505050565b6060826110705761106b826111f9565b61098f565b815115801561108757506001600160a01b0384163b155b156110b057604051639996b31560e01b81526001600160a01b0385166004820152602401610569565b5092915050565b60008181526001830160205260408120546110fe575081546001818101845560008481526020808220909301849055845484825282860190935260409020919091556106c6565b5060006106c6565b600081815260018301602052604081205480156111ef57600061112a600183611465565b855490915060009061113e90600190611465565b90508082146111a357600086600001828154811061115e5761115e6114b8565b9060005260206000200154905080876000018481548110611181576111816114b8565b6000918252602080832090910192909255918252600188019052604090208390555b85548690806111b4576111b461166b565b6001900381819060005260206000200160009055905585600101600086815260200190815260200160002060009055600193505050506106c6565b60009150506106c6565b8051156112095780518082602001fd5b604051630a12f52160e11b815260040160405180910390fd5b60006020828403121561123457600080fd5b81356001600160e01b03198116811461098f57600080fd5b60005b8381101561126757818101518382015260200161124f565b50506000910152565b6000815180845261128881602086016020860161124c565b601f01601f19169290920160200192915050565b60208152600061098f6020830184611270565b80356001600160a01b03811681146112c657600080fd5b919050565b6000602082840312156112dd57600080fd5b61098f826112af565b600080604083850312156112f957600080fd5b611302836112af565b946020939093013593505050565b6000806020838503121561132357600080fd5b823567ffffffffffffffff8082111561133b57600080fd5b818501915085601f83011261134f57600080fd5b81358181111561135e57600080fd5b8660208260051b850101111561137357600080fd5b60209290920196919550909350505050565b600060208083016020845280855180835260408601915060408160051b87010192506020870160005b828110156113dc57603f198886030184526113ca858351611270565b945092850192908501906001016113ae565b5092979650505050505050565b600181811c908216806113fd57607f821691505b60208210810361141d57634e487b7160e01b600052602260045260246000fd5b50919050565b634e487b7160e01b600052601160045260246000fd5b808201808211156106c6576106c6611423565b60006020828403121561145e57600080fd5b5051919050565b818103818111156106c6576106c6611423565b6000808585111561148857600080fd5b8386111561149557600080fd5b5050820193919092039150565b634e487b7160e01b600052604160045260246000fd5b634e487b7160e01b600052603260045260246000fd5b6000808335601e198436030181126114e557600080fd5b83018035915067ffffffffffffffff82111561150057600080fd5b60200191503681900382131561151557600080fd5b9250929050565b82848237600083820160008152835161153981836020880161124c565b0195945050505050565b805180151581146112c657600080fd5b60006020828403121561156557600080fd5b61098f82611543565b6001600160e01b031981358181169160048510156109715760049490940360031b84901b1690921692915050565b6001600160a01b03841681526040602082018190528101829052818360608301376000818301606090810191909152601f909201601f1916010192915050565b600082516115ee81846020870161124c565b9190910192915050565b6bffffffffffffffffffffffff1981358181169160148510156109715760149490940360031b84901b1690921692915050565b6000806040838503121561163e57600080fd5b61164783611543565b9150602083015163ffffffff8116811461166057600080fd5b809150509250929050565b634e487b7160e01b600052603160045260246000fdfea2646970667358221220b65b8b5fbced0ac78623efb0370a6ace76575891ed0422b62f508c940f6573f264736f6c63430008170033",
  "linkReferences": {},
  "deployedLinkReferences": {}
}