{
  "_format": "hh-sol-artifact-1",
  "contractName": "AAProject",
  "sourceName": "src/contracts/AAProject.sol",
  "abi": [
    {
      "inputs": [
        {
          "internalType": "string",
          "name": "_name",
          "type": "string"
        },
        {
          "internalType": "address",
          "name": "_defaultToken",
          "type": "address"
        },
        {
          "internalType": "address",
          "name": "_forwarder",
          "type": "address"
        },
        {
          "internalType": "address",
          "name": "_accessManager",
          "type": "address"
        },
        {
          "internalType": "address",
          "name": "_triggerManager",
          "type": "address"
        }
      ],
      "stateMutability": "nonpayable",
      "type": "constructor"
    },
    {
      "inputs": [
        {
          "internalType": "address",
          "name": "authority",
          "type": "address"
        }
      ],
      "name": "AccessManagedInvalidAuthority",
      "type": "error"
    },
    {
      "inputs": [
        {
          "internalType": "address",
          "name": "caller",
          "type": "address"
        },
        {
          "internalType": "uint32",
          "name": "delay",
          "type": "uint32"
        }
      ],
      "name": "AccessManagedRequiredDelay",
      "type": "error"
    },
    {
      "inputs": [
        {
          "internalType": "address",
          "name": "caller",
          "type": "address"
        }
      ],
      "name": "AccessManagedUnauthorized",
      "type": "error"
    },
    {
      "inputs": [
        {
          "internalType": "address",
          "name": "target",
          "type": "address"
        }
      ],
      "name": "AddressEmptyCode",
      "type": "error"
    },
    {
      "inputs": [],
      "name": "FailedInnerCall",
      "type": "error"
    },
    {
      "anonymous": false,
      "inputs": [
        {
          "indexed": false,
          "internalType": "address",
          "name": "authority",
          "type": "address"
        }
      ],
      "name": "AuthorityUpdated",
      "type": "event"
    },
    {
      "anonymous": false,
      "inputs": [
        {
          "indexed": true,
          "internalType": "address",
          "name": "beneficiary",
          "type": "address"
        },
        {
          "indexed": true,
          "internalType": "uint256",
          "name": "amount",
          "type": "uint256"
        }
      ],
      "name": "BenTokensAssigned",
      "type": "event"
    },
    {
      "anonymous": false,
      "inputs": [
        {
          "indexed": true,
          "internalType": "address",
          "name": "",
          "type": "address"
        }
      ],
      "name": "BeneficiaryAdded",
      "type": "event"
    },
    {
      "anonymous": false,
      "inputs": [
        {
          "indexed": true,
          "internalType": "address",
          "name": "",
          "type": "address"
        }
      ],
      "name": "BeneficiaryRemoved",
      "type": "event"
    },
    {
      "anonymous": false,
      "inputs": [
        {
          "indexed": true,
          "internalType": "address",
          "name": "beneficiary",
          "type": "address"
        },
        {
          "indexed": true,
          "internalType": "address",
          "name": "token",
          "type": "address"
        },
        {
          "indexed": true,
          "internalType": "address",
          "name": "assigner",
          "type": "address"
        }
      ],
      "name": "ClaimAssigned",
      "type": "event"
    },
    {
      "anonymous": false,
      "inputs": [
        {
          "indexed": true,
          "internalType": "address",
          "name": "tokenAddress",
          "type": "address"
        },
        {
          "indexed": false,
          "internalType": "uint256",
          "name": "amount",
          "type": "uint256"
        }
      ],
      "name": "TokenBudgetDecrease",
      "type": "event"
    },
    {
      "anonymous": false,
      "inputs": [
        {
          "indexed": true,
          "internalType": "address",
          "name": "tokenAddress",
          "type": "address"
        },
        {
          "indexed": false,
          "internalType": "uint256",
          "name": "amount",
          "type": "uint256"
        }
      ],
      "name": "TokenBudgetIncrease",
      "type": "event"
    },
    {
      "anonymous": false,
      "inputs": [
        {
          "indexed": true,
          "internalType": "address",
          "name": "token",
          "type": "address"
        },
        {
          "indexed": true,
          "internalType": "address",
          "name": "from",
          "type": "address"
        },
        {
          "indexed": false,
          "internalType": "uint256",
          "name": "amount",
          "type": "uint256"
        }
      ],
      "name": "TokenReceived",
      "type": "event"
    },
    {
      "anonymous": false,
      "inputs": [
        {
          "indexed": true,
          "internalType": "address",
          "name": "tokenAddress",
          "type": "address"
        }
      ],
      "name": "TokenRegistered",
      "type": "event"
    },
    {
      "anonymous": false,
      "inputs": [
        {
          "indexed": true,
          "internalType": "address",
          "name": "token",
          "type": "address"
        },
        {
          "indexed": true,
          "internalType": "address",
          "name": "to",
          "type": "address"
        },
        {
          "indexed": false,
          "internalType": "uint256",
          "name": "amount",
          "type": "uint256"
        }
      ],
      "name": "TokenTransfer",
      "type": "event"
    },
    {
      "anonymous": false,
      "inputs": [
        {
          "indexed": true,
          "internalType": "address",
          "name": "beneficiary",
          "type": "address"
        },
        {
          "indexed": true,
          "internalType": "address",
          "name": "vendor",
          "type": "address"
        },
        {
          "indexed": true,
          "internalType": "uint256",
          "name": "amount",
          "type": "uint256"
        }
      ],
      "name": "TokenTransferred",
      "type": "event"
    },
    {
      "anonymous": false,
      "inputs": [
        {
          "indexed": true,
          "internalType": "address",
          "name": "vendorAddress",
          "type": "address"
        },
        {
          "indexed": false,
          "internalType": "bool",
          "name": "status",
          "type": "bool"
        }
      ],
      "name": "VendorUpdated",
      "type": "event"
    },
    {
      "inputs": [],
      "name": "IID_RAHAT_PROJECT",
      "outputs": [
        {
          "internalType": "bytes4",
          "name": "",
          "type": "bytes4"
        }
      ],
      "stateMutability": "view",
      "type": "function"
    },
    {
      "inputs": [],
      "name": "TriggerManager",
      "outputs": [
        {
          "internalType": "contract ITriggerManager",
          "name": "",
          "type": "address"
        }
      ],
      "stateMutability": "view",
      "type": "function"
    },
    {
      "inputs": [
        {
          "internalType": "address",
          "name": "_address",
          "type": "address"
        }
      ],
      "name": "addBeneficiary",
      "outputs": [],
      "stateMutability": "nonpayable",
      "type": "function"
    },
    {
      "inputs": [
        {
          "internalType": "address",
          "name": "_beneficiary",
          "type": "address"
        },
        {
          "internalType": "uint256",
          "name": "_tokenAssigned",
          "type": "uint256"
        }
      ],
      "name": "assignClaims",
      "outputs": [],
      "stateMutability": "nonpayable",
      "type": "function"
    },
    {
      "inputs": [
        {
          "internalType": "address",
          "name": "_address",
          "type": "address"
        },
        {
          "internalType": "uint256",
          "name": "_amount",
          "type": "uint256"
        }
      ],
      "name": "assignTokenToBeneficiary",
      "outputs": [],
      "stateMutability": "nonpayable",
      "type": "function"
    },
    {
      "inputs": [],
      "name": "authority",
      "outputs": [
        {
          "internalType": "address",
          "name": "",
          "type": "address"
        }
      ],
      "stateMutability": "view",
      "type": "function"
    },
    {
      "inputs": [
        {
          "internalType": "address",
          "name": "",
          "type": "address"
        }
      ],
      "name": "benTokens",
      "outputs": [
        {
          "internalType": "uint256",
          "name": "",
          "type": "uint256"
        }
      ],
      "stateMutability": "view",
      "type": "function"
    },
    {
      "inputs": [],
      "name": "beneficiaryCount",
      "outputs": [
        {
          "internalType": "uint256",
          "name": "",
          "type": "uint256"
        }
      ],
      "stateMutability": "view",
      "type": "function"
    },
    {
      "inputs": [
        {
          "internalType": "address",
          "name": "_address",
          "type": "address"
        }
      ],
      "name": "checkVendorStatus",
      "outputs": [
        {
          "internalType": "bool",
          "name": "_vendorStatus",
          "type": "bool"
        }
      ],
      "stateMutability": "view",
      "type": "function"
    },
    {
      "inputs": [],
      "name": "defaultToken",
      "outputs": [
        {
          "internalType": "address",
          "name": "",
          "type": "address"
        }
      ],
      "stateMutability": "view",
      "type": "function"
    },
    {
      "inputs": [
        {
          "internalType": "address",
          "name": "_tokenAddress",
          "type": "address"
        },
        {
          "internalType": "uint256",
          "name": "_amount",
          "type": "uint256"
        }
      ],
      "name": "increaseTokenBudget",
      "outputs": [],
      "stateMutability": "nonpayable",
      "type": "function"
    },
    {
      "inputs": [
        {
          "internalType": "address",
          "name": "_address",
          "type": "address"
        }
      ],
      "name": "isBeneficiary",
      "outputs": [
        {
          "internalType": "bool",
          "name": "",
          "type": "bool"
        }
      ],
      "stateMutability": "view",
      "type": "function"
    },
    {
      "inputs": [],
      "name": "isConsumingScheduledOp",
      "outputs": [
        {
          "internalType": "bytes4",
          "name": "",
          "type": "bytes4"
        }
      ],
      "stateMutability": "view",
      "type": "function"
    },
    {
      "inputs": [
        {
          "internalType": "address",
          "name": "forwarder",
          "type": "address"
        }
      ],
      "name": "isTrustedForwarder",
      "outputs": [
        {
          "internalType": "bool",
          "name": "",
          "type": "bool"
        }
      ],
      "stateMutability": "view",
      "type": "function"
    },
    {
      "inputs": [
        {
          "internalType": "bytes[]",
          "name": "data",
          "type": "bytes[]"
        }
      ],
      "name": "multicall",
      "outputs": [
        {
          "internalType": "bytes[]",
          "name": "results",
          "type": "bytes[]"
        }
      ],
      "stateMutability": "nonpayable",
      "type": "function"
    },
    {
      "inputs": [],
      "name": "name",
      "outputs": [
        {
          "internalType": "string",
          "name": "",
          "type": "string"
        }
      ],
      "stateMutability": "view",
      "type": "function"
    },
    {
      "inputs": [
        {
          "internalType": "address",
          "name": "",
          "type": "address"
        }
      ],
      "name": "registeredTokens",
      "outputs": [
        {
          "internalType": "bool",
          "name": "",
          "type": "bool"
        }
      ],
      "stateMutability": "view",
      "type": "function"
    },
    {
      "inputs": [
        {
          "internalType": "address",
          "name": "_address",
          "type": "address"
        }
      ],
      "name": "removeBeneficiary",
      "outputs": [],
      "stateMutability": "nonpayable",
      "type": "function"
    },
    {
      "inputs": [
        {
          "internalType": "address",
          "name": "newAuthority",
          "type": "address"
        }
      ],
      "name": "setAuthority",
      "outputs": [],
      "stateMutability": "nonpayable",
      "type": "function"
    },
    {
      "inputs": [
        {
          "internalType": "bytes4",
          "name": "interfaceId",
          "type": "bytes4"
        }
      ],
      "name": "supportsInterface",
      "outputs": [
        {
          "internalType": "bool",
          "name": "",
          "type": "bool"
        }
      ],
      "stateMutability": "view",
      "type": "function"
    },
    {
      "inputs": [
        {
          "internalType": "address",
          "name": "_tokenAddress",
          "type": "address"
        }
      ],
      "name": "tokenBudget",
      "outputs": [
        {
          "internalType": "uint256",
          "name": "",
          "type": "uint256"
        }
      ],
      "stateMutability": "view",
      "type": "function"
    },
    {
      "inputs": [],
      "name": "totalClaimsAssigned",
      "outputs": [
        {
          "internalType": "uint256",
          "name": "_totalClaims",
          "type": "uint256"
        }
      ],
      "stateMutability": "view",
      "type": "function"
    },
    {
      "inputs": [
        {
          "internalType": "address",
          "name": "_benAddress",
          "type": "address"
        },
        {
          "internalType": "address",
          "name": "_vendorAddress",
          "type": "address"
        },
        {
          "internalType": "uint256",
          "name": "_amount",
          "type": "uint256"
        }
      ],
      "name": "transferTokenToVendor",
      "outputs": [],
      "stateMutability": "nonpayable",
      "type": "function"
    },
    {
      "inputs": [],
      "name": "trustedForwarder",
      "outputs": [
        {
          "internalType": "address",
          "name": "",
          "type": "address"
        }
      ],
      "stateMutability": "view",
      "type": "function"
    }
  ],
  "bytecode": "0x60a06040523480156200001157600080fd5b5060405162001c5238038062001c5283398101604081905262000034916200011d565b8183866004620000458282620002ce565b50506001600160a01b03166080526200005e8162000096565b50600980546001600160a01b039586166001600160a01b0319918216179091556008805492909516911617909255506200039a915050565b600780546001600160a01b0319166001600160a01b0383169081179091556040519081527f2f658b440c35314f52658ea8a740e05b284cdc84dc9ae01e891f21b8933e7cad9060200160405180910390a150565b634e487b7160e01b600052604160045260246000fd5b80516001600160a01b03811681146200011857600080fd5b919050565b600080600080600060a086880312156200013657600080fd5b85516001600160401b03808211156200014e57600080fd5b818801915088601f8301126200016357600080fd5b815181811115620001785762000178620000ea565b604051601f8201601f19908116603f01168101908382118183101715620001a357620001a3620000ea565b81604052828152602093508b84848701011115620001c057600080fd5b600091505b82821015620001e45784820184015181830185015290830190620001c5565b6000848483010152809950505050620001ff81890162000100565b95505050620002116040870162000100565b9250620002216060870162000100565b9150620002316080870162000100565b90509295509295909350565b600181811c908216806200025257607f821691505b6020821081036200027357634e487b7160e01b600052602260045260246000fd5b50919050565b601f821115620002c9576000816000526020600020601f850160051c81016020861015620002a45750805b601f850160051c820191505b81811015620002c557828155600101620002b0565b5050505b505050565b81516001600160401b03811115620002ea57620002ea620000ea565b6200030281620002fb84546200023d565b8462000279565b602080601f8311600181146200033a5760008415620003215750858301515b600019600386901b1c1916600185901b178555620002c5565b600085815260208120601f198616915b828110156200036b578886015182559484019460019091019084016200034a565b50858210156200038a5787850151600019600388901b60f8161c191681555b5050505050600190811b01905550565b608051611895620003bd600039600081816102dd01526104b801526118956000f3fe608060405234801561001057600080fd5b50600436106101585760003560e01c806374c13fda116100c35780639d19b2261161007c5780639d19b2261461033f578063aa12214f14610352578063ac9650d814610365578063bf7e214f14610385578063cd9f35af14610396578063eb681e62146103a957600080fd5b806374c13fda146102b55780637a9e5e4b146102c85780637da0a877146102db5780638c0bd916146103015780638fb360371461032457806397b53ca31461032c57600080fd5b8063572b6c0511610115578063572b6c05146102335780635926651d1461024657806359633a1c1461025b57806364c20dc11461026e5780636f4efa3614610281578063734b2a7c146102ad57600080fd5b806301ffc9a71461015d57806306fdde03146101965780631fe9497c146101ab5780634fc3171b146101d65780634fe21571146101ec578063501773ba14610213575b600080fd5b61018161016b3660046113c4565b6001600160e01b031916634bf831d160e11b1490565b60405190151581526020015b60405180910390f35b61019e6103d2565b60405161018d919061143e565b6008546101be906001600160a01b031681565b6040516001600160a01b03909116815260200161018d565b6101de610460565b60405190815260200161018d565b6101fa634bf831d160e11b81565b6040516001600160e01b0319909116815260200161018d565b6101de61022136600461146d565b600d6020526000908152604090205481565b61018161024136600461146d565b6104b6565b61025961025436600461146d565b6104e8565b005b61025961026936600461146d565b6104f4565b61025961027c366004611488565b6104fd565b61018161028f36600461146d565b6001600160a01b031660009081526003602052604090205460ff1690565b6101de610521565b6009546101be906001600160a01b031681565b6102596102d636600461146d565b610532565b7f00000000000000000000000000000000000000000000000000000000000000006101be565b61018161030f36600461146d565b600c6020526000908152604090205460ff1681565b6101fa6105cf565b61025961033a366004611488565b6105f5565b61018161034d36600461146d565b6106d7565b610259610360366004611488565b6106ea565b6103786103733660046114b2565b610820565b60405161018d9190611527565b6007546001600160a01b03166101be565b6102596103a436600461158b565b61097f565b6101de6103b736600461146d565b6001600160a01b031660009081526001602052604090205490565b600480546103df906115c7565b80601f016020809104026020016040519081016040528092919081815260200182805461040b906115c7565b80156104585780601f1061042d57610100808354040283529160200191610458565b820191906000526020600020905b81548152906001019060200180831161043b57829003601f168201915b505050505081565b6000805b61046e6005610b1b565b8110156104b257600d6000610484600584610b25565b6001600160a01b031681526020810191909152604001600020546104a89083611617565b9150600101610464565b5090565b7f00000000000000000000000000000000000000000000000000000000000000006001600160a01b0390811691161490565b6104f181610b38565b50565b6104f181610b87565b60095461051d9083906001600160a01b031683610518610bd7565b610be1565b5050565b600061052d6005610b1b565b905090565b600061053c610bd7565b90506105506007546001600160a01b031690565b6001600160a01b0316816001600160a01b0316146105905760405162d1953b60e31b81526001600160a01b03821660048201526024015b60405180910390fd5b816001600160a01b03163b6000036105c6576040516361798f2f60e11b81526001600160a01b0383166004820152602401610587565b61051d82610d27565b600754600090600160a01b900460ff166105e95750600090565b50638fb3603760e01b90565b6001600160a01b0382166000908152600160205260409020546106188282611617565b836001600160a01b03166318160ddd6040518163ffffffff1660e01b8152600401602060405180830381865afa158015610656573d6000803e3d6000fd5b505050506040513d601f19601f8201168201806040525081019061067a919061162a565b10156106c85760405162461bcd60e51b815260206004820152601960248201527f47726561746572207468616e20746f74616c20737570706c79000000000000006044820152606401610587565b6106d28383610d7b565b505050565b60006106e4600583610e53565b92915050565b806106f3610460565b6106fd9190611617565b6009546040516370a0823160e01b81523060048201526001600160a01b03909116906370a0823190602401602060405180830381865afa158015610745573d6000803e3d6000fd5b505050506040513d601f19601f82011682018060405250810190610769919061162a565b10156107ab5760405162461bcd60e51b81526020600482015260116024820152706e6f7420656e6f75676820746f6b656e7360781b6044820152606401610587565b6107b482610b38565b6001600160a01b0382166000908152600d60205260409020546107d8908290611617565b6001600160a01b0383166000818152600d602052604080822093909355915183927fef5648f5b1a6a7e4e9314d032b440a9f2c124b6e584c8fb4eb8d057f11b0069591a35050565b6060600061082c610bd7565b6001600160a01b0316336001600160a01b03161461089757600036610852601482611643565b61085d928290611656565b8080601f0160208091040260200160405190810160405280939291908181526020018383808284376000920191909152506108a792505050565b6040805160008152602081019091525b90508267ffffffffffffffff8111156108c2576108c2611680565b6040519080825280602002602001820160405280156108f557816020015b60608152602001906001900390816108e05790505b50915060005b83811015610977576109523086868481811061091957610919611696565b905060200281019061092b91906116ac565b8560405160200161093e939291906116fa565b604051602081830303815290604052610e75565b83828151811061096457610964611696565b60209081029190910101526001016108fb565b505092915050565b61099761098a610bd7565b610992610eeb565b610efe565b6001600160a01b0383166000908152600d60205260409020548111156109f35760405162461bcd60e51b81526020600482015260116024820152706e6f7420656e6f7567682062616c61636560781b6044820152606401610587565b6001600160a01b0383166000908152600d602052604081208054839290610a1b908490611643565b909155505060095460405163a9059cbb60e01b81526001600160a01b038481166004830152602482018490529091169063a9059cbb906044016020604051808303816000875af1158015610a73573d6000803e3d6000fd5b505050506040513d601f19601f82011682018060405250810190610a979190611731565b610ad55760405162461bcd60e51b815260206004820152600f60248201526e1d1c985b9cd9995c8819985a5b1959608a1b6044820152606401610587565b80826001600160a01b0316846001600160a01b03167f9c8515990fd8c61431c4ac8db9b81475f90c292a1dda77731e56c22e64fc764360405160405180910390a4505050565b60006106e4825490565b6000610b318383610ffe565b9392505050565b610b43600582610e53565b610b7c576040516001600160a01b038216907fc3e089fc6227e049d0e41c3d7a383d57efe69c1955c5752f7e5a9b5f1f11302090600090a25b61051d600582611028565b610b92600582610e53565b15610bcc576040516001600160a01b038216907f72977dad29432f655f11c2f0e72ef5124bb9ade7a512fb7a43a9f504df22342890600090a25b61051d60058261103d565b600061052d611052565b6001600160a01b0384166000908152600d6020526040902054821115610c3e5760405162461bcd60e51b81526020600482015260126024820152716e6f7420656e6f7567682062616c616e636560701b6044820152606401610587565b60405163a9059cbb60e01b81526001600160a01b0385811660048301526024820184905284169063a9059cbb906044016020604051808303816000875af1158015610c8d573d6000803e3d6000fd5b505050506040513d601f19601f82011682018060405250810190610cb19190611731565b506001600160a01b0384166000908152600d6020526040902054610cd6908390611643565b6001600160a01b038086166000818152600d602052604080822094909455925184831693928716927feb1af03631473cb26a0692e7db7c4284c5cb931143431dde2ba575fdb1cdb0bf91a450505050565b600780546001600160a01b0319166001600160a01b0383169081179091556040519081527f2f658b440c35314f52658ea8a740e05b284cdc84dc9ae01e891f21b8933e7cad9060200160405180910390a150565b6001600160a01b03821660009081526001602052604081208054839290610da3908490611617565b90915550506040518181526001600160a01b038316907fe49f42d07d8046279c22af872fe6bc5678c4dfc38ace0f43b8e8d5a03d0e8f109060200160405180910390a26001600160a01b03821660009081526002602052604090205460ff1661051d576001600160a01b038216600081815260026020526040808220805460ff19166001179055517f158412daecdc1456d01568828bcdb18464cc7f1ce0215ddbc3f3cfede9d1e63d9190a25050565b6001600160a01b03811660009081526001830160205260408120541515610b31565b6060600080846001600160a01b031684604051610e92919061174c565b600060405180830381855af49150503d8060008114610ecd576040519150601f19603f3d011682016040523d82523d6000602084013e610ed2565b606091505b5091509150610ee28583836110a4565b95945050505050565b366000610ef6611100565b915091509091565b600080610f34610f166007546001600160a01b031690565b8630610f2660046000898b611656565b610f2f91611768565b61114d565b9150915081610ff75763ffffffff811615610fd4576007805460ff60a01b198116600160a01b17909155604051634a63ebf760e11b81526001600160a01b03909116906394c7d7ee90610f8f90889088908890600401611796565b600060405180830381600087803b158015610fa957600080fd5b505af1158015610fbd573d6000803e3d6000fd5b50506007805460ff60a01b1916905550610ff79050565b60405162d1953b60e31b81526001600160a01b0386166004820152602401610587565b5050505050565b600082600001828154811061101557611015611696565b9060005260206000200154905092915050565b6000610b31836001600160a01b038416611259565b6000610b31836001600160a01b0384166112a8565b6000366014611060336104b6565b801561106c5750808210155b1561109c5760003661107e8385611643565b611089928290611656565b611092916117d6565b60601c9250505090565b339250505090565b6060826110b9576110b48261139b565b610b31565b81511580156110d057506001600160a01b0384163b155b156110f957604051639996b31560e01b81526001600160a01b0385166004820152602401610587565b5092915050565b36600081601461110f336104b6565b801561111b5750808210155b15611145576000803661112e8486611643565b9261113b93929190611656565b9350935050509091565b60003661113b565b6040516001600160a01b03848116602483015283811660448301526001600160e01b03198316606483015260009182918291829189169060840160408051601f198184030181529181526020820180516001600160e01b031663b700961360e01b179052516111bc919061174c565b600060405180830381855afa9150503d80600081146111f7576040519150601f19603f3d011682016040523d82523d6000602084013e6111fc565b606091505b5091509150811561124e57604081511061122e57808060200190518101906112249190611809565b909450925061124e565b602081511061124e578080602001905181019061124b9190611731565b93505b505094509492505050565b60008181526001830160205260408120546112a0575081546001818101845560008481526020808220909301849055845484825282860190935260409020919091556106e4565b5060006106e4565b600081815260018301602052604081205480156113915760006112cc600183611643565b85549091506000906112e090600190611643565b905080821461134557600086600001828154811061130057611300611696565b906000526020600020015490508087600001848154811061132357611323611696565b6000918252602080832090910192909255918252600188019052604090208390555b855486908061135657611356611849565b6001900381819060005260206000200160009055905585600101600086815260200190815260200160002060009055600193505050506106e4565b60009150506106e4565b8051156113ab5780518082602001fd5b604051630a12f52160e11b815260040160405180910390fd5b6000602082840312156113d657600080fd5b81356001600160e01b031981168114610b3157600080fd5b60005b838110156114095781810151838201526020016113f1565b50506000910152565b6000815180845261142a8160208601602086016113ee565b601f01601f19169290920160200192915050565b602081526000610b316020830184611412565b80356001600160a01b038116811461146857600080fd5b919050565b60006020828403121561147f57600080fd5b610b3182611451565b6000806040838503121561149b57600080fd5b6114a483611451565b946020939093013593505050565b600080602083850312156114c557600080fd5b823567ffffffffffffffff808211156114dd57600080fd5b818501915085601f8301126114f157600080fd5b81358181111561150057600080fd5b8660208260051b850101111561151557600080fd5b60209290920196919550909350505050565b600060208083016020845280855180835260408601915060408160051b87010192506020870160005b8281101561157e57603f1988860301845261156c858351611412565b94509285019290850190600101611550565b5092979650505050505050565b6000806000606084860312156115a057600080fd5b6115a984611451565b92506115b760208501611451565b9150604084013590509250925092565b600181811c908216806115db57607f821691505b6020821081036115fb57634e487b7160e01b600052602260045260246000fd5b50919050565b634e487b7160e01b600052601160045260246000fd5b808201808211156106e4576106e4611601565b60006020828403121561163c57600080fd5b5051919050565b818103818111156106e4576106e4611601565b6000808585111561166657600080fd5b8386111561167357600080fd5b5050820193919092039150565b634e487b7160e01b600052604160045260246000fd5b634e487b7160e01b600052603260045260246000fd5b6000808335601e198436030181126116c357600080fd5b83018035915067ffffffffffffffff8211156116de57600080fd5b6020019150368190038213156116f357600080fd5b9250929050565b8284823760008382016000815283516117178183602088016113ee565b0195945050505050565b8051801515811461146857600080fd5b60006020828403121561174357600080fd5b610b3182611721565b6000825161175e8184602087016113ee565b9190910192915050565b6001600160e01b031981358181169160048510156109775760049490940360031b84901b1690921692915050565b6001600160a01b03841681526040602082018190528101829052818360608301376000818301606090810191909152601f909201601f1916010192915050565b6bffffffffffffffffffffffff1981358181169160148510156109775760149490940360031b84901b1690921692915050565b6000806040838503121561181c57600080fd5b61182583611721565b9150602083015163ffffffff8116811461183e57600080fd5b809150509250929050565b634e487b7160e01b600052603160045260246000fdfea26469706673582212207a6433df07fce451e7976edba03a368c408b2784b81d6c16db82e2c7582e2ce764736f6c63430008170033",
  "linkReferences": {},
  "deployedLinkReferences": {}
}