{
  "_format": "hh-sol-artifact-1",
  "contractName": "AAProject",
  "sourceName": "src/contracts/AAProject.sol",
  "abi": [
    {
      "inputs": [
        {
          "internalType": "string",
          "name": "_name",
          "type": "string"
        },
        {
          "internalType": "address",
          "name": "_defaultToken",
          "type": "address"
        },
        {
          "internalType": "address",
          "name": "_forwarder",
          "type": "address"
        },
        {
          "internalType": "address",
          "name": "_accessManager",
          "type": "address"
        }
      ],
      "stateMutability": "nonpayable",
      "type": "constructor"
    },
    {
      "inputs": [
        {
          "internalType": "address",
          "name": "authority",
          "type": "address"
        }
      ],
      "name": "AccessManagedInvalidAuthority",
      "type": "error"
    },
    {
      "inputs": [
        {
          "internalType": "address",
          "name": "caller",
          "type": "address"
        },
        {
          "internalType": "uint32",
          "name": "delay",
          "type": "uint32"
        }
      ],
      "name": "AccessManagedRequiredDelay",
      "type": "error"
    },
    {
      "inputs": [
        {
          "internalType": "address",
          "name": "caller",
          "type": "address"
        }
      ],
      "name": "AccessManagedUnauthorized",
      "type": "error"
    },
    {
      "inputs": [
        {
          "internalType": "address",
          "name": "target",
          "type": "address"
        }
      ],
      "name": "AddressEmptyCode",
      "type": "error"
    },
    {
      "inputs": [],
      "name": "FailedInnerCall",
      "type": "error"
    },
    {
      "inputs": [],
      "name": "ReentrancyGuardReentrantCall",
      "type": "error"
    },
    {
      "anonymous": false,
      "inputs": [
        {
          "indexed": false,
          "internalType": "address",
          "name": "authority",
          "type": "address"
        }
      ],
      "name": "AuthorityUpdated",
      "type": "event"
    },
    {
      "anonymous": false,
      "inputs": [
        {
          "indexed": true,
          "internalType": "address",
          "name": "beneficiary",
          "type": "address"
        },
        {
          "indexed": true,
          "internalType": "uint256",
          "name": "amount",
          "type": "uint256"
        }
      ],
      "name": "BenTokensAssigned",
      "type": "event"
    },
    {
      "anonymous": false,
      "inputs": [
        {
          "indexed": true,
          "internalType": "address",
          "name": "",
          "type": "address"
        }
      ],
      "name": "BeneficiaryAdded",
      "type": "event"
    },
    {
      "anonymous": false,
      "inputs": [
        {
          "indexed": true,
          "internalType": "address",
          "name": "",
          "type": "address"
        }
      ],
      "name": "BeneficiaryRemoved",
      "type": "event"
    },
    {
      "anonymous": false,
      "inputs": [
        {
          "indexed": true,
          "internalType": "address",
          "name": "vendor",
          "type": "address"
        },
        {
          "indexed": true,
          "internalType": "address",
          "name": "beneficiary",
          "type": "address"
        },
        {
          "indexed": true,
          "internalType": "uint256",
          "name": "amount",
          "type": "uint256"
        }
      ],
      "name": "CashTokenTransferred",
      "type": "event"
    },
    {
      "anonymous": false,
      "inputs": [
        {
          "indexed": true,
          "internalType": "address",
          "name": "beneficiary",
          "type": "address"
        },
        {
          "indexed": true,
          "internalType": "address",
          "name": "token",
          "type": "address"
        },
        {
          "indexed": true,
          "internalType": "address",
          "name": "assigner",
          "type": "address"
        }
      ],
      "name": "ClaimAssigned",
      "type": "event"
    },
    {
      "anonymous": false,
      "inputs": [
        {
          "indexed": true,
          "internalType": "address",
          "name": "tokenAddress",
          "type": "address"
        },
        {
          "indexed": false,
          "internalType": "uint256",
          "name": "amount",
          "type": "uint256"
        }
      ],
      "name": "TokenBudgetDecrease",
      "type": "event"
    },
    {
      "anonymous": false,
      "inputs": [
        {
          "indexed": true,
          "internalType": "address",
          "name": "tokenAddress",
          "type": "address"
        },
        {
          "indexed": false,
          "internalType": "uint256",
          "name": "amount",
          "type": "uint256"
        }
      ],
      "name": "TokenBudgetIncrease",
      "type": "event"
    },
    {
      "anonymous": false,
      "inputs": [
        {
          "indexed": true,
          "internalType": "address",
          "name": "token",
          "type": "address"
        },
        {
          "indexed": true,
          "internalType": "address",
          "name": "from",
          "type": "address"
        },
        {
          "indexed": false,
          "internalType": "uint256",
          "name": "amount",
          "type": "uint256"
        }
      ],
      "name": "TokenReceived",
      "type": "event"
    },
    {
      "anonymous": false,
      "inputs": [
        {
          "indexed": true,
          "internalType": "address",
          "name": "tokenAddress",
          "type": "address"
        }
      ],
      "name": "TokenRegistered",
      "type": "event"
    },
    {
      "anonymous": false,
      "inputs": [
        {
          "indexed": true,
          "internalType": "address",
          "name": "token",
          "type": "address"
        },
        {
          "indexed": true,
          "internalType": "address",
          "name": "to",
          "type": "address"
        },
        {
          "indexed": false,
          "internalType": "uint256",
          "name": "amount",
          "type": "uint256"
        }
      ],
      "name": "TokenTransfer",
      "type": "event"
    },
    {
      "anonymous": false,
      "inputs": [
        {
          "indexed": true,
          "internalType": "address",
          "name": "beneficiary",
          "type": "address"
        },
        {
          "indexed": true,
          "internalType": "address",
          "name": "vendor",
          "type": "address"
        },
        {
          "indexed": true,
          "internalType": "uint256",
          "name": "amount",
          "type": "uint256"
        }
      ],
      "name": "TokenTransferred",
      "type": "event"
    },
    {
      "anonymous": false,
      "inputs": [
        {
          "indexed": true,
          "internalType": "address",
          "name": "vendorAddress",
          "type": "address"
        },
        {
          "indexed": false,
          "internalType": "bool",
          "name": "status",
          "type": "bool"
        }
      ],
      "name": "VendorUpdated",
      "type": "event"
    },
    {
      "inputs": [],
      "name": "IID_RAHAT_PROJECT",
      "outputs": [
        {
          "internalType": "bytes4",
          "name": "",
          "type": "bytes4"
        }
      ],
      "stateMutability": "view",
      "type": "function"
    },
    {
      "inputs": [
        {
          "internalType": "address",
          "name": "_address",
          "type": "address"
        }
      ],
      "name": "addBeneficiary",
      "outputs": [],
      "stateMutability": "nonpayable",
      "type": "function"
    },
    {
      "inputs": [
        {
          "internalType": "address",
          "name": "_beneficiary",
          "type": "address"
        },
        {
          "internalType": "uint256",
          "name": "_tokenAssigned",
          "type": "uint256"
        }
      ],
      "name": "assignClaims",
      "outputs": [],
      "stateMutability": "nonpayable",
      "type": "function"
    },
    {
      "inputs": [
        {
          "internalType": "address",
          "name": "_address",
          "type": "address"
        },
        {
          "internalType": "uint256",
          "name": "_amount",
          "type": "uint256"
        }
      ],
      "name": "assignTokenToBeneficiary",
      "outputs": [],
      "stateMutability": "nonpayable",
      "type": "function"
    },
    {
      "inputs": [],
      "name": "authority",
      "outputs": [
        {
          "internalType": "address",
          "name": "",
          "type": "address"
        }
      ],
      "stateMutability": "view",
      "type": "function"
    },
    {
      "inputs": [
        {
          "internalType": "address",
          "name": "",
          "type": "address"
        }
      ],
      "name": "benCashTokens",
      "outputs": [
        {
          "internalType": "uint256",
          "name": "",
          "type": "uint256"
        }
      ],
      "stateMutability": "view",
      "type": "function"
    },
    {
      "inputs": [
        {
          "internalType": "address",
          "name": "",
          "type": "address"
        }
      ],
      "name": "benTokens",
      "outputs": [
        {
          "internalType": "uint256",
          "name": "",
          "type": "uint256"
        }
      ],
      "stateMutability": "view",
      "type": "function"
    },
    {
      "inputs": [],
      "name": "beneficiaryCount",
      "outputs": [
        {
          "internalType": "uint256",
          "name": "",
          "type": "uint256"
        }
      ],
      "stateMutability": "view",
      "type": "function"
    },
    {
      "inputs": [
        {
          "internalType": "address",
          "name": "_address",
          "type": "address"
        }
      ],
      "name": "checkVendorStatus",
      "outputs": [
        {
          "internalType": "bool",
          "name": "_vendorStatus",
          "type": "bool"
        }
      ],
      "stateMutability": "view",
      "type": "function"
    },
    {
      "inputs": [],
      "name": "defaultToken",
      "outputs": [
        {
          "internalType": "address",
          "name": "",
          "type": "address"
        }
      ],
      "stateMutability": "view",
      "type": "function"
    },
    {
      "inputs": [
        {
          "internalType": "address",
          "name": "_tokenAddress",
          "type": "address"
        },
        {
          "internalType": "uint256",
          "name": "_amount",
          "type": "uint256"
        }
      ],
      "name": "increaseTokenBudget",
      "outputs": [],
      "stateMutability": "nonpayable",
      "type": "function"
    },
    {
      "inputs": [
        {
          "internalType": "address",
          "name": "_address",
          "type": "address"
        }
      ],
      "name": "isBeneficiary",
      "outputs": [
        {
          "internalType": "bool",
          "name": "",
          "type": "bool"
        }
      ],
      "stateMutability": "view",
      "type": "function"
    },
    {
      "inputs": [],
      "name": "isConsumingScheduledOp",
      "outputs": [
        {
          "internalType": "bytes4",
          "name": "",
          "type": "bytes4"
        }
      ],
      "stateMutability": "view",
      "type": "function"
    },
    {
      "inputs": [
        {
          "internalType": "address",
          "name": "forwarder",
          "type": "address"
        }
      ],
      "name": "isTrustedForwarder",
      "outputs": [
        {
          "internalType": "bool",
          "name": "",
          "type": "bool"
        }
      ],
      "stateMutability": "view",
      "type": "function"
    },
    {
      "inputs": [
        {
          "internalType": "bytes[]",
          "name": "data",
          "type": "bytes[]"
        }
      ],
      "name": "multicall",
      "outputs": [
        {
          "internalType": "bytes[]",
          "name": "results",
          "type": "bytes[]"
        }
      ],
      "stateMutability": "nonpayable",
      "type": "function"
    },
    {
      "inputs": [],
      "name": "name",
      "outputs": [
        {
          "internalType": "string",
          "name": "",
          "type": "string"
        }
      ],
      "stateMutability": "view",
      "type": "function"
    },
    {
      "inputs": [
        {
          "internalType": "address",
          "name": "",
          "type": "address"
        }
      ],
      "name": "registeredTokens",
      "outputs": [
        {
          "internalType": "bool",
          "name": "",
          "type": "bool"
        }
      ],
      "stateMutability": "view",
      "type": "function"
    },
    {
      "inputs": [
        {
          "internalType": "address",
          "name": "_address",
          "type": "address"
        }
      ],
      "name": "removeBeneficiary",
      "outputs": [],
      "stateMutability": "nonpayable",
      "type": "function"
    },
    {
      "inputs": [
        {
          "internalType": "address",
          "name": "newAuthority",
          "type": "address"
        }
      ],
      "name": "setAuthority",
      "outputs": [],
      "stateMutability": "nonpayable",
      "type": "function"
    },
    {
      "inputs": [
        {
          "internalType": "bytes4",
          "name": "interfaceId",
          "type": "bytes4"
        }
      ],
      "name": "supportsInterface",
      "outputs": [
        {
          "internalType": "bool",
          "name": "",
          "type": "bool"
        }
      ],
      "stateMutability": "view",
      "type": "function"
    },
    {
      "inputs": [
        {
          "internalType": "address",
          "name": "_tokenAddress",
          "type": "address"
        }
      ],
      "name": "tokenBudget",
      "outputs": [
        {
          "internalType": "uint256",
          "name": "",
          "type": "uint256"
        }
      ],
      "stateMutability": "view",
      "type": "function"
    },
    {
      "inputs": [
        {
          "internalType": "uint256",
          "name": "offset",
          "type": "uint256"
        },
        {
          "internalType": "uint256",
          "name": "limit",
          "type": "uint256"
        }
      ],
      "name": "totalClaimsAssigned",
      "outputs": [
        {
          "internalType": "uint256",
          "name": "totalClaims",
          "type": "uint256"
        }
      ],
      "stateMutability": "view",
      "type": "function"
    },
    {
      "inputs": [
        {
          "internalType": "address",
          "name": "_benAddress",
          "type": "address"
        },
        {
          "internalType": "address",
          "name": "_vendorAddress",
          "type": "address"
        },
        {
          "internalType": "uint256",
          "name": "_amount",
          "type": "uint256"
        }
      ],
      "name": "transferTokenToVendor",
      "outputs": [],
      "stateMutability": "nonpayable",
      "type": "function"
    },
    {
      "inputs": [
        {
          "internalType": "address",
          "name": "_benAddress",
          "type": "address"
        },
        {
          "internalType": "address",
          "name": "_vendorAddress",
          "type": "address"
        },
        {
          "internalType": "address",
          "name": "_cashTokenAddress",
          "type": "address"
        },
        {
          "internalType": "uint256",
          "name": "_amount",
          "type": "uint256"
        }
      ],
      "name": "transferTokenToVendorForCashToken",
      "outputs": [],
      "stateMutability": "nonpayable",
      "type": "function"
    },
    {
      "inputs": [],
      "name": "trustedForwarder",
      "outputs": [
        {
          "internalType": "address",
          "name": "",
          "type": "address"
        }
      ],
      "stateMutability": "view",
      "type": "function"
    }
  ],
  "bytecode": "0x60c06040523480156200001157600080fd5b50604051620021b3380380620021b3833981016040819052620000349162000100565b80828560046200004582826200029e565b50506001600160a01b03166080526200005e8162000079565b50506001600855506001600160a01b031660a052506200036a565b600780546001600160a01b0319166001600160a01b0383169081179091556040519081527f2f658b440c35314f52658ea8a740e05b284cdc84dc9ae01e891f21b8933e7cad9060200160405180910390a150565b634e487b7160e01b600052604160045260246000fd5b80516001600160a01b0381168114620000fb57600080fd5b919050565b600080600080608085870312156200011757600080fd5b84516001600160401b03808211156200012f57600080fd5b818701915087601f8301126200014457600080fd5b815181811115620001595762000159620000cd565b604051601f8201601f19908116603f01168101908382118183101715620001845762000184620000cd565b81604052828152602093508a84848701011115620001a157600080fd5b600091505b82821015620001c55784820184015181830185015290830190620001a6565b6000848483010152809850505050620001e0818801620000e3565b94505050620001f260408601620000e3565b91506200020260608601620000e3565b905092959194509250565b600181811c908216806200022257607f821691505b6020821081036200024357634e487b7160e01b600052602260045260246000fd5b50919050565b601f82111562000299576000816000526020600020601f850160051c81016020861015620002745750805b601f850160051c820191505b81811015620002955782815560010162000280565b5050505b505050565b81516001600160401b03811115620002ba57620002ba620000cd565b620002d281620002cb84546200020d565b8462000249565b602080601f8311600181146200030a5760008415620002f15750858301515b600019600386901b1c1916600185901b17855562000295565b600085815260208120601f198616915b828110156200033b578886015182559484019460019091019084016200031a565b50858210156200035a5787850151600019600388901b60f8161c191681555b5050505050600190811b01905550565b60805160a051611e00620003b3600039600081816102b5015281816105ee0152818161083501528181610a750152610e0401526000818161030401526104bc0152611e006000f3fe608060405234801561001057600080fd5b50600436106101735760003560e01c80637a9e5e4b116100de5780639d19b22611610097578063bf7e214f11610071578063bf7e214f146103cc578063cd9f35af146103dd578063d61d968d146103f0578063eb681e621461040357600080fd5b80639d19b22614610386578063aa12214f14610399578063ac9650d8146103ac57600080fd5b80637a9e5e4b146102ef5780637da0a877146103025780638359710c146103285780638c0bd916146103485780638fb360371461036b57806397b53ca31461037357600080fd5b806359633a1c1161013057806359633a1c146102435780635cecc13b1461025657806364c20dc1146102695780636f4efa361461027c578063734b2a7c146102a857806374c13fda146102b057600080fd5b806301ffc9a71461017857806306fdde03146101b15780634fe21571146101c6578063501773ba146101ed578063572b6c051461021b5780635926651d1461022e575b600080fd5b61019c6101863660046118c2565b6001600160e01b031916634bf831d160e11b1490565b60405190151581526020015b60405180910390f35b6101b961042c565b6040516101a8919061193c565b6101d4634bf831d160e11b81565b6040516001600160e01b031990911681526020016101a8565b61020d6101fb36600461196b565b600a6020526000908152604090205481565b6040519081526020016101a8565b61019c61022936600461196b565b6104ba565b61024161023c36600461196b565b6104ec565b005b61024161025136600461196b565b6104f8565b610241610264366004611986565b610501565b6102416102773660046119d1565b610827565b61019c61028a36600461196b565b6001600160a01b031660009081526003602052604090205460ff1690565b61020d610870565b6102d77f000000000000000000000000000000000000000000000000000000000000000081565b6040516001600160a01b0390911681526020016101a8565b6102416102fd36600461196b565b610881565b7f00000000000000000000000000000000000000000000000000000000000000006102d7565b61020d61033636600461196b565b600b6020526000908152604090205481565b61019c61035636600461196b565b60096020526000908152604090205460ff1681565b6101d4610919565b6102416103813660046119d1565b61093f565b61019c61039436600461196b565b610a2c565b6102416103a73660046119d1565b610a3f565b6103bf6103ba3660046119fb565b610bca565b6040516101a89190611a70565b6007546001600160a01b03166102d7565b6102416103eb366004611ad4565b610d29565b61020d6103fe366004611b10565b610efa565b61020d61041136600461196b565b6001600160a01b031660009081526001602052604090205490565b6004805461043990611b32565b80601f016020809104026020016040519081016040528092919081815260200182805461046590611b32565b80156104b25780601f10610487576101008083540402835291602001916104b2565b820191906000526020600020905b81548152906001019060200180831161049557829003601f168201915b505050505081565b7f00000000000000000000000000000000000000000000000000000000000000006001600160a01b0390811691161490565b6104f581610f84565b50565b6104f581610fd3565b61051961050c611023565b61051461102d565b611040565b610521611140565b6001600160a01b0384166000908152600a60205260409020548111156105825760405162461bcd60e51b81526020600482015260116024820152706e6f7420656e6f7567682062616c61636560781b60448201526064015b60405180910390fd5b6001600160a01b0384166000908152600a6020526040812080548392906105aa908490611b82565b9250508190555080600c60008282546105c39190611b82565b909155505060405163a9059cbb60e01b81526001600160a01b038481166004830152602482018390527f0000000000000000000000000000000000000000000000000000000000000000169063a9059cbb906044016020604051808303816000875af1158015610637573d6000803e3d6000fd5b505050506040513d601f19601f8201168201806040525081019061065b9190611ba5565b6106a75760405162461bcd60e51b815260206004820152601b60248201527f76616c756520746f6b656e207472616e73666572206661696c656400000000006044820152606401610579565b6040516323b872dd60e01b81526001600160a01b0384811660048301528581166024830152604482018390528316906323b872dd906064016020604051808303816000875af11580156106fe573d6000803e3d6000fd5b505050506040513d601f19601f820116820180604052508101906107229190611ba5565b61076e5760405162461bcd60e51b815260206004820152601a60248201527f6361736820746f6b656e207472616e73666572206661696c65640000000000006044820152606401610579565b6001600160a01b0384166000908152600b602052604081208054839290610796908490611bc0565b909155505060405181906001600160a01b0380861691908716907f9c8515990fd8c61431c4ac8db9b81475f90c292a1dda77731e56c22e64fc764390600090a480846001600160a01b0316846001600160a01b03167f2e19a4d5c1fb736220c60efa253732a85a7cccf89acb11be3ed32f566545272060405160405180910390a46108216001600855565b50505050565b61082f611140565b610862827f00000000000000000000000000000000000000000000000000000000000000008361085d611023565b61116a565b61086c6001600855565b5050565b600061087c600561131f565b905090565b600061088b611023565b905061089f6007546001600160a01b031690565b6001600160a01b0316816001600160a01b0316146108da5760405162d1953b60e31b81526001600160a01b0382166004820152602401610579565b816001600160a01b03163b600003610910576040516361798f2f60e11b81526001600160a01b0383166004820152602401610579565b61086c82611329565b600754600090600160a01b900460ff166109335750600090565b50638fb3603760e01b90565b61094a61050c611023565b6001600160a01b03821660009081526001602052604090205461096d8282611bc0565b836001600160a01b03166318160ddd6040518163ffffffff1660e01b8152600401602060405180830381865afa1580156109ab573d6000803e3d6000fd5b505050506040513d601f19601f820116820180604052508101906109cf9190611bd3565b1015610a1d5760405162461bcd60e51b815260206004820152601960248201527f47726561746572207468616e20746f74616c20737570706c79000000000000006044820152606401610579565b610a27838361137d565b505050565b6000610a39600583611455565b92915050565b610a4a61050c611023565b610a52611140565b80600c54610a609190611bc0565b6040516370a0823160e01b81523060048201527f00000000000000000000000000000000000000000000000000000000000000006001600160a01b0316906370a0823190602401602060405180830381865afa158015610ac4573d6000803e3d6000fd5b505050506040513d601f19601f82011682018060405250810190610ae89190611bd3565b1015610b2a5760405162461bcd60e51b81526020600482015260116024820152706e6f7420656e6f75676820746f6b656e7360781b6044820152606401610579565b610b3382610f84565b6001600160a01b0382166000908152600a6020526040902054610b57908290611bc0565b6001600160a01b0383166000908152600a6020526040812091909155600c8054839290610b85908490611bc0565b909155505060405181906001600160a01b038416907fef5648f5b1a6a7e4e9314d032b440a9f2c124b6e584c8fb4eb8d057f11b0069590600090a361086c6001600855565b60606000610bd6611023565b6001600160a01b0316336001600160a01b031614610c4157600036610bfc601482611b82565b610c07928290611bec565b8080601f016020809104026020016040519081016040528093929190818152602001838380828437600092019190915250610c5192505050565b6040805160008152602081019091525b90508267ffffffffffffffff811115610c6c57610c6c611c16565b604051908082528060200260200182016040528015610c9f57816020015b6060815260200190600190039081610c8a5790505b50915060005b83811015610d2157610cfc30868684818110610cc357610cc3611c2c565b9050602002810190610cd59190611c42565b85604051602001610ce893929190611c90565b60405160208183030381529060405261147a565b838281518110610d0e57610d0e611c2c565b6020908102919091010152600101610ca5565b505092915050565b610d3461050c611023565b610d3c611140565b6001600160a01b0383166000908152600a6020526040902054811115610d985760405162461bcd60e51b81526020600482015260116024820152706e6f7420656e6f7567682062616c61636560781b6044820152606401610579565b6001600160a01b0383166000908152600a602052604081208054839290610dc0908490611b82565b9250508190555080600c6000828254610dd99190611b82565b909155505060405163a9059cbb60e01b81526001600160a01b038381166004830152602482018390527f0000000000000000000000000000000000000000000000000000000000000000169063a9059cbb906044016020604051808303816000875af1158015610e4d573d6000803e3d6000fd5b505050506040513d601f19601f82011682018060405250810190610e719190611ba5565b610eaf5760405162461bcd60e51b815260206004820152600f60248201526e1d1c985b9cd9995c8819985a5b1959608a1b6044820152606401610579565b80826001600160a01b0316846001600160a01b03167f9c8515990fd8c61431c4ac8db9b81475f90c292a1dda77731e56c22e64fc764360405160405180910390a4610a276001600855565b600080610f07600561131f565b9050808410610f1a576000915050610a39565b6000610f268486611bc0565b905081811115610f335750805b845b81811015610f7b576000610f4a6005836114f0565b6001600160a01b0381166000908152600a6020526040902054909150610f709086611bc0565b945050600101610f35565b50505092915050565b610f8f600582611455565b610fc8576040516001600160a01b038216907fc3e089fc6227e049d0e41c3d7a383d57efe69c1955c5752f7e5a9b5f1f11302090600090a25b61086c6005826114fc565b610fde600582611455565b15611018576040516001600160a01b038216907f72977dad29432f655f11c2f0e72ef5124bb9ade7a512fb7a43a9f504df22342890600090a25b61086c600582611511565b600061087c611526565b366000611038611578565b915091509091565b6000806110766110586007546001600160a01b031690565b863061106860046000898b611bec565b61107191611cb7565b6115c5565b91509150816111395763ffffffff811615611116576007805460ff60a01b198116600160a01b17909155604051634a63ebf760e11b81526001600160a01b03909116906394c7d7ee906110d190889088908890600401611ce5565b600060405180830381600087803b1580156110eb57600080fd5b505af11580156110ff573d6000803e3d6000fd5b50506007805460ff60a01b19169055506111399050565b60405162d1953b60e31b81526001600160a01b0386166004820152602401610579565b5050505050565b60026008540361116357604051633ee5aeb560e01b815260040160405180910390fd5b6002600855565b6001600160a01b0384166000908152600a60205260409020548211156111c75760405162461bcd60e51b81526020600482015260126024820152716e6f7420656e6f7567682062616c616e636560701b6044820152606401610579565b6001600160a01b0384166000908152600a60205260409020546111eb908390611b82565b6001600160a01b0385166000908152600a6020526040812091909155600c8054849290611219908490611b82565b909155505060405163a9059cbb60e01b81526001600160a01b0385811660048301526024820184905284169063a9059cbb906044016020604051808303816000875af115801561126d573d6000803e3d6000fd5b505050506040513d601f19601f820116820180604052508101906112919190611ba5565b6112cf5760405162461bcd60e51b815260206004820152600f60248201526e1d1c985b9cd9995c8819985a5b1959608a1b6044820152606401610579565b806001600160a01b0316836001600160a01b0316856001600160a01b03167feb1af03631473cb26a0692e7db7c4284c5cb931143431dde2ba575fdb1cdb0bf60405160405180910390a450505050565b6000610a39825490565b600780546001600160a01b0319166001600160a01b0383169081179091556040519081527f2f658b440c35314f52658ea8a740e05b284cdc84dc9ae01e891f21b8933e7cad9060200160405180910390a150565b6001600160a01b038216600090815260016020526040812080548392906113a5908490611bc0565b90915550506040518181526001600160a01b038316907fe49f42d07d8046279c22af872fe6bc5678c4dfc38ace0f43b8e8d5a03d0e8f109060200160405180910390a26001600160a01b03821660009081526002602052604090205460ff1661086c576001600160a01b038216600081815260026020526040808220805460ff19166001179055517f158412daecdc1456d01568828bcdb18464cc7f1ce0215ddbc3f3cfede9d1e63d9190a25050565b6001600160a01b038116600090815260018301602052604081205415155b9392505050565b6060600080846001600160a01b0316846040516114979190611d25565b600060405180830381855af49150503d80600081146114d2576040519150601f19603f3d011682016040523d82523d6000602084013e6114d7565b606091505b50915091506114e78583836116d1565b95945050505050565b6000611473838361172d565b6000611473836001600160a01b038416611757565b6000611473836001600160a01b0384166117a6565b6000366014611534336104ba565b80156115405750808210155b15611570576000366115528385611b82565b61155d928290611bec565b61156691611d41565b60601c9250505090565b339250505090565b366000816014611587336104ba565b80156115935750808210155b156115bd57600080366115a68486611b82565b926115b393929190611bec565b9350935050509091565b6000366115b3565b6040516001600160a01b03848116602483015283811660448301526001600160e01b03198316606483015260009182918291829189169060840160408051601f198184030181529181526020820180516001600160e01b031663b700961360e01b179052516116349190611d25565b600060405180830381855afa9150503d806000811461166f576040519150601f19603f3d011682016040523d82523d6000602084013e611674565b606091505b509150915081156116c65760408151106116a6578080602001905181019061169c9190611d74565b90945092506116c6565b60208151106116c657808060200190518101906116c39190611ba5565b93505b505094509492505050565b6060826116e6576116e182611899565b611473565b81511580156116fd57506001600160a01b0384163b155b1561172657604051639996b31560e01b81526001600160a01b0385166004820152602401610579565b5092915050565b600082600001828154811061174457611744611c2c565b9060005260206000200154905092915050565b600081815260018301602052604081205461179e57508154600181810184556000848152602080822090930184905584548482528286019093526040902091909155610a39565b506000610a39565b6000818152600183016020526040812054801561188f5760006117ca600183611b82565b85549091506000906117de90600190611b82565b90508082146118435760008660000182815481106117fe576117fe611c2c565b906000526020600020015490508087600001848154811061182157611821611c2c565b6000918252602080832090910192909255918252600188019052604090208390555b855486908061185457611854611db4565b600190038181906000526020600020016000905590558560010160008681526020019081526020016000206000905560019350505050610a39565b6000915050610a39565b8051156118a95780518082602001fd5b604051630a12f52160e11b815260040160405180910390fd5b6000602082840312156118d457600080fd5b81356001600160e01b03198116811461147357600080fd5b60005b838110156119075781810151838201526020016118ef565b50506000910152565b600081518084526119288160208601602086016118ec565b601f01601f19169290920160200192915050565b6020815260006114736020830184611910565b80356001600160a01b038116811461196657600080fd5b919050565b60006020828403121561197d57600080fd5b6114738261194f565b6000806000806080858703121561199c57600080fd5b6119a58561194f565b93506119b36020860161194f565b92506119c16040860161194f565b9396929550929360600135925050565b600080604083850312156119e457600080fd5b6119ed8361194f565b946020939093013593505050565b60008060208385031215611a0e57600080fd5b823567ffffffffffffffff80821115611a2657600080fd5b818501915085601f830112611a3a57600080fd5b813581811115611a4957600080fd5b8660208260051b8501011115611a5e57600080fd5b60209290920196919550909350505050565b600060208083016020845280855180835260408601915060408160051b87010192506020870160005b82811015611ac757603f19888603018452611ab5858351611910565b94509285019290850190600101611a99565b5092979650505050505050565b600080600060608486031215611ae957600080fd5b611af28461194f565b9250611b006020850161194f565b9150604084013590509250925092565b60008060408385031215611b2357600080fd5b50508035926020909101359150565b600181811c90821680611b4657607f821691505b602082108103611b6657634e487b7160e01b600052602260045260246000fd5b50919050565b634e487b7160e01b600052601160045260246000fd5b81810381811115610a3957610a39611b6c565b8051801515811461196657600080fd5b600060208284031215611bb757600080fd5b61147382611b95565b80820180821115610a3957610a39611b6c565b600060208284031215611be557600080fd5b5051919050565b60008085851115611bfc57600080fd5b83861115611c0957600080fd5b5050820193919092039150565b634e487b7160e01b600052604160045260246000fd5b634e487b7160e01b600052603260045260246000fd5b6000808335601e19843603018112611c5957600080fd5b83018035915067ffffffffffffffff821115611c7457600080fd5b602001915036819003821315611c8957600080fd5b9250929050565b828482376000838201600081528351611cad8183602088016118ec565b0195945050505050565b6001600160e01b03198135818116916004851015610d215760049490940360031b84901b1690921692915050565b6001600160a01b03841681526040602082018190528101829052818360608301376000818301606090810191909152601f909201601f1916010192915050565b60008251611d378184602087016118ec565b9190910192915050565b6bffffffffffffffffffffffff198135818116916014851015610d215760149490940360031b84901b1690921692915050565b60008060408385031215611d8757600080fd5b611d9083611b95565b9150602083015163ffffffff81168114611da957600080fd5b809150509250929050565b634e487b7160e01b600052603160045260246000fdfea264697066735822122099f2a04f907e37b0765e8e49d1836c90a7999d25ff1a6e2536cc9ccea4a8ac5864736f6c63430008170033",
  "linkReferences": {},
  "deployedLinkReferences": {}
}