{
  "_format": "hh-sol-artifact-1",
  "contractName": "AAProject",
  "sourceName": "src/contracts/AAProject.sol",
  "abi": [
    {
      "inputs": [
        {
          "internalType": "string",
          "name": "_name",
          "type": "string"
        },
        {
          "internalType": "address",
          "name": "_defaultToken",
          "type": "address"
        },
        {
          "internalType": "address",
          "name": "_forwarder",
          "type": "address"
        },
        {
          "internalType": "address",
          "name": "_accessManager",
          "type": "address"
        },
        {
          "internalType": "address",
          "name": "_triggerManager",
          "type": "address"
        }
      ],
      "stateMutability": "nonpayable",
      "type": "constructor"
    },
    {
      "inputs": [
        {
          "internalType": "address",
          "name": "authority",
          "type": "address"
        }
      ],
      "name": "AccessManagedInvalidAuthority",
      "type": "error"
    },
    {
      "inputs": [
        {
          "internalType": "address",
          "name": "caller",
          "type": "address"
        },
        {
          "internalType": "uint32",
          "name": "delay",
          "type": "uint32"
        }
      ],
      "name": "AccessManagedRequiredDelay",
      "type": "error"
    },
    {
      "inputs": [
        {
          "internalType": "address",
          "name": "caller",
          "type": "address"
        }
      ],
      "name": "AccessManagedUnauthorized",
      "type": "error"
    },
    {
      "inputs": [
        {
          "internalType": "address",
          "name": "target",
          "type": "address"
        }
      ],
      "name": "AddressEmptyCode",
      "type": "error"
    },
    {
      "inputs": [],
      "name": "FailedInnerCall",
      "type": "error"
    },
    {
      "anonymous": false,
      "inputs": [
        {
          "indexed": false,
          "internalType": "address",
          "name": "authority",
          "type": "address"
        }
      ],
      "name": "AuthorityUpdated",
      "type": "event"
    },
    {
      "anonymous": false,
      "inputs": [
        {
          "indexed": true,
          "internalType": "address",
          "name": "beneficiary",
          "type": "address"
        },
        {
          "indexed": true,
          "internalType": "uint256",
          "name": "amount",
          "type": "uint256"
        }
      ],
      "name": "BenTokensAssigned",
      "type": "event"
    },
    {
      "anonymous": false,
      "inputs": [
        {
          "indexed": true,
          "internalType": "address",
          "name": "",
          "type": "address"
        }
      ],
      "name": "BeneficiaryAdded",
      "type": "event"
    },
    {
      "anonymous": false,
      "inputs": [
        {
          "indexed": true,
          "internalType": "address",
          "name": "",
          "type": "address"
        }
      ],
      "name": "BeneficiaryRemoved",
      "type": "event"
    },
    {
      "anonymous": false,
      "inputs": [
        {
          "indexed": true,
          "internalType": "address",
          "name": "beneficiary",
          "type": "address"
        },
        {
          "indexed": true,
          "internalType": "address",
          "name": "token",
          "type": "address"
        },
        {
          "indexed": true,
          "internalType": "address",
          "name": "assigner",
          "type": "address"
        }
      ],
      "name": "ClaimAssigned",
      "type": "event"
    },
    {
      "anonymous": false,
      "inputs": [
        {
          "indexed": true,
          "internalType": "address",
          "name": "tokenAddress",
          "type": "address"
        },
        {
          "indexed": false,
          "internalType": "uint256",
          "name": "amount",
          "type": "uint256"
        }
      ],
      "name": "TokenBudgetDecrease",
      "type": "event"
    },
    {
      "anonymous": false,
      "inputs": [
        {
          "indexed": true,
          "internalType": "address",
          "name": "tokenAddress",
          "type": "address"
        },
        {
          "indexed": false,
          "internalType": "uint256",
          "name": "amount",
          "type": "uint256"
        }
      ],
      "name": "TokenBudgetIncrease",
      "type": "event"
    },
    {
      "anonymous": false,
      "inputs": [
        {
          "indexed": true,
          "internalType": "address",
          "name": "token",
          "type": "address"
        },
        {
          "indexed": true,
          "internalType": "address",
          "name": "from",
          "type": "address"
        },
        {
          "indexed": false,
          "internalType": "uint256",
          "name": "amount",
          "type": "uint256"
        }
      ],
      "name": "TokenReceived",
      "type": "event"
    },
    {
      "anonymous": false,
      "inputs": [
        {
          "indexed": true,
          "internalType": "address",
          "name": "tokenAddress",
          "type": "address"
        }
      ],
      "name": "TokenRegistered",
      "type": "event"
    },
    {
      "anonymous": false,
      "inputs": [
        {
          "indexed": true,
          "internalType": "address",
          "name": "token",
          "type": "address"
        },
        {
          "indexed": true,
          "internalType": "address",
          "name": "to",
          "type": "address"
        },
        {
          "indexed": false,
          "internalType": "uint256",
          "name": "amount",
          "type": "uint256"
        }
      ],
      "name": "TokenTransfer",
      "type": "event"
    },
    {
      "anonymous": false,
      "inputs": [
        {
          "indexed": true,
          "internalType": "address",
          "name": "beneficiary",
          "type": "address"
        },
        {
          "indexed": true,
          "internalType": "address",
          "name": "vendor",
          "type": "address"
        },
        {
          "indexed": true,
          "internalType": "uint256",
          "name": "amount",
          "type": "uint256"
        }
      ],
      "name": "TokenTransferred",
      "type": "event"
    },
    {
      "anonymous": false,
      "inputs": [
        {
          "indexed": true,
          "internalType": "address",
          "name": "vendorAddress",
          "type": "address"
        },
        {
          "indexed": false,
          "internalType": "bool",
          "name": "status",
          "type": "bool"
        }
      ],
      "name": "VendorUpdated",
      "type": "event"
    },
    {
      "inputs": [],
      "name": "IID_RAHAT_PROJECT",
      "outputs": [
        {
          "internalType": "bytes4",
          "name": "",
          "type": "bytes4"
        }
      ],
      "stateMutability": "view",
      "type": "function"
    },
    {
      "inputs": [],
      "name": "TriggerManager",
      "outputs": [
        {
          "internalType": "contract ITriggerManager",
          "name": "",
          "type": "address"
        }
      ],
      "stateMutability": "view",
      "type": "function"
    },
    {
      "inputs": [
        {
          "internalType": "address",
          "name": "_address",
          "type": "address"
        }
      ],
      "name": "addBeneficiary",
      "outputs": [],
      "stateMutability": "nonpayable",
      "type": "function"
    },
    {
      "inputs": [
        {
          "internalType": "address",
          "name": "_beneficiary",
          "type": "address"
        },
        {
          "internalType": "uint256",
          "name": "_tokenAssigned",
          "type": "uint256"
        }
      ],
      "name": "assignClaims",
      "outputs": [],
      "stateMutability": "nonpayable",
      "type": "function"
    },
    {
      "inputs": [
        {
          "internalType": "address",
          "name": "_address",
          "type": "address"
        },
        {
          "internalType": "uint256",
          "name": "_amount",
          "type": "uint256"
        }
      ],
      "name": "assignTokenToBeneficiary",
      "outputs": [],
      "stateMutability": "nonpayable",
      "type": "function"
    },
    {
      "inputs": [],
      "name": "authority",
      "outputs": [
        {
          "internalType": "address",
          "name": "",
          "type": "address"
        }
      ],
      "stateMutability": "view",
      "type": "function"
    },
    {
      "inputs": [
        {
          "internalType": "address",
          "name": "",
          "type": "address"
        }
      ],
      "name": "benTokens",
      "outputs": [
        {
          "internalType": "uint256",
          "name": "",
          "type": "uint256"
        }
      ],
      "stateMutability": "view",
      "type": "function"
    },
    {
      "inputs": [],
      "name": "beneficiaryCount",
      "outputs": [
        {
          "internalType": "uint256",
          "name": "",
          "type": "uint256"
        }
      ],
      "stateMutability": "view",
      "type": "function"
    },
    {
      "inputs": [
        {
          "internalType": "address",
          "name": "_address",
          "type": "address"
        }
      ],
      "name": "checkVendorStatus",
      "outputs": [
        {
          "internalType": "bool",
          "name": "_vendorStatus",
          "type": "bool"
        }
      ],
      "stateMutability": "view",
      "type": "function"
    },
    {
      "inputs": [],
      "name": "defaultToken",
      "outputs": [
        {
          "internalType": "address",
          "name": "",
          "type": "address"
        }
      ],
      "stateMutability": "view",
      "type": "function"
    },
    {
      "inputs": [
        {
          "internalType": "address",
          "name": "_tokenAddress",
          "type": "address"
        },
        {
          "internalType": "uint256",
          "name": "_amount",
          "type": "uint256"
        }
      ],
      "name": "increaseTokenBudget",
      "outputs": [],
      "stateMutability": "nonpayable",
      "type": "function"
    },
    {
      "inputs": [
        {
          "internalType": "address",
          "name": "_address",
          "type": "address"
        }
      ],
      "name": "isBeneficiary",
      "outputs": [
        {
          "internalType": "bool",
          "name": "",
          "type": "bool"
        }
      ],
      "stateMutability": "view",
      "type": "function"
    },
    {
      "inputs": [],
      "name": "isConsumingScheduledOp",
      "outputs": [
        {
          "internalType": "bytes4",
          "name": "",
          "type": "bytes4"
        }
      ],
      "stateMutability": "view",
      "type": "function"
    },
    {
      "inputs": [
        {
          "internalType": "address",
          "name": "forwarder",
          "type": "address"
        }
      ],
      "name": "isTrustedForwarder",
      "outputs": [
        {
          "internalType": "bool",
          "name": "",
          "type": "bool"
        }
      ],
      "stateMutability": "view",
      "type": "function"
    },
    {
      "inputs": [
        {
          "internalType": "bytes[]",
          "name": "data",
          "type": "bytes[]"
        }
      ],
      "name": "multicall",
      "outputs": [
        {
          "internalType": "bytes[]",
          "name": "results",
          "type": "bytes[]"
        }
      ],
      "stateMutability": "nonpayable",
      "type": "function"
    },
    {
      "inputs": [],
      "name": "name",
      "outputs": [
        {
          "internalType": "string",
          "name": "",
          "type": "string"
        }
      ],
      "stateMutability": "view",
      "type": "function"
    },
    {
      "inputs": [
        {
          "internalType": "address",
          "name": "",
          "type": "address"
        }
      ],
      "name": "registeredTokens",
      "outputs": [
        {
          "internalType": "bool",
          "name": "",
          "type": "bool"
        }
      ],
      "stateMutability": "view",
      "type": "function"
    },
    {
      "inputs": [
        {
          "internalType": "address",
          "name": "_address",
          "type": "address"
        }
      ],
      "name": "removeBeneficiary",
      "outputs": [],
      "stateMutability": "nonpayable",
      "type": "function"
    },
    {
      "inputs": [
        {
          "internalType": "address",
          "name": "newAuthority",
          "type": "address"
        }
      ],
      "name": "setAuthority",
      "outputs": [],
      "stateMutability": "nonpayable",
      "type": "function"
    },
    {
      "inputs": [
        {
          "internalType": "bytes4",
          "name": "interfaceId",
          "type": "bytes4"
        }
      ],
      "name": "supportsInterface",
      "outputs": [
        {
          "internalType": "bool",
          "name": "",
          "type": "bool"
        }
      ],
      "stateMutability": "view",
      "type": "function"
    },
    {
      "inputs": [
        {
          "internalType": "address",
          "name": "_tokenAddress",
          "type": "address"
        }
      ],
      "name": "tokenBudget",
      "outputs": [
        {
          "internalType": "uint256",
          "name": "",
          "type": "uint256"
        }
      ],
      "stateMutability": "view",
      "type": "function"
    },
    {
      "inputs": [],
      "name": "totalClaimsAssigned",
      "outputs": [
        {
          "internalType": "uint256",
          "name": "_totalClaims",
          "type": "uint256"
        }
      ],
      "stateMutability": "view",
      "type": "function"
    },
    {
      "inputs": [
        {
          "internalType": "address",
          "name": "_benAddress",
          "type": "address"
        },
        {
          "internalType": "address",
          "name": "_vendorAddress",
          "type": "address"
        },
        {
          "internalType": "uint256",
          "name": "_amount",
          "type": "uint256"
        }
      ],
      "name": "transferTokenToVendor",
      "outputs": [],
      "stateMutability": "nonpayable",
      "type": "function"
    },
    {
      "inputs": [],
      "name": "trustedForwarder",
      "outputs": [
        {
          "internalType": "address",
          "name": "",
          "type": "address"
        }
      ],
      "stateMutability": "view",
      "type": "function"
    }
  ],
  "bytecode": "0x60a06040523480156200001157600080fd5b5060405162001c7338038062001c7383398101604081905262000034916200011d565b8183866004620000458282620002ce565b50506001600160a01b03166080526200005e8162000096565b50600980546001600160a01b039586166001600160a01b0319918216179091556008805492909516911617909255506200039a915050565b600780546001600160a01b0319166001600160a01b0383169081179091556040519081527f2f658b440c35314f52658ea8a740e05b284cdc84dc9ae01e891f21b8933e7cad9060200160405180910390a150565b634e487b7160e01b600052604160045260246000fd5b80516001600160a01b03811681146200011857600080fd5b919050565b600080600080600060a086880312156200013657600080fd5b85516001600160401b03808211156200014e57600080fd5b818801915088601f8301126200016357600080fd5b815181811115620001785762000178620000ea565b604051601f8201601f19908116603f01168101908382118183101715620001a357620001a3620000ea565b81604052828152602093508b84848701011115620001c057600080fd5b600091505b82821015620001e45784820184015181830185015290830190620001c5565b6000848483010152809950505050620001ff81890162000100565b95505050620002116040870162000100565b9250620002216060870162000100565b9150620002316080870162000100565b90509295509295909350565b600181811c908216806200025257607f821691505b6020821081036200027357634e487b7160e01b600052602260045260246000fd5b50919050565b601f821115620002c9576000816000526020600020601f850160051c81016020861015620002a45750805b601f850160051c820191505b81811015620002c557828155600101620002b0565b5050505b505050565b81516001600160401b03811115620002ea57620002ea620000ea565b6200030281620002fb84546200023d565b8462000279565b602080601f8311600181146200033a5760008415620003215750858301515b600019600386901b1c1916600185901b178555620002c5565b600085815260208120601f198616915b828110156200036b578886015182559484019460019091019084016200034a565b50858210156200038a5787850151600019600388901b60f8161c191681555b5050505050600190811b01905550565b6080516118b6620003bd600039600081816102dd01526104b801526118b66000f3fe608060405234801561001057600080fd5b50600436106101585760003560e01c806374c13fda116100c35780639d19b2261161007c5780639d19b2261461033f578063aa12214f14610352578063ac9650d814610365578063bf7e214f14610385578063cd9f35af14610396578063eb681e62146103a957600080fd5b806374c13fda146102b55780637a9e5e4b146102c85780637da0a877146102db5780638c0bd916146103015780638fb360371461032457806397b53ca31461032c57600080fd5b8063572b6c0511610115578063572b6c05146102335780635926651d1461024657806359633a1c1461025b57806364c20dc11461026e5780636f4efa3614610281578063734b2a7c146102ad57600080fd5b806301ffc9a71461015d57806306fdde03146101965780631fe9497c146101ab5780634fc3171b146101d65780634fe21571146101ec578063501773ba14610213575b600080fd5b61018161016b3660046113e5565b6001600160e01b031916634bf831d160e11b1490565b60405190151581526020015b60405180910390f35b61019e6103d2565b60405161018d919061145f565b6008546101be906001600160a01b031681565b6040516001600160a01b03909116815260200161018d565b6101de610460565b60405190815260200161018d565b6101fa634bf831d160e11b81565b6040516001600160e01b0319909116815260200161018d565b6101de61022136600461148e565b600d6020526000908152604090205481565b61018161024136600461148e565b6104b6565b61025961025436600461148e565b6104e8565b005b61025961026936600461148e565b61050c565b61025961027c3660046114a9565b610520565b61018161028f36600461148e565b6001600160a01b031660009081526003602052604090205460ff1690565b6101de610544565b6009546101be906001600160a01b031681565b6102596102d636600461148e565b610555565b7f00000000000000000000000000000000000000000000000000000000000000006101be565b61018161030f36600461148e565b600c6020526000908152604090205460ff1681565b6101fa6105f2565b61025961033a3660046114a9565b610618565b61018161034d36600461148e565b6106fa565b6102596103603660046114a9565b61070d565b6103786103733660046114d3565b61084e565b60405161018d9190611548565b6007546001600160a01b03166101be565b6102596103a43660046115ac565b6109ad565b6101de6103b736600461148e565b6001600160a01b031660009081526001602052604090205490565b600480546103df906115e8565b80601f016020809104026020016040519081016040528092919081815260200182805461040b906115e8565b80156104585780601f1061042d57610100808354040283529160200191610458565b820191906000526020600020905b81548152906001019060200180831161043b57829003601f168201915b505050505081565b6000805b61046e6005610b3c565b8110156104b257600d6000610484600584610b46565b6001600160a01b031681526020810191909152604001600020546104a89083611638565b9150600101610464565b5090565b7f00000000000000000000000000000000000000000000000000000000000000006001600160a01b0390811691161490565b6105006104f3610b59565b6104fb610b63565b610b76565b61050981610c76565b50565b6105176104f3610b59565b61050981610cc5565b6009546105409083906001600160a01b03168361053b610b59565b610d15565b5050565b60006105506005610b3c565b905090565b600061055f610b59565b90506105736007546001600160a01b031690565b6001600160a01b0316816001600160a01b0316146105b35760405162d1953b60e31b81526001600160a01b03821660048201526024015b60405180910390fd5b816001600160a01b03163b6000036105e9576040516361798f2f60e11b81526001600160a01b03831660048201526024016105aa565b61054082610e5b565b600754600090600160a01b900460ff1661060c5750600090565b50638fb3603760e01b90565b6001600160a01b03821660009081526001602052604090205461063b8282611638565b836001600160a01b03166318160ddd6040518163ffffffff1660e01b8152600401602060405180830381865afa158015610679573d6000803e3d6000fd5b505050506040513d601f19601f8201168201806040525081019061069d919061164b565b10156106eb5760405162461bcd60e51b815260206004820152601960248201527f47726561746572207468616e20746f74616c20737570706c790000000000000060448201526064016105aa565b6106f58383610eaf565b505050565b6000610707600583610f87565b92915050565b6107186104f3610b59565b80610721610460565b61072b9190611638565b6009546040516370a0823160e01b81523060048201526001600160a01b03909116906370a0823190602401602060405180830381865afa158015610773573d6000803e3d6000fd5b505050506040513d601f19601f82011682018060405250810190610797919061164b565b10156107d95760405162461bcd60e51b81526020600482015260116024820152706e6f7420656e6f75676820746f6b656e7360781b60448201526064016105aa565b6107e282610c76565b6001600160a01b0382166000908152600d6020526040902054610806908290611638565b6001600160a01b0383166000818152600d602052604080822093909355915183927fef5648f5b1a6a7e4e9314d032b440a9f2c124b6e584c8fb4eb8d057f11b0069591a35050565b6060600061085a610b59565b6001600160a01b0316336001600160a01b0316146108c557600036610880601482611664565b61088b928290611677565b8080601f0160208091040260200160405190810160405280939291908181526020018383808284376000920191909152506108d592505050565b6040805160008152602081019091525b90508267ffffffffffffffff8111156108f0576108f06116a1565b60405190808252806020026020018201604052801561092357816020015b606081526020019060019003908161090e5790505b50915060005b838110156109a55761098030868684818110610947576109476116b7565b905060200281019061095991906116cd565b8560405160200161096c9392919061171b565b604051602081830303815290604052610fa9565b838281518110610992576109926116b7565b6020908102919091010152600101610929565b505092915050565b6109b86104f3610b59565b6001600160a01b0383166000908152600d6020526040902054811115610a145760405162461bcd60e51b81526020600482015260116024820152706e6f7420656e6f7567682062616c61636560781b60448201526064016105aa565b6001600160a01b0383166000908152600d602052604081208054839290610a3c908490611664565b909155505060095460405163a9059cbb60e01b81526001600160a01b038481166004830152602482018490529091169063a9059cbb906044016020604051808303816000875af1158015610a94573d6000803e3d6000fd5b505050506040513d601f19601f82011682018060405250810190610ab89190611752565b610af65760405162461bcd60e51b815260206004820152600f60248201526e1d1c985b9cd9995c8819985a5b1959608a1b60448201526064016105aa565b80826001600160a01b0316846001600160a01b03167f9c8515990fd8c61431c4ac8db9b81475f90c292a1dda77731e56c22e64fc764360405160405180910390a4505050565b6000610707825490565b6000610b52838361101f565b9392505050565b6000610550611049565b366000610b6e61109b565b915091509091565b600080610bac610b8e6007546001600160a01b031690565b8630610b9e60046000898b611677565b610ba79161176d565b6110e8565b9150915081610c6f5763ffffffff811615610c4c576007805460ff60a01b198116600160a01b17909155604051634a63ebf760e11b81526001600160a01b03909116906394c7d7ee90610c079088908890889060040161179b565b600060405180830381600087803b158015610c2157600080fd5b505af1158015610c35573d6000803e3d6000fd5b50506007805460ff60a01b1916905550610c6f9050565b60405162d1953b60e31b81526001600160a01b03861660048201526024016105aa565b5050505050565b610c81600582610f87565b610cba576040516001600160a01b038216907fc3e089fc6227e049d0e41c3d7a383d57efe69c1955c5752f7e5a9b5f1f11302090600090a25b6105406005826111f4565b610cd0600582610f87565b15610d0a576040516001600160a01b038216907f72977dad29432f655f11c2f0e72ef5124bb9ade7a512fb7a43a9f504df22342890600090a25b610540600582611209565b6001600160a01b0384166000908152600d6020526040902054821115610d725760405162461bcd60e51b81526020600482015260126024820152716e6f7420656e6f7567682062616c616e636560701b60448201526064016105aa565b60405163a9059cbb60e01b81526001600160a01b0385811660048301526024820184905284169063a9059cbb906044016020604051808303816000875af1158015610dc1573d6000803e3d6000fd5b505050506040513d601f19601f82011682018060405250810190610de59190611752565b506001600160a01b0384166000908152600d6020526040902054610e0a908390611664565b6001600160a01b038086166000818152600d602052604080822094909455925184831693928716927feb1af03631473cb26a0692e7db7c4284c5cb931143431dde2ba575fdb1cdb0bf91a450505050565b600780546001600160a01b0319166001600160a01b0383169081179091556040519081527f2f658b440c35314f52658ea8a740e05b284cdc84dc9ae01e891f21b8933e7cad9060200160405180910390a150565b6001600160a01b03821660009081526001602052604081208054839290610ed7908490611638565b90915550506040518181526001600160a01b038316907fe49f42d07d8046279c22af872fe6bc5678c4dfc38ace0f43b8e8d5a03d0e8f109060200160405180910390a26001600160a01b03821660009081526002602052604090205460ff16610540576001600160a01b038216600081815260026020526040808220805460ff19166001179055517f158412daecdc1456d01568828bcdb18464cc7f1ce0215ddbc3f3cfede9d1e63d9190a25050565b6001600160a01b03811660009081526001830160205260408120541515610b52565b6060600080846001600160a01b031684604051610fc691906117db565b600060405180830381855af49150503d8060008114611001576040519150601f19603f3d011682016040523d82523d6000602084013e611006565b606091505b509150915061101685838361121e565b95945050505050565b6000826000018281548110611036576110366116b7565b9060005260206000200154905092915050565b6000366014611057336104b6565b80156110635750808210155b15611093576000366110758385611664565b611080928290611677565b611089916117f7565b60601c9250505090565b339250505090565b3660008160146110aa336104b6565b80156110b65750808210155b156110e057600080366110c98486611664565b926110d693929190611677565b9350935050509091565b6000366110d6565b6040516001600160a01b03848116602483015283811660448301526001600160e01b03198316606483015260009182918291829189169060840160408051601f198184030181529181526020820180516001600160e01b031663b700961360e01b1790525161115791906117db565b600060405180830381855afa9150503d8060008114611192576040519150601f19603f3d011682016040523d82523d6000602084013e611197565b606091505b509150915081156111e95760408151106111c957808060200190518101906111bf919061182a565b90945092506111e9565b60208151106111e957808060200190518101906111e69190611752565b93505b505094509492505050565b6000610b52836001600160a01b03841661127a565b6000610b52836001600160a01b0384166112c9565b6060826112335761122e826113bc565b610b52565b815115801561124a57506001600160a01b0384163b155b1561127357604051639996b31560e01b81526001600160a01b03851660048201526024016105aa565b5092915050565b60008181526001830160205260408120546112c157508154600181810184556000848152602080822090930184905584548482528286019093526040902091909155610707565b506000610707565b600081815260018301602052604081205480156113b25760006112ed600183611664565b855490915060009061130190600190611664565b9050808214611366576000866000018281548110611321576113216116b7565b9060005260206000200154905080876000018481548110611344576113446116b7565b6000918252602080832090910192909255918252600188019052604090208390555b85548690806113775761137761186a565b600190038181906000526020600020016000905590558560010160008681526020019081526020016000206000905560019350505050610707565b6000915050610707565b8051156113cc5780518082602001fd5b604051630a12f52160e11b815260040160405180910390fd5b6000602082840312156113f757600080fd5b81356001600160e01b031981168114610b5257600080fd5b60005b8381101561142a578181015183820152602001611412565b50506000910152565b6000815180845261144b81602086016020860161140f565b601f01601f19169290920160200192915050565b602081526000610b526020830184611433565b80356001600160a01b038116811461148957600080fd5b919050565b6000602082840312156114a057600080fd5b610b5282611472565b600080604083850312156114bc57600080fd5b6114c583611472565b946020939093013593505050565b600080602083850312156114e657600080fd5b823567ffffffffffffffff808211156114fe57600080fd5b818501915085601f83011261151257600080fd5b81358181111561152157600080fd5b8660208260051b850101111561153657600080fd5b60209290920196919550909350505050565b600060208083016020845280855180835260408601915060408160051b87010192506020870160005b8281101561159f57603f1988860301845261158d858351611433565b94509285019290850190600101611571565b5092979650505050505050565b6000806000606084860312156115c157600080fd5b6115ca84611472565b92506115d860208501611472565b9150604084013590509250925092565b600181811c908216806115fc57607f821691505b60208210810361161c57634e487b7160e01b600052602260045260246000fd5b50919050565b634e487b7160e01b600052601160045260246000fd5b8082018082111561070757610707611622565b60006020828403121561165d57600080fd5b5051919050565b8181038181111561070757610707611622565b6000808585111561168757600080fd5b8386111561169457600080fd5b5050820193919092039150565b634e487b7160e01b600052604160045260246000fd5b634e487b7160e01b600052603260045260246000fd5b6000808335601e198436030181126116e457600080fd5b83018035915067ffffffffffffffff8211156116ff57600080fd5b60200191503681900382131561171457600080fd5b9250929050565b82848237600083820160008152835161173881836020880161140f565b0195945050505050565b8051801515811461148957600080fd5b60006020828403121561176457600080fd5b610b5282611742565b6001600160e01b031981358181169160048510156109a55760049490940360031b84901b1690921692915050565b6001600160a01b03841681526040602082018190528101829052818360608301376000818301606090810191909152601f909201601f1916010192915050565b600082516117ed81846020870161140f565b9190910192915050565b6bffffffffffffffffffffffff1981358181169160148510156109a55760149490940360031b84901b1690921692915050565b6000806040838503121561183d57600080fd5b61184683611742565b9150602083015163ffffffff8116811461185f57600080fd5b809150509250929050565b634e487b7160e01b600052603160045260246000fdfea264697066735822122067baf68f46e3892db92ea3e2d64498188b68df392dcda3036899e23c7544386064736f6c63430008170033",
  "linkReferences": {},
  "deployedLinkReferences": {}
}