{
  "_format": "hh-sol-artifact-1",
  "contractName": "AAProject",
  "sourceName": "src/contracts/AAProject.sol",
  "abi": [
    {
      "inputs": [
        {
          "internalType": "string",
          "name": "_name",
          "type": "string"
        },
        {
          "internalType": "address",
          "name": "_defaultToken",
          "type": "address"
        },
        {
          "internalType": "address",
          "name": "_forwarder",
          "type": "address"
        },
        {
          "internalType": "address",
          "name": "_triggerManager",
          "type": "address"
        }
      ],
      "stateMutability": "nonpayable",
      "type": "constructor"
    },
    {
      "inputs": [
        {
          "internalType": "address",
          "name": "target",
          "type": "address"
        }
      ],
      "name": "AddressEmptyCode",
      "type": "error"
    },
    {
      "inputs": [],
      "name": "FailedInnerCall",
      "type": "error"
    },
    {
      "anonymous": false,
      "inputs": [
        {
          "indexed": true,
          "internalType": "address",
          "name": "beneficiary",
          "type": "address"
        },
        {
          "indexed": true,
          "internalType": "uint256",
          "name": "amount",
          "type": "uint256"
        }
      ],
      "name": "BenTokensAssigned",
      "type": "event"
    },
    {
      "anonymous": false,
      "inputs": [
        {
          "indexed": true,
          "internalType": "address",
          "name": "",
          "type": "address"
        }
      ],
      "name": "BeneficiaryAdded",
      "type": "event"
    },
    {
      "anonymous": false,
      "inputs": [
        {
          "indexed": true,
          "internalType": "address",
          "name": "",
          "type": "address"
        }
      ],
      "name": "BeneficiaryRemoved",
      "type": "event"
    },
    {
      "anonymous": false,
      "inputs": [
        {
          "indexed": true,
          "internalType": "address",
          "name": "beneficiary",
          "type": "address"
        },
        {
          "indexed": true,
          "internalType": "address",
          "name": "token",
          "type": "address"
        },
        {
          "indexed": true,
          "internalType": "address",
          "name": "assigner",
          "type": "address"
        }
      ],
      "name": "ClaimAssigned",
      "type": "event"
    },
    {
      "anonymous": false,
      "inputs": [
        {
          "indexed": true,
          "internalType": "address",
          "name": "tokenAddress",
          "type": "address"
        },
        {
          "indexed": false,
          "internalType": "uint256",
          "name": "amount",
          "type": "uint256"
        }
      ],
      "name": "TokenBudgetDecrease",
      "type": "event"
    },
    {
      "anonymous": false,
      "inputs": [
        {
          "indexed": true,
          "internalType": "address",
          "name": "tokenAddress",
          "type": "address"
        },
        {
          "indexed": false,
          "internalType": "uint256",
          "name": "amount",
          "type": "uint256"
        }
      ],
      "name": "TokenBudgetIncrease",
      "type": "event"
    },
    {
      "anonymous": false,
      "inputs": [
        {
          "indexed": true,
          "internalType": "address",
          "name": "token",
          "type": "address"
        },
        {
          "indexed": true,
          "internalType": "address",
          "name": "from",
          "type": "address"
        },
        {
          "indexed": false,
          "internalType": "uint256",
          "name": "amount",
          "type": "uint256"
        }
      ],
      "name": "TokenReceived",
      "type": "event"
    },
    {
      "anonymous": false,
      "inputs": [
        {
          "indexed": true,
          "internalType": "address",
          "name": "tokenAddress",
          "type": "address"
        }
      ],
      "name": "TokenRegistered",
      "type": "event"
    },
    {
      "anonymous": false,
      "inputs": [
        {
          "indexed": true,
          "internalType": "address",
          "name": "token",
          "type": "address"
        },
        {
          "indexed": true,
          "internalType": "address",
          "name": "to",
          "type": "address"
        },
        {
          "indexed": false,
          "internalType": "uint256",
          "name": "amount",
          "type": "uint256"
        }
      ],
      "name": "TokenTransfer",
      "type": "event"
    },
    {
      "anonymous": false,
      "inputs": [
        {
          "indexed": true,
          "internalType": "address",
          "name": "vendorAddress",
          "type": "address"
        },
        {
          "indexed": false,
          "internalType": "bool",
          "name": "status",
          "type": "bool"
        }
      ],
      "name": "VendorUpdated",
      "type": "event"
    },
    {
      "inputs": [],
      "name": "IID_RAHAT_PROJECT",
      "outputs": [
        {
          "internalType": "bytes4",
          "name": "",
          "type": "bytes4"
        }
      ],
      "stateMutability": "view",
      "type": "function"
    },
    {
      "inputs": [],
      "name": "TriggerManager",
      "outputs": [
        {
          "internalType": "contract ITriggerManager",
          "name": "",
          "type": "address"
        }
      ],
      "stateMutability": "view",
      "type": "function"
    },
    {
      "inputs": [
        {
          "internalType": "address",
          "name": "_address",
          "type": "address"
        }
      ],
      "name": "addBeneficiary",
      "outputs": [],
      "stateMutability": "nonpayable",
      "type": "function"
    },
    {
      "inputs": [
        {
          "internalType": "address",
          "name": "_beneficiary",
          "type": "address"
        },
        {
          "internalType": "uint256",
          "name": "_tokenAssigned",
          "type": "uint256"
        }
      ],
      "name": "assignClaims",
      "outputs": [],
      "stateMutability": "nonpayable",
      "type": "function"
    },
    {
      "inputs": [
        {
          "internalType": "address",
          "name": "_address",
          "type": "address"
        },
        {
          "internalType": "uint256",
          "name": "_amount",
          "type": "uint256"
        }
      ],
      "name": "assignTokenToBeneficiary",
      "outputs": [],
      "stateMutability": "nonpayable",
      "type": "function"
    },
    {
      "inputs": [
        {
          "internalType": "address",
          "name": "",
          "type": "address"
        }
      ],
      "name": "benTokens",
      "outputs": [
        {
          "internalType": "uint256",
          "name": "",
          "type": "uint256"
        }
      ],
      "stateMutability": "view",
      "type": "function"
    },
    {
      "inputs": [],
      "name": "beneficiaryCount",
      "outputs": [
        {
          "internalType": "uint256",
          "name": "",
          "type": "uint256"
        }
      ],
      "stateMutability": "view",
      "type": "function"
    },
    {
      "inputs": [
        {
          "internalType": "address",
          "name": "_address",
          "type": "address"
        }
      ],
      "name": "checkVendorStatus",
      "outputs": [
        {
          "internalType": "bool",
          "name": "_vendorStatus",
          "type": "bool"
        }
      ],
      "stateMutability": "view",
      "type": "function"
    },
    {
      "inputs": [],
      "name": "defaultToken",
      "outputs": [
        {
          "internalType": "address",
          "name": "",
          "type": "address"
        }
      ],
      "stateMutability": "view",
      "type": "function"
    },
    {
      "inputs": [
        {
          "internalType": "address",
          "name": "_tokenAddress",
          "type": "address"
        },
        {
          "internalType": "uint256",
          "name": "_amount",
          "type": "uint256"
        }
      ],
      "name": "increaseTokenBudget",
      "outputs": [],
      "stateMutability": "nonpayable",
      "type": "function"
    },
    {
      "inputs": [
        {
          "internalType": "address",
          "name": "_address",
          "type": "address"
        }
      ],
      "name": "isBeneficiary",
      "outputs": [
        {
          "internalType": "bool",
          "name": "",
          "type": "bool"
        }
      ],
      "stateMutability": "view",
      "type": "function"
    },
    {
      "inputs": [
        {
          "internalType": "address",
          "name": "forwarder",
          "type": "address"
        }
      ],
      "name": "isTrustedForwarder",
      "outputs": [
        {
          "internalType": "bool",
          "name": "",
          "type": "bool"
        }
      ],
      "stateMutability": "view",
      "type": "function"
    },
    {
      "inputs": [
        {
          "internalType": "bytes[]",
          "name": "data",
          "type": "bytes[]"
        }
      ],
      "name": "multicall",
      "outputs": [
        {
          "internalType": "bytes[]",
          "name": "results",
          "type": "bytes[]"
        }
      ],
      "stateMutability": "nonpayable",
      "type": "function"
    },
    {
      "inputs": [],
      "name": "name",
      "outputs": [
        {
          "internalType": "string",
          "name": "",
          "type": "string"
        }
      ],
      "stateMutability": "view",
      "type": "function"
    },
    {
      "inputs": [
        {
          "internalType": "address",
          "name": "",
          "type": "address"
        }
      ],
      "name": "registeredTokens",
      "outputs": [
        {
          "internalType": "bool",
          "name": "",
          "type": "bool"
        }
      ],
      "stateMutability": "view",
      "type": "function"
    },
    {
      "inputs": [
        {
          "internalType": "address",
          "name": "_address",
          "type": "address"
        }
      ],
      "name": "removeBeneficiary",
      "outputs": [],
      "stateMutability": "nonpayable",
      "type": "function"
    },
    {
      "inputs": [
        {
          "internalType": "bytes4",
          "name": "interfaceId",
          "type": "bytes4"
        }
      ],
      "name": "supportsInterface",
      "outputs": [
        {
          "internalType": "bool",
          "name": "",
          "type": "bool"
        }
      ],
      "stateMutability": "view",
      "type": "function"
    },
    {
      "inputs": [
        {
          "internalType": "address",
          "name": "_tokenAddress",
          "type": "address"
        }
      ],
      "name": "tokenBudget",
      "outputs": [
        {
          "internalType": "uint256",
          "name": "",
          "type": "uint256"
        }
      ],
      "stateMutability": "view",
      "type": "function"
    },
    {
      "inputs": [],
      "name": "totalClaimsAssigned",
      "outputs": [
        {
          "internalType": "uint256",
          "name": "_totalClaims",
          "type": "uint256"
        }
      ],
      "stateMutability": "view",
      "type": "function"
    },
    {
      "inputs": [],
      "name": "totalTotalAssigned",
      "outputs": [
        {
          "internalType": "uint256",
          "name": "",
          "type": "uint256"
        }
      ],
      "stateMutability": "view",
      "type": "function"
    },
    {
      "inputs": [],
      "name": "trustedForwarder",
      "outputs": [
        {
          "internalType": "address",
          "name": "",
          "type": "address"
        }
      ],
      "stateMutability": "view",
      "type": "function"
    }
  ],
  "bytecode": "0x60a06040523480156200001157600080fd5b50604051620015b5380380620015b58339810160408190526200003491620000b6565b8184600462000044828262000254565b50506001600160a01b03908116608052600880549482166001600160a01b03199586161790556007805492909116919093161790915550620003209050565b634e487b7160e01b600052604160045260246000fd5b80516001600160a01b0381168114620000b157600080fd5b919050565b60008060008060808587031215620000cd57600080fd5b84516001600160401b0380821115620000e557600080fd5b818701915087601f830112620000fa57600080fd5b8151818111156200010f576200010f62000083565b604051601f8201601f19908116603f011681019083821181831017156200013a576200013a62000083565b81604052828152602093508a848487010111156200015757600080fd5b600091505b828210156200017b57848201840151818301850152908301906200015c565b60008484830101528098505050506200019681880162000099565b94505050620001a86040860162000099565b9150620001b86060860162000099565b905092959194509250565b600181811c90821680620001d857607f821691505b602082108103620001f957634e487b7160e01b600052602260045260246000fd5b50919050565b601f8211156200024f576000816000526020600020601f850160051c810160208610156200022a5750805b601f850160051c820191505b818110156200024b5782815560010162000236565b5050505b505050565b81516001600160401b0381111562000270576200027062000083565b6200028881620002818454620001c3565b84620001ff565b602080601f831160018114620002c05760008415620002a75750858301515b600019600386901b1c1916600185901b1785556200024b565b600085815260208120601f198616915b82811015620002f157888601518255948401946001909101908401620002d0565b5085821015620003105787850151600019600388901b60f8161c191681555b5050505050600190811b01905550565b60805161126b6200034a60003960008181610222015281816102df0152610c61015261126b6000f3fe608060405234801561001057600080fd5b50600436106101375760003560e01c806364c20dc1116100b85780638c0bd9161161007c5780638c0bd9161461030357806397b53ca3146103265780639d19b22614610339578063aa12214f1461034c578063ac9650d81461035f578063eb681e621461037f57600080fd5b806364c20dc1146102835780636f4efa3614610296578063734b2a7c146102c257806374c13fda146102ca5780637da0a877146102dd57600080fd5b8063501773ba116100ff578063501773ba146101f2578063572b6c05146102125780635926651d1461025257806359633a1c146102675780635e6deb7f1461027a57600080fd5b806301ffc9a71461013c57806306fdde03146101755780631fe9497c1461018a5780634fc3171b146101b55780634fe21571146101cb575b600080fd5b61016061014a366004610e8d565b6001600160e01b031916634bf831d160e11b1490565b60405190151581526020015b60405180910390f35b61017d6103a8565b60405161016c9190610f07565b60075461019d906001600160a01b031681565b6040516001600160a01b03909116815260200161016c565b6101bd610436565b60405190815260200161016c565b6101d9634bf831d160e11b81565b6040516001600160e01b0319909116815260200161016c565b6101bd610200366004610f36565b600c6020526000908152604090205481565b610160610220366004610f36565b7f00000000000000000000000000000000000000000000000000000000000000006001600160a01b0390811691161490565b610265610260366004610f36565b61048c565b005b610265610275366004610f36565b610498565b6101bd600d5481565b610265610291366004610f51565b6104a1565b6101606102a4366004610f36565b6001600160a01b031660009081526003602052604090205460ff1690565b6101bd6104c5565b60085461019d906001600160a01b031681565b7f000000000000000000000000000000000000000000000000000000000000000061019d565b610160610311366004610f36565b600b6020526000908152604090205460ff1681565b610265610334366004610f51565b6104d6565b610160610347366004610f36565b6105bd565b61026561035a366004610f51565b6105d0565b61037261036d366004610f7b565b610722565b60405161016c9190610ff0565b6101bd61038d366004610f36565b6001600160a01b031660009081526001602052604090205490565b600480546103b590611054565b80601f01602080910402602001604051908101604052809291908181526020018280546103e190611054565b801561042e5780601f106104035761010080835404028352916020019161042e565b820191906000526020600020905b81548152906001019060200180831161041157829003601f168201915b505050505081565b6000805b6104446005610881565b81101561048857600c600061045a60058461088b565b6001600160a01b0316815260208101919091526040016000205461047e90836110a4565b915060010161043a565b5090565b6104958161089e565b50565b610495816108ed565b6008546104c19083906001600160a01b0316836104bc61093d565b610947565b5050565b60006104d16005610881565b905090565b6001600160a01b0382166000908152600160205260409020546104f982826110a4565b836001600160a01b03166318160ddd6040518163ffffffff1660e01b8152600401602060405180830381865afa158015610537573d6000803e3d6000fd5b505050506040513d601f19601f8201168201806040525081019061055b91906110b7565b10156105ae5760405162461bcd60e51b815260206004820152601960248201527f47726561746572207468616e20746f74616c20737570706c790000000000000060448201526064015b60405180910390fd5b6105b88383610a8d565b505050565b60006105ca600583610b65565b92915050565b806105d9610436565b6105e391906110a4565b6008546040516370a0823160e01b81523060048201526001600160a01b03909116906370a0823190602401602060405180830381865afa15801561062b573d6000803e3d6000fd5b505050506040513d601f19601f8201168201806040525081019061064f91906110b7565b10156106915760405162461bcd60e51b81526020600482015260116024820152706e6f7420656e6f75676820746f6b656e7360781b60448201526064016105a5565b61069a8261089e565b6001600160a01b0382166000908152600c60205260409020546106be9082906110a4565b6001600160a01b0383166000908152600c6020526040902055600d546106e59082906110a4565b600d5560405181906001600160a01b038416907fef5648f5b1a6a7e4e9314d032b440a9f2c124b6e584c8fb4eb8d057f11b0069590600090a35050565b6060600061072e61093d565b6001600160a01b0316336001600160a01b031614610799576000366107546014826110d0565b61075f9282906110e3565b8080601f0160208091040260200160405190810160405280939291908181526020018383808284376000920191909152506107a992505050565b6040805160008152602081019091525b90508267ffffffffffffffff8111156107c4576107c461110d565b6040519080825280602002602001820160405280156107f757816020015b60608152602001906001900390816107e25790505b50915060005b83811015610879576108543086868481811061081b5761081b611123565b905060200281019061082d9190611139565b8560405160200161084093929190611187565b604051602081830303815290604052610b87565b83828151811061086657610866611123565b60209081029190910101526001016107fd565b505092915050565b60006105ca825490565b60006108978383610bfd565b9392505050565b6108a9600582610b65565b6108e2576040516001600160a01b038216907fc3e089fc6227e049d0e41c3d7a383d57efe69c1955c5752f7e5a9b5f1f11302090600090a25b6104c1600582610c27565b6108f8600582610b65565b15610932576040516001600160a01b038216907f72977dad29432f655f11c2f0e72ef5124bb9ade7a512fb7a43a9f504df22342890600090a25b6104c1600582610c3c565b60006104d1610c51565b6001600160a01b0384166000908152600c60205260409020548211156109a45760405162461bcd60e51b81526020600482015260126024820152716e6f7420656e6f7567682062616c616e636560701b60448201526064016105a5565b60405163a9059cbb60e01b81526001600160a01b0385811660048301526024820184905284169063a9059cbb906044016020604051808303816000875af11580156109f3573d6000803e3d6000fd5b505050506040513d601f19601f82011682018060405250810190610a1791906111ae565b506001600160a01b0384166000908152600c6020526040902054610a3c9083906110d0565b6001600160a01b038086166000818152600c602052604080822094909455925184831693928716927feb1af03631473cb26a0692e7db7c4284c5cb931143431dde2ba575fdb1cdb0bf91a450505050565b6001600160a01b03821660009081526001602052604081208054839290610ab59084906110a4565b90915550506040518181526001600160a01b038316907fe49f42d07d8046279c22af872fe6bc5678c4dfc38ace0f43b8e8d5a03d0e8f109060200160405180910390a26001600160a01b03821660009081526002602052604090205460ff166104c1576001600160a01b038216600081815260026020526040808220805460ff19166001179055517f158412daecdc1456d01568828bcdb18464cc7f1ce0215ddbc3f3cfede9d1e63d9190a25050565b6001600160a01b03811660009081526001830160205260408120541515610897565b6060600080846001600160a01b031684604051610ba491906111d0565b600060405180830381855af49150503d8060008114610bdf576040519150601f19603f3d011682016040523d82523d6000602084013e610be4565b606091505b5091509150610bf4858383610cc6565b95945050505050565b6000826000018281548110610c1457610c14611123565b9060005260206000200154905092915050565b6000610897836001600160a01b038416610d22565b6000610897836001600160a01b038416610d71565b6000366014336001600160a01b037f000000000000000000000000000000000000000000000000000000000000000016148015610c8e5750808210155b15610cbe57600036610ca083856110d0565b610cab9282906110e3565b610cb4916111ec565b60601c9250505090565b339250505090565b606082610cdb57610cd682610e64565b610897565b8151158015610cf257506001600160a01b0384163b155b15610d1b57604051639996b31560e01b81526001600160a01b03851660048201526024016105a5565b5092915050565b6000818152600183016020526040812054610d69575081546001818101845560008481526020808220909301849055845484825282860190935260409020919091556105ca565b5060006105ca565b60008181526001830160205260408120548015610e5a576000610d956001836110d0565b8554909150600090610da9906001906110d0565b9050808214610e0e576000866000018281548110610dc957610dc9611123565b9060005260206000200154905080876000018481548110610dec57610dec611123565b6000918252602080832090910192909255918252600188019052604090208390555b8554869080610e1f57610e1f61121f565b6001900381819060005260206000200160009055905585600101600086815260200190815260200160002060009055600193505050506105ca565b60009150506105ca565b805115610e745780518082602001fd5b604051630a12f52160e11b815260040160405180910390fd5b600060208284031215610e9f57600080fd5b81356001600160e01b03198116811461089757600080fd5b60005b83811015610ed2578181015183820152602001610eba565b50506000910152565b60008151808452610ef3816020860160208601610eb7565b601f01601f19169290920160200192915050565b6020815260006108976020830184610edb565b80356001600160a01b0381168114610f3157600080fd5b919050565b600060208284031215610f4857600080fd5b61089782610f1a565b60008060408385031215610f6457600080fd5b610f6d83610f1a565b946020939093013593505050565b60008060208385031215610f8e57600080fd5b823567ffffffffffffffff80821115610fa657600080fd5b818501915085601f830112610fba57600080fd5b813581811115610fc957600080fd5b8660208260051b8501011115610fde57600080fd5b60209290920196919550909350505050565b600060208083016020845280855180835260408601915060408160051b87010192506020870160005b8281101561104757603f19888603018452611035858351610edb565b94509285019290850190600101611019565b5092979650505050505050565b600181811c9082168061106857607f821691505b60208210810361108857634e487b7160e01b600052602260045260246000fd5b50919050565b634e487b7160e01b600052601160045260246000fd5b808201808211156105ca576105ca61108e565b6000602082840312156110c957600080fd5b5051919050565b818103818111156105ca576105ca61108e565b600080858511156110f357600080fd5b8386111561110057600080fd5b5050820193919092039150565b634e487b7160e01b600052604160045260246000fd5b634e487b7160e01b600052603260045260246000fd5b6000808335601e1984360301811261115057600080fd5b83018035915067ffffffffffffffff82111561116b57600080fd5b60200191503681900382131561118057600080fd5b9250929050565b8284823760008382016000815283516111a4818360208801610eb7565b0195945050505050565b6000602082840312156111c057600080fd5b8151801515811461089757600080fd5b600082516111e2818460208701610eb7565b9190910192915050565b6bffffffffffffffffffffffff1981358181169160148510156108795760149490940360031b84901b1690921692915050565b634e487b7160e01b600052603160045260246000fdfea264697066735822122003366681933fce76c1ddcf9aa3ef0e3b0114dc4362191794b87150641cde80ed64736f6c63430008170033",
  "linkReferences": {},
  "deployedLinkReferences": {}
}