{
  "_format": "hh-sol-artifact-1",
  "contractName": "AAProject",
  "sourceName": "src/contracts/AAProject.sol",
  "abi": [
    {
      "inputs": [
        {
          "internalType": "string",
          "name": "_name",
          "type": "string"
        },
        {
          "internalType": "address",
          "name": "_defaultToken",
          "type": "address"
        },
        {
          "internalType": "address",
          "name": "_forwarder",
          "type": "address"
        },
        {
          "internalType": "address",
          "name": "_accessManager",
          "type": "address"
        },
        {
          "internalType": "address",
          "name": "_triggerManager",
          "type": "address"
        }
      ],
      "stateMutability": "nonpayable",
      "type": "constructor"
    },
    {
      "inputs": [
        {
          "internalType": "address",
          "name": "target",
          "type": "address"
        }
      ],
      "name": "AddressEmptyCode",
      "type": "error"
    },
    {
      "inputs": [],
      "name": "FailedInnerCall",
      "type": "error"
    },
    {
      "anonymous": false,
      "inputs": [
        {
          "indexed": true,
          "internalType": "address",
          "name": "beneficiary",
          "type": "address"
        },
        {
          "indexed": true,
          "internalType": "uint256",
          "name": "amount",
          "type": "uint256"
        }
      ],
      "name": "BenTokensAssigned",
      "type": "event"
    },
    {
      "anonymous": false,
      "inputs": [
        {
          "indexed": true,
          "internalType": "address",
          "name": "",
          "type": "address"
        }
      ],
      "name": "BeneficiaryAdded",
      "type": "event"
    },
    {
      "anonymous": false,
      "inputs": [
        {
          "indexed": true,
          "internalType": "address",
          "name": "",
          "type": "address"
        }
      ],
      "name": "BeneficiaryRemoved",
      "type": "event"
    },
    {
      "anonymous": false,
      "inputs": [
        {
          "indexed": true,
          "internalType": "address",
          "name": "beneficiary",
          "type": "address"
        },
        {
          "indexed": true,
          "internalType": "address",
          "name": "token",
          "type": "address"
        },
        {
          "indexed": true,
          "internalType": "address",
          "name": "assigner",
          "type": "address"
        }
      ],
      "name": "ClaimAssigned",
      "type": "event"
    },
    {
      "anonymous": false,
      "inputs": [
        {
          "indexed": true,
          "internalType": "address",
          "name": "tokenAddress",
          "type": "address"
        },
        {
          "indexed": false,
          "internalType": "uint256",
          "name": "amount",
          "type": "uint256"
        }
      ],
      "name": "TokenBudgetDecrease",
      "type": "event"
    },
    {
      "anonymous": false,
      "inputs": [
        {
          "indexed": true,
          "internalType": "address",
          "name": "tokenAddress",
          "type": "address"
        },
        {
          "indexed": false,
          "internalType": "uint256",
          "name": "amount",
          "type": "uint256"
        }
      ],
      "name": "TokenBudgetIncrease",
      "type": "event"
    },
    {
      "anonymous": false,
      "inputs": [
        {
          "indexed": true,
          "internalType": "address",
          "name": "token",
          "type": "address"
        },
        {
          "indexed": true,
          "internalType": "address",
          "name": "from",
          "type": "address"
        },
        {
          "indexed": false,
          "internalType": "uint256",
          "name": "amount",
          "type": "uint256"
        }
      ],
      "name": "TokenReceived",
      "type": "event"
    },
    {
      "anonymous": false,
      "inputs": [
        {
          "indexed": true,
          "internalType": "address",
          "name": "tokenAddress",
          "type": "address"
        }
      ],
      "name": "TokenRegistered",
      "type": "event"
    },
    {
      "anonymous": false,
      "inputs": [
        {
          "indexed": true,
          "internalType": "address",
          "name": "token",
          "type": "address"
        },
        {
          "indexed": true,
          "internalType": "address",
          "name": "to",
          "type": "address"
        },
        {
          "indexed": false,
          "internalType": "uint256",
          "name": "amount",
          "type": "uint256"
        }
      ],
      "name": "TokenTransfer",
      "type": "event"
    },
    {
      "anonymous": false,
      "inputs": [
        {
          "indexed": true,
          "internalType": "address",
          "name": "vendorAddress",
          "type": "address"
        },
        {
          "indexed": false,
          "internalType": "bool",
          "name": "status",
          "type": "bool"
        }
      ],
      "name": "VendorUpdated",
      "type": "event"
    },
    {
      "inputs": [],
      "name": "AccessManager",
      "outputs": [
        {
          "internalType": "contract IAccessManager",
          "name": "",
          "type": "address"
        }
      ],
      "stateMutability": "view",
      "type": "function"
    },
    {
      "inputs": [],
      "name": "IID_RAHAT_PROJECT",
      "outputs": [
        {
          "internalType": "bytes4",
          "name": "",
          "type": "bytes4"
        }
      ],
      "stateMutability": "view",
      "type": "function"
    },
    {
      "inputs": [],
      "name": "TriggerManager",
      "outputs": [
        {
          "internalType": "contract ITriggerManager",
          "name": "",
          "type": "address"
        }
      ],
      "stateMutability": "view",
      "type": "function"
    },
    {
      "inputs": [
        {
          "internalType": "address",
          "name": "_beneficiary",
          "type": "address"
        },
        {
          "internalType": "uint256",
          "name": "_tokenAssigned",
          "type": "uint256"
        }
      ],
      "name": "assignClaims",
      "outputs": [],
      "stateMutability": "nonpayable",
      "type": "function"
    },
    {
      "inputs": [
        {
          "internalType": "address",
          "name": "_address",
          "type": "address"
        },
        {
          "internalType": "uint256",
          "name": "_amount",
          "type": "uint256"
        }
      ],
      "name": "assignTokenToBeneficiary",
      "outputs": [],
      "stateMutability": "nonpayable",
      "type": "function"
    },
    {
      "inputs": [
        {
          "internalType": "address",
          "name": "",
          "type": "address"
        }
      ],
      "name": "benTokens",
      "outputs": [
        {
          "internalType": "uint256",
          "name": "",
          "type": "uint256"
        }
      ],
      "stateMutability": "view",
      "type": "function"
    },
    {
      "inputs": [],
      "name": "beneficiaryCount",
      "outputs": [
        {
          "internalType": "uint256",
          "name": "",
          "type": "uint256"
        }
      ],
      "stateMutability": "view",
      "type": "function"
    },
    {
      "inputs": [
        {
          "internalType": "address",
          "name": "_address",
          "type": "address"
        }
      ],
      "name": "checkVendorStatus",
      "outputs": [
        {
          "internalType": "bool",
          "name": "_vendorStatus",
          "type": "bool"
        }
      ],
      "stateMutability": "view",
      "type": "function"
    },
    {
      "inputs": [],
      "name": "defaultToken",
      "outputs": [
        {
          "internalType": "address",
          "name": "",
          "type": "address"
        }
      ],
      "stateMutability": "view",
      "type": "function"
    },
    {
      "inputs": [
        {
          "internalType": "address",
          "name": "_tokenAddress",
          "type": "address"
        },
        {
          "internalType": "uint256",
          "name": "_amount",
          "type": "uint256"
        }
      ],
      "name": "increaseTokenBudget",
      "outputs": [],
      "stateMutability": "nonpayable",
      "type": "function"
    },
    {
      "inputs": [
        {
          "internalType": "address",
          "name": "_address",
          "type": "address"
        }
      ],
      "name": "isBeneficiary",
      "outputs": [
        {
          "internalType": "bool",
          "name": "",
          "type": "bool"
        }
      ],
      "stateMutability": "view",
      "type": "function"
    },
    {
      "inputs": [
        {
          "internalType": "address",
          "name": "forwarder",
          "type": "address"
        }
      ],
      "name": "isTrustedForwarder",
      "outputs": [
        {
          "internalType": "bool",
          "name": "",
          "type": "bool"
        }
      ],
      "stateMutability": "view",
      "type": "function"
    },
    {
      "inputs": [
        {
          "internalType": "bytes[]",
          "name": "data",
          "type": "bytes[]"
        }
      ],
      "name": "multicall",
      "outputs": [
        {
          "internalType": "bytes[]",
          "name": "results",
          "type": "bytes[]"
        }
      ],
      "stateMutability": "nonpayable",
      "type": "function"
    },
    {
      "inputs": [],
      "name": "name",
      "outputs": [
        {
          "internalType": "string",
          "name": "",
          "type": "string"
        }
      ],
      "stateMutability": "view",
      "type": "function"
    },
    {
      "inputs": [
        {
          "internalType": "address",
          "name": "",
          "type": "address"
        }
      ],
      "name": "registeredTokens",
      "outputs": [
        {
          "internalType": "bool",
          "name": "",
          "type": "bool"
        }
      ],
      "stateMutability": "view",
      "type": "function"
    },
    {
      "inputs": [
        {
          "internalType": "address",
          "name": "_address",
          "type": "address"
        }
      ],
      "name": "removeBeneficiary",
      "outputs": [],
      "stateMutability": "nonpayable",
      "type": "function"
    },
    {
      "inputs": [
        {
          "internalType": "bytes4",
          "name": "interfaceId",
          "type": "bytes4"
        }
      ],
      "name": "supportsInterface",
      "outputs": [
        {
          "internalType": "bool",
          "name": "",
          "type": "bool"
        }
      ],
      "stateMutability": "view",
      "type": "function"
    },
    {
      "inputs": [
        {
          "internalType": "address",
          "name": "_tokenAddress",
          "type": "address"
        }
      ],
      "name": "tokenBudget",
      "outputs": [
        {
          "internalType": "uint256",
          "name": "",
          "type": "uint256"
        }
      ],
      "stateMutability": "view",
      "type": "function"
    },
    {
      "inputs": [],
      "name": "totalClaimsAssigned",
      "outputs": [
        {
          "internalType": "uint256",
          "name": "_totalClaims",
          "type": "uint256"
        }
      ],
      "stateMutability": "view",
      "type": "function"
    },
    {
      "inputs": [],
      "name": "trustedForwarder",
      "outputs": [
        {
          "internalType": "address",
          "name": "",
          "type": "address"
        }
      ],
      "stateMutability": "view",
      "type": "function"
    }
  ],
  "bytecode": "0x60a06040523480156200001157600080fd5b506040516200181e3803806200181e8339810160408190526200003491620000c6565b8285600462000044828262000277565b50506001600160a01b03908116608052600980546001600160a01b0319908116968316969096179055600780548616938216939093179092556008805490941691161790915550620003439050565b634e487b7160e01b600052604160045260246000fd5b80516001600160a01b0381168114620000c157600080fd5b919050565b600080600080600060a08688031215620000df57600080fd5b85516001600160401b0380821115620000f757600080fd5b818801915088601f8301126200010c57600080fd5b81518181111562000121576200012162000093565b604051601f8201601f19908116603f011681019083821181831017156200014c576200014c62000093565b81604052828152602093508b848487010111156200016957600080fd5b600091505b828210156200018d57848201840151818301850152908301906200016e565b6000848483010152809950505050620001a8818901620000a9565b95505050620001ba60408701620000a9565b9250620001ca60608701620000a9565b9150620001da60808701620000a9565b90509295509295909350565b600181811c90821680620001fb57607f821691505b6020821081036200021c57634e487b7160e01b600052602260045260246000fd5b50919050565b601f82111562000272576000816000526020600020601f850160051c810160208610156200024d5750805b601f850160051c820191505b818110156200026e5782815560010162000259565b5050505b505050565b81516001600160401b0381111562000293576200029362000093565b620002ab81620002a48454620001e6565b8462000222565b602080601f831160018114620002e35760008415620002ca5750858301515b600019600386901b1c1916600185901b1785556200026e565b600085815260208120601f198616915b828110156200031457888601518255948401946001909101908401620002f3565b5085821015620003335787850151600019600388901b60f8161c191681555b5050505050600190811b01905550565b6080516114b16200036d6000396000818161022a015281816102cb0152610e4e01526114b16000f3fe608060405234801561001057600080fd5b506004361061012c5760003560e01c80636f4efa36116100ad57806397b53ca31161007157806397b53ca3146103125780639d19b22614610325578063aa12214f14610338578063ac9650d81461034b578063eb681e621461036b57600080fd5b80636f4efa3614610282578063734b2a7c146102ae57806374c13fda146102b65780637da0a877146102c95780638c0bd916146102ef57600080fd5b80634fe21571116100f45780634fe21571146101d3578063501773ba146101fa578063572b6c051461021a57806359633a1c1461025a57806364c20dc11461026f57600080fd5b806301ffc9a71461013157806306fdde031461016a5780630af2a89b1461017f5780631fe9497c146101aa5780634fc3171b146101bd575b600080fd5b61015561013f3660046110a4565b6001600160e01b03191663ced606bf60e01b1490565b60405190151581526020015b60405180910390f35b610172610394565b604051610161919061111e565b600754610192906001600160a01b031681565b6040516001600160a01b039091168152602001610161565b600854610192906001600160a01b031681565b6101c5610422565b604051908152602001610161565b6101e163ced606bf60e01b81565b6040516001600160e01b03199091168152602001610161565b6101c561020836600461114d565b600d6020526000908152604090205481565b61015561022836600461114d565b7f00000000000000000000000000000000000000000000000000000000000000006001600160a01b0390811691161490565b61026d61026836600461114d565b610478565b005b61026d61027d366004611168565b61052a565b61015561029036600461114d565b6001600160a01b031660009081526003602052604090205460ff1690565b6101c56105eb565b600954610192906001600160a01b031681565b7f0000000000000000000000000000000000000000000000000000000000000000610192565b6101556102fd36600461114d565b600c6020526000908152604090205460ff1681565b61026d610320366004611168565b6105fc565b61015561033336600461114d565b61077b565b61026d610346366004611168565b61078e565b61035e610359366004611192565b610939565b6040516101619190611207565b6101c561037936600461114d565b6001600160a01b031660009081526001602052604090205490565b600480546103a19061126b565b80601f01602080910402602001604051908101604052809291908181526020018280546103cd9061126b565b801561041a5780601f106103ef5761010080835404028352916020019161041a565b820191906000526020600020905b8154815290600101906020018083116103fd57829003601f168201915b505050505081565b6000805b6104306005610a98565b81101561047457600d6000610446600584610aa2565b6001600160a01b0316815260208101919091526040016000205461046a90836112bb565b9150600101610426565b5090565b6007546001600160a01b03166324d7806c610491610ab5565b6040516001600160e01b031960e084901b1681526001600160a01b039091166004820152602401602060405180830381865afa1580156104d5573d6000803e3d6000fd5b505050506040513d601f19601f820116820180604052508101906104f991906112ce565b61051e5760405162461bcd60e51b8152600401610515906112f0565b60405180910390fd5b61052781610abf565b50565b6007546001600160a01b03166324d7806c610543610ab5565b6040516001600160e01b031960e084901b1681526001600160a01b039091166004820152602401602060405180830381865afa158015610587573d6000803e3d6000fd5b505050506040513d601f19601f820116820180604052508101906105ab91906112ce565b6105c75760405162461bcd60e51b8152600401610515906112f0565b6009546105e79083906001600160a01b0316836105e2610ab5565b610b0f565b5050565b60006105f76005610a98565b905090565b6007546001600160a01b03166324d7806c610615610ab5565b6040516001600160e01b031960e084901b1681526001600160a01b039091166004820152602401602060405180830381865afa158015610659573d6000803e3d6000fd5b505050506040513d601f19601f8201168201806040525081019061067d91906112ce565b6106995760405162461bcd60e51b8152600401610515906112f0565b6001600160a01b0382166000908152600160205260409020546106bc82826112bb565b836001600160a01b03166318160ddd6040518163ffffffff1660e01b8152600401602060405180830381865afa1580156106fa573d6000803e3d6000fd5b505050506040513d601f19601f8201168201806040525081019061071e919061131f565b101561076c5760405162461bcd60e51b815260206004820152601960248201527f47726561746572207468616e20746f74616c20737570706c79000000000000006044820152606401610515565b6107768383610c55565b505050565b6000610788600583610d2d565b92915050565b6007546001600160a01b03166324d7806c6107a7610ab5565b6040516001600160e01b031960e084901b1681526001600160a01b039091166004820152602401602060405180830381865afa1580156107eb573d6000803e3d6000fd5b505050506040513d601f19601f8201168201806040525081019061080f91906112ce565b61082b5760405162461bcd60e51b8152600401610515906112f0565b80610834610422565b61083e91906112bb565b6009546040516370a0823160e01b81523060048201526001600160a01b03909116906370a0823190602401602060405180830381865afa158015610886573d6000803e3d6000fd5b505050506040513d601f19601f820116820180604052508101906108aa919061131f565b10156108ec5760405162461bcd60e51b81526020600482015260116024820152706e6f7420656e6f75676820746f6b656e7360781b6044820152606401610515565b6108f582610d4f565b6001600160a01b0382166000908152600d60205260409020546109199082906112bb565b6001600160a01b039092166000908152600d602052604090209190915550565b60606000610945610ab5565b6001600160a01b0316336001600160a01b0316146109b05760003661096b601482611338565b61097692829061134b565b8080601f0160208091040260200160405190810160405280939291908181526020018383808284376000920191909152506109c092505050565b6040805160008152602081019091525b90508267ffffffffffffffff8111156109db576109db611375565b604051908082528060200260200182016040528015610a0e57816020015b60608152602001906001900390816109f95790505b50915060005b83811015610a9057610a6b30868684818110610a3257610a3261138b565b9050602002810190610a4491906113a1565b85604051602001610a57939291906113ef565b604051602081830303815290604052610d9e565b838281518110610a7d57610a7d61138b565b6020908102919091010152600101610a14565b505092915050565b6000610788825490565b6000610aae8383610e14565b9392505050565b60006105f7610e3e565b610aca600582610d2d565b15610b04576040516001600160a01b038216907f72977dad29432f655f11c2f0e72ef5124bb9ade7a512fb7a43a9f504df22342890600090a25b6105e7600582610eb3565b6001600160a01b0384166000908152600d6020526040902054821115610b6c5760405162461bcd60e51b81526020600482015260126024820152716e6f7420656e6f7567682062616c616e636560701b6044820152606401610515565b60405163a9059cbb60e01b81526001600160a01b0385811660048301526024820184905284169063a9059cbb906044016020604051808303816000875af1158015610bbb573d6000803e3d6000fd5b505050506040513d601f19601f82011682018060405250810190610bdf91906112ce565b506001600160a01b0384166000908152600d6020526040902054610c04908390611338565b6001600160a01b038086166000818152600d602052604080822094909455925184831693928716927feb1af03631473cb26a0692e7db7c4284c5cb931143431dde2ba575fdb1cdb0bf91a450505050565b6001600160a01b03821660009081526001602052604081208054839290610c7d9084906112bb565b90915550506040518181526001600160a01b038316907fe49f42d07d8046279c22af872fe6bc5678c4dfc38ace0f43b8e8d5a03d0e8f109060200160405180910390a26001600160a01b03821660009081526002602052604090205460ff166105e7576001600160a01b038216600081815260026020526040808220805460ff19166001179055517f158412daecdc1456d01568828bcdb18464cc7f1ce0215ddbc3f3cfede9d1e63d9190a25050565b6001600160a01b03811660009081526001830160205260408120541515610aae565b610d5a600582610d2d565b610d93576040516001600160a01b038216907fc3e089fc6227e049d0e41c3d7a383d57efe69c1955c5752f7e5a9b5f1f11302090600090a25b6105e7600582610ec8565b6060600080846001600160a01b031684604051610dbb9190611416565b600060405180830381855af49150503d8060008114610df6576040519150601f19603f3d011682016040523d82523d6000602084013e610dfb565b606091505b5091509150610e0b858383610edd565b95945050505050565b6000826000018281548110610e2b57610e2b61138b565b9060005260206000200154905092915050565b6000366014336001600160a01b037f000000000000000000000000000000000000000000000000000000000000000016148015610e7b5750808210155b15610eab57600036610e8d8385611338565b610e9892829061134b565b610ea191611432565b60601c9250505090565b339250505090565b6000610aae836001600160a01b038416610f39565b6000610aae836001600160a01b03841661102c565b606082610ef257610eed8261107b565b610aae565b8151158015610f0957506001600160a01b0384163b155b15610f3257604051639996b31560e01b81526001600160a01b0385166004820152602401610515565b5092915050565b60008181526001830160205260408120548015611022576000610f5d600183611338565b8554909150600090610f7190600190611338565b9050808214610fd6576000866000018281548110610f9157610f9161138b565b9060005260206000200154905080876000018481548110610fb457610fb461138b565b6000918252602080832090910192909255918252600188019052604090208390555b8554869080610fe757610fe7611465565b600190038181906000526020600020016000905590558560010160008681526020019081526020016000206000905560019350505050610788565b6000915050610788565b600081815260018301602052604081205461107357508154600181810184556000848152602080822090930184905584548482528286019093526040902091909155610788565b506000610788565b80511561108b5780518082602001fd5b604051630a12f52160e11b815260040160405180910390fd5b6000602082840312156110b657600080fd5b81356001600160e01b031981168114610aae57600080fd5b60005b838110156110e95781810151838201526020016110d1565b50506000910152565b6000815180845261110a8160208601602086016110ce565b601f01601f19169290920160200192915050565b602081526000610aae60208301846110f2565b80356001600160a01b038116811461114857600080fd5b919050565b60006020828403121561115f57600080fd5b610aae82611131565b6000806040838503121561117b57600080fd5b61118483611131565b946020939093013593505050565b600080602083850312156111a557600080fd5b823567ffffffffffffffff808211156111bd57600080fd5b818501915085601f8301126111d157600080fd5b8135818111156111e057600080fd5b8660208260051b85010111156111f557600080fd5b60209290920196919550909350505050565b600060208083016020845280855180835260408601915060408160051b87010192506020870160005b8281101561125e57603f1988860301845261124c8583516110f2565b94509285019290850190600101611230565b5092979650505050505050565b600181811c9082168061127f57607f821691505b60208210810361129f57634e487b7160e01b600052602260045260246000fd5b50919050565b634e487b7160e01b600052601160045260246000fd5b80820180821115610788576107886112a5565b6000602082840312156112e057600080fd5b81518015158114610aae57600080fd5b6020808252601590820152744f6e6c792041646d696e2063616e2061636365737360581b604082015260600190565b60006020828403121561133157600080fd5b5051919050565b81810381811115610788576107886112a5565b6000808585111561135b57600080fd5b8386111561136857600080fd5b5050820193919092039150565b634e487b7160e01b600052604160045260246000fd5b634e487b7160e01b600052603260045260246000fd5b6000808335601e198436030181126113b857600080fd5b83018035915067ffffffffffffffff8211156113d357600080fd5b6020019150368190038213156113e857600080fd5b9250929050565b82848237600083820160008152835161140c8183602088016110ce565b0195945050505050565b600082516114288184602087016110ce565b9190910192915050565b6bffffffffffffffffffffffff198135818116916014851015610a905760149490940360031b84901b1690921692915050565b634e487b7160e01b600052603160045260246000fdfea264697066735822122017014517c1d6b9a4496d1f7ada7d16d8f55f82d903c54479434cfd1f4b32fa2164736f6c63430008170033",
  "linkReferences": {},
  "deployedLinkReferences": {}
}