{
  "_format": "hh-sol-artifact-1",
  "contractName": "Inkind",
  "sourceName": "src/contracts/InkindRedeem.sol",
  "abi": [
    {
      "inputs": [
        {
          "internalType": "address",
          "name": "_defaultToken",
          "type": "address"
        },
        {
          "internalType": "address",
          "name": "_accessManager",
          "type": "address"
        }
      ],
      "stateMutability": "nonpayable",
      "type": "constructor"
    },
    {
      "inputs": [
        {
          "internalType": "address",
          "name": "authority",
          "type": "address"
        }
      ],
      "name": "AccessManagedInvalidAuthority",
      "type": "error"
    },
    {
      "inputs": [
        {
          "internalType": "address",
          "name": "caller",
          "type": "address"
        },
        {
          "internalType": "uint32",
          "name": "delay",
          "type": "uint32"
        }
      ],
      "name": "AccessManagedRequiredDelay",
      "type": "error"
    },
    {
      "inputs": [
        {
          "internalType": "address",
          "name": "caller",
          "type": "address"
        }
      ],
      "name": "AccessManagedUnauthorized",
      "type": "error"
    },
    {
      "anonymous": false,
      "inputs": [
        {
          "indexed": false,
          "internalType": "address",
          "name": "authority",
          "type": "address"
        }
      ],
      "name": "AuthorityUpdated",
      "type": "event"
    },
    {
      "anonymous": false,
      "inputs": [
        {
          "indexed": true,
          "internalType": "bytes16",
          "name": "inkind",
          "type": "bytes16"
        },
        {
          "indexed": true,
          "internalType": "address",
          "name": "vendor",
          "type": "address"
        },
        {
          "indexed": true,
          "internalType": "address",
          "name": "beneficiary",
          "type": "address"
        }
      ],
      "name": "InkindRedeemed",
      "type": "event"
    },
    {
      "inputs": [],
      "name": "authority",
      "outputs": [
        {
          "internalType": "address",
          "name": "",
          "type": "address"
        }
      ],
      "stateMutability": "view",
      "type": "function"
    },
    {
      "inputs": [
        {
          "internalType": "address",
          "name": "",
          "type": "address"
        }
      ],
      "name": "beneficiaryVendors",
      "outputs": [
        {
          "internalType": "address",
          "name": "",
          "type": "address"
        }
      ],
      "stateMutability": "view",
      "type": "function"
    },
    {
      "inputs": [],
      "name": "defaultToken",
      "outputs": [
        {
          "internalType": "address",
          "name": "",
          "type": "address"
        }
      ],
      "stateMutability": "view",
      "type": "function"
    },
    {
      "inputs": [],
      "name": "isConsumingScheduledOp",
      "outputs": [
        {
          "internalType": "bytes4",
          "name": "",
          "type": "bytes4"
        }
      ],
      "stateMutability": "view",
      "type": "function"
    },
    {
      "inputs": [
        {
          "internalType": "bytes16[]",
          "name": "_inkind",
          "type": "bytes16[]"
        },
        {
          "internalType": "address",
          "name": "_vendor",
          "type": "address"
        },
        {
          "internalType": "address",
          "name": "_beneficiary",
          "type": "address"
        },
        {
          "internalType": "uint256",
          "name": "_inkindsValue",
          "type": "uint256"
        }
      ],
      "name": "redeemInkind",
      "outputs": [],
      "stateMutability": "nonpayable",
      "type": "function"
    },
    {
      "inputs": [
        {
          "internalType": "bytes16",
          "name": "",
          "type": "bytes16"
        }
      ],
      "name": "redeemedInkind",
      "outputs": [
        {
          "internalType": "address",
          "name": "",
          "type": "address"
        }
      ],
      "stateMutability": "view",
      "type": "function"
    },
    {
      "inputs": [
        {
          "internalType": "address",
          "name": "newAuthority",
          "type": "address"
        }
      ],
      "name": "setAuthority",
      "outputs": [],
      "stateMutability": "nonpayable",
      "type": "function"
    }
  ],
  "bytecode": "0x608060405234801561001057600080fd5b506040516109a23803806109a283398101604081905261002f916100d0565b8061003981610060565b5050600180546001600160a01b0319166001600160a01b0392909216919091179055610103565b600080546001600160a01b0319166001600160a01b0383169081179091556040519081527f2f658b440c35314f52658ea8a740e05b284cdc84dc9ae01e891f21b8933e7cad9060200160405180910390a150565b80516001600160a01b03811681146100cb57600080fd5b919050565b600080604083850312156100e357600080fd5b6100ec836100b4565b91506100fa602084016100b4565b90509250929050565b610890806101126000396000f3fe608060405234801561001057600080fd5b506004361061007d5760003560e01c806374c13fda1161005b57806374c13fda146101065780637a9e5e4b146101195780638fb360371461012c578063bf7e214f1461014d57600080fd5b80631b210eb01461008257806355cddba8146100c857806360230abc146100dd575b600080fd5b6100ab6100903660046105f2565b6002602052600090815260409020546001600160a01b031681565b6040516001600160a01b0390911681526020015b60405180910390f35b6100db6100d636600461063f565b61015e565b005b6100ab6100eb3660046106dc565b6003602052600090815260409020546001600160a01b031681565b6001546100ab906001600160a01b031681565b6100db6101273660046106dc565b6102ef565b61013461036e565b6040516001600160e01b031990911681526020016100bf565b6000546001600160a01b03166100ab565b61016a33600036610392565b60005b8481101561024957826002600088888581811061018c5761018c6106f7565b90506020020160208101906101a191906105f2565b6001600160801b0319168152602081019190915260400160002080546001600160a01b0319166001600160a01b039283161790558381169085168787848181106101ed576101ed6106f7565b905060200201602081019061020291906105f2565b6fffffffffffffffffffffffffffffffff19167f6414ef7135ad5807ceb89cd6d5791f4fe3fa91627f8ade4658140de37e0ffb8360405160405180910390a460010161016d565b506001600160a01b038281166000908152600360205260409081902080546001600160a01b03191686841690811790915560015491516340c10f1960e01b81526004810191909152602481018490529116906340c10f19906044016020604051808303816000875af11580156102c3573d6000803e3d6000fd5b505050506040513d601f19601f820116820180604052508101906102e7919061070d565b505050505050565b60005433906001600160a01b0316811461032b5760405162d1953b60e31b81526001600160a01b03821660048201526024015b60405180910390fd5b816001600160a01b03163b600003610361576040516361798f2f60e11b81526001600160a01b0383166004820152602401610322565b61036a82610492565b5050565b60008054600160a01b900460ff166103865750600090565b50638fb3603760e01b90565b6000806103c86103aa6000546001600160a01b031690565b86306103ba60046000898b610726565b6103c391610750565b6104e6565b915091508161048b5763ffffffff811615610468576000805460ff60a01b198116600160a01b17909155604051634a63ebf760e11b81526001600160a01b03909116906394c7d7ee9061042390889088908890600401610780565b600060405180830381600087803b15801561043d57600080fd5b505af1158015610451573d6000803e3d6000fd5b50506000805460ff60a01b191690555061048b9050565b60405162d1953b60e31b81526001600160a01b0386166004820152602401610322565b5050505050565b600080546001600160a01b0319166001600160a01b0383169081179091556040519081527f2f658b440c35314f52658ea8a740e05b284cdc84dc9ae01e891f21b8933e7cad9060200160405180910390a150565b6040516001600160a01b03848116602483015283811660448301526001600160e01b03198316606483015260009182918291829189169060840160408051601f198184030181529181526020820180516001600160e01b031663b700961360e01b1790525161055591906107c0565b600060405180830381855afa9150503d8060008114610590576040519150601f19603f3d011682016040523d82523d6000602084013e610595565b606091505b509150915081156105e75760408151106105c757808060200190518101906105bd91906107ff565b90945092506105e7565b60208151106105e757808060200190518101906105e4919061083f565b93505b505094509492505050565b60006020828403121561060457600080fd5b81356001600160801b03198116811461061c57600080fd5b9392505050565b80356001600160a01b038116811461063a57600080fd5b919050565b60008060008060006080868803121561065757600080fd5b853567ffffffffffffffff8082111561066f57600080fd5b818801915088601f83011261068357600080fd5b81358181111561069257600080fd5b8960208260051b85010111156106a757600080fd5b6020928301975095506106bd9188019050610623565b92506106cb60408701610623565b949793965091946060013592915050565b6000602082840312156106ee57600080fd5b61061c82610623565b634e487b7160e01b600052603260045260246000fd5b60006020828403121561071f57600080fd5b5051919050565b6000808585111561073657600080fd5b8386111561074357600080fd5b5050820193919092039150565b6001600160e01b031981358181169160048510156107785780818660040360031b1b83161692505b505092915050565b6001600160a01b03841681526040602082018190528101829052818360608301376000818301606090810191909152601f909201601f1916010192915050565b6000825160005b818110156107e157602081860181015185830152016107c7565b506000920191825250919050565b8051801515811461063a57600080fd5b6000806040838503121561081257600080fd5b61081b836107ef565b9150602083015163ffffffff8116811461083457600080fd5b809150509250929050565b60006020828403121561085157600080fd5b61061c826107ef56fea264697066735822122099d10f8cbf5c972bbfaef514abab206cac0b15cbdde54141cf830b211594477e64736f6c63430008170033",
  "linkReferences": {},
  "deployedLinkReferences": {}
}