{
  "_format": "hh-sol-artifact-1",
  "contractName": "Inkind",
  "sourceName": "src/contracts/InkindRedeem.sol",
  "abi": [
    {
      "inputs": [
        {
          "internalType": "address",
          "name": "_defaultToken",
          "type": "address"
        },
        {
          "internalType": "address",
          "name": "_accessManager",
          "type": "address"
        }
      ],
      "stateMutability": "nonpayable",
      "type": "constructor"
    },
    {
      "inputs": [
        {
          "internalType": "address",
          "name": "authority",
          "type": "address"
        }
      ],
      "name": "AccessManagedInvalidAuthority",
      "type": "error"
    },
    {
      "inputs": [
        {
          "internalType": "address",
          "name": "caller",
          "type": "address"
        },
        {
          "internalType": "uint32",
          "name": "delay",
          "type": "uint32"
        }
      ],
      "name": "AccessManagedRequiredDelay",
      "type": "error"
    },
    {
      "inputs": [
        {
          "internalType": "address",
          "name": "caller",
          "type": "address"
        }
      ],
      "name": "AccessManagedUnauthorized",
      "type": "error"
    },
    {
      "anonymous": false,
      "inputs": [
        {
          "indexed": false,
          "internalType": "address",
          "name": "authority",
          "type": "address"
        }
      ],
      "name": "AuthorityUpdated",
      "type": "event"
    },
    {
      "anonymous": false,
      "inputs": [
        {
          "indexed": true,
          "internalType": "bytes16",
          "name": "inkind",
          "type": "bytes16"
        },
        {
          "indexed": true,
          "internalType": "address",
          "name": "vendor",
          "type": "address"
        },
        {
          "indexed": true,
          "internalType": "address",
          "name": "beneficiary",
          "type": "address"
        }
      ],
      "name": "InkindRedeemed",
      "type": "event"
    },
    {
      "inputs": [],
      "name": "authority",
      "outputs": [
        {
          "internalType": "address",
          "name": "",
          "type": "address"
        }
      ],
      "stateMutability": "view",
      "type": "function"
    },
    {
      "inputs": [
        {
          "internalType": "address",
          "name": "",
          "type": "address"
        }
      ],
      "name": "beneficiaryVendors",
      "outputs": [
        {
          "internalType": "address",
          "name": "",
          "type": "address"
        }
      ],
      "stateMutability": "view",
      "type": "function"
    },
    {
      "inputs": [],
      "name": "defaultToken",
      "outputs": [
        {
          "internalType": "address",
          "name": "",
          "type": "address"
        }
      ],
      "stateMutability": "view",
      "type": "function"
    },
    {
      "inputs": [],
      "name": "isConsumingScheduledOp",
      "outputs": [
        {
          "internalType": "bytes4",
          "name": "",
          "type": "bytes4"
        }
      ],
      "stateMutability": "view",
      "type": "function"
    },
    {
      "inputs": [
        {
          "internalType": "bytes16[]",
          "name": "_inkind",
          "type": "bytes16[]"
        },
        {
          "internalType": "address",
          "name": "_vendor",
          "type": "address"
        },
        {
          "internalType": "address",
          "name": "_beneficiary",
          "type": "address"
        }
      ],
      "name": "redeemInkind",
      "outputs": [],
      "stateMutability": "nonpayable",
      "type": "function"
    },
    {
      "inputs": [
        {
          "internalType": "bytes16",
          "name": "",
          "type": "bytes16"
        }
      ],
      "name": "redeemedInkind",
      "outputs": [
        {
          "internalType": "address",
          "name": "",
          "type": "address"
        }
      ],
      "stateMutability": "view",
      "type": "function"
    },
    {
      "inputs": [
        {
          "internalType": "address",
          "name": "newAuthority",
          "type": "address"
        }
      ],
      "name": "setAuthority",
      "outputs": [],
      "stateMutability": "nonpayable",
      "type": "function"
    }
  ],
  "bytecode": "0x608060405234801561001057600080fd5b5060405161099238038061099283398101604081905261002f916100d0565b8061003981610060565b5050600180546001600160a01b0319166001600160a01b0392909216919091179055610103565b600080546001600160a01b0319166001600160a01b0383169081179091556040519081527f2f658b440c35314f52658ea8a740e05b284cdc84dc9ae01e891f21b8933e7cad9060200160405180910390a150565b80516001600160a01b03811681146100cb57600080fd5b919050565b600080604083850312156100e357600080fd5b6100ec836100b4565b91506100fa602084016100b4565b90509250929050565b610880806101126000396000f3fe608060405234801561001057600080fd5b506004361061007d5760003560e01c80637a9e5e4b1161005b5780637a9e5e4b146101045780638fb3603714610119578063bbea5d6a1461013a578063bf7e214f1461014d57600080fd5b80631b210eb01461008257806360230abc146100c857806374c13fda146100f1575b600080fd5b6100ab6100903660046105ea565b6002602052600090815260409020546001600160a01b031681565b6040516001600160a01b0390911681526020015b60405180910390f35b6100ab6100d6366004610637565b6003602052600090815260409020546001600160a01b031681565b6001546100ab906001600160a01b031681565b610117610112366004610637565b61015e565b005b6101216101dd565b6040516001600160e01b031990911681526020016100bf565b610117610148366004610652565b610201565b6000546001600160a01b03166100ab565b60005433906001600160a01b0316811461019a5760405162d1953b60e31b81526001600160a01b03821660048201526024015b60405180910390fd5b816001600160a01b03163b6000036101d0576040516361798f2f60e11b81526001600160a01b0383166004820152602401610191565b6101d982610391565b5050565b60008054600160a01b900460ff166101f55750600090565b50638fb3603760e01b90565b61020d336000366103e5565b60005b838110156102ec57816002600087878581811061022f5761022f6106e7565b905060200201602081019061024491906105ea565b6001600160801b0319168152602081019190915260400160002080546001600160a01b0319166001600160a01b03928316179055828116908416868684818110610290576102906106e7565b90506020020160208101906102a591906105ea565b6fffffffffffffffffffffffffffffffff19167f6414ef7135ad5807ceb89cd6d5791f4fe3fa91627f8ade4658140de37e0ffb8360405160405180910390a4600101610210565b506001600160a01b038181166000908152600360205260409081902080546001600160a01b03191685841690811790915560015491516340c10f1960e01b81526004810191909152602481018690529116906340c10f19906044016020604051808303816000875af1158015610366573d6000803e3d6000fd5b505050506040513d601f19601f8201168201806040525081019061038a91906106fd565b5050505050565b600080546001600160a01b0319166001600160a01b0383169081179091556040519081527f2f658b440c35314f52658ea8a740e05b284cdc84dc9ae01e891f21b8933e7cad9060200160405180910390a150565b60008061041b6103fd6000546001600160a01b031690565b863061040d60046000898b610716565b61041691610740565b6104de565b915091508161038a5763ffffffff8116156104bb576000805460ff60a01b198116600160a01b17909155604051634a63ebf760e11b81526001600160a01b03909116906394c7d7ee9061047690889088908890600401610770565b600060405180830381600087803b15801561049057600080fd5b505af11580156104a4573d6000803e3d6000fd5b50506000805460ff60a01b191690555061038a9050565b60405162d1953b60e31b81526001600160a01b0386166004820152602401610191565b6040516001600160a01b03848116602483015283811660448301526001600160e01b03198316606483015260009182918291829189169060840160408051601f198184030181529181526020820180516001600160e01b031663b700961360e01b1790525161054d91906107b0565b600060405180830381855afa9150503d8060008114610588576040519150601f19603f3d011682016040523d82523d6000602084013e61058d565b606091505b509150915081156105df5760408151106105bf57808060200190518101906105b591906107ef565b90945092506105df565b60208151106105df57808060200190518101906105dc919061082f565b93505b505094509492505050565b6000602082840312156105fc57600080fd5b81356001600160801b03198116811461061457600080fd5b9392505050565b80356001600160a01b038116811461063257600080fd5b919050565b60006020828403121561064957600080fd5b6106148261061b565b6000806000806060858703121561066857600080fd5b843567ffffffffffffffff8082111561068057600080fd5b818701915087601f83011261069457600080fd5b8135818111156106a357600080fd5b8860208260051b85010111156106b857600080fd5b6020928301965094506106ce918701905061061b565b91506106dc6040860161061b565b905092959194509250565b634e487b7160e01b600052603260045260246000fd5b60006020828403121561070f57600080fd5b5051919050565b6000808585111561072657600080fd5b8386111561073357600080fd5b5050820193919092039150565b6001600160e01b031981358181169160048510156107685780818660040360031b1b83161692505b505092915050565b6001600160a01b03841681526040602082018190528101829052818360608301376000818301606090810191909152601f909201601f1916010192915050565b6000825160005b818110156107d157602081860181015185830152016107b7565b506000920191825250919050565b8051801515811461063257600080fd5b6000806040838503121561080257600080fd5b61080b836107df565b9150602083015163ffffffff8116811461082457600080fd5b809150509250929050565b60006020828403121561084157600080fd5b610614826107df56fea2646970667358221220b3f5e7c037932b2ed9a44c67a8cbe34e5da90570e44742e466ad663630c9f17d64736f6c63430008170033",
  "linkReferences": {},
  "deployedLinkReferences": {}
}