{
  "_format": "hh-sol-artifact-1",
  "contractName": "RahatToken",
  "sourceName": "src/contracts/RahatToken.sol",
  "abi": [
    {
      "inputs": [
        {
          "internalType": "address",
          "name": "_forwarder",
          "type": "address"
        },
        {
          "internalType": "string",
          "name": "_name",
          "type": "string"
        },
        {
          "internalType": "string",
          "name": "_symbol",
          "type": "string"
        },
        {
          "internalType": "address",
          "name": "_admin",
          "type": "address"
        },
        {
          "internalType": "uint8",
          "name": "_decimals",
          "type": "uint8"
        }
      ],
      "stateMutability": "nonpayable",
      "type": "constructor"
    },
    {
      "inputs": [
        {
          "internalType": "address",
          "name": "target",
          "type": "address"
        }
      ],
      "name": "AddressEmptyCode",
      "type": "error"
    },
    {
      "inputs": [
        {
          "internalType": "address",
          "name": "spender",
          "type": "address"
        },
        {
          "internalType": "uint256",
          "name": "allowance",
          "type": "uint256"
        },
        {
          "internalType": "uint256",
          "name": "needed",
          "type": "uint256"
        }
      ],
      "name": "ERC20InsufficientAllowance",
      "type": "error"
    },
    {
      "inputs": [
        {
          "internalType": "address",
          "name": "sender",
          "type": "address"
        },
        {
          "internalType": "uint256",
          "name": "balance",
          "type": "uint256"
        },
        {
          "internalType": "uint256",
          "name": "needed",
          "type": "uint256"
        }
      ],
      "name": "ERC20InsufficientBalance",
      "type": "error"
    },
    {
      "inputs": [
        {
          "internalType": "address",
          "name": "approver",
          "type": "address"
        }
      ],
      "name": "ERC20InvalidApprover",
      "type": "error"
    },
    {
      "inputs": [
        {
          "internalType": "address",
          "name": "receiver",
          "type": "address"
        }
      ],
      "name": "ERC20InvalidReceiver",
      "type": "error"
    },
    {
      "inputs": [
        {
          "internalType": "address",
          "name": "sender",
          "type": "address"
        }
      ],
      "name": "ERC20InvalidSender",
      "type": "error"
    },
    {
      "inputs": [
        {
          "internalType": "address",
          "name": "spender",
          "type": "address"
        }
      ],
      "name": "ERC20InvalidSpender",
      "type": "error"
    },
    {
      "inputs": [],
      "name": "FailedInnerCall",
      "type": "error"
    },
    {
      "anonymous": false,
      "inputs": [
        {
          "indexed": true,
          "internalType": "address",
          "name": "owner",
          "type": "address"
        },
        {
          "indexed": true,
          "internalType": "address",
          "name": "spender",
          "type": "address"
        },
        {
          "indexed": false,
          "internalType": "uint256",
          "name": "value",
          "type": "uint256"
        }
      ],
      "name": "Approval",
      "type": "event"
    },
    {
      "anonymous": false,
      "inputs": [
        {
          "indexed": true,
          "internalType": "address",
          "name": "",
          "type": "address"
        }
      ],
      "name": "OwnerAdded",
      "type": "event"
    },
    {
      "anonymous": false,
      "inputs": [
        {
          "indexed": true,
          "internalType": "address",
          "name": "",
          "type": "address"
        }
      ],
      "name": "OwnerRemoved",
      "type": "event"
    },
    {
      "anonymous": false,
      "inputs": [
        {
          "indexed": true,
          "internalType": "address",
          "name": "from",
          "type": "address"
        },
        {
          "indexed": true,
          "internalType": "address",
          "name": "to",
          "type": "address"
        },
        {
          "indexed": false,
          "internalType": "uint256",
          "name": "value",
          "type": "uint256"
        }
      ],
      "name": "Transfer",
      "type": "event"
    },
    {
      "anonymous": false,
      "inputs": [
        {
          "indexed": false,
          "internalType": "address",
          "name": "updatedBy",
          "type": "address"
        },
        {
          "indexed": false,
          "internalType": "string",
          "name": "description",
          "type": "string"
        }
      ],
      "name": "UpdatedDescription",
      "type": "event"
    },
    {
      "anonymous": false,
      "inputs": [
        {
          "indexed": false,
          "internalType": "string",
          "name": "currency",
          "type": "string"
        },
        {
          "indexed": false,
          "internalType": "uint256",
          "name": "price",
          "type": "uint256"
        }
      ],
      "name": "UpdatedTokenParams",
      "type": "event"
    },
    {
      "inputs": [
        {
          "internalType": "address",
          "name": "_address",
          "type": "address"
        }
      ],
      "name": "addOwner",
      "outputs": [
        {
          "internalType": "bool",
          "name": "success",
          "type": "bool"
        }
      ],
      "stateMutability": "nonpayable",
      "type": "function"
    },
    {
      "inputs": [
        {
          "internalType": "address",
          "name": "owner",
          "type": "address"
        },
        {
          "internalType": "address",
          "name": "spender",
          "type": "address"
        }
      ],
      "name": "allowance",
      "outputs": [
        {
          "internalType": "uint256",
          "name": "",
          "type": "uint256"
        }
      ],
      "stateMutability": "view",
      "type": "function"
    },
    {
      "inputs": [
        {
          "internalType": "address",
          "name": "spender",
          "type": "address"
        },
        {
          "internalType": "uint256",
          "name": "value",
          "type": "uint256"
        }
      ],
      "name": "approve",
      "outputs": [
        {
          "internalType": "bool",
          "name": "",
          "type": "bool"
        }
      ],
      "stateMutability": "nonpayable",
      "type": "function"
    },
    {
      "inputs": [
        {
          "internalType": "address",
          "name": "account",
          "type": "address"
        }
      ],
      "name": "balanceOf",
      "outputs": [
        {
          "internalType": "uint256",
          "name": "",
          "type": "uint256"
        }
      ],
      "stateMutability": "view",
      "type": "function"
    },
    {
      "inputs": [
        {
          "internalType": "uint256",
          "name": "value",
          "type": "uint256"
        }
      ],
      "name": "burn",
      "outputs": [],
      "stateMutability": "nonpayable",
      "type": "function"
    },
    {
      "inputs": [
        {
          "internalType": "address",
          "name": "_account",
          "type": "address"
        },
        {
          "internalType": "uint256",
          "name": "_value",
          "type": "uint256"
        }
      ],
      "name": "burnFrom",
      "outputs": [],
      "stateMutability": "nonpayable",
      "type": "function"
    },
    {
      "inputs": [],
      "name": "currency",
      "outputs": [
        {
          "internalType": "string",
          "name": "",
          "type": "string"
        }
      ],
      "stateMutability": "view",
      "type": "function"
    },
    {
      "inputs": [],
      "name": "decimals",
      "outputs": [
        {
          "internalType": "uint8",
          "name": "",
          "type": "uint8"
        }
      ],
      "stateMutability": "view",
      "type": "function"
    },
    {
      "inputs": [],
      "name": "description",
      "outputs": [
        {
          "internalType": "string",
          "name": "",
          "type": "string"
        }
      ],
      "stateMutability": "view",
      "type": "function"
    },
    {
      "inputs": [
        {
          "internalType": "address",
          "name": "_address",
          "type": "address"
        }
      ],
      "name": "isOwner",
      "outputs": [
        {
          "internalType": "bool",
          "name": "",
          "type": "bool"
        }
      ],
      "stateMutability": "view",
      "type": "function"
    },
    {
      "inputs": [
        {
          "internalType": "address",
          "name": "forwarder",
          "type": "address"
        }
      ],
      "name": "isTrustedForwarder",
      "outputs": [
        {
          "internalType": "bool",
          "name": "",
          "type": "bool"
        }
      ],
      "stateMutability": "view",
      "type": "function"
    },
    {
      "inputs": [],
      "name": "listOwners",
      "outputs": [
        {
          "internalType": "address[]",
          "name": "",
          "type": "address[]"
        }
      ],
      "stateMutability": "view",
      "type": "function"
    },
    {
      "inputs": [
        {
          "internalType": "address",
          "name": "_address",
          "type": "address"
        },
        {
          "internalType": "uint256",
          "name": "_amount",
          "type": "uint256"
        }
      ],
      "name": "mint",
      "outputs": [
        {
          "internalType": "uint256",
          "name": "",
          "type": "uint256"
        }
      ],
      "stateMutability": "nonpayable",
      "type": "function"
    },
    {
      "inputs": [
        {
          "internalType": "bytes[]",
          "name": "data",
          "type": "bytes[]"
        }
      ],
      "name": "multicall",
      "outputs": [
        {
          "internalType": "bytes[]",
          "name": "results",
          "type": "bytes[]"
        }
      ],
      "stateMutability": "nonpayable",
      "type": "function"
    },
    {
      "inputs": [],
      "name": "name",
      "outputs": [
        {
          "internalType": "string",
          "name": "",
          "type": "string"
        }
      ],
      "stateMutability": "view",
      "type": "function"
    },
    {
      "inputs": [],
      "name": "ownerCount",
      "outputs": [
        {
          "internalType": "uint256",
          "name": "",
          "type": "uint256"
        }
      ],
      "stateMutability": "view",
      "type": "function"
    },
    {
      "inputs": [],
      "name": "price",
      "outputs": [
        {
          "internalType": "uint256",
          "name": "",
          "type": "uint256"
        }
      ],
      "stateMutability": "view",
      "type": "function"
    },
    {
      "inputs": [
        {
          "internalType": "address",
          "name": "_address",
          "type": "address"
        }
      ],
      "name": "removeOwner",
      "outputs": [
        {
          "internalType": "bool",
          "name": "success",
          "type": "bool"
        }
      ],
      "stateMutability": "nonpayable",
      "type": "function"
    },
    {
      "inputs": [],
      "name": "symbol",
      "outputs": [
        {
          "internalType": "string",
          "name": "",
          "type": "string"
        }
      ],
      "stateMutability": "view",
      "type": "function"
    },
    {
      "inputs": [],
      "name": "totalSupply",
      "outputs": [
        {
          "internalType": "uint256",
          "name": "",
          "type": "uint256"
        }
      ],
      "stateMutability": "view",
      "type": "function"
    },
    {
      "inputs": [
        {
          "internalType": "address",
          "name": "to",
          "type": "address"
        },
        {
          "internalType": "uint256",
          "name": "value",
          "type": "uint256"
        }
      ],
      "name": "transfer",
      "outputs": [
        {
          "internalType": "bool",
          "name": "",
          "type": "bool"
        }
      ],
      "stateMutability": "nonpayable",
      "type": "function"
    },
    {
      "inputs": [
        {
          "internalType": "address",
          "name": "from",
          "type": "address"
        },
        {
          "internalType": "address",
          "name": "to",
          "type": "address"
        },
        {
          "internalType": "uint256",
          "name": "value",
          "type": "uint256"
        }
      ],
      "name": "transferFrom",
      "outputs": [
        {
          "internalType": "bool",
          "name": "",
          "type": "bool"
        }
      ],
      "stateMutability": "nonpayable",
      "type": "function"
    },
    {
      "inputs": [],
      "name": "trustedForwarder",
      "outputs": [
        {
          "internalType": "address",
          "name": "",
          "type": "address"
        }
      ],
      "stateMutability": "view",
      "type": "function"
    },
    {
      "inputs": [
        {
          "internalType": "string",
          "name": "_description",
          "type": "string"
        }
      ],
      "name": "updateDescription",
      "outputs": [],
      "stateMutability": "nonpayable",
      "type": "function"
    },
    {
      "inputs": [
        {
          "internalType": "string",
          "name": "_currency",
          "type": "string"
        },
        {
          "internalType": "uint256",
          "name": "_price",
          "type": "uint256"
        },
        {
          "internalType": "string",
          "name": "_description",
          "type": "string"
        }
      ],
      "name": "updateTokenParams",
      "outputs": [],
      "stateMutability": "nonpayable",
      "type": "function"
    }
  ],
  "bytecode": "0x60c060405260326000553480156200001657600080fd5b5060405162001cb438038062001cb4833981016040819052620000399162000289565b84848460066200004a8382620003c6565b506007620000598282620003c6565b5050506001600160a01b0316608052620000738262000085565b5060ff1660a052506200049292505050565b6000805462000095600162000123565b1115620000da5760405162461bcd60e51b815260206004820152600f60248201526e1bdddb995c9cc8195e18d959591959608a1b604482015260640160405180910390fd5b620000e760018362000134565b6040519091506001600160a01b038316907f994a936646fe87ffe4f1e469d3d6aa417d6b855598397f323de5b449f765f0c390600090a2919050565b60006200012e825490565b92915050565b60006200014b836001600160a01b03841662000152565b9392505050565b60008181526001830160205260408120546200019b575081546001818101845560008481526020808220909301849055845484825282860190935260409020919091556200012e565b5060006200012e565b80516001600160a01b0381168114620001bc57600080fd5b919050565b634e487b7160e01b600052604160045260246000fd5b600082601f830112620001e957600080fd5b81516001600160401b0380821115620002065762000206620001c1565b604051601f8301601f19908116603f01168101908282118183101715620002315762000231620001c1565b81604052838152602092508660208588010111156200024f57600080fd5b600091505b8382101562000273578582018301518183018401529082019062000254565b6000602085830101528094505050505092915050565b600080600080600060a08688031215620002a257600080fd5b620002ad86620001a4565b60208701519095506001600160401b0380821115620002cb57600080fd5b620002d989838a01620001d7565b95506040880151915080821115620002f057600080fd5b50620002ff88828901620001d7565b9350506200031060608701620001a4565b9150608086015160ff811681146200032757600080fd5b809150509295509295909350565b600181811c908216806200034a57607f821691505b6020821081036200036b57634e487b7160e01b600052602260045260246000fd5b50919050565b601f821115620003c1576000816000526020600020601f850160051c810160208610156200039c5750805b601f850160051c820191505b81811015620003bd57828155600101620003a8565b5050505b505050565b81516001600160401b03811115620003e257620003e2620001c1565b620003fa81620003f3845462000335565b8462000371565b602080601f831160018114620004325760008415620004195750858301515b600019600386901b1c1916600185901b178555620003bd565b600085815260208120601f198616915b82811015620004635788860151825594840194600190910190840162000442565b5085821015620004825787850151600019600388901b60f8161c191681555b5050505050600190811b01905550565b60805160a0516117ee620004c660003960006102170152600081816102790152818161030d0152610bc601526117ee6000f3fe608060405234801561001057600080fd5b50600436106101735760003560e01c806370a08231116100de578063a9059cbb11610097578063dd62ed3e11610071578063dd62ed3e1461038e578063e5a6b10f146103c7578063e735b48a146103cf578063ed60c0fc146103e257600080fd5b8063a9059cbb14610348578063ac9650d81461035b578063c6e0e0f71461037b57600080fd5b806370a08231146102bc5780637284e416146102e557806379cc6790146102ed5780637da0a8771461030057806395d89b4114610337578063a035b1fe1461033f57600080fd5b80632f54bf6e116101305780632f54bf6e146101fd578063313ce5671461021057806340c10f191461024157806342966c6814610254578063572b6c05146102695780637065cb48146102a957600080fd5b806306fdde0314610178578063095ea7b3146101965780630db02622146101b9578063173825d9146101cf57806318160ddd146101e257806323b872dd146101ea575b600080fd5b6101806103f7565b60405161018d91906110b2565b60405180910390f35b6101a96101a43660046110dc565b610489565b604051901515815260200161018d565b6101c16104ad565b60405190815260200161018d565b6101a96101dd366004611106565b6104be565b6005546101c1565b6101a96101f8366004611121565b610537565b6101a961020b366004611106565b610567565b60405160ff7f000000000000000000000000000000000000000000000000000000000000000016815260200161018d565b6101c161024f3660046110dc565b610574565b61026761026236600461115d565b6105ad565b005b6101a9610277366004611106565b7f00000000000000000000000000000000000000000000000000000000000000006001600160a01b0390811691161490565b6101a96102b7366004611106565b6105c1565b6101c16102ca366004611106565b6001600160a01b031660009081526003602052604090205490565b6101806105f8565b6102676102fb3660046110dc565b610686565b6040516001600160a01b037f000000000000000000000000000000000000000000000000000000000000000016815260200161018d565b610180610694565b6101c160095481565b6101a96103563660046110dc565b6106a3565b61036e610369366004611176565b6106bb565b60405161018d91906111eb565b6102676103893660046112f2565b61081a565b6101c161039c36600461135f565b6001600160a01b03918216600090815260046020908152604080832093909416825291909152205490565b61018061087a565b6102676103dd366004611392565b610887565b6103ea6108d0565b60405161018d91906113cf565b6060600680546104069061141c565b80601f01602080910402602001604051908101604052809291908181526020018280546104329061141c565b801561047f5780601f106104545761010080835404028352916020019161047f565b820191906000526020600020905b81548152906001019060200180831161046257829003601f168201915b5050505050905090565b6000806104946108dc565b90506104a18185856108e6565b60019150505b92915050565b60006104b960016108f8565b905090565b60006104cb600133610902565b6104f05760405162461bcd60e51b81526004016104e790611450565b60405180910390fd5b6104fb600183610924565b6040519091506001600160a01b038316907f58619076adf5bb0943d100ef88d52d7c3fd691b19d3a9071b555b651fbf418da90600090a2919050565b6000806105426108dc565b905061054f858285610939565b61055a8585856109b7565b60019150505b9392505050565b60006104a7600183610902565b6000610581600133610902565b61059d5760405162461bcd60e51b81526004016104e790611450565b6105a78383610a16565b50919050565b6105be6105b86108dc565b82610a4c565b50565b60006105ce600133610902565b6105ea5760405162461bcd60e51b81526004016104e790611450565b6104a782610a82565b919050565b600880546106059061141c565b80601f01602080910402602001604051908101604052809291908181526020018280546106319061141c565b801561067e5780601f106106535761010080835404028352916020019161067e565b820191906000526020600020905b81548152906001019060200180831161066157829003601f168201915b505050505081565b6106908282610b17565b5050565b6060600780546104069061141c565b6000806106ae6108dc565b90506104a18185856109b7565b606060006106c76108dc565b6001600160a01b0316336001600160a01b031614610732576000366106ed6014826114ad565b6106f89282906114c0565b8080601f01602080910402602001604051908101604052809392919081815260200183838082843760009201919091525061074292505050565b6040805160008152602081019091525b90508267ffffffffffffffff81111561075d5761075d61124f565b60405190808252806020026020018201604052801561079057816020015b606081526020019060019003908161077b5790505b50915060005b83811015610812576107ed308686848181106107b4576107b46114ea565b90506020028101906107c69190611500565b856040516020016107d99392919061154e565b604051602081830303815290604052610b33565b8382815181106107ff576107ff6114ea565b6020908102919091010152600101610796565b505092915050565b6009829055600a61082b84826115c5565b50600861083882826115c5565b507fd451c21e76a309508868143bc431a6c4c3a3d0ce8412f749b963b6ff89f68bc6600a60095460405161086d929190611685565b60405180910390a1505050565b600a80546106059061141c565b600861089382826115c5565b507ff2cd56bf14028012848e205a2d01ce23158607be1f97f7c50d82100876af787a33826040516108c592919061171c565b60405180910390a150565b60606104b96001610ba9565b60006104b9610bb6565b6108f38383836001610c2b565b505050565b60006104a7825490565b6001600160a01b03811660009081526001830160205260408120541515610560565b6000610560836001600160a01b038416610d00565b6001600160a01b0383811660009081526004602090815260408083209386168352929052205460001981146109b157818110156109a257604051637dc7a0d960e11b81526001600160a01b038416600482015260248101829052604481018390526064016104e7565b6109b184848484036000610c2b565b50505050565b6001600160a01b0383166109e157604051634b637e8f60e11b8152600060048201526024016104e7565b6001600160a01b038216610a0b5760405163ec442f0560e01b8152600060048201526024016104e7565b6108f3838383610df3565b6001600160a01b038216610a405760405163ec442f0560e01b8152600060048201526024016104e7565b61069060008383610df3565b6001600160a01b038216610a7657604051634b637e8f60e11b8152600060048201526024016104e7565b61069082600083610df3565b60008054610a9060016108f8565b1115610ad05760405162461bcd60e51b815260206004820152600f60248201526e1bdddb995c9cc8195e18d959591959608a1b60448201526064016104e7565b610adb600183610f1d565b6040519091506001600160a01b038316907f994a936646fe87ffe4f1e469d3d6aa417d6b855598397f323de5b449f765f0c390600090a2919050565b610b2982610b236108dc565b83610939565b6106908282610a4c565b6060600080846001600160a01b031684604051610b509190611740565b600060405180830381855af49150503d8060008114610b8b576040519150601f19603f3d011682016040523d82523d6000602084013e610b90565b606091505b5091509150610ba0858383610f32565b95945050505050565b6060600061056083610f8e565b6000366014336001600160a01b037f000000000000000000000000000000000000000000000000000000000000000016148015610bf35750808210155b15610c2357600036610c0583856114ad565b610c109282906114c0565b610c199161175c565b60601c9250505090565b339250505090565b6001600160a01b038416610c555760405163e602df0560e01b8152600060048201526024016104e7565b6001600160a01b038316610c7f57604051634a1406b160e11b8152600060048201526024016104e7565b6001600160a01b03808516600090815260046020908152604080832093871683529290522082905580156109b157826001600160a01b0316846001600160a01b03167f8c5be1e5ebec7d5bd14f71427d1e84f3dd0314c0f7b2291e5b200ac8c7c3b92584604051610cf291815260200190565b60405180910390a350505050565b60008181526001830160205260408120548015610de9576000610d246001836114ad565b8554909150600090610d38906001906114ad565b9050808214610d9d576000866000018281548110610d5857610d586114ea565b9060005260206000200154905080876000018481548110610d7b57610d7b6114ea565b6000918252602080832090910192909255918252600188019052604090208390555b8554869080610dae57610dae61178f565b6001900381819060005260206000200160009055905585600101600086815260200190815260200160002060009055600193505050506104a7565b60009150506104a7565b6001600160a01b038316610e1e578060056000828254610e1391906117a5565b90915550610e909050565b6001600160a01b03831660009081526003602052604090205481811015610e715760405163391434e360e21b81526001600160a01b038516600482015260248101829052604481018390526064016104e7565b6001600160a01b03841660009081526003602052604090209082900390555b6001600160a01b038216610eac57600580548290039055610ecb565b6001600160a01b03821660009081526003602052604090208054820190555b816001600160a01b0316836001600160a01b03167fddf252ad1be2c89b69c2b068fc378daa952ba7f163c4a11628f55a4df523b3ef83604051610f1091815260200190565b60405180910390a3505050565b6000610560836001600160a01b038416610fea565b606082610f4757610f4282611039565b610560565b8151158015610f5e57506001600160a01b0384163b155b15610f8757604051639996b31560e01b81526001600160a01b03851660048201526024016104e7565b5080610560565b606081600001805480602002602001604051908101604052809291908181526020018280548015610fde57602002820191906000526020600020905b815481526020019060010190808311610fca575b50505050509050919050565b6000818152600183016020526040812054611031575081546001818101845560008481526020808220909301849055845484825282860190935260409020919091556104a7565b5060006104a7565b8051156110495780518082602001fd5b604051630a12f52160e11b815260040160405180910390fd5b60005b8381101561107d578181015183820152602001611065565b50506000910152565b6000815180845261109e816020860160208601611062565b601f01601f19169290920160200192915050565b6020815260006105606020830184611086565b80356001600160a01b03811681146105f357600080fd5b600080604083850312156110ef57600080fd5b6110f8836110c5565b946020939093013593505050565b60006020828403121561111857600080fd5b610560826110c5565b60008060006060848603121561113657600080fd5b61113f846110c5565b925061114d602085016110c5565b9150604084013590509250925092565b60006020828403121561116f57600080fd5b5035919050565b6000806020838503121561118957600080fd5b823567ffffffffffffffff808211156111a157600080fd5b818501915085601f8301126111b557600080fd5b8135818111156111c457600080fd5b8660208260051b85010111156111d957600080fd5b60209290920196919550909350505050565b600060208083016020845280855180835260408601915060408160051b87010192506020870160005b8281101561124257603f19888603018452611230858351611086565b94509285019290850190600101611214565b5092979650505050505050565b634e487b7160e01b600052604160045260246000fd5b600082601f83011261127657600080fd5b813567ffffffffffffffff808211156112915761129161124f565b604051601f8301601f19908116603f011681019082821181831017156112b9576112b961124f565b816040528381528660208588010111156112d257600080fd5b836020870160208301376000602085830101528094505050505092915050565b60008060006060848603121561130757600080fd5b833567ffffffffffffffff8082111561131f57600080fd5b61132b87838801611265565b945060208601359350604086013591508082111561134857600080fd5b5061135586828701611265565b9150509250925092565b6000806040838503121561137257600080fd5b61137b836110c5565b9150611389602084016110c5565b90509250929050565b6000602082840312156113a457600080fd5b813567ffffffffffffffff8111156113bb57600080fd5b6113c784828501611265565b949350505050565b6020808252825182820181905260009190848201906040850190845b818110156114105783516001600160a01b0316835292840192918401916001016113eb565b50909695505050505050565b600181811c9082168061143057607f821691505b6020821081036105a757634e487b7160e01b600052602260045260246000fd5b60208082526027908201527f4f6e6c79206f776e65722063616e20657865637574652074686973207472616e60408201526639b0b1ba34b7b760c91b606082015260800190565b634e487b7160e01b600052601160045260246000fd5b818103818111156104a7576104a7611497565b600080858511156114d057600080fd5b838611156114dd57600080fd5b5050820193919092039150565b634e487b7160e01b600052603260045260246000fd5b6000808335601e1984360301811261151757600080fd5b83018035915067ffffffffffffffff82111561153257600080fd5b60200191503681900382131561154757600080fd5b9250929050565b82848237600083820160008152835161156b818360208801611062565b0195945050505050565b601f8211156108f3576000816000526020600020601f850160051c8101602086101561159e5750805b601f850160051c820191505b818110156115bd578281556001016115aa565b505050505050565b815167ffffffffffffffff8111156115df576115df61124f565b6115f3816115ed845461141c565b84611575565b602080601f83116001811461162857600084156116105750858301515b600019600386901b1c1916600185901b1785556115bd565b600085815260208120601f198616915b8281101561165757888601518255948401946001909101908401611638565b50858210156116755787850151600019600388901b60f8161c191681555b5050505050600190811b01905550565b6040815260008084546116978161141c565b80604086015260606001808416600081146116b957600181146116d557611707565b60ff1985166060890152606084151560051b8901019550611707565b8960005260208060002060005b868110156116fd5781548b82018701529084019082016116e2565b8a01606001975050505b50505050506020929092019290925292915050565b6001600160a01b03831681526040602082018190526000906113c790830184611086565b60008251611752818460208701611062565b9190910192915050565b6bffffffffffffffffffffffff1981358181169160148510156108125760149490940360031b84901b1690921692915050565b634e487b7160e01b600052603160045260246000fd5b808201808211156104a7576104a761149756fea264697066735822122069310ea6c754895a3866fc87bc88cf9e381f54368c0936da5cf027c93ec340be64736f6c63430008170033",
  "linkReferences": {},
  "deployedLinkReferences": {}
}