{
  "_format": "hh-sol-artifact-1",
  "contractName": "RahatDonor",
  "sourceName": "src/contracts/RahatDonor.sol",
  "abi": [
    {
      "inputs": [
        {
          "internalType": "address",
          "name": "_admin",
          "type": "address"
        },
        {
          "internalType": "address",
          "name": "_accessManager",
          "type": "address"
        }
      ],
      "stateMutability": "nonpayable",
      "type": "constructor"
    },
    {
      "inputs": [
        {
          "internalType": "address",
          "name": "authority",
          "type": "address"
        }
      ],
      "name": "AccessManagedInvalidAuthority",
      "type": "error"
    },
    {
      "inputs": [
        {
          "internalType": "address",
          "name": "caller",
          "type": "address"
        },
        {
          "internalType": "uint32",
          "name": "delay",
          "type": "uint32"
        }
      ],
      "name": "AccessManagedRequiredDelay",
      "type": "error"
    },
    {
      "inputs": [
        {
          "internalType": "address",
          "name": "caller",
          "type": "address"
        }
      ],
      "name": "AccessManagedUnauthorized",
      "type": "error"
    },
    {
      "inputs": [
        {
          "internalType": "address",
          "name": "target",
          "type": "address"
        }
      ],
      "name": "AddressEmptyCode",
      "type": "error"
    },
    {
      "inputs": [],
      "name": "FailedInnerCall",
      "type": "error"
    },
    {
      "anonymous": false,
      "inputs": [
        {
          "indexed": false,
          "internalType": "address",
          "name": "authority",
          "type": "address"
        }
      ],
      "name": "AuthorityUpdated",
      "type": "event"
    },
    {
      "anonymous": false,
      "inputs": [
        {
          "indexed": true,
          "internalType": "address",
          "name": "",
          "type": "address"
        }
      ],
      "name": "OwnerAdded",
      "type": "event"
    },
    {
      "anonymous": false,
      "inputs": [
        {
          "indexed": true,
          "internalType": "address",
          "name": "",
          "type": "address"
        }
      ],
      "name": "OwnerRemoved",
      "type": "event"
    },
    {
      "anonymous": false,
      "inputs": [
        {
          "indexed": true,
          "internalType": "address",
          "name": "tokenAddress",
          "type": "address"
        }
      ],
      "name": "TokenCreated",
      "type": "event"
    },
    {
      "anonymous": false,
      "inputs": [
        {
          "indexed": true,
          "internalType": "address",
          "name": "projectTokenAddress",
          "type": "address"
        },
        {
          "indexed": true,
          "internalType": "address",
          "name": "projectTokenapproveAddress",
          "type": "address"
        },
        {
          "indexed": true,
          "internalType": "address",
          "name": "cashTokenAddress",
          "type": "address"
        },
        {
          "indexed": false,
          "internalType": "address",
          "name": "cashTokenReciever",
          "type": "address"
        },
        {
          "indexed": false,
          "internalType": "uint256",
          "name": "amount",
          "type": "uint256"
        }
      ],
      "name": "TokenMintedAndApproved",
      "type": "event"
    },
    {
      "inputs": [],
      "name": "IID_RAHAT_DONOR",
      "outputs": [
        {
          "internalType": "bytes4",
          "name": "",
          "type": "bytes4"
        }
      ],
      "stateMutability": "view",
      "type": "function"
    },
    {
      "inputs": [],
      "name": "RahatTreasury",
      "outputs": [
        {
          "internalType": "contract IRahatTreasury",
          "name": "",
          "type": "address"
        }
      ],
      "stateMutability": "view",
      "type": "function"
    },
    {
      "inputs": [
        {
          "internalType": "address",
          "name": "",
          "type": "address"
        }
      ],
      "name": "_registeredProject",
      "outputs": [
        {
          "internalType": "bool",
          "name": "",
          "type": "bool"
        }
      ],
      "stateMutability": "view",
      "type": "function"
    },
    {
      "inputs": [
        {
          "internalType": "address",
          "name": "_address",
          "type": "address"
        }
      ],
      "name": "addOwner",
      "outputs": [
        {
          "internalType": "bool",
          "name": "success",
          "type": "bool"
        }
      ],
      "stateMutability": "nonpayable",
      "type": "function"
    },
    {
      "inputs": [
        {
          "internalType": "address",
          "name": "_token",
          "type": "address"
        },
        {
          "internalType": "address",
          "name": "_ownerAddress",
          "type": "address"
        }
      ],
      "name": "addTokenOwner",
      "outputs": [],
      "stateMutability": "nonpayable",
      "type": "function"
    },
    {
      "inputs": [
        {
          "internalType": "address",
          "name": "_token",
          "type": "address"
        },
        {
          "internalType": "address",
          "name": "_spender",
          "type": "address"
        },
        {
          "internalType": "uint256",
          "name": "_amount",
          "type": "uint256"
        }
      ],
      "name": "approveToken",
      "outputs": [],
      "stateMutability": "nonpayable",
      "type": "function"
    },
    {
      "inputs": [],
      "name": "authority",
      "outputs": [
        {
          "internalType": "address",
          "name": "",
          "type": "address"
        }
      ],
      "stateMutability": "view",
      "type": "function"
    },
    {
      "inputs": [
        {
          "internalType": "address",
          "name": "_cashTokenAddress",
          "type": "address"
        },
        {
          "internalType": "address",
          "name": "_newOwner",
          "type": "address"
        }
      ],
      "name": "changeCashTokenOwnerShip",
      "outputs": [],
      "stateMutability": "nonpayable",
      "type": "function"
    },
    {
      "inputs": [
        {
          "internalType": "address",
          "name": "_token",
          "type": "address"
        },
        {
          "internalType": "address",
          "name": "_from",
          "type": "address"
        },
        {
          "internalType": "uint256",
          "name": "_amount",
          "type": "uint256"
        }
      ],
      "name": "claimToken",
      "outputs": [],
      "stateMutability": "nonpayable",
      "type": "function"
    },
    {
      "inputs": [
        {
          "internalType": "address",
          "name": "_token",
          "type": "address"
        },
        {
          "internalType": "address",
          "name": "_from",
          "type": "address"
        }
      ],
      "name": "getAllowanceAndBalance",
      "outputs": [
        {
          "internalType": "uint256",
          "name": "allowance",
          "type": "uint256"
        },
        {
          "internalType": "uint256",
          "name": "balance",
          "type": "uint256"
        }
      ],
      "stateMutability": "view",
      "type": "function"
    },
    {
      "inputs": [],
      "name": "isConsumingScheduledOp",
      "outputs": [
        {
          "internalType": "bytes4",
          "name": "",
          "type": "bytes4"
        }
      ],
      "stateMutability": "view",
      "type": "function"
    },
    {
      "inputs": [
        {
          "internalType": "address",
          "name": "_address",
          "type": "address"
        }
      ],
      "name": "isOwner",
      "outputs": [
        {
          "internalType": "bool",
          "name": "",
          "type": "bool"
        }
      ],
      "stateMutability": "view",
      "type": "function"
    },
    {
      "inputs": [],
      "name": "listOwners",
      "outputs": [
        {
          "internalType": "address[]",
          "name": "",
          "type": "address[]"
        }
      ],
      "stateMutability": "view",
      "type": "function"
    },
    {
      "inputs": [
        {
          "internalType": "address",
          "name": "_token",
          "type": "address"
        },
        {
          "internalType": "uint256",
          "name": "_amount",
          "type": "uint256"
        }
      ],
      "name": "mintToken",
      "outputs": [],
      "stateMutability": "nonpayable",
      "type": "function"
    },
    {
      "inputs": [
        {
          "internalType": "address",
          "name": "_projectToken",
          "type": "address"
        },
        {
          "internalType": "address",
          "name": "_projectAddress",
          "type": "address"
        },
        {
          "internalType": "address",
          "name": "_cashToken",
          "type": "address"
        },
        {
          "internalType": "address",
          "name": "_cashTokenReciever",
          "type": "address"
        },
        {
          "internalType": "uint256",
          "name": "_amount",
          "type": "uint256"
        }
      ],
      "name": "mintTokens",
      "outputs": [
        {
          "internalType": "bool",
          "name": "",
          "type": "bool"
        }
      ],
      "stateMutability": "nonpayable",
      "type": "function"
    },
    {
      "inputs": [
        {
          "internalType": "bytes[]",
          "name": "data",
          "type": "bytes[]"
        }
      ],
      "name": "multicall",
      "outputs": [
        {
          "internalType": "bytes[]",
          "name": "results",
          "type": "bytes[]"
        }
      ],
      "stateMutability": "nonpayable",
      "type": "function"
    },
    {
      "inputs": [],
      "name": "ownerCount",
      "outputs": [
        {
          "internalType": "uint256",
          "name": "",
          "type": "uint256"
        }
      ],
      "stateMutability": "view",
      "type": "function"
    },
    {
      "inputs": [
        {
          "internalType": "address",
          "name": "_projectAddress",
          "type": "address"
        },
        {
          "internalType": "bool",
          "name": "status",
          "type": "bool"
        }
      ],
      "name": "registerProject",
      "outputs": [],
      "stateMutability": "nonpayable",
      "type": "function"
    },
    {
      "inputs": [
        {
          "internalType": "address",
          "name": "_address",
          "type": "address"
        }
      ],
      "name": "removeOwner",
      "outputs": [
        {
          "internalType": "bool",
          "name": "success",
          "type": "bool"
        }
      ],
      "stateMutability": "nonpayable",
      "type": "function"
    },
    {
      "inputs": [
        {
          "internalType": "address",
          "name": "newAuthority",
          "type": "address"
        }
      ],
      "name": "setAuthority",
      "outputs": [],
      "stateMutability": "nonpayable",
      "type": "function"
    },
    {
      "inputs": [
        {
          "internalType": "bytes4",
          "name": "interfaceId",
          "type": "bytes4"
        }
      ],
      "name": "supportsInterface",
      "outputs": [
        {
          "internalType": "bool",
          "name": "",
          "type": "bool"
        }
      ],
      "stateMutability": "view",
      "type": "function"
    },
    {
      "inputs": [
        {
          "internalType": "uint256",
          "name": "",
          "type": "uint256"
        }
      ],
      "name": "tokenToDollarValue",
      "outputs": [
        {
          "internalType": "uint256",
          "name": "",
          "type": "uint256"
        }
      ],
      "stateMutability": "view",
      "type": "function"
    },
    {
      "inputs": [
        {
          "internalType": "address",
          "name": "_token",
          "type": "address"
        },
        {
          "internalType": "address",
          "name": "_from",
          "type": "address"
        },
        {
          "internalType": "address",
          "name": "_to",
          "type": "address"
        },
        {
          "internalType": "uint256",
          "name": "_amount",
          "type": "uint256"
        }
      ],
      "name": "transferFromToken",
      "outputs": [],
      "stateMutability": "nonpayable",
      "type": "function"
    },
    {
      "inputs": [
        {
          "internalType": "address",
          "name": "_token",
          "type": "address"
        },
        {
          "internalType": "address",
          "name": "_to",
          "type": "address"
        },
        {
          "internalType": "uint256",
          "name": "_amount",
          "type": "uint256"
        }
      ],
      "name": "transferToken",
      "outputs": [],
      "stateMutability": "nonpayable",
      "type": "function"
    }
  ],
  "bytecode": "0x608060405260326000553480156200001657600080fd5b50604051620019d4380380620019d48339810160408190526200003991620001ea565b8062000045816200005a565b506200005182620000ae565b50505062000222565b600380546001600160a01b0319166001600160a01b0383169081179091556040519081527f2f658b440c35314f52658ea8a740e05b284cdc84dc9ae01e891f21b8933e7cad9060200160405180910390a150565b60008054620000be60016200014c565b1115620001035760405162461bcd60e51b815260206004820152600f60248201526e1bdddb995c9cc8195e18d959591959608a1b604482015260640160405180910390fd5b620001106001836200015d565b6040519091506001600160a01b038316907f994a936646fe87ffe4f1e469d3d6aa417d6b855598397f323de5b449f765f0c390600090a2919050565b600062000157825490565b92915050565b600062000174836001600160a01b0384166200017b565b9392505050565b6000818152600183016020526040812054620001c45750815460018181018455600084815260208082209093018490558454848252828601909352604090209190915562000157565b50600062000157565b80516001600160a01b0381168114620001e557600080fd5b919050565b60008060408385031215620001fe57600080fd5b6200020983620001cd565b91506200021960208401620001cd565b90509250929050565b6117a280620002326000396000f3fe608060405234801561001057600080fd5b50600436106101585760003560e01c80639a7b612a116100c3578063da3e33971161007c578063da3e33971461031e578063ec9e0e8714610331578063ed60c0fc14610344578063f36307cf14610359578063f5537ede14610379578063fb3c0d701461038c57600080fd5b80639a7b612a14610296578063a80f5612146102a4578063ac9650d8146102c7578063bf7e214f146102e7578063d293cf25146102f8578063d41c6f131461030b57600080fd5b80634937b174116101155780634937b174146101e95780637065cb481461021157806379c65068146102245780637a9e5e4b146102375780638fb360371461024a578063904760631461026b57600080fd5b806301ffc9a71461015d5780630db0262214610185578063125bfb661461019b578063173825d9146101b05780632cb5568e146101c35780632f54bf6e146101d6575b600080fd5b61017061016b3660046111da565b61039f565b60405190151581526020015b60405180910390f35b61018d6103d6565b60405190815260200161017c565b6101ae6101a936600461121b565b6103e7565b005b6101706101be366004611257565b610497565b6101ae6101d1366004611272565b610507565b6101706101e4366004611257565b610585565b6101fc6101f7366004611272565b610592565b6040805192835260208301919091520161017c565b61017061021f366004611257565b61067b565b6101ae61023236600461129c565b6106b2565b6101ae610245366004611257565b610723565b61025261079d565b6040516001600160e01b0319909116815260200161017c565b60065461027e906001600160a01b031681565b6040516001600160a01b03909116815260200161017c565b610252630ae9aa6960e31b81565b6101706102b2366004611257565b60056020526000908152604090205460ff1681565b6102da6102d53660046112c6565b6107c3565b60405161017c919061135f565b6003546001600160a01b031661027e565b6101ae6103063660046113e7565b6108ab565b61017061031936600461141e565b6108df565b6101ae61032c36600461121b565b610a15565b6101ae61033f366004611272565b610a71565b61034c610ad9565b60405161017c919061147a565b61018d6103673660046114c7565b60046020526000908152604090205481565b6101ae61038736600461121b565b610ae5565b6101ae61039a3660046114e0565b610b41565b60006001600160e01b03198216630ae9aa6960e31b14806103d057506301ffc9a760e01b6001600160e01b03198316145b92915050565b60006103e26001610bea565b905090565b6103f2600133610bf4565b6104175760405162461bcd60e51b815260040161040e9061152b565b60405180910390fd5b6040516323b872dd60e01b81526001600160a01b038381166004830152306024830152604482018390528416906323b872dd906064015b6020604051808303816000875af115801561046d573d6000803e3d6000fd5b505050506040513d601f19601f820116820180604052508101906104919190611572565b50505050565b60006104a4600133610bf4565b6104c05760405162461bcd60e51b815260040161040e9061152b565b6104cb600183610c19565b6040519091506001600160a01b038316907f58619076adf5bb0943d100ef88d52d7c3fd691b19d3a9071b555b651fbf418da90600090a2919050565b610514335b600036610c2e565b604051630e0cb96960e31b81526001600160a01b038281166004830152831690637065cb48906024016020604051808303816000875af115801561055c573d6000803e3d6000fd5b505050506040513d601f19601f820116820180604052508101906105809190611572565b505050565b60006103d0600183610bf4565b604051636eb1769f60e11b81526001600160a01b038281166004830152306024830152600091829185169063dd62ed3e90604401602060405180830381865afa1580156105e3573d6000803e3d6000fd5b505050506040513d601f19601f82011682018060405250810190610607919061158f565b6040516370a0823160e01b81523060048201529092506001600160a01b038516906370a0823190602401602060405180830381865afa15801561064e573d6000803e3d6000fd5b505050506040513d601f19601f82011682018060405250810190610672919061158f565b90509250929050565b6000610688600133610bf4565b6106a45760405162461bcd60e51b815260040161040e9061152b565b6103d082610d27565b919050565b6040516340c10f1960e01b8152306004820152602481018290526001600160a01b038316906340c10f19906044016020604051808303816000875af11580156106ff573d6000803e3d6000fd5b505050506040513d601f19601f82011682018060405250810190610580919061158f565b60035433906001600160a01b0316811461075a5760405162d1953b60e31b81526001600160a01b038216600482015260240161040e565b816001600160a01b03163b600003610790576040516361798f2f60e11b81526001600160a01b038316600482015260240161040e565b61079982610dbc565b5050565b600354600090600160a01b900460ff166107b75750600090565b50638fb3603760e01b90565b6040805160008152602081019091526060908267ffffffffffffffff8111156107ee576107ee6115f3565b60405190808252806020026020018201604052801561082157816020015b606081526020019060019003908161080c5790505b50915060005b838110156108a35761087e3086868481811061084557610845611609565b9050602002810190610857919061161f565b8560405160200161086a9392919061166d565b604051602081830303815290604052610e10565b83828151811061089057610890611609565b6020908102919091010152600101610827565b505092915050565b6108b43361050c565b6001600160a01b03919091166000908152600560205260409020805460ff1916911515919091179055565b6040516340c10f1960e01b81526001600160a01b0385811660048301526024820183905260009187918216906340c10f19906044016020604051808303816000875af1158015610933573d6000803e3d6000fd5b505050506040513d601f19601f82011682018060405250810190610957919061158f565b506040516340c10f1960e01b81526001600160a01b038581166004830152602482018590528616906340c10f1990604401600060405180830381600087803b1580156109a257600080fd5b505af11580156109b6573d6000803e3d6000fd5b5050604080516001600160a01b03888116825260208201889052808a1694508a811693508b16917f4f210daf637a00b98720665c8394937fc30dae4b1933e50fc868b32f82051da8910160405180910390a45060019695505050505050565b610a20600133610bf4565b610a3c5760405162461bcd60e51b815260040161040e9061152b565b60405163095ea7b360e01b81526001600160a01b0383811660048301526024820183905284169063095ea7b39060440161044e565b610a7a3361050c565b60405163f2fde38b60e01b81526001600160a01b03828116600483015283169063f2fde38b90602401600060405180830381600087803b158015610abd57600080fd5b505af1158015610ad1573d6000803e3d6000fd5b505050505050565b60606103e26001610e86565b610af0600133610bf4565b610b0c5760405162461bcd60e51b815260040161040e9061152b565b60405163a9059cbb60e01b81526001600160a01b0383811660048301526024820183905284169063a9059cbb9060440161044e565b610b4c600133610bf4565b610b685760405162461bcd60e51b815260040161040e9061152b565b6040516323b872dd60e01b81526001600160a01b0384811660048301528381166024830152604482018390528516906323b872dd906064016020604051808303816000875af1158015610bbf573d6000803e3d6000fd5b505050506040513d601f19601f82011682018060405250810190610be39190611572565b5050505050565b60006103d0825490565b6001600160a01b038116600090815260018301602052604081205415155b9392505050565b6000610c12836001600160a01b038416610e93565b600080610c64610c466003546001600160a01b031690565b8630610c5660046000898b6115c9565b610c5f91611694565b610f86565b9150915081610be35763ffffffff811615610d04576003805460ff60a01b198116600160a01b17909155604051634a63ebf760e11b81526001600160a01b03909116906394c7d7ee90610cbf908890889088906004016116c2565b600060405180830381600087803b158015610cd957600080fd5b505af1158015610ced573d6000803e3d6000fd5b50506003805460ff60a01b1916905550610be39050565b60405162d1953b60e31b81526001600160a01b038616600482015260240161040e565b60008054610d356001610bea565b1115610d755760405162461bcd60e51b815260206004820152600f60248201526e1bdddb995c9cc8195e18d959591959608a1b604482015260640161040e565b610d80600183611092565b6040519091506001600160a01b038316907f994a936646fe87ffe4f1e469d3d6aa417d6b855598397f323de5b449f765f0c390600090a2919050565b600380546001600160a01b0319166001600160a01b0383169081179091556040519081527f2f658b440c35314f52658ea8a740e05b284cdc84dc9ae01e891f21b8933e7cad9060200160405180910390a150565b6060600080846001600160a01b031684604051610e2d9190611702565b600060405180830381855af49150503d8060008114610e68576040519150601f19603f3d011682016040523d82523d6000602084013e610e6d565b606091505b5091509150610e7d8583836110a7565b95945050505050565b60606000610c1283611103565b60008181526001830160205260408120548015610f7c576000610eb76001836115a8565b8554909150600090610ecb906001906115a8565b9050808214610f30576000866000018281548110610eeb57610eeb611609565b9060005260206000200154905080876000018481548110610f0e57610f0e611609565b6000918252602080832090910192909255918252600188019052604090208390555b8554869080610f4157610f4161171e565b6001900381819060005260206000200160009055905585600101600086815260200190815260200160002060009055600193505050506103d0565b60009150506103d0565b6040516001600160a01b03848116602483015283811660448301526001600160e01b03198316606483015260009182918291829189169060840160408051601f198184030181529181526020820180516001600160e01b031663b700961360e01b17905251610ff59190611702565b600060405180830381855afa9150503d8060008114611030576040519150601f19603f3d011682016040523d82523d6000602084013e611035565b606091505b50915091508115611087576040815110611067578080602001905181019061105d9190611734565b9094509250611087565b602081511061108757808060200190518101906110849190611572565b93505b505094509492505050565b6000610c12836001600160a01b03841661115f565b6060826110bc576110b7826111ae565b610c12565b81511580156110d357506001600160a01b0384163b155b156110fc57604051639996b31560e01b81526001600160a01b038516600482015260240161040e565b5092915050565b60608160000180548060200260200160405190810160405280929190818152602001828054801561115357602002820191906000526020600020905b81548152602001906001019080831161113f575b50505050509050919050565b60008181526001830160205260408120546111a6575081546001818101845560008481526020808220909301849055845484825282860190935260409020919091556103d0565b5060006103d0565b8051156111be5780518082602001fd5b604051630a12f52160e11b815260040160405180910390fd5b50565b6000602082840312156111ec57600080fd5b81356001600160e01b031981168114610c1257600080fd5b80356001600160a01b03811681146106ad57600080fd5b60008060006060848603121561123057600080fd5b61123984611204565b925061124760208501611204565b9150604084013590509250925092565b60006020828403121561126957600080fd5b610c1282611204565b6000806040838503121561128557600080fd5b61128e83611204565b915061067260208401611204565b600080604083850312156112af57600080fd5b6112b883611204565b946020939093013593505050565b600080602083850312156112d957600080fd5b823567ffffffffffffffff808211156112f157600080fd5b818501915085601f83011261130557600080fd5b81358181111561131457600080fd5b8660208260051b850101111561132957600080fd5b60209290920196919550909350505050565b60005b8381101561135657818101518382015260200161133e565b50506000910152565b6000602080830181845280855180835260408601915060408160051b870101925083870160005b828110156113cc57878503603f19018452815180518087526113ad818989018a850161133b565b601f01601f191695909501860194509285019290850190600101611386565b5092979650505050505050565b80151581146111d757600080fd5b600080604083850312156113fa57600080fd5b61140383611204565b91506020830135611413816113d9565b809150509250929050565b600080600080600060a0868803121561143657600080fd5b61143f86611204565b945061144d60208701611204565b935061145b60408701611204565b925061146960608701611204565b949793965091946080013592915050565b6020808252825182820181905260009190848201906040850190845b818110156114bb5783516001600160a01b031683529284019291840191600101611496565b50909695505050505050565b6000602082840312156114d957600080fd5b5035919050565b600080600080608085870312156114f657600080fd5b6114ff85611204565b935061150d60208601611204565b925061151b60408601611204565b9396929550929360600135925050565b60208082526027908201527f4f6e6c79206f776e65722063616e20657865637574652074686973207472616e60408201526639b0b1ba34b7b760c91b606082015260800190565b60006020828403121561158457600080fd5b8151610c12816113d9565b6000602082840312156115a157600080fd5b5051919050565b818103818111156103d057634e487b7160e01b600052601160045260246000fd5b600080858511156115d957600080fd5b838611156115e657600080fd5b5050820193919092039150565b634e487b7160e01b600052604160045260246000fd5b634e487b7160e01b600052603260045260246000fd5b6000808335601e1984360301811261163657600080fd5b83018035915067ffffffffffffffff82111561165157600080fd5b60200191503681900382131561166657600080fd5b9250929050565b82848237600083820160008152835161168a81836020880161133b565b0195945050505050565b6001600160e01b031981358181169160048510156108a35760049490940360031b84901b1690921692915050565b6001600160a01b03841681526040602082018190528101829052818360608301376000818301606090810191909152601f909201601f1916010192915050565b6000825161171481846020870161133b565b9190910192915050565b634e487b7160e01b600052603160045260246000fd5b6000806040838503121561174757600080fd5b8251611752816113d9565b602084015190925063ffffffff8116811461141357600080fdfea2646970667358221220ca7445aa8636850cf2d58f4f9a218b9ab63a016b7879009184b72681b559a52164736f6c63430008170033",
  "linkReferences": {},
  "deployedLinkReferences": {}
}