{
  "_format": "hh-sol-artifact-1",
  "contractName": "RahatAccessManager",
  "sourceName": "src/contracts/RahatAccessManager.sol",
  "abi": [
    {
      "inputs": [
        {
          "internalType": "address",
          "name": "_manager",
          "type": "address"
        }
      ],
      "stateMutability": "nonpayable",
      "type": "constructor"
    },
    {
      "inputs": [
        {
          "internalType": "bytes32",
          "name": "operationId",
          "type": "bytes32"
        }
      ],
      "name": "AccessManagerAlreadyScheduled",
      "type": "error"
    },
    {
      "inputs": [],
      "name": "AccessManagerBadConfirmation",
      "type": "error"
    },
    {
      "inputs": [
        {
          "internalType": "bytes32",
          "name": "operationId",
          "type": "bytes32"
        }
      ],
      "name": "AccessManagerExpired",
      "type": "error"
    },
    {
      "inputs": [
        {
          "internalType": "address",
          "name": "initialAdmin",
          "type": "address"
        }
      ],
      "name": "AccessManagerInvalidInitialAdmin",
      "type": "error"
    },
    {
      "inputs": [
        {
          "internalType": "address",
          "name": "account",
          "type": "address"
        }
      ],
      "name": "AccessManagerLockedAccount",
      "type": "error"
    },
    {
      "inputs": [
        {
          "internalType": "uint64",
          "name": "roleId",
          "type": "uint64"
        }
      ],
      "name": "AccessManagerLockedRole",
      "type": "error"
    },
    {
      "inputs": [
        {
          "internalType": "bytes32",
          "name": "operationId",
          "type": "bytes32"
        }
      ],
      "name": "AccessManagerNotReady",
      "type": "error"
    },
    {
      "inputs": [
        {
          "internalType": "bytes32",
          "name": "operationId",
          "type": "bytes32"
        }
      ],
      "name": "AccessManagerNotScheduled",
      "type": "error"
    },
    {
      "inputs": [
        {
          "internalType": "address",
          "name": "msgsender",
          "type": "address"
        },
        {
          "internalType": "uint64",
          "name": "roleId",
          "type": "uint64"
        }
      ],
      "name": "AccessManagerUnauthorizedAccount",
      "type": "error"
    },
    {
      "inputs": [
        {
          "internalType": "address",
          "name": "caller",
          "type": "address"
        },
        {
          "internalType": "address",
          "name": "target",
          "type": "address"
        },
        {
          "internalType": "bytes4",
          "name": "selector",
          "type": "bytes4"
        }
      ],
      "name": "AccessManagerUnauthorizedCall",
      "type": "error"
    },
    {
      "inputs": [
        {
          "internalType": "address",
          "name": "msgsender",
          "type": "address"
        },
        {
          "internalType": "address",
          "name": "caller",
          "type": "address"
        },
        {
          "internalType": "address",
          "name": "target",
          "type": "address"
        },
        {
          "internalType": "bytes4",
          "name": "selector",
          "type": "bytes4"
        }
      ],
      "name": "AccessManagerUnauthorizedCancel",
      "type": "error"
    },
    {
      "inputs": [
        {
          "internalType": "address",
          "name": "target",
          "type": "address"
        }
      ],
      "name": "AccessManagerUnauthorizedConsume",
      "type": "error"
    },
    {
      "inputs": [
        {
          "internalType": "address",
          "name": "target",
          "type": "address"
        }
      ],
      "name": "AddressEmptyCode",
      "type": "error"
    },
    {
      "inputs": [
        {
          "internalType": "address",
          "name": "account",
          "type": "address"
        }
      ],
      "name": "AddressInsufficientBalance",
      "type": "error"
    },
    {
      "inputs": [],
      "name": "FailedInnerCall",
      "type": "error"
    },
    {
      "inputs": [
        {
          "internalType": "uint8",
          "name": "bits",
          "type": "uint8"
        },
        {
          "internalType": "uint256",
          "name": "value",
          "type": "uint256"
        }
      ],
      "name": "SafeCastOverflowedUintDowncast",
      "type": "error"
    },
    {
      "anonymous": false,
      "inputs": [
        {
          "indexed": true,
          "internalType": "bytes32",
          "name": "operationId",
          "type": "bytes32"
        },
        {
          "indexed": true,
          "internalType": "uint32",
          "name": "nonce",
          "type": "uint32"
        }
      ],
      "name": "OperationCanceled",
      "type": "event"
    },
    {
      "anonymous": false,
      "inputs": [
        {
          "indexed": true,
          "internalType": "bytes32",
          "name": "operationId",
          "type": "bytes32"
        },
        {
          "indexed": true,
          "internalType": "uint32",
          "name": "nonce",
          "type": "uint32"
        }
      ],
      "name": "OperationExecuted",
      "type": "event"
    },
    {
      "anonymous": false,
      "inputs": [
        {
          "indexed": true,
          "internalType": "bytes32",
          "name": "operationId",
          "type": "bytes32"
        },
        {
          "indexed": true,
          "internalType": "uint32",
          "name": "nonce",
          "type": "uint32"
        },
        {
          "indexed": false,
          "internalType": "uint48",
          "name": "schedule",
          "type": "uint48"
        },
        {
          "indexed": false,
          "internalType": "address",
          "name": "caller",
          "type": "address"
        },
        {
          "indexed": false,
          "internalType": "address",
          "name": "target",
          "type": "address"
        },
        {
          "indexed": false,
          "internalType": "bytes",
          "name": "data",
          "type": "bytes"
        }
      ],
      "name": "OperationScheduled",
      "type": "event"
    },
    {
      "anonymous": false,
      "inputs": [
        {
          "indexed": true,
          "internalType": "uint64",
          "name": "roleId",
          "type": "uint64"
        },
        {
          "indexed": true,
          "internalType": "uint64",
          "name": "admin",
          "type": "uint64"
        }
      ],
      "name": "RoleAdminChanged",
      "type": "event"
    },
    {
      "anonymous": false,
      "inputs": [
        {
          "indexed": true,
          "internalType": "uint64",
          "name": "roleId",
          "type": "uint64"
        },
        {
          "indexed": false,
          "internalType": "uint32",
          "name": "delay",
          "type": "uint32"
        },
        {
          "indexed": false,
          "internalType": "uint48",
          "name": "since",
          "type": "uint48"
        }
      ],
      "name": "RoleGrantDelayChanged",
      "type": "event"
    },
    {
      "anonymous": false,
      "inputs": [
        {
          "indexed": true,
          "internalType": "uint64",
          "name": "roleId",
          "type": "uint64"
        },
        {
          "indexed": true,
          "internalType": "address",
          "name": "account",
          "type": "address"
        },
        {
          "indexed": false,
          "internalType": "uint32",
          "name": "delay",
          "type": "uint32"
        },
        {
          "indexed": false,
          "internalType": "uint48",
          "name": "since",
          "type": "uint48"
        },
        {
          "indexed": false,
          "internalType": "bool",
          "name": "newMember",
          "type": "bool"
        }
      ],
      "name": "RoleGranted",
      "type": "event"
    },
    {
      "anonymous": false,
      "inputs": [
        {
          "indexed": true,
          "internalType": "uint64",
          "name": "roleId",
          "type": "uint64"
        },
        {
          "indexed": true,
          "internalType": "uint64",
          "name": "guardian",
          "type": "uint64"
        }
      ],
      "name": "RoleGuardianChanged",
      "type": "event"
    },
    {
      "anonymous": false,
      "inputs": [
        {
          "indexed": true,
          "internalType": "uint64",
          "name": "roleId",
          "type": "uint64"
        },
        {
          "indexed": false,
          "internalType": "string",
          "name": "label",
          "type": "string"
        }
      ],
      "name": "RoleLabel",
      "type": "event"
    },
    {
      "anonymous": false,
      "inputs": [
        {
          "indexed": true,
          "internalType": "uint64",
          "name": "roleId",
          "type": "uint64"
        },
        {
          "indexed": true,
          "internalType": "address",
          "name": "account",
          "type": "address"
        }
      ],
      "name": "RoleRevoked",
      "type": "event"
    },
    {
      "anonymous": false,
      "inputs": [
        {
          "indexed": true,
          "internalType": "address",
          "name": "target",
          "type": "address"
        },
        {
          "indexed": false,
          "internalType": "uint32",
          "name": "delay",
          "type": "uint32"
        },
        {
          "indexed": false,
          "internalType": "uint48",
          "name": "since",
          "type": "uint48"
        }
      ],
      "name": "TargetAdminDelayUpdated",
      "type": "event"
    },
    {
      "anonymous": false,
      "inputs": [
        {
          "indexed": true,
          "internalType": "address",
          "name": "target",
          "type": "address"
        },
        {
          "indexed": false,
          "internalType": "bool",
          "name": "closed",
          "type": "bool"
        }
      ],
      "name": "TargetClosed",
      "type": "event"
    },
    {
      "anonymous": false,
      "inputs": [
        {
          "indexed": true,
          "internalType": "address",
          "name": "target",
          "type": "address"
        },
        {
          "indexed": false,
          "internalType": "bytes4",
          "name": "selector",
          "type": "bytes4"
        },
        {
          "indexed": true,
          "internalType": "uint64",
          "name": "roleId",
          "type": "uint64"
        }
      ],
      "name": "TargetFunctionRoleUpdated",
      "type": "event"
    },
    {
      "inputs": [],
      "name": "ADMIN_ROLE",
      "outputs": [
        {
          "internalType": "uint64",
          "name": "",
          "type": "uint64"
        }
      ],
      "stateMutability": "view",
      "type": "function"
    },
    {
      "inputs": [],
      "name": "PUBLIC_ROLE",
      "outputs": [
        {
          "internalType": "uint64",
          "name": "",
          "type": "uint64"
        }
      ],
      "stateMutability": "view",
      "type": "function"
    },
    {
      "inputs": [
        {
          "internalType": "address",
          "name": "caller",
          "type": "address"
        },
        {
          "internalType": "address",
          "name": "target",
          "type": "address"
        },
        {
          "internalType": "bytes4",
          "name": "selector",
          "type": "bytes4"
        }
      ],
      "name": "canCall",
      "outputs": [
        {
          "internalType": "bool",
          "name": "immediate",
          "type": "bool"
        },
        {
          "internalType": "uint32",
          "name": "delay",
          "type": "uint32"
        }
      ],
      "stateMutability": "view",
      "type": "function"
    },
    {
      "inputs": [
        {
          "internalType": "address",
          "name": "caller",
          "type": "address"
        },
        {
          "internalType": "address",
          "name": "target",
          "type": "address"
        },
        {
          "internalType": "bytes",
          "name": "data",
          "type": "bytes"
        }
      ],
      "name": "cancel",
      "outputs": [
        {
          "internalType": "uint32",
          "name": "",
          "type": "uint32"
        }
      ],
      "stateMutability": "nonpayable",
      "type": "function"
    },
    {
      "inputs": [
        {
          "internalType": "address",
          "name": "caller",
          "type": "address"
        },
        {
          "internalType": "bytes",
          "name": "data",
          "type": "bytes"
        }
      ],
      "name": "consumeScheduledOp",
      "outputs": [],
      "stateMutability": "nonpayable",
      "type": "function"
    },
    {
      "inputs": [
        {
          "internalType": "address",
          "name": "target",
          "type": "address"
        },
        {
          "internalType": "bytes",
          "name": "data",
          "type": "bytes"
        }
      ],
      "name": "execute",
      "outputs": [
        {
          "internalType": "uint32",
          "name": "",
          "type": "uint32"
        }
      ],
      "stateMutability": "payable",
      "type": "function"
    },
    {
      "inputs": [],
      "name": "expiration",
      "outputs": [
        {
          "internalType": "uint32",
          "name": "",
          "type": "uint32"
        }
      ],
      "stateMutability": "view",
      "type": "function"
    },
    {
      "inputs": [
        {
          "internalType": "uint64",
          "name": "roleId",
          "type": "uint64"
        },
        {
          "internalType": "address",
          "name": "account",
          "type": "address"
        }
      ],
      "name": "getAccess",
      "outputs": [
        {
          "internalType": "uint48",
          "name": "since",
          "type": "uint48"
        },
        {
          "internalType": "uint32",
          "name": "currentDelay",
          "type": "uint32"
        },
        {
          "internalType": "uint32",
          "name": "pendingDelay",
          "type": "uint32"
        },
        {
          "internalType": "uint48",
          "name": "effect",
          "type": "uint48"
        }
      ],
      "stateMutability": "view",
      "type": "function"
    },
    {
      "inputs": [
        {
          "internalType": "bytes32",
          "name": "id",
          "type": "bytes32"
        }
      ],
      "name": "getNonce",
      "outputs": [
        {
          "internalType": "uint32",
          "name": "",
          "type": "uint32"
        }
      ],
      "stateMutability": "view",
      "type": "function"
    },
    {
      "inputs": [
        {
          "internalType": "uint64",
          "name": "roleId",
          "type": "uint64"
        }
      ],
      "name": "getRoleAdmin",
      "outputs": [
        {
          "internalType": "uint64",
          "name": "",
          "type": "uint64"
        }
      ],
      "stateMutability": "view",
      "type": "function"
    },
    {
      "inputs": [
        {
          "internalType": "uint64",
          "name": "roleId",
          "type": "uint64"
        }
      ],
      "name": "getRoleGrantDelay",
      "outputs": [
        {
          "internalType": "uint32",
          "name": "",
          "type": "uint32"
        }
      ],
      "stateMutability": "view",
      "type": "function"
    },
    {
      "inputs": [
        {
          "internalType": "uint64",
          "name": "roleId",
          "type": "uint64"
        }
      ],
      "name": "getRoleGuardian",
      "outputs": [
        {
          "internalType": "uint64",
          "name": "",
          "type": "uint64"
        }
      ],
      "stateMutability": "view",
      "type": "function"
    },
    {
      "inputs": [
        {
          "internalType": "bytes32",
          "name": "id",
          "type": "bytes32"
        }
      ],
      "name": "getSchedule",
      "outputs": [
        {
          "internalType": "uint48",
          "name": "",
          "type": "uint48"
        }
      ],
      "stateMutability": "view",
      "type": "function"
    },
    {
      "inputs": [
        {
          "internalType": "address",
          "name": "target",
          "type": "address"
        }
      ],
      "name": "getTargetAdminDelay",
      "outputs": [
        {
          "internalType": "uint32",
          "name": "",
          "type": "uint32"
        }
      ],
      "stateMutability": "view",
      "type": "function"
    },
    {
      "inputs": [
        {
          "internalType": "address",
          "name": "target",
          "type": "address"
        },
        {
          "internalType": "bytes4",
          "name": "selector",
          "type": "bytes4"
        }
      ],
      "name": "getTargetFunctionRole",
      "outputs": [
        {
          "internalType": "uint64",
          "name": "",
          "type": "uint64"
        }
      ],
      "stateMutability": "view",
      "type": "function"
    },
    {
      "inputs": [
        {
          "internalType": "uint64",
          "name": "roleId",
          "type": "uint64"
        },
        {
          "internalType": "address",
          "name": "account",
          "type": "address"
        },
        {
          "internalType": "uint32",
          "name": "executionDelay",
          "type": "uint32"
        }
      ],
      "name": "grantRole",
      "outputs": [],
      "stateMutability": "nonpayable",
      "type": "function"
    },
    {
      "inputs": [
        {
          "internalType": "uint64",
          "name": "roleId",
          "type": "uint64"
        },
        {
          "internalType": "address",
          "name": "account",
          "type": "address"
        }
      ],
      "name": "hasRole",
      "outputs": [
        {
          "internalType": "bool",
          "name": "isMember",
          "type": "bool"
        },
        {
          "internalType": "uint32",
          "name": "executionDelay",
          "type": "uint32"
        }
      ],
      "stateMutability": "view",
      "type": "function"
    },
    {
      "inputs": [
        {
          "internalType": "address",
          "name": "caller",
          "type": "address"
        },
        {
          "internalType": "address",
          "name": "target",
          "type": "address"
        },
        {
          "internalType": "bytes",
          "name": "data",
          "type": "bytes"
        }
      ],
      "name": "hashOperation",
      "outputs": [
        {
          "internalType": "bytes32",
          "name": "",
          "type": "bytes32"
        }
      ],
      "stateMutability": "view",
      "type": "function"
    },
    {
      "inputs": [
        {
          "internalType": "address",
          "name": "_address",
          "type": "address"
        }
      ],
      "name": "isAdmin",
      "outputs": [
        {
          "internalType": "bool",
          "name": "_isMember",
          "type": "bool"
        }
      ],
      "stateMutability": "view",
      "type": "function"
    },
    {
      "inputs": [
        {
          "internalType": "address",
          "name": "target",
          "type": "address"
        }
      ],
      "name": "isTargetClosed",
      "outputs": [
        {
          "internalType": "bool",
          "name": "",
          "type": "bool"
        }
      ],
      "stateMutability": "view",
      "type": "function"
    },
    {
      "inputs": [
        {
          "internalType": "uint64",
          "name": "roleId",
          "type": "uint64"
        },
        {
          "internalType": "string",
          "name": "label",
          "type": "string"
        }
      ],
      "name": "labelRole",
      "outputs": [],
      "stateMutability": "nonpayable",
      "type": "function"
    },
    {
      "inputs": [],
      "name": "minSetback",
      "outputs": [
        {
          "internalType": "uint32",
          "name": "",
          "type": "uint32"
        }
      ],
      "stateMutability": "view",
      "type": "function"
    },
    {
      "inputs": [
        {
          "internalType": "bytes[]",
          "name": "data",
          "type": "bytes[]"
        }
      ],
      "name": "multicall",
      "outputs": [
        {
          "internalType": "bytes[]",
          "name": "results",
          "type": "bytes[]"
        }
      ],
      "stateMutability": "nonpayable",
      "type": "function"
    },
    {
      "inputs": [
        {
          "internalType": "uint64",
          "name": "roleId",
          "type": "uint64"
        },
        {
          "internalType": "address",
          "name": "callerConfirmation",
          "type": "address"
        }
      ],
      "name": "renounceRole",
      "outputs": [],
      "stateMutability": "nonpayable",
      "type": "function"
    },
    {
      "inputs": [
        {
          "internalType": "uint64",
          "name": "roleId",
          "type": "uint64"
        },
        {
          "internalType": "address",
          "name": "account",
          "type": "address"
        }
      ],
      "name": "revokeRole",
      "outputs": [],
      "stateMutability": "nonpayable",
      "type": "function"
    },
    {
      "inputs": [
        {
          "internalType": "address",
          "name": "target",
          "type": "address"
        },
        {
          "internalType": "bytes",
          "name": "data",
          "type": "bytes"
        },
        {
          "internalType": "uint48",
          "name": "when",
          "type": "uint48"
        }
      ],
      "name": "schedule",
      "outputs": [
        {
          "internalType": "bytes32",
          "name": "operationId",
          "type": "bytes32"
        },
        {
          "internalType": "uint32",
          "name": "nonce",
          "type": "uint32"
        }
      ],
      "stateMutability": "nonpayable",
      "type": "function"
    },
    {
      "inputs": [
        {
          "internalType": "uint64",
          "name": "roleId",
          "type": "uint64"
        },
        {
          "internalType": "uint32",
          "name": "newDelay",
          "type": "uint32"
        }
      ],
      "name": "setGrantDelay",
      "outputs": [],
      "stateMutability": "nonpayable",
      "type": "function"
    },
    {
      "inputs": [
        {
          "internalType": "uint64",
          "name": "roleId",
          "type": "uint64"
        },
        {
          "internalType": "uint64",
          "name": "admin",
          "type": "uint64"
        }
      ],
      "name": "setRoleAdmin",
      "outputs": [],
      "stateMutability": "nonpayable",
      "type": "function"
    },
    {
      "inputs": [
        {
          "internalType": "uint64",
          "name": "roleId",
          "type": "uint64"
        },
        {
          "internalType": "uint64",
          "name": "guardian",
          "type": "uint64"
        }
      ],
      "name": "setRoleGuardian",
      "outputs": [],
      "stateMutability": "nonpayable",
      "type": "function"
    },
    {
      "inputs": [
        {
          "internalType": "address",
          "name": "target",
          "type": "address"
        },
        {
          "internalType": "uint32",
          "name": "newDelay",
          "type": "uint32"
        }
      ],
      "name": "setTargetAdminDelay",
      "outputs": [],
      "stateMutability": "nonpayable",
      "type": "function"
    },
    {
      "inputs": [
        {
          "internalType": "address",
          "name": "target",
          "type": "address"
        },
        {
          "internalType": "bool",
          "name": "closed",
          "type": "bool"
        }
      ],
      "name": "setTargetClosed",
      "outputs": [],
      "stateMutability": "nonpayable",
      "type": "function"
    },
    {
      "inputs": [
        {
          "internalType": "address",
          "name": "target",
          "type": "address"
        },
        {
          "internalType": "bytes4[]",
          "name": "selectors",
          "type": "bytes4[]"
        },
        {
          "internalType": "uint64",
          "name": "roleId",
          "type": "uint64"
        }
      ],
      "name": "setTargetFunctionRole",
      "outputs": [],
      "stateMutability": "nonpayable",
      "type": "function"
    },
    {
      "inputs": [
        {
          "internalType": "address",
          "name": "target",
          "type": "address"
        },
        {
          "internalType": "address",
          "name": "newAuthority",
          "type": "address"
        }
      ],
      "name": "updateAuthority",
      "outputs": [],
      "stateMutability": "nonpayable",
      "type": "function"
    }
  ],
  "bytecode": "0x60806040523480156200001157600080fd5b5060405162002eab38038062002eab833981016040819052620000349162000491565b806001600160a01b0381166200006557604051630409d6d160e11b8152600060048201526024015b60405180910390fd5b6200007460008281806200007d565b5050506200051b565b60006002600160401b03196001600160401b03861601620000bd5760405163061c6a4360e21b81526001600160401b03861660048201526024016200005c565b6001600160401b03851660009081526001602090815260408083206001600160a01b038816845290915281205465ffffffffffff1615908115620001bc5763ffffffff85166200010c620002d4565b620001189190620004d2565b905060405180604001604052808265ffffffffffff1681526020016200014a8663ffffffff16620002e660201b60201c565b6001600160701b039081169091526001600160401b03891660009081526001602090815260408083206001600160a01b038c16845282529091208351815494909201519092166601000000000000026001600160a01b031990931665ffffffffffff9091161791909117905562000266565b6001600160401b03871660009081526001602090815260408083206001600160a01b038a1684529091528120546200020b9166010000000000009091046001600160701b0316908690620002ef565b6001600160401b03891660009081526001602090815260408083206001600160a01b038c168452909152902080546001600160701b03909316660100000000000002600160301b600160a01b03199093169290921790915590505b6040805163ffffffff8616815265ffffffffffff831660208201528315158183015290516001600160a01b038816916001600160401b038a16917ff98448b987f1428e0e230e1f3c6e2ce15b5693eaf31827fbd0b1ec4b424ae7cf9181900360600190a35095945050505050565b6000620002e142620003a4565b905090565b63ffffffff1690565b60008080620003076001600160701b038716620003dd565b905060006200034a8563ffffffff168763ffffffff168463ffffffff1611620003325760006200033e565b6200033e8885620004fb565b63ffffffff16620003fe565b905063ffffffff81166200035d620002d4565b620003699190620004d2565b925063ffffffff8616602083901b67ffffffff0000000016604085901b6dffffffffffff000000000000000016171793505050935093915050565b600065ffffffffffff821115620003d9576040516306dfcc6560e41b815260306004820152602481018390526044016200005c565b5090565b600080620003f46001600160701b03841662000418565b5090949350505050565b60008183116200040f578162000411565b825b9392505050565b6000808062000431846200042b620002d4565b6200043e565b9250925092509193909250565b600080806001600160501b03602086901c166001600160701b03861665ffffffffffff604088901c81169087168111156200047c5782828262000481565b816000805b9550955095505050509250925092565b600060208284031215620004a457600080fd5b81516001600160a01b03811681146200041157600080fd5b634e487b7160e01b600052601160045260246000fd5b65ffffffffffff818116838216019080821115620004f457620004f4620004bc565b5092915050565b63ffffffff828116828216039080821115620004f457620004f4620004bc565b612980806200052b6000396000f3fe6080604052600436106101ee5760003560e01c8063530dd4561161010d578063ac9650d8116100a0578063d1f856ee1161006f578063d1f856ee1461068c578063d22b5989146106ac578063d6bb62c6146106cc578063f801a698146106ec578063fe0776f51461072657600080fd5b8063ac9650d8146105ed578063b70096131461061a578063b7d2b16214610656578063cc1b6c811461067657600080fd5b806394c7d7ee116100dc57806394c7d7ee1461053c578063a166aa891461055c578063a64d95ce1461059f578063abd9bd2a146105bf57600080fd5b8063530dd456146104aa5780636d5115bd146104e757806375b238fc14610507578063853551b81461051c57600080fd5b80633078f114116101855780634136a33c116101545780634136a33c1461041a5780634665096d146104545780634c1da1e21461046a578063529629521461048a57600080fd5b80633078f1141461034e57806330cae187146103a85780633adc277a146103c85780633ca7c02a146103ff57600080fd5b806318ff183c116101c157806318ff183c146102cb5780631cff79cd146102eb57806324d7806c146102fe57806325c471a01461032e57600080fd5b806308d6122d146101f35780630b0a93ba1461021557806312be872714610276578063167bd395146102ab575b600080fd5b3480156101ff57600080fd5b5061021361020e3660046121ef565b610746565b005b34801561022157600080fd5b50610259610230366004612255565b6001600160401b0390811660009081526001602081905260409091200154600160401b90041690565b6040516001600160401b0390911681526020015b60405180910390f35b34801561028257600080fd5b50610296610291366004612255565b610799565b60405163ffffffff909116815260200161026d565b3480156102b757600080fd5b506102136102c6366004612270565b6107d4565b3480156102d757600080fd5b506102136102e63660046122ae565b6107ea565b6102966102f936600461231d565b610851565b34801561030a57600080fd5b5061031e610319366004612371565b610981565b604051901515815260200161026d565b34801561033a57600080fd5b506102136103493660046123a2565b610995565b34801561035a57600080fd5b5061036e6103693660046123e7565b6109b7565b60405161026d949392919065ffffffffffff948516815263ffffffff93841660208201529190921660408201529116606082015260800190565b3480156103b457600080fd5b506102136103c3366004612403565b610a1c565b3480156103d457600080fd5b506103e86103e3366004612436565b610a2e565b60405165ffffffffffff909116815260200161026d565b34801561040b57600080fd5b506102596001600160401b0381565b34801561042657600080fd5b50610296610435366004612436565b600090815260026020526040902054600160301b900463ffffffff1690565b34801561046057600080fd5b5062093a80610296565b34801561047657600080fd5b50610296610485366004612371565b610a61565b34801561049657600080fd5b506102136104a5366004612403565b610a8f565b3480156104b657600080fd5b506102596104c5366004612255565b6001600160401b03908116600090815260016020819052604090912001541690565b3480156104f357600080fd5b50610259610502366004612465565b610aa1565b34801561051357600080fd5b50610259600081565b34801561052857600080fd5b50610213610537366004612493565b610adc565b34801561054857600080fd5b5061021361055736600461231d565b610b73565b34801561056857600080fd5b5061031e610577366004612371565b6001600160a01b0316600090815260208190526040902060010154600160701b900460ff1690565b3480156105ab57600080fd5b506102136105ba3660046124b1565b610c1f565b3480156105cb57600080fd5b506105df6105da3660046124db565b610c31565b60405190815260200161026d565b3480156105f957600080fd5b5061060d61060836600461253f565b610c6a565b60405161026d91906125a4565b34801561062657600080fd5b5061063a61063536600461261e565b610d51565b60408051921515835263ffffffff90911660208301520161026d565b34801561066257600080fd5b506102136106713660046123e7565b610df4565b34801561068257600080fd5b5062069780610296565b34801561069857600080fd5b5061063a6106a73660046123e7565b610e0b565b3480156106b857600080fd5b506102136106c7366004612669565b610e88565b3480156106d857600080fd5b506102966106e73660046124db565b610e9a565b3480156106f857600080fd5b5061070c610707366004612687565b610ff4565b6040805192835263ffffffff90911660208301520161026d565b34801561073257600080fd5b506102136107413660046123e7565b611139565b61074e611162565b60005b828110156107925761078a8585858481811061076f5761076f6126f9565b9050602002016020810190610784919061270f565b846111dd565b600101610751565b5050505050565b6001600160401b0381166000908152600160208190526040822001546107ce90600160801b90046001600160701b031661125f565b92915050565b6107dc611162565b6107e6828261127e565b5050565b6107f2611162565b604051637a9e5e4b60e01b81526001600160a01b038281166004830152831690637a9e5e4b90602401600060405180830381600087803b15801561083557600080fd5b505af1158015610849573d6000803e3d6000fd5b505050505050565b600033818061086283888888611324565b9150915081158015610878575063ffffffff8116155b156108cb5782876108898888611377565b6040516381c6f24b60e01b81526001600160a01b0393841660048201529290911660248301526001600160e01b03191660448201526064015b60405180910390fd5b60006108d984898989610c31565b9050600063ffffffff831615158061090057506108f582610a2e565b65ffffffffffff1615155b156109115761090e8261138f565b90505b6003546109278a6109228b8b611377565b61148f565b60038190555061096f8a8a8a8080601f0160208091040260200160405190810160405280939291908181526020018383808284376000920191909152503492506114d1915050565b506003559450505050505b9392505050565b600061098e600083610e0b565b5092915050565b61099d611162565b6109b183836109ab86610799565b8461156e565b50505050565b6001600160401b03821660009081526001602090815260408083206001600160a01b03851684529091528120805465ffffffffffff811692918291829190610a0e90600160301b90046001600160701b03166117b9565b969991985096509350505050565b610a24611162565b6107e682826117dc565b60008181526002602052604081205465ffffffffffff16610a4e81611880565b610a58578061097a565b60009392505050565b6001600160a01b0381166000908152602081905260408120600101546107ce906001600160701b031661125f565b610a97611162565b6107e682826118af565b6001600160a01b0382166000908152602081815260408083206001600160e01b0319851684529091529020546001600160401b031692915050565b610ae4611162565b6001600160401b0383161580610b0257506001600160401b03838116145b15610b2b5760405163061c6a4360e21b81526001600160401b03841660048201526024016108c2565b826001600160401b03167f1256f5b5ecb89caec12db449738f2fbcd1ba5806cf38f35413f4e5c15bf6a4508383604051610b66929190612755565b60405180910390a2505050565b60408051638fb3603760e01b80825291513392918391638fb36037916004808201926020929091908290030181865afa158015610bb4573d6000803e3d6000fd5b505050506040513d601f19601f82011682018060405250810190610bd89190612771565b6001600160e01b03191614610c0b57604051630641fee960e31b81526001600160a01b03821660048201526024016108c2565b610792610c1a85838686610c31565b61138f565b610c27611162565b6107e68282611961565b600084848484604051602001610c4a949392919061278e565b604051602081830303815290604052805190602001209050949350505050565b604080516000815260208101909152606090826001600160401b03811115610c9457610c946127fb565b604051908082528060200260200182016040528015610cc757816020015b6060815260200190600190039081610cb25790505b50915060005b83811015610d4957610d2430868684818110610ceb57610ceb6126f9565b9050602002810190610cfd9190612811565b85604051602001610d1093929190612857565b604051602081830303815290604052611a72565b838281518110610d3657610d366126f9565b6020908102919091010152600101610ccd565b505092915050565b6001600160a01b0382166000908152602081905260408120600101548190600160701b900460ff1615610d8957506000905080610dec565b306001600160a01b03861603610dae57610da38484611ae8565b600091509150610dec565b6000610dba8585610aa1565b9050600080610dc98389610e0b565b9150915081610dda57600080610de4565b63ffffffff811615815b945094505050505b935093915050565b610dfc611162565b610e068282611aff565b505050565b60008067fffffffffffffffe196001600160401b03851601610e335750600190506000610e81565b600080610e4086866109b7565b5050915091508165ffffffffffff16600014158015610e765750610e62611bec565b65ffffffffffff168265ffffffffffff1611155b93509150610e819050565b9250929050565b610e90611162565b6107e68282611bfc565b60003381610ea88585611377565b90506000610eb888888888610c31565b60008181526002602052604081205491925065ffffffffffff9091169003610ef65760405163060a299b60e41b8152600481018290526024016108c2565b826001600160a01b0316886001600160a01b031614610f92576000610f1c600085610e0b565b5090506000610f37610f316102308b87610aa1565b86610e0b565b50905081158015610f46575080155b15610f8f57604051630ff89d4760e21b81526001600160a01b038087166004830152808c1660248301528a1660448201526001600160e01b0319851660648201526084016108c2565b50505b600081815260026020526040808220805465ffffffffffff1916908190559051600160301b90910463ffffffff1691829184917fbd9ac67a6e2f6463b80927326310338bcbb4bdb7936ce1365ea3e01067e7b9f791a398975050505050505050565b600080338161100582898989611324565b91505060008163ffffffff16611019611bec565b611023919061287e565b905063ffffffff8216158061105a575060008665ffffffffffff1611801561105a57508065ffffffffffff168665ffffffffffff16105b1561106b5782896108898a8a611377565b6110858665ffffffffffff168265ffffffffffff16611cb9565b9550611093838a8a8a610c31565b945061109e85611ccf565b60008581526002602052604090819020805465ffffffffffff891669ffffffffffffffffffff19821617600160301b9182900463ffffffff90811660010190811692830291909117909255915190955086907f82a2da5dee54ea8021c6545b4444620291e07ee83be6dd57edb175062715f3b490611125908a9088908f908f908f9061289d565b60405180910390a350505094509492505050565b6001600160a01b0381163314610dfc57604051635f159e6360e01b815260040160405180910390fd5b33600080611171838236611d1c565b9150915081610e06578063ffffffff166000036111cd5760006111948136611dd4565b5060405163f07e038f60e01b81526001600160a01b03871660048201526001600160401b038216602482015290925060440190506108c2565b6109b1610c1a8430600036610c31565b6001600160a01b0383166000818152602081815260408083206001600160e01b0319871680855290835292819020805467ffffffffffffffff19166001600160401b038716908117909155905192835292917f9ea6790c7dadfd01c9f8b9762b3682607af2c7e79e05a9f9fdf5580dde949151910160405180910390a3505050565b600080611274836001600160701b03166117b9565b5090949350505050565b306001600160a01b038316036112b257604051630b40d17960e31b81526001600160a01b03831660048201526024016108c2565b6001600160a01b038216600081815260208190526040908190206001018054841515600160701b0260ff60701b19909116179055517f90d4e7bb7e5d933792b3562e1741306f8be94837e1348dacef9b6f1df56eb1389061131890841515815260200190565b60405180910390a25050565b600080306001600160a01b0386160361134b57611342868585611d1c565b9150915061136e565b600483106113675761136286866106358787611377565b611342565b5060009050805b94509492505050565b600061138660048284866127d1565b61097a916128e3565b60008181526002602052604081205465ffffffffffff811690600160301b900463ffffffff168183036113d85760405163060a299b60e41b8152600481018590526024016108c2565b6113e0611bec565b65ffffffffffff168265ffffffffffff16111561141357604051630c65b5bd60e11b8152600481018590526024016108c2565b61141c82611880565b1561143d57604051631e2975b960e21b8152600481018590526024016108c2565b600084815260026020526040808220805465ffffffffffff191690555163ffffffff83169186917f76a2a46953689d4861a5d3f6ed883ad7e6af674a21f8e162707159fc9dde614d9190a39392505050565b604080516001600160a01b03939093166020808501919091526001600160e01b0319929092168382015280518084038201815260609093019052815191012090565b6060814710156114f65760405163cd78605960e01b81523060048201526024016108c2565b600080856001600160a01b031684866040516115129190612911565b60006040518083038185875af1925050503d806000811461154f576040519150601f19603f3d011682016040523d82523d6000602084013e611554565b606091505b5091509150611564868383611fbd565b9695505050505050565b600067fffffffffffffffe196001600160401b038616016115ad5760405163061c6a4360e21b81526001600160401b03861660048201526024016108c2565b6001600160401b03851660009081526001602090815260408083206001600160a01b038816845290915281205465ffffffffffff161590811561169f578463ffffffff166115f9611bec565b611603919061287e565b905060405180604001604052808265ffffffffffff1681526020016116318663ffffffff1663ffffffff1690565b6001600160701b039081169091526001600160401b03891660009081526001602090815260408083206001600160a01b038c1684528252909120835181549490920151909216600160301b026001600160a01b031990931665ffffffffffff9091161791909117905561174b565b6001600160401b03871660009081526001602090815260408083206001600160a01b038a1684529091528120546116e991600160301b9091046001600160701b0316908690612019565b6001600160401b03891660009081526001602090815260408083206001600160a01b038c168452909152902080546001600160701b03909316600160301b0273ffffffffffffffffffffffffffff000000000000199093169290921790915590505b6040805163ffffffff8616815265ffffffffffff831660208201528315158183015290516001600160a01b038816916001600160401b038a16917ff98448b987f1428e0e230e1f3c6e2ce15b5693eaf31827fbd0b1ec4b424ae7cf9181900360600190a35095945050505050565b60008060006117cf846117ca611bec565b6120c3565b9250925092509193909250565b6001600160401b03821615806117fa57506001600160401b03828116145b156118235760405163061c6a4360e21b81526001600160401b03831660048201526024016108c2565b6001600160401b038281166000818152600160208190526040808320909101805467ffffffffffffffff19169486169485179055517f1fd6dd7631312dfac2205b52913f99de03b4d7e381d5d27d3dbfe0713e6e63409190a35050565b600061188a611bec565b65ffffffffffff1661189f62093a808461287e565b65ffffffffffff16111592915050565b6001600160401b03821615806118cd57506001600160401b03828116145b156118f65760405163061c6a4360e21b81526001600160401b03831660048201526024016108c2565b6001600160401b03828116600081815260016020819052604080832090910180546fffffffffffffffff00000000000000001916600160401b958716958602179055517f7a8059630b897b5de4c08ade69f8b90c3ead1f8596d62d10b6c4d14a0afb4ae29190a35050565b67fffffffffffffffe196001600160401b0383160161199e5760405163061c6a4360e21b81526001600160401b03831660048201526024016108c2565b6001600160401b0382166000908152600160208190526040822001546119d890600160801b90046001600160701b03168362069780612019565b6001600160401b0385166000818152600160208190526040918290200180546001600160701b03909516600160801b026dffffffffffffffffffffffffffff60801b199095169490941790935591519092507ffeb69018ee8b8fd50ea86348f1267d07673379f72cffdeccec63853ee8ce8b4890610b66908590859063ffffffff92909216825265ffffffffffff16602082015260400190565b6060600080846001600160a01b031684604051611a8f9190612911565b600060405180830381855af49150503d8060008114611aca576040519150601f19603f3d011682016040523d82523d6000602084013e611acf565b606091505b5091509150611adf858383611fbd565b95945050505050565b6000611af4838361148f565b600354149392505050565b600067fffffffffffffffe196001600160401b03841601611b3e5760405163061c6a4360e21b81526001600160401b03841660048201526024016108c2565b6001600160401b03831660009081526001602090815260408083206001600160a01b038616845290915281205465ffffffffffff169003611b81575060006107ce565b6001600160401b03831660008181526001602090815260408083206001600160a01b038716808552925280832080546001600160a01b0319169055519092917ff229baa593af28c41b1d16b748cd7688f0c83aaf92d4be41c44005defe84c16691a350600192915050565b6000611bf742612117565b905090565b6001600160a01b038216600090815260208190526040812060010154611c2f906001600160701b03168362069780612019565b6001600160a01b0385166000818152602081815260409182902060010180546dffffffffffffffffffffffffffff19166001600160701b039690961695909517909455805163ffffffff8716815265ffffffffffff841694810194909452919350917fa56b76017453f399ec2327ba00375dbfb1fd070ff854341ad6191e6a2e2de19c9101610b66565b6000818311611cc8578161097a565b5090919050565b60008181526002602052604090205465ffffffffffff168015801590611cfb5750611cf981611880565b155b156107e65760405163813e945960e01b8152600481018390526024016108c2565b6000806004831015611d3357506000905080610dec565b306001600160a01b03861603611d5657610da330611d518686611377565b611ae8565b6000806000611d658787611dd4565b92509250925082611d7f5760008094509450505050610dec565b600080611d8c848b610e0b565b9150915081611da657600080965096505050505050610dec565b611dbc8363ffffffff168263ffffffff16611cb9565b63ffffffff8116159b909a5098505050505050505050565b600080806004841015611def57506000915081905080611fb6565b6000611dfb8686611377565b90506001600160e01b031981166310a6aa3760e31b1480611e2c57506001600160e01b031981166330cae18760e01b145b80611e4757506001600160e01b0319811663294b14a960e11b145b80611e6257506001600160e01b03198116635326cae760e11b145b80611e7d57506001600160e01b0319811663d22b598960e01b145b15611e9357600160008093509350935050611fb6565b6001600160e01b0319811663063fc60f60e21b1480611ec257506001600160e01b0319811663167bd39560e01b145b80611edd57506001600160e01b031981166308d6122d60e01b145b15611f1f576000611ef260246004888a6127d1565b810190611eff9190612371565b90506000611f0c82610a61565b60019650600095509350611fb692505050565b6001600160e01b0319811663012e238d60e51b1480611f4e57506001600160e01b03198116635be958b160e11b145b15611fa9576000611f6360246004888a6127d1565b810190611f709190612255565b90506001611f9a826001600160401b03908116600090815260016020819052604090912001541690565b60009450945094505050611fb6565b6000806000935093509350505b9250925092565b606082611fd257611fcd8261214e565b61097a565b8151158015611fe957506001600160a01b0384163b155b1561201257604051639996b31560e01b81526001600160a01b03851660048201526024016108c2565b508061097a565b6000806000612030866001600160701b031661125f565b9050600061206d8563ffffffff168763ffffffff168463ffffffff1611612058576000612062565b612062888561292d565b63ffffffff16611cb9565b90508063ffffffff1661207e611bec565b612088919061287e565b925063ffffffff8616602083901b67ffffffff0000000016604085901b6dffffffffffff000000000000000016171793505050935093915050565b6000808069ffffffffffffffffffff602086901c166001600160701b03861665ffffffffffff604088901c811690871681111561210257828282612107565b816000805b9550955095505050509250925092565b600065ffffffffffff82111561214a576040516306dfcc6560e41b815260306004820152602481018390526044016108c2565b5090565b80511561215e5780518082602001fd5b604051630a12f52160e11b815260040160405180910390fd5b50565b6001600160a01b038116811461217757600080fd5b60008083601f8401126121a157600080fd5b5081356001600160401b038111156121b857600080fd5b6020830191508360208260051b8501011115610e8157600080fd5b80356001600160401b03811681146121ea57600080fd5b919050565b6000806000806060858703121561220557600080fd5b84356122108161217a565b935060208501356001600160401b0381111561222b57600080fd5b6122378782880161218f565b909450925061224a9050604086016121d3565b905092959194509250565b60006020828403121561226757600080fd5b61097a826121d3565b6000806040838503121561228357600080fd5b823561228e8161217a565b9150602083013580151581146122a357600080fd5b809150509250929050565b600080604083850312156122c157600080fd5b82356122cc8161217a565b915060208301356122a38161217a565b60008083601f8401126122ee57600080fd5b5081356001600160401b0381111561230557600080fd5b602083019150836020828501011115610e8157600080fd5b60008060006040848603121561233257600080fd5b833561233d8161217a565b925060208401356001600160401b0381111561235857600080fd5b612364868287016122dc565b9497909650939450505050565b60006020828403121561238357600080fd5b813561097a8161217a565b803563ffffffff811681146121ea57600080fd5b6000806000606084860312156123b757600080fd5b6123c0846121d3565b925060208401356123d08161217a565b91506123de6040850161238e565b90509250925092565b600080604083850312156123fa57600080fd5b6122cc836121d3565b6000806040838503121561241657600080fd5b61241f836121d3565b915061242d602084016121d3565b90509250929050565b60006020828403121561244857600080fd5b5035919050565b6001600160e01b03198116811461217757600080fd5b6000806040838503121561247857600080fd5b82356124838161217a565b915060208301356122a38161244f565b6000806000604084860312156124a857600080fd5b61233d846121d3565b600080604083850312156124c457600080fd5b6124cd836121d3565b915061242d6020840161238e565b600080600080606085870312156124f157600080fd5b84356124fc8161217a565b9350602085013561250c8161217a565b925060408501356001600160401b0381111561252757600080fd5b612533878288016122dc565b95989497509550505050565b6000806020838503121561255257600080fd5b82356001600160401b0381111561256857600080fd5b6125748582860161218f565b90969095509350505050565b60005b8381101561259b578181015183820152602001612583565b50506000910152565b6000602080830181845280855180835260408601915060408160051b870101925083870160005b8281101561261157878503603f19018452815180518087526125f2818989018a8501612580565b601f01601f1916959095018601945092850192908501906001016125cb565b5092979650505050505050565b60008060006060848603121561263357600080fd5b833561263e8161217a565b9250602084013561264e8161217a565b9150604084013561265e8161244f565b809150509250925092565b6000806040838503121561267c57600080fd5b82356124cd8161217a565b6000806000806060858703121561269d57600080fd5b84356126a88161217a565b935060208501356001600160401b038111156126c357600080fd5b6126cf878288016122dc565b909450925050604085013565ffffffffffff811681146126ee57600080fd5b939692955090935050565b634e487b7160e01b600052603260045260246000fd5b60006020828403121561272157600080fd5b813561097a8161244f565b81835281816020850137506000828201602090810191909152601f909101601f19169091010190565b60208152600061276960208301848661272c565b949350505050565b60006020828403121561278357600080fd5b815161097a8161244f565b6001600160a01b03858116825284166020820152606060408201819052600090611564908301848661272c565b634e487b7160e01b600052601160045260246000fd5b600080858511156127e157600080fd5b838611156127ee57600080fd5b5050820193919092039150565b634e487b7160e01b600052604160045260246000fd5b6000808335601e1984360301811261282857600080fd5b8301803591506001600160401b0382111561284257600080fd5b602001915036819003821315610e8157600080fd5b828482376000838201600081528351612874818360208801612580565b0195945050505050565b65ffffffffffff81811683821601908082111561098e5761098e6127bb565b65ffffffffffff861681526001600160a01b038581166020830152841660408201526080606082018190526000906128d8908301848661272c565b979650505050505050565b6001600160e01b03198135818116916004851015610d495760049490940360031b84901b1690921692915050565b60008251612923818460208701612580565b9190910192915050565b63ffffffff82811682821603908082111561098e5761098e6127bb56fea264697066735822122053c1379c8fffe82b5f3dad87e8af11d427d912bca164c44e5cb1d1cfa4ff9da464736f6c63430008170033",
  "linkReferences": {},
  "deployedLinkReferences": {}
}