{
  "_format": "hh-sol-artifact-1",
  "contractName": "RahatDonor",
  "sourceName": "src/contracts/RahatDonor.sol",
  "abi": [
    {
      "inputs": [
        {
          "internalType": "address",
          "name": "_admin",
          "type": "address"
        },
        {
          "internalType": "address",
          "name": "_accessManager",
          "type": "address"
        }
      ],
      "stateMutability": "nonpayable",
      "type": "constructor"
    },
    {
      "inputs": [
        {
          "internalType": "address",
          "name": "target",
          "type": "address"
        }
      ],
      "name": "AddressEmptyCode",
      "type": "error"
    },
    {
      "inputs": [],
      "name": "FailedInnerCall",
      "type": "error"
    },
    {
      "anonymous": false,
      "inputs": [
        {
          "indexed": true,
          "internalType": "address",
          "name": "",
          "type": "address"
        }
      ],
      "name": "OwnerAdded",
      "type": "event"
    },
    {
      "anonymous": false,
      "inputs": [
        {
          "indexed": true,
          "internalType": "address",
          "name": "",
          "type": "address"
        }
      ],
      "name": "OwnerRemoved",
      "type": "event"
    },
    {
      "anonymous": false,
      "inputs": [
        {
          "indexed": true,
          "internalType": "address",
          "name": "tokenAddress",
          "type": "address"
        }
      ],
      "name": "TokenCreated",
      "type": "event"
    },
    {
      "anonymous": false,
      "inputs": [
        {
          "indexed": true,
          "internalType": "address",
          "name": "tokenAddress",
          "type": "address"
        },
        {
          "indexed": true,
          "internalType": "address",
          "name": "approveAddress",
          "type": "address"
        },
        {
          "indexed": false,
          "internalType": "uint256",
          "name": "amount",
          "type": "uint256"
        }
      ],
      "name": "TokenMintedAndApproved",
      "type": "event"
    },
    {
      "inputs": [],
      "name": "AccessManager",
      "outputs": [
        {
          "internalType": "contract IAccessManager",
          "name": "",
          "type": "address"
        }
      ],
      "stateMutability": "view",
      "type": "function"
    },
    {
      "inputs": [],
      "name": "IID_RAHAT_DONOR",
      "outputs": [
        {
          "internalType": "bytes4",
          "name": "",
          "type": "bytes4"
        }
      ],
      "stateMutability": "view",
      "type": "function"
    },
    {
      "inputs": [],
      "name": "RahatTreasury",
      "outputs": [
        {
          "internalType": "contract IRahatTreasury",
          "name": "",
          "type": "address"
        }
      ],
      "stateMutability": "view",
      "type": "function"
    },
    {
      "inputs": [
        {
          "internalType": "address",
          "name": "",
          "type": "address"
        }
      ],
      "name": "_registeredProject",
      "outputs": [
        {
          "internalType": "bool",
          "name": "",
          "type": "bool"
        }
      ],
      "stateMutability": "view",
      "type": "function"
    },
    {
      "inputs": [
        {
          "internalType": "address",
          "name": "_address",
          "type": "address"
        }
      ],
      "name": "addOwner",
      "outputs": [
        {
          "internalType": "bool",
          "name": "success",
          "type": "bool"
        }
      ],
      "stateMutability": "nonpayable",
      "type": "function"
    },
    {
      "inputs": [
        {
          "internalType": "address",
          "name": "_token",
          "type": "address"
        },
        {
          "internalType": "address",
          "name": "_ownerAddress",
          "type": "address"
        }
      ],
      "name": "addTokenOwner",
      "outputs": [],
      "stateMutability": "nonpayable",
      "type": "function"
    },
    {
      "inputs": [
        {
          "internalType": "address",
          "name": "_token",
          "type": "address"
        },
        {
          "internalType": "address",
          "name": "_spender",
          "type": "address"
        },
        {
          "internalType": "uint256",
          "name": "_amount",
          "type": "uint256"
        }
      ],
      "name": "approveToken",
      "outputs": [],
      "stateMutability": "nonpayable",
      "type": "function"
    },
    {
      "inputs": [
        {
          "internalType": "address",
          "name": "_token",
          "type": "address"
        },
        {
          "internalType": "address",
          "name": "_from",
          "type": "address"
        },
        {
          "internalType": "uint256",
          "name": "_amount",
          "type": "uint256"
        }
      ],
      "name": "claimToken",
      "outputs": [],
      "stateMutability": "nonpayable",
      "type": "function"
    },
    {
      "inputs": [
        {
          "internalType": "address",
          "name": "_token",
          "type": "address"
        },
        {
          "internalType": "address",
          "name": "_from",
          "type": "address"
        }
      ],
      "name": "getAllowanceAndBalance",
      "outputs": [
        {
          "internalType": "uint256",
          "name": "allowance",
          "type": "uint256"
        },
        {
          "internalType": "uint256",
          "name": "balance",
          "type": "uint256"
        }
      ],
      "stateMutability": "view",
      "type": "function"
    },
    {
      "inputs": [
        {
          "internalType": "address",
          "name": "_address",
          "type": "address"
        }
      ],
      "name": "isOwner",
      "outputs": [
        {
          "internalType": "bool",
          "name": "",
          "type": "bool"
        }
      ],
      "stateMutability": "view",
      "type": "function"
    },
    {
      "inputs": [],
      "name": "listOwners",
      "outputs": [
        {
          "internalType": "address[]",
          "name": "",
          "type": "address[]"
        }
      ],
      "stateMutability": "view",
      "type": "function"
    },
    {
      "inputs": [
        {
          "internalType": "address",
          "name": "_token",
          "type": "address"
        },
        {
          "internalType": "uint256",
          "name": "_amount",
          "type": "uint256"
        }
      ],
      "name": "mintToken",
      "outputs": [],
      "stateMutability": "nonpayable",
      "type": "function"
    },
    {
      "inputs": [
        {
          "internalType": "address",
          "name": "_token",
          "type": "address"
        },
        {
          "internalType": "address",
          "name": "_projectAddress",
          "type": "address"
        },
        {
          "internalType": "uint256",
          "name": "_amount",
          "type": "uint256"
        }
      ],
      "name": "mintTokens",
      "outputs": [
        {
          "internalType": "bool",
          "name": "",
          "type": "bool"
        }
      ],
      "stateMutability": "nonpayable",
      "type": "function"
    },
    {
      "inputs": [
        {
          "internalType": "bytes[]",
          "name": "data",
          "type": "bytes[]"
        }
      ],
      "name": "multicall",
      "outputs": [
        {
          "internalType": "bytes[]",
          "name": "results",
          "type": "bytes[]"
        }
      ],
      "stateMutability": "nonpayable",
      "type": "function"
    },
    {
      "inputs": [],
      "name": "ownerCount",
      "outputs": [
        {
          "internalType": "uint256",
          "name": "",
          "type": "uint256"
        }
      ],
      "stateMutability": "view",
      "type": "function"
    },
    {
      "inputs": [
        {
          "internalType": "address",
          "name": "_projectAddress",
          "type": "address"
        },
        {
          "internalType": "bool",
          "name": "status",
          "type": "bool"
        }
      ],
      "name": "registerProject",
      "outputs": [],
      "stateMutability": "nonpayable",
      "type": "function"
    },
    {
      "inputs": [
        {
          "internalType": "address",
          "name": "_address",
          "type": "address"
        }
      ],
      "name": "removeOwner",
      "outputs": [
        {
          "internalType": "bool",
          "name": "success",
          "type": "bool"
        }
      ],
      "stateMutability": "nonpayable",
      "type": "function"
    },
    {
      "inputs": [
        {
          "internalType": "bytes4",
          "name": "interfaceId",
          "type": "bytes4"
        }
      ],
      "name": "supportsInterface",
      "outputs": [
        {
          "internalType": "bool",
          "name": "",
          "type": "bool"
        }
      ],
      "stateMutability": "view",
      "type": "function"
    },
    {
      "inputs": [
        {
          "internalType": "uint256",
          "name": "",
          "type": "uint256"
        }
      ],
      "name": "tokenToDollarValue",
      "outputs": [
        {
          "internalType": "uint256",
          "name": "",
          "type": "uint256"
        }
      ],
      "stateMutability": "view",
      "type": "function"
    },
    {
      "inputs": [
        {
          "internalType": "address",
          "name": "_token",
          "type": "address"
        },
        {
          "internalType": "address",
          "name": "_from",
          "type": "address"
        },
        {
          "internalType": "address",
          "name": "_to",
          "type": "address"
        },
        {
          "internalType": "uint256",
          "name": "_amount",
          "type": "uint256"
        }
      ],
      "name": "transferFromToken",
      "outputs": [],
      "stateMutability": "nonpayable",
      "type": "function"
    },
    {
      "inputs": [
        {
          "internalType": "address",
          "name": "_token",
          "type": "address"
        },
        {
          "internalType": "address",
          "name": "_to",
          "type": "address"
        },
        {
          "internalType": "uint256",
          "name": "_amount",
          "type": "uint256"
        }
      ],
      "name": "transferToken",
      "outputs": [],
      "stateMutability": "nonpayable",
      "type": "function"
    }
  ],
  "bytecode": "0x608060405260326000553480156200001657600080fd5b5060405162001499380380620014998339810160408190526200003991620001a8565b62000044826200006c565b50600680546001600160a01b0319166001600160a01b039290921691909117905550620001e0565b600080546200007c60016200010a565b1115620000c15760405162461bcd60e51b815260206004820152600f60248201526e1bdddb995c9cc8195e18d959591959608a1b604482015260640160405180910390fd5b620000ce6001836200011b565b6040519091506001600160a01b038316907f994a936646fe87ffe4f1e469d3d6aa417d6b855598397f323de5b449f765f0c390600090a2919050565b600062000115825490565b92915050565b600062000132836001600160a01b03841662000139565b9392505050565b6000818152600183016020526040812054620001825750815460018181018455600084815260208082209093018490558454848252828601909352604090209190915562000115565b50600062000115565b80516001600160a01b0381168114620001a357600080fd5b919050565b60008060408385031215620001bc57600080fd5b620001c7836200018b565b9150620001d7602084016200018b565b90509250929050565b6112a980620001f06000396000f3fe608060405234801561001057600080fd5b50600436106101375760003560e01c806379c65068116100b8578063d293cf251161007c578063d293cf25146102d1578063da3e33971461030a578063ed60c0fc1461031d578063f36307cf14610332578063f5537ede14610352578063fb3c0d701461036557600080fd5b806379c650681461024157806390476063146102545780639a7b612a14610267578063a80f56121461028e578063ac9650d8146102b157600080fd5b80632cb5568e116100ff5780632cb5568e146101cd5780632f54bf6e146101e05780634937b174146101f35780636fc98ee11461021b5780637065cb481461022e57600080fd5b806301ffc9a71461013c5780630af2a89b146101645780630db026221461018f578063125bfb66146101a5578063173825d9146101ba575b600080fd5b61014f61014a366004610e0d565b610378565b60405190151581526020015b60405180910390f35b600654610177906001600160a01b031681565b6040516001600160a01b03909116815260200161015b565b6101976103af565b60405190815260200161015b565b6101b86101b3366004610e4e565b6103c0565b005b61014f6101c8366004610e8a565b610470565b6101b86101db366004610ea5565b6104e0565b61014f6101ee366004610e8a565b610551565b610206610201366004610ea5565b61055e565b6040805192835260208301919091520161015b565b61014f610229366004610e4e565b610647565b61014f61023c366004610e8a565b61077c565b6101b861024f366004610ecf565b6107b3565b600554610177906001600160a01b031681565b610275630ae9aa6960e31b81565b6040516001600160e01b0319909116815260200161015b565b61014f61029c366004610e8a565b60046020526000908152604090205460ff1681565b6102c46102bf366004610ef9565b610824565b60405161015b9190610f92565b6101b86102df36600461101a565b6001600160a01b03919091166000908152600460205260409020805460ff1916911515919091179055565b6101b8610318366004610e4e565b61090c565b610325610968565b60405161015b9190611051565b61019761034036600461109e565b60036020526000908152604090205481565b6101b8610360366004610e4e565b610974565b6101b86103733660046110b7565b6109d0565b60006001600160e01b03198216630ae9aa6960e31b14806103a957506301ffc9a760e01b6001600160e01b03198316145b92915050565b60006103bb6001610a79565b905090565b6103cb600133610a83565b6103f05760405162461bcd60e51b81526004016103e790611102565b60405180910390fd5b6040516323b872dd60e01b81526001600160a01b038381166004830152306024830152604482018390528416906323b872dd906064015b6020604051808303816000875af1158015610446573d6000803e3d6000fd5b505050506040513d601f19601f8201168201806040525081019061046a9190611149565b50505050565b600061047d600133610a83565b6104995760405162461bcd60e51b81526004016103e790611102565b6104a4600183610aa5565b6040519091506001600160a01b038316907f58619076adf5bb0943d100ef88d52d7c3fd691b19d3a9071b555b651fbf418da90600090a2919050565b604051630e0cb96960e31b81526001600160a01b038281166004830152831690637065cb48906024016020604051808303816000875af1158015610528573d6000803e3d6000fd5b505050506040513d601f19601f8201168201806040525081019061054c9190611149565b505050565b60006103a9600183610a83565b604051636eb1769f60e11b81526001600160a01b038281166004830152306024830152600091829185169063dd62ed3e90604401602060405180830381865afa1580156105af573d6000803e3d6000fd5b505050506040513d601f19601f820116820180604052508101906105d39190611166565b6040516370a0823160e01b81523060048201529092506001600160a01b038516906370a0823190602401602060405180830381865afa15801561061a573d6000803e3d6000fd5b505050506040513d601f19601f8201168201806040525081019061063e9190611166565b90509250929050565b6040516340c10f1960e01b81526001600160a01b0383811660048301526024820183905260009185918216906340c10f19906044016020604051808303816000875af115801561069b573d6000803e3d6000fd5b505050506040513d601f19601f820116820180604052508101906106bf9190611166565b506040516397b53ca360e01b81526001600160a01b038681166004830152602482018590528516906397b53ca390604401600060405180830381600087803b15801561070a57600080fd5b505af115801561071e573d6000803e3d6000fd5b50505050836001600160a01b0316856001600160a01b03167fdc6904c4e8e3746f835eb600662c644c895c758995784a4b39c68f75355b2d278560405161076791815260200190565b60405180910390a360019150505b9392505050565b6000610789600133610a83565b6107a55760405162461bcd60e51b81526004016103e790611102565b6103a982610aba565b919050565b6040516340c10f1960e01b8152306004820152602481018290526001600160a01b038316906340c10f19906044016020604051808303816000875af1158015610800573d6000803e3d6000fd5b505050506040513d601f19601f8201168201806040525081019061054c9190611166565b6040805160008152602081019091526060908267ffffffffffffffff81111561084f5761084f6111a0565b60405190808252806020026020018201604052801561088257816020015b606081526020019060019003908161086d5790505b50915060005b83811015610904576108df308686848181106108a6576108a66111b6565b90506020028101906108b891906111cc565b856040516020016108cb9392919061121a565b604051602081830303815290604052610b4f565b8382815181106108f1576108f16111b6565b6020908102919091010152600101610888565b505092915050565b610917600133610a83565b6109335760405162461bcd60e51b81526004016103e790611102565b60405163095ea7b360e01b81526001600160a01b0383811660048301526024820183905284169063095ea7b390604401610427565b60606103bb6001610bc5565b61097f600133610a83565b61099b5760405162461bcd60e51b81526004016103e790611102565b60405163a9059cbb60e01b81526001600160a01b0383811660048301526024820183905284169063a9059cbb90604401610427565b6109db600133610a83565b6109f75760405162461bcd60e51b81526004016103e790611102565b6040516323b872dd60e01b81526001600160a01b0384811660048301528381166024830152604482018390528516906323b872dd906064016020604051808303816000875af1158015610a4e573d6000803e3d6000fd5b505050506040513d601f19601f82011682018060405250810190610a729190611149565b5050505050565b60006103a9825490565b6001600160a01b03811660009081526001830160205260408120541515610775565b6000610775836001600160a01b038416610bd2565b60008054610ac86001610a79565b1115610b085760405162461bcd60e51b815260206004820152600f60248201526e1bdddb995c9cc8195e18d959591959608a1b60448201526064016103e7565b610b13600183610cc5565b6040519091506001600160a01b038316907f994a936646fe87ffe4f1e469d3d6aa417d6b855598397f323de5b449f765f0c390600090a2919050565b6060600080846001600160a01b031684604051610b6c9190611241565b600060405180830381855af49150503d8060008114610ba7576040519150601f19603f3d011682016040523d82523d6000602084013e610bac565b606091505b5091509150610bbc858383610cda565b95945050505050565b6060600061077583610d36565b60008181526001830160205260408120548015610cbb576000610bf660018361117f565b8554909150600090610c0a9060019061117f565b9050808214610c6f576000866000018281548110610c2a57610c2a6111b6565b9060005260206000200154905080876000018481548110610c4d57610c4d6111b6565b6000918252602080832090910192909255918252600188019052604090208390555b8554869080610c8057610c8061125d565b6001900381819060005260206000200160009055905585600101600086815260200190815260200160002060009055600193505050506103a9565b60009150506103a9565b6000610775836001600160a01b038416610d92565b606082610cef57610cea82610de1565b610775565b8151158015610d0657506001600160a01b0384163b155b15610d2f57604051639996b31560e01b81526001600160a01b03851660048201526024016103e7565b5080610775565b606081600001805480602002602001604051908101604052809291908181526020018280548015610d8657602002820191906000526020600020905b815481526020019060010190808311610d72575b50505050509050919050565b6000818152600183016020526040812054610dd9575081546001818101845560008481526020808220909301849055845484825282860190935260409020919091556103a9565b5060006103a9565b805115610df15780518082602001fd5b604051630a12f52160e11b815260040160405180910390fd5b50565b600060208284031215610e1f57600080fd5b81356001600160e01b03198116811461077557600080fd5b80356001600160a01b03811681146107ae57600080fd5b600080600060608486031215610e6357600080fd5b610e6c84610e37565b9250610e7a60208501610e37565b9150604084013590509250925092565b600060208284031215610e9c57600080fd5b61077582610e37565b60008060408385031215610eb857600080fd5b610ec183610e37565b915061063e60208401610e37565b60008060408385031215610ee257600080fd5b610eeb83610e37565b946020939093013593505050565b60008060208385031215610f0c57600080fd5b823567ffffffffffffffff80821115610f2457600080fd5b818501915085601f830112610f3857600080fd5b813581811115610f4757600080fd5b8660208260051b8501011115610f5c57600080fd5b60209290920196919550909350505050565b60005b83811015610f89578181015183820152602001610f71565b50506000910152565b6000602080830181845280855180835260408601915060408160051b870101925083870160005b82811015610fff57878503603f1901845281518051808752610fe0818989018a8501610f6e565b601f01601f191695909501860194509285019290850190600101610fb9565b5092979650505050505050565b8015158114610e0a57600080fd5b6000806040838503121561102d57600080fd5b61103683610e37565b915060208301356110468161100c565b809150509250929050565b6020808252825182820181905260009190848201906040850190845b818110156110925783516001600160a01b03168352928401929184019160010161106d565b50909695505050505050565b6000602082840312156110b057600080fd5b5035919050565b600080600080608085870312156110cd57600080fd5b6110d685610e37565b93506110e460208601610e37565b92506110f260408601610e37565b9396929550929360600135925050565b60208082526027908201527f4f6e6c79206f776e65722063616e20657865637574652074686973207472616e60408201526639b0b1ba34b7b760c91b606082015260800190565b60006020828403121561115b57600080fd5b81516107758161100c565b60006020828403121561117857600080fd5b5051919050565b818103818111156103a957634e487b7160e01b600052601160045260246000fd5b634e487b7160e01b600052604160045260246000fd5b634e487b7160e01b600052603260045260246000fd5b6000808335601e198436030181126111e357600080fd5b83018035915067ffffffffffffffff8211156111fe57600080fd5b60200191503681900382131561121357600080fd5b9250929050565b828482376000838201600081528351611237818360208801610f6e565b0195945050505050565b60008251611253818460208701610f6e565b9190910192915050565b634e487b7160e01b600052603160045260246000fdfea2646970667358221220b5a920e1cca5e6b8742b086c472b11f23fcf413b4db7b2acd89e9ac6f03ce00664736f6c63430008170033",
  "linkReferences": {},
  "deployedLinkReferences": {}
}