{
  "_format": "hh-sol-artifact-1",
  "contractName": "RahatDonor",
  "sourceName": "src/contracts/RahatDonor.sol",
  "abi": [
    {
      "inputs": [
        {
          "internalType": "address",
          "name": "_admin",
          "type": "address"
        },
        {
          "internalType": "address",
          "name": "_accessManager",
          "type": "address"
        }
      ],
      "stateMutability": "nonpayable",
      "type": "constructor"
    },
    {
      "inputs": [
        {
          "internalType": "address",
          "name": "authority",
          "type": "address"
        }
      ],
      "name": "AccessManagedInvalidAuthority",
      "type": "error"
    },
    {
      "inputs": [
        {
          "internalType": "address",
          "name": "caller",
          "type": "address"
        },
        {
          "internalType": "uint32",
          "name": "delay",
          "type": "uint32"
        }
      ],
      "name": "AccessManagedRequiredDelay",
      "type": "error"
    },
    {
      "inputs": [
        {
          "internalType": "address",
          "name": "caller",
          "type": "address"
        }
      ],
      "name": "AccessManagedUnauthorized",
      "type": "error"
    },
    {
      "inputs": [
        {
          "internalType": "address",
          "name": "target",
          "type": "address"
        }
      ],
      "name": "AddressEmptyCode",
      "type": "error"
    },
    {
      "inputs": [],
      "name": "FailedInnerCall",
      "type": "error"
    },
    {
      "anonymous": false,
      "inputs": [
        {
          "indexed": false,
          "internalType": "address",
          "name": "authority",
          "type": "address"
        }
      ],
      "name": "AuthorityUpdated",
      "type": "event"
    },
    {
      "anonymous": false,
      "inputs": [
        {
          "indexed": true,
          "internalType": "address",
          "name": "",
          "type": "address"
        }
      ],
      "name": "OwnerAdded",
      "type": "event"
    },
    {
      "anonymous": false,
      "inputs": [
        {
          "indexed": true,
          "internalType": "address",
          "name": "",
          "type": "address"
        }
      ],
      "name": "OwnerRemoved",
      "type": "event"
    },
    {
      "anonymous": false,
      "inputs": [
        {
          "indexed": true,
          "internalType": "address",
          "name": "tokenAddress",
          "type": "address"
        }
      ],
      "name": "TokenCreated",
      "type": "event"
    },
    {
      "anonymous": false,
      "inputs": [
        {
          "indexed": true,
          "internalType": "address",
          "name": "projectTokenAddress",
          "type": "address"
        },
        {
          "indexed": true,
          "internalType": "address",
          "name": "projectTokenapproveAddress",
          "type": "address"
        },
        {
          "indexed": true,
          "internalType": "address",
          "name": "cashTokenAddress",
          "type": "address"
        },
        {
          "indexed": false,
          "internalType": "address",
          "name": "cashTokenReciever",
          "type": "address"
        },
        {
          "indexed": false,
          "internalType": "uint256",
          "name": "amount",
          "type": "uint256"
        }
      ],
      "name": "TokenMintedAndApproved",
      "type": "event"
    },
    {
      "inputs": [],
      "name": "IID_RAHAT_DONOR",
      "outputs": [
        {
          "internalType": "bytes4",
          "name": "",
          "type": "bytes4"
        }
      ],
      "stateMutability": "view",
      "type": "function"
    },
    {
      "inputs": [
        {
          "internalType": "address",
          "name": "",
          "type": "address"
        }
      ],
      "name": "_registeredProject",
      "outputs": [
        {
          "internalType": "bool",
          "name": "",
          "type": "bool"
        }
      ],
      "stateMutability": "view",
      "type": "function"
    },
    {
      "inputs": [
        {
          "internalType": "address",
          "name": "_address",
          "type": "address"
        }
      ],
      "name": "addOwner",
      "outputs": [
        {
          "internalType": "bool",
          "name": "success",
          "type": "bool"
        }
      ],
      "stateMutability": "nonpayable",
      "type": "function"
    },
    {
      "inputs": [
        {
          "internalType": "address",
          "name": "_token",
          "type": "address"
        },
        {
          "internalType": "address",
          "name": "_ownerAddress",
          "type": "address"
        }
      ],
      "name": "addTokenOwner",
      "outputs": [],
      "stateMutability": "nonpayable",
      "type": "function"
    },
    {
      "inputs": [
        {
          "internalType": "address",
          "name": "_token",
          "type": "address"
        },
        {
          "internalType": "address",
          "name": "_spender",
          "type": "address"
        },
        {
          "internalType": "uint256",
          "name": "_amount",
          "type": "uint256"
        }
      ],
      "name": "approveToken",
      "outputs": [],
      "stateMutability": "nonpayable",
      "type": "function"
    },
    {
      "inputs": [],
      "name": "authority",
      "outputs": [
        {
          "internalType": "address",
          "name": "",
          "type": "address"
        }
      ],
      "stateMutability": "view",
      "type": "function"
    },
    {
      "inputs": [
        {
          "internalType": "address",
          "name": "_cashTokenAddress",
          "type": "address"
        },
        {
          "internalType": "address",
          "name": "_newOwner",
          "type": "address"
        }
      ],
      "name": "changeCashTokenOwnerShip",
      "outputs": [],
      "stateMutability": "nonpayable",
      "type": "function"
    },
    {
      "inputs": [
        {
          "internalType": "address",
          "name": "_token",
          "type": "address"
        },
        {
          "internalType": "address",
          "name": "_from",
          "type": "address"
        },
        {
          "internalType": "uint256",
          "name": "_amount",
          "type": "uint256"
        }
      ],
      "name": "claimToken",
      "outputs": [],
      "stateMutability": "nonpayable",
      "type": "function"
    },
    {
      "inputs": [
        {
          "internalType": "address",
          "name": "_token",
          "type": "address"
        },
        {
          "internalType": "address",
          "name": "_from",
          "type": "address"
        }
      ],
      "name": "getAllowanceAndBalance",
      "outputs": [
        {
          "internalType": "uint256",
          "name": "allowance",
          "type": "uint256"
        },
        {
          "internalType": "uint256",
          "name": "balance",
          "type": "uint256"
        }
      ],
      "stateMutability": "view",
      "type": "function"
    },
    {
      "inputs": [],
      "name": "isConsumingScheduledOp",
      "outputs": [
        {
          "internalType": "bytes4",
          "name": "",
          "type": "bytes4"
        }
      ],
      "stateMutability": "view",
      "type": "function"
    },
    {
      "inputs": [
        {
          "internalType": "address",
          "name": "_address",
          "type": "address"
        }
      ],
      "name": "isOwner",
      "outputs": [
        {
          "internalType": "bool",
          "name": "",
          "type": "bool"
        }
      ],
      "stateMutability": "view",
      "type": "function"
    },
    {
      "inputs": [],
      "name": "listOwners",
      "outputs": [
        {
          "internalType": "address[]",
          "name": "",
          "type": "address[]"
        }
      ],
      "stateMutability": "view",
      "type": "function"
    },
    {
      "inputs": [
        {
          "internalType": "address",
          "name": "_token",
          "type": "address"
        },
        {
          "internalType": "uint256",
          "name": "_amount",
          "type": "uint256"
        }
      ],
      "name": "mintToken",
      "outputs": [],
      "stateMutability": "nonpayable",
      "type": "function"
    },
    {
      "inputs": [
        {
          "internalType": "address",
          "name": "_projectToken",
          "type": "address"
        },
        {
          "internalType": "address",
          "name": "_projectAddress",
          "type": "address"
        },
        {
          "internalType": "address",
          "name": "_cashToken",
          "type": "address"
        },
        {
          "internalType": "address",
          "name": "_cashTokenReciever",
          "type": "address"
        },
        {
          "internalType": "uint256",
          "name": "_amount",
          "type": "uint256"
        }
      ],
      "name": "mintTokens",
      "outputs": [
        {
          "internalType": "bool",
          "name": "",
          "type": "bool"
        }
      ],
      "stateMutability": "nonpayable",
      "type": "function"
    },
    {
      "inputs": [
        {
          "internalType": "bytes[]",
          "name": "data",
          "type": "bytes[]"
        }
      ],
      "name": "multicall",
      "outputs": [
        {
          "internalType": "bytes[]",
          "name": "results",
          "type": "bytes[]"
        }
      ],
      "stateMutability": "nonpayable",
      "type": "function"
    },
    {
      "inputs": [],
      "name": "ownerCount",
      "outputs": [
        {
          "internalType": "uint256",
          "name": "",
          "type": "uint256"
        }
      ],
      "stateMutability": "view",
      "type": "function"
    },
    {
      "inputs": [
        {
          "internalType": "address",
          "name": "_projectAddress",
          "type": "address"
        },
        {
          "internalType": "bool",
          "name": "status",
          "type": "bool"
        }
      ],
      "name": "registerProject",
      "outputs": [],
      "stateMutability": "nonpayable",
      "type": "function"
    },
    {
      "inputs": [
        {
          "internalType": "address",
          "name": "_address",
          "type": "address"
        }
      ],
      "name": "removeOwner",
      "outputs": [
        {
          "internalType": "bool",
          "name": "success",
          "type": "bool"
        }
      ],
      "stateMutability": "nonpayable",
      "type": "function"
    },
    {
      "inputs": [
        {
          "internalType": "address",
          "name": "newAuthority",
          "type": "address"
        }
      ],
      "name": "setAuthority",
      "outputs": [],
      "stateMutability": "nonpayable",
      "type": "function"
    },
    {
      "inputs": [
        {
          "internalType": "bytes4",
          "name": "interfaceId",
          "type": "bytes4"
        }
      ],
      "name": "supportsInterface",
      "outputs": [
        {
          "internalType": "bool",
          "name": "",
          "type": "bool"
        }
      ],
      "stateMutability": "view",
      "type": "function"
    },
    {
      "inputs": [
        {
          "internalType": "uint256",
          "name": "",
          "type": "uint256"
        }
      ],
      "name": "tokenToDollarValue",
      "outputs": [
        {
          "internalType": "uint256",
          "name": "",
          "type": "uint256"
        }
      ],
      "stateMutability": "view",
      "type": "function"
    },
    {
      "inputs": [
        {
          "internalType": "address",
          "name": "_token",
          "type": "address"
        },
        {
          "internalType": "address",
          "name": "_from",
          "type": "address"
        },
        {
          "internalType": "address",
          "name": "_to",
          "type": "address"
        },
        {
          "internalType": "uint256",
          "name": "_amount",
          "type": "uint256"
        }
      ],
      "name": "transferFromToken",
      "outputs": [],
      "stateMutability": "nonpayable",
      "type": "function"
    },
    {
      "inputs": [
        {
          "internalType": "address",
          "name": "_token",
          "type": "address"
        },
        {
          "internalType": "address",
          "name": "_to",
          "type": "address"
        },
        {
          "internalType": "uint256",
          "name": "_amount",
          "type": "uint256"
        }
      ],
      "name": "transferToken",
      "outputs": [],
      "stateMutability": "nonpayable",
      "type": "function"
    }
  ],
  "bytecode": "0x608060405260326000553480156200001657600080fd5b5060405162001a5f38038062001a5f8339810160408190526200003991620001ea565b8062000045816200005a565b506200005182620000ae565b50505062000222565b600380546001600160a01b0319166001600160a01b0383169081179091556040519081527f2f658b440c35314f52658ea8a740e05b284cdc84dc9ae01e891f21b8933e7cad9060200160405180910390a150565b60008054620000be60016200014c565b1115620001035760405162461bcd60e51b815260206004820152600f60248201526e1bdddb995c9cc8195e18d959591959608a1b604482015260640160405180910390fd5b620001106001836200015d565b6040519091506001600160a01b038316907f994a936646fe87ffe4f1e469d3d6aa417d6b855598397f323de5b449f765f0c390600090a2919050565b600062000157825490565b92915050565b600062000174836001600160a01b0384166200017b565b9392505050565b6000818152600183016020526040812054620001c45750815460018181018455600084815260208082209093018490558454848252828601909352604090209190915562000157565b50600062000157565b80516001600160a01b0381168114620001e557600080fd5b919050565b60008060408385031215620001fe57600080fd5b6200020983620001cd565b91506200021960208401620001cd565b90509250929050565b61182d80620002326000396000f3fe608060405234801561001057600080fd5b506004361061014d5760003560e01c80639a7b612a116100c3578063da3e33971161007c578063da3e3397146102f2578063ec9e0e8714610305578063ed60c0fc14610318578063f36307cf1461032d578063f5537ede1461034d578063fb3c0d701461036057600080fd5b80639a7b612a14610260578063a80f56121461026e578063ac9650d814610291578063bf7e214f146102b1578063d293cf25146102cc578063d41c6f13146102df57600080fd5b80632f54bf6e116101155780632f54bf6e146101cb5780634937b174146101de5780637065cb481461020657806379c65068146102195780637a9e5e4b1461022c5780638fb360371461023f57600080fd5b806301ffc9a7146101525780630db026221461017a578063125bfb6614610190578063173825d9146101a55780632cb5568e146101b8575b600080fd5b610165610160366004611265565b610373565b60405190151581526020015b60405180910390f35b6101826103aa565b604051908152602001610171565b6101a361019e3660046112a6565b6103bb565b005b6101656101b33660046112e2565b61046b565b6101a36101c63660046112fd565b6104db565b6101656101d93660046112e2565b61059a565b6101f16101ec3660046112fd565b6105a7565b60408051928352602083019190915201610171565b6101656102143660046112e2565b610690565b6101a3610227366004611327565b6106c7565b6101a361023a3660046112e2565b610775565b6102476107eb565b6040516001600160e01b03199091168152602001610171565b610247630ae9aa6960e31b81565b61016561027c3660046112e2565b60056020526000908152604090205460ff1681565b6102a461029f366004611351565b610811565b60405161017191906113ea565b6003546040516001600160a01b039091168152602001610171565b6101a36102da366004611472565b6108f9565b6101656102ed3660046114a9565b61092d565b6101a36103003660046112a6565b610aa0565b6101a36103133660046112fd565b610afc565b610320610b64565b6040516101719190611505565b61018261033b366004611552565b60046020526000908152604090205481565b6101a361035b3660046112a6565b610b70565b6101a361036e36600461156b565b610bcc565b60006001600160e01b03198216630ae9aa6960e31b14806103a457506301ffc9a760e01b6001600160e01b03198316145b92915050565b60006103b66001610c75565b905090565b6103c6600133610c7f565b6103eb5760405162461bcd60e51b81526004016103e2906115b6565b60405180910390fd5b6040516323b872dd60e01b81526001600160a01b038381166004830152306024830152604482018390528416906323b872dd906064015b6020604051808303816000875af1158015610441573d6000803e3d6000fd5b505050506040513d601f19601f8201168201806040525081019061046591906115fd565b50505050565b6000610478600133610c7f565b6104945760405162461bcd60e51b81526004016103e2906115b6565b61049f600183610ca4565b6040519091506001600160a01b038316907f58619076adf5bb0943d100ef88d52d7c3fd691b19d3a9071b555b651fbf418da90600090a2919050565b6104e8335b600036610cb9565b604051630e0cb96960e31b81526001600160a01b038281166004830152831690637065cb48906024016020604051808303816000875af1158015610530573d6000803e3d6000fd5b505050506040513d601f19601f8201168201806040525081019061055491906115fd565b6105965760405162461bcd60e51b81526020600482015260136024820152722ab730b13632903a379030b2321037bbb732b960691b60448201526064016103e2565b5050565b60006103a4600183610c7f565b604051636eb1769f60e11b81526001600160a01b038281166004830152306024830152600091829185169063dd62ed3e90604401602060405180830381865afa1580156105f8573d6000803e3d6000fd5b505050506040513d601f19601f8201168201806040525081019061061c919061161a565b6040516370a0823160e01b81523060048201529092506001600160a01b038516906370a0823190602401602060405180830381865afa158015610663573d6000803e3d6000fd5b505050506040513d601f19601f82011682018060405250810190610687919061161a565b90509250929050565b600061069d600133610c7f565b6106b95760405162461bcd60e51b81526004016103e2906115b6565b6103a482610db2565b919050565b6040516340c10f1960e01b81523060048201526024810182905281906001600160a01b038416906340c10f19906044016020604051808303816000875af1158015610716573d6000803e3d6000fd5b505050506040513d601f19601f8201168201806040525081019061073a919061161a565b146105965760405162461bcd60e51b815260206004820152600b60248201526a135a5b9d0819985a5b195960aa1b60448201526064016103e2565b60035433906001600160a01b031681146107ac5760405162d1953b60e31b81526001600160a01b03821660048201526024016103e2565b816001600160a01b03163b6000036107e2576040516361798f2f60e11b81526001600160a01b03831660048201526024016103e2565b61059682610e47565b600354600090600160a01b900460ff166108055750600090565b50638fb3603760e01b90565b6040805160008152602081019091526060908267ffffffffffffffff81111561083c5761083c61167e565b60405190808252806020026020018201604052801561086f57816020015b606081526020019060019003908161085a5790505b50915060005b838110156108f1576108cc3086868481811061089357610893611694565b90506020028101906108a591906116aa565b856040516020016108b8939291906116f8565b604051602081830303815290604052610e9b565b8382815181106108de576108de611694565b6020908102919091010152600101610875565b505092915050565b610902336104e0565b6001600160a01b03919091166000908152600560205260409020805460ff1916911515919091179055565b6040516340c10f1960e01b81526001600160a01b0385811660048301526024820183905260009187918491908316906340c10f19906044016020604051808303816000875af1158015610984573d6000803e3d6000fd5b505050506040513d601f19601f820116820180604052508101906109a8919061161a565b146109e35760405162461bcd60e51b815260206004820152600b60248201526a135a5b9d0819985a5b195960aa1b60448201526064016103e2565b6040516340c10f1960e01b81526001600160a01b038581166004830152602482018590528616906340c10f1990604401600060405180830381600087803b158015610a2d57600080fd5b505af1158015610a41573d6000803e3d6000fd5b5050604080516001600160a01b03888116825260208201889052808a1694508a811693508b16917f4f210daf637a00b98720665c8394937fc30dae4b1933e50fc868b32f82051da8910160405180910390a45060019695505050505050565b610aab600133610c7f565b610ac75760405162461bcd60e51b81526004016103e2906115b6565b60405163095ea7b360e01b81526001600160a01b0383811660048301526024820183905284169063095ea7b390604401610422565b610b05336104e0565b60405163f2fde38b60e01b81526001600160a01b03828116600483015283169063f2fde38b90602401600060405180830381600087803b158015610b4857600080fd5b505af1158015610b5c573d6000803e3d6000fd5b505050505050565b60606103b66001610f11565b610b7b600133610c7f565b610b975760405162461bcd60e51b81526004016103e2906115b6565b60405163a9059cbb60e01b81526001600160a01b0383811660048301526024820183905284169063a9059cbb90604401610422565b610bd7600133610c7f565b610bf35760405162461bcd60e51b81526004016103e2906115b6565b6040516323b872dd60e01b81526001600160a01b0384811660048301528381166024830152604482018390528516906323b872dd906064016020604051808303816000875af1158015610c4a573d6000803e3d6000fd5b505050506040513d601f19601f82011682018060405250810190610c6e91906115fd565b5050505050565b60006103a4825490565b6001600160a01b038116600090815260018301602052604081205415155b9392505050565b6000610c9d836001600160a01b038416610f1e565b600080610cef610cd16003546001600160a01b031690565b8630610ce160046000898b611654565b610cea9161171f565b611011565b9150915081610c6e5763ffffffff811615610d8f576003805460ff60a01b198116600160a01b17909155604051634a63ebf760e11b81526001600160a01b03909116906394c7d7ee90610d4a9088908890889060040161174d565b600060405180830381600087803b158015610d6457600080fd5b505af1158015610d78573d6000803e3d6000fd5b50506003805460ff60a01b1916905550610c6e9050565b60405162d1953b60e31b81526001600160a01b03861660048201526024016103e2565b60008054610dc06001610c75565b1115610e005760405162461bcd60e51b815260206004820152600f60248201526e1bdddb995c9cc8195e18d959591959608a1b60448201526064016103e2565b610e0b60018361111d565b6040519091506001600160a01b038316907f994a936646fe87ffe4f1e469d3d6aa417d6b855598397f323de5b449f765f0c390600090a2919050565b600380546001600160a01b0319166001600160a01b0383169081179091556040519081527f2f658b440c35314f52658ea8a740e05b284cdc84dc9ae01e891f21b8933e7cad9060200160405180910390a150565b6060600080846001600160a01b031684604051610eb8919061178d565b600060405180830381855af49150503d8060008114610ef3576040519150601f19603f3d011682016040523d82523d6000602084013e610ef8565b606091505b5091509150610f08858383611132565b95945050505050565b60606000610c9d8361118e565b60008181526001830160205260408120548015611007576000610f42600183611633565b8554909150600090610f5690600190611633565b9050808214610fbb576000866000018281548110610f7657610f76611694565b9060005260206000200154905080876000018481548110610f9957610f99611694565b6000918252602080832090910192909255918252600188019052604090208390555b8554869080610fcc57610fcc6117a9565b6001900381819060005260206000200160009055905585600101600086815260200190815260200160002060009055600193505050506103a4565b60009150506103a4565b6040516001600160a01b03848116602483015283811660448301526001600160e01b03198316606483015260009182918291829189169060840160408051601f198184030181529181526020820180516001600160e01b031663b700961360e01b17905251611080919061178d565b600060405180830381855afa9150503d80600081146110bb576040519150601f19603f3d011682016040523d82523d6000602084013e6110c0565b606091505b509150915081156111125760408151106110f257808060200190518101906110e891906117bf565b9094509250611112565b6020815110611112578080602001905181019061110f91906115fd565b93505b505094509492505050565b6000610c9d836001600160a01b0384166111ea565b6060826111475761114282611239565b610c9d565b815115801561115e57506001600160a01b0384163b155b1561118757604051639996b31560e01b81526001600160a01b03851660048201526024016103e2565b5092915050565b6060816000018054806020026020016040519081016040528092919081815260200182805480156111de57602002820191906000526020600020905b8154815260200190600101908083116111ca575b50505050509050919050565b6000818152600183016020526040812054611231575081546001818101845560008481526020808220909301849055845484825282860190935260409020919091556103a4565b5060006103a4565b8051156112495780518082602001fd5b604051630a12f52160e11b815260040160405180910390fd5b50565b60006020828403121561127757600080fd5b81356001600160e01b031981168114610c9d57600080fd5b80356001600160a01b03811681146106c257600080fd5b6000806000606084860312156112bb57600080fd5b6112c48461128f565b92506112d26020850161128f565b9150604084013590509250925092565b6000602082840312156112f457600080fd5b610c9d8261128f565b6000806040838503121561131057600080fd5b6113198361128f565b91506106876020840161128f565b6000806040838503121561133a57600080fd5b6113438361128f565b946020939093013593505050565b6000806020838503121561136457600080fd5b823567ffffffffffffffff8082111561137c57600080fd5b818501915085601f83011261139057600080fd5b81358181111561139f57600080fd5b8660208260051b85010111156113b457600080fd5b60209290920196919550909350505050565b60005b838110156113e15781810151838201526020016113c9565b50506000910152565b6000602080830181845280855180835260408601915060408160051b870101925083870160005b8281101561145757878503603f1901845281518051808752611438818989018a85016113c6565b601f01601f191695909501860194509285019290850190600101611411565b5092979650505050505050565b801515811461126257600080fd5b6000806040838503121561148557600080fd5b61148e8361128f565b9150602083013561149e81611464565b809150509250929050565b600080600080600060a086880312156114c157600080fd5b6114ca8661128f565b94506114d86020870161128f565b93506114e66040870161128f565b92506114f46060870161128f565b949793965091946080013592915050565b6020808252825182820181905260009190848201906040850190845b818110156115465783516001600160a01b031683529284019291840191600101611521565b50909695505050505050565b60006020828403121561156457600080fd5b5035919050565b6000806000806080858703121561158157600080fd5b61158a8561128f565b93506115986020860161128f565b92506115a66040860161128f565b9396929550929360600135925050565b60208082526027908201527f4f6e6c79206f776e65722063616e20657865637574652074686973207472616e60408201526639b0b1ba34b7b760c91b606082015260800190565b60006020828403121561160f57600080fd5b8151610c9d81611464565b60006020828403121561162c57600080fd5b5051919050565b818103818111156103a457634e487b7160e01b600052601160045260246000fd5b6000808585111561166457600080fd5b8386111561167157600080fd5b5050820193919092039150565b634e487b7160e01b600052604160045260246000fd5b634e487b7160e01b600052603260045260246000fd5b6000808335601e198436030181126116c157600080fd5b83018035915067ffffffffffffffff8211156116dc57600080fd5b6020019150368190038213156116f157600080fd5b9250929050565b8284823760008382016000815283516117158183602088016113c6565b0195945050505050565b6001600160e01b031981358181169160048510156108f15760049490940360031b84901b1690921692915050565b6001600160a01b03841681526040602082018190528101829052818360608301376000818301606090810191909152601f909201601f1916010192915050565b6000825161179f8184602087016113c6565b9190910192915050565b634e487b7160e01b600052603160045260246000fd5b600080604083850312156117d257600080fd5b82516117dd81611464565b602084015190925063ffffffff8116811461149e57600080fdfea26469706673582212209c9ac8cf4df674a9daa9f3a323c9b0fb8906eee42b13e920b4d495ac1397398c64736f6c63430008170033",
  "linkReferences": {},
  "deployedLinkReferences": {}
}