{
  "_format": "hh-sol-artifact-1",
  "contractName": "RahatDonor",
  "sourceName": "src/contracts/RahatDonor.sol",
  "abi": [
    {
      "inputs": [
        {
          "internalType": "address",
          "name": "_admin",
          "type": "address"
        },
        {
          "internalType": "address",
          "name": "_accessManager",
          "type": "address"
        }
      ],
      "stateMutability": "nonpayable",
      "type": "constructor"
    },
    {
      "inputs": [
        {
          "internalType": "address",
          "name": "authority",
          "type": "address"
        }
      ],
      "name": "AccessManagedInvalidAuthority",
      "type": "error"
    },
    {
      "inputs": [
        {
          "internalType": "address",
          "name": "caller",
          "type": "address"
        },
        {
          "internalType": "uint32",
          "name": "delay",
          "type": "uint32"
        }
      ],
      "name": "AccessManagedRequiredDelay",
      "type": "error"
    },
    {
      "inputs": [
        {
          "internalType": "address",
          "name": "caller",
          "type": "address"
        }
      ],
      "name": "AccessManagedUnauthorized",
      "type": "error"
    },
    {
      "inputs": [
        {
          "internalType": "address",
          "name": "target",
          "type": "address"
        }
      ],
      "name": "AddressEmptyCode",
      "type": "error"
    },
    {
      "inputs": [],
      "name": "FailedInnerCall",
      "type": "error"
    },
    {
      "anonymous": false,
      "inputs": [
        {
          "indexed": false,
          "internalType": "address",
          "name": "authority",
          "type": "address"
        }
      ],
      "name": "AuthorityUpdated",
      "type": "event"
    },
    {
      "anonymous": false,
      "inputs": [
        {
          "indexed": true,
          "internalType": "address",
          "name": "",
          "type": "address"
        }
      ],
      "name": "OwnerAdded",
      "type": "event"
    },
    {
      "anonymous": false,
      "inputs": [
        {
          "indexed": true,
          "internalType": "address",
          "name": "",
          "type": "address"
        }
      ],
      "name": "OwnerRemoved",
      "type": "event"
    },
    {
      "anonymous": false,
      "inputs": [
        {
          "indexed": true,
          "internalType": "address",
          "name": "tokenAddress",
          "type": "address"
        }
      ],
      "name": "TokenCreated",
      "type": "event"
    },
    {
      "anonymous": false,
      "inputs": [
        {
          "indexed": true,
          "internalType": "address",
          "name": "projectTokenAddress",
          "type": "address"
        },
        {
          "indexed": true,
          "internalType": "address",
          "name": "projectTokenapproveAddress",
          "type": "address"
        },
        {
          "indexed": true,
          "internalType": "address",
          "name": "cashTokenAddress",
          "type": "address"
        },
        {
          "indexed": false,
          "internalType": "address",
          "name": "cashTokenReciever",
          "type": "address"
        },
        {
          "indexed": false,
          "internalType": "uint256",
          "name": "amount",
          "type": "uint256"
        }
      ],
      "name": "TokenMintedAndApproved",
      "type": "event"
    },
    {
      "inputs": [],
      "name": "IID_RAHAT_DONOR",
      "outputs": [
        {
          "internalType": "bytes4",
          "name": "",
          "type": "bytes4"
        }
      ],
      "stateMutability": "view",
      "type": "function"
    },
    {
      "inputs": [],
      "name": "RahatTreasury",
      "outputs": [
        {
          "internalType": "contract IRahatTreasury",
          "name": "",
          "type": "address"
        }
      ],
      "stateMutability": "view",
      "type": "function"
    },
    {
      "inputs": [
        {
          "internalType": "address",
          "name": "",
          "type": "address"
        }
      ],
      "name": "_registeredProject",
      "outputs": [
        {
          "internalType": "bool",
          "name": "",
          "type": "bool"
        }
      ],
      "stateMutability": "view",
      "type": "function"
    },
    {
      "inputs": [
        {
          "internalType": "address",
          "name": "_address",
          "type": "address"
        }
      ],
      "name": "addOwner",
      "outputs": [
        {
          "internalType": "bool",
          "name": "success",
          "type": "bool"
        }
      ],
      "stateMutability": "nonpayable",
      "type": "function"
    },
    {
      "inputs": [
        {
          "internalType": "address",
          "name": "_token",
          "type": "address"
        },
        {
          "internalType": "address",
          "name": "_ownerAddress",
          "type": "address"
        }
      ],
      "name": "addTokenOwner",
      "outputs": [],
      "stateMutability": "nonpayable",
      "type": "function"
    },
    {
      "inputs": [
        {
          "internalType": "address",
          "name": "_token",
          "type": "address"
        },
        {
          "internalType": "address",
          "name": "_spender",
          "type": "address"
        },
        {
          "internalType": "uint256",
          "name": "_amount",
          "type": "uint256"
        }
      ],
      "name": "approveToken",
      "outputs": [],
      "stateMutability": "nonpayable",
      "type": "function"
    },
    {
      "inputs": [],
      "name": "authority",
      "outputs": [
        {
          "internalType": "address",
          "name": "",
          "type": "address"
        }
      ],
      "stateMutability": "view",
      "type": "function"
    },
    {
      "inputs": [
        {
          "internalType": "address",
          "name": "_cashTokenAddress",
          "type": "address"
        },
        {
          "internalType": "address",
          "name": "_newOwner",
          "type": "address"
        }
      ],
      "name": "changeCashTokenOwnerShip",
      "outputs": [],
      "stateMutability": "nonpayable",
      "type": "function"
    },
    {
      "inputs": [
        {
          "internalType": "address",
          "name": "_token",
          "type": "address"
        },
        {
          "internalType": "address",
          "name": "_from",
          "type": "address"
        },
        {
          "internalType": "uint256",
          "name": "_amount",
          "type": "uint256"
        }
      ],
      "name": "claimToken",
      "outputs": [],
      "stateMutability": "nonpayable",
      "type": "function"
    },
    {
      "inputs": [
        {
          "internalType": "address",
          "name": "_token",
          "type": "address"
        },
        {
          "internalType": "address",
          "name": "_from",
          "type": "address"
        }
      ],
      "name": "getAllowanceAndBalance",
      "outputs": [
        {
          "internalType": "uint256",
          "name": "allowance",
          "type": "uint256"
        },
        {
          "internalType": "uint256",
          "name": "balance",
          "type": "uint256"
        }
      ],
      "stateMutability": "view",
      "type": "function"
    },
    {
      "inputs": [],
      "name": "isConsumingScheduledOp",
      "outputs": [
        {
          "internalType": "bytes4",
          "name": "",
          "type": "bytes4"
        }
      ],
      "stateMutability": "view",
      "type": "function"
    },
    {
      "inputs": [
        {
          "internalType": "address",
          "name": "_address",
          "type": "address"
        }
      ],
      "name": "isOwner",
      "outputs": [
        {
          "internalType": "bool",
          "name": "",
          "type": "bool"
        }
      ],
      "stateMutability": "view",
      "type": "function"
    },
    {
      "inputs": [],
      "name": "listOwners",
      "outputs": [
        {
          "internalType": "address[]",
          "name": "",
          "type": "address[]"
        }
      ],
      "stateMutability": "view",
      "type": "function"
    },
    {
      "inputs": [
        {
          "internalType": "address",
          "name": "_token",
          "type": "address"
        },
        {
          "internalType": "uint256",
          "name": "_amount",
          "type": "uint256"
        }
      ],
      "name": "mintToken",
      "outputs": [],
      "stateMutability": "nonpayable",
      "type": "function"
    },
    {
      "inputs": [
        {
          "internalType": "address",
          "name": "_projectToken",
          "type": "address"
        },
        {
          "internalType": "address",
          "name": "_projectAddress",
          "type": "address"
        },
        {
          "internalType": "address",
          "name": "_cashToken",
          "type": "address"
        },
        {
          "internalType": "address",
          "name": "_cashTokenReciever",
          "type": "address"
        },
        {
          "internalType": "uint256",
          "name": "_amount",
          "type": "uint256"
        }
      ],
      "name": "mintTokens",
      "outputs": [
        {
          "internalType": "bool",
          "name": "",
          "type": "bool"
        }
      ],
      "stateMutability": "nonpayable",
      "type": "function"
    },
    {
      "inputs": [
        {
          "internalType": "bytes[]",
          "name": "data",
          "type": "bytes[]"
        }
      ],
      "name": "multicall",
      "outputs": [
        {
          "internalType": "bytes[]",
          "name": "results",
          "type": "bytes[]"
        }
      ],
      "stateMutability": "nonpayable",
      "type": "function"
    },
    {
      "inputs": [],
      "name": "ownerCount",
      "outputs": [
        {
          "internalType": "uint256",
          "name": "",
          "type": "uint256"
        }
      ],
      "stateMutability": "view",
      "type": "function"
    },
    {
      "inputs": [
        {
          "internalType": "address",
          "name": "_projectAddress",
          "type": "address"
        },
        {
          "internalType": "bool",
          "name": "status",
          "type": "bool"
        }
      ],
      "name": "registerProject",
      "outputs": [],
      "stateMutability": "nonpayable",
      "type": "function"
    },
    {
      "inputs": [
        {
          "internalType": "address",
          "name": "_address",
          "type": "address"
        }
      ],
      "name": "removeOwner",
      "outputs": [
        {
          "internalType": "bool",
          "name": "success",
          "type": "bool"
        }
      ],
      "stateMutability": "nonpayable",
      "type": "function"
    },
    {
      "inputs": [
        {
          "internalType": "address",
          "name": "newAuthority",
          "type": "address"
        }
      ],
      "name": "setAuthority",
      "outputs": [],
      "stateMutability": "nonpayable",
      "type": "function"
    },
    {
      "inputs": [
        {
          "internalType": "bytes4",
          "name": "interfaceId",
          "type": "bytes4"
        }
      ],
      "name": "supportsInterface",
      "outputs": [
        {
          "internalType": "bool",
          "name": "",
          "type": "bool"
        }
      ],
      "stateMutability": "view",
      "type": "function"
    },
    {
      "inputs": [
        {
          "internalType": "uint256",
          "name": "",
          "type": "uint256"
        }
      ],
      "name": "tokenToDollarValue",
      "outputs": [
        {
          "internalType": "uint256",
          "name": "",
          "type": "uint256"
        }
      ],
      "stateMutability": "view",
      "type": "function"
    },
    {
      "inputs": [
        {
          "internalType": "address",
          "name": "_token",
          "type": "address"
        },
        {
          "internalType": "address",
          "name": "_from",
          "type": "address"
        },
        {
          "internalType": "address",
          "name": "_to",
          "type": "address"
        },
        {
          "internalType": "uint256",
          "name": "_amount",
          "type": "uint256"
        }
      ],
      "name": "transferFromToken",
      "outputs": [],
      "stateMutability": "nonpayable",
      "type": "function"
    },
    {
      "inputs": [
        {
          "internalType": "address",
          "name": "_token",
          "type": "address"
        },
        {
          "internalType": "address",
          "name": "_to",
          "type": "address"
        },
        {
          "internalType": "uint256",
          "name": "_amount",
          "type": "uint256"
        }
      ],
      "name": "transferToken",
      "outputs": [],
      "stateMutability": "nonpayable",
      "type": "function"
    }
  ],
  "bytecode": "0x608060405260326000553480156200001657600080fd5b5060405162001a3f38038062001a3f8339810160408190526200003991620001ea565b8062000045816200005a565b506200005182620000ae565b50505062000222565b600380546001600160a01b0319166001600160a01b0383169081179091556040519081527f2f658b440c35314f52658ea8a740e05b284cdc84dc9ae01e891f21b8933e7cad9060200160405180910390a150565b60008054620000be60016200014c565b1115620001035760405162461bcd60e51b815260206004820152600f60248201526e1bdddb995c9cc8195e18d959591959608a1b604482015260640160405180910390fd5b620001106001836200015d565b6040519091506001600160a01b038316907f994a936646fe87ffe4f1e469d3d6aa417d6b855598397f323de5b449f765f0c390600090a2919050565b600062000157825490565b92915050565b600062000174836001600160a01b0384166200017b565b9392505050565b6000818152600183016020526040812054620001c45750815460018181018455600084815260208082209093018490558454848252828601909352604090209190915562000157565b50600062000157565b80516001600160a01b0381168114620001e557600080fd5b919050565b60008060408385031215620001fe57600080fd5b6200020983620001cd565b91506200021960208401620001cd565b90509250929050565b61180d80620002326000396000f3fe608060405234801561001057600080fd5b50600436106101585760003560e01c80639a7b612a116100c3578063da3e33971161007c578063da3e33971461031e578063ec9e0e8714610331578063ed60c0fc14610344578063f36307cf14610359578063f5537ede14610379578063fb3c0d701461038c57600080fd5b80639a7b612a14610296578063a80f5612146102a4578063ac9650d8146102c7578063bf7e214f146102e7578063d293cf25146102f8578063d41c6f131461030b57600080fd5b80634937b174116101155780634937b174146101e95780637065cb481461021157806379c65068146102245780637a9e5e4b146102375780638fb360371461024a578063904760631461026b57600080fd5b806301ffc9a71461015d5780630db0262214610185578063125bfb661461019b578063173825d9146101b05780632cb5568e146101c35780632f54bf6e146101d6575b600080fd5b61017061016b366004611245565b61039f565b60405190151581526020015b60405180910390f35b61018d6103d6565b60405190815260200161017c565b6101ae6101a9366004611286565b6103e7565b005b6101706101be3660046112c2565b610497565b6101ae6101d13660046112dd565b610507565b6101706101e43660046112c2565b610585565b6101fc6101f73660046112dd565b610592565b6040805192835260208301919091520161017c565b61017061021f3660046112c2565b61067b565b6101ae610232366004611307565b6106b2565b6101ae6102453660046112c2565b610723565b61025261079d565b6040516001600160e01b0319909116815260200161017c565b60065461027e906001600160a01b031681565b6040516001600160a01b03909116815260200161017c565b610252630ae9aa6960e31b81565b6101706102b23660046112c2565b60056020526000908152604090205460ff1681565b6102da6102d5366004611331565b6107c3565b60405161017c91906113ca565b6003546001600160a01b031661027e565b6101ae610306366004611452565b6108ab565b610170610319366004611489565b6108df565b6101ae61032c366004611286565b610a80565b6101ae61033f3660046112dd565b610adc565b61034c610b44565b60405161017c91906114e5565b61018d610367366004611532565b60046020526000908152604090205481565b6101ae610387366004611286565b610b50565b6101ae61039a36600461154b565b610bac565b60006001600160e01b03198216630ae9aa6960e31b14806103d057506301ffc9a760e01b6001600160e01b03198316145b92915050565b60006103e26001610c55565b905090565b6103f2600133610c5f565b6104175760405162461bcd60e51b815260040161040e90611596565b60405180910390fd5b6040516323b872dd60e01b81526001600160a01b038381166004830152306024830152604482018390528416906323b872dd906064015b6020604051808303816000875af115801561046d573d6000803e3d6000fd5b505050506040513d601f19601f8201168201806040525081019061049191906115dd565b50505050565b60006104a4600133610c5f565b6104c05760405162461bcd60e51b815260040161040e90611596565b6104cb600183610c84565b6040519091506001600160a01b038316907f58619076adf5bb0943d100ef88d52d7c3fd691b19d3a9071b555b651fbf418da90600090a2919050565b610514335b600036610c99565b604051630e0cb96960e31b81526001600160a01b038281166004830152831690637065cb48906024016020604051808303816000875af115801561055c573d6000803e3d6000fd5b505050506040513d601f19601f8201168201806040525081019061058091906115dd565b505050565b60006103d0600183610c5f565b604051636eb1769f60e11b81526001600160a01b038281166004830152306024830152600091829185169063dd62ed3e90604401602060405180830381865afa1580156105e3573d6000803e3d6000fd5b505050506040513d601f19601f8201168201806040525081019061060791906115fa565b6040516370a0823160e01b81523060048201529092506001600160a01b038516906370a0823190602401602060405180830381865afa15801561064e573d6000803e3d6000fd5b505050506040513d601f19601f8201168201806040525081019061067291906115fa565b90509250929050565b6000610688600133610c5f565b6106a45760405162461bcd60e51b815260040161040e90611596565b6103d082610d92565b919050565b6040516340c10f1960e01b8152306004820152602481018290526001600160a01b038316906340c10f19906044016020604051808303816000875af11580156106ff573d6000803e3d6000fd5b505050506040513d601f19601f8201168201806040525081019061058091906115fa565b60035433906001600160a01b0316811461075a5760405162d1953b60e31b81526001600160a01b038216600482015260240161040e565b816001600160a01b03163b600003610790576040516361798f2f60e11b81526001600160a01b038316600482015260240161040e565b61079982610e27565b5050565b600354600090600160a01b900460ff166107b75750600090565b50638fb3603760e01b90565b6040805160008152602081019091526060908267ffffffffffffffff8111156107ee576107ee61165e565b60405190808252806020026020018201604052801561082157816020015b606081526020019060019003908161080c5790505b50915060005b838110156108a35761087e3086868481811061084557610845611674565b9050602002810190610857919061168a565b8560405160200161086a939291906116d8565b604051602081830303815290604052610e7b565b83828151811061089057610890611674565b6020908102919091010152600101610827565b505092915050565b6108b43361050c565b6001600160a01b03919091166000908152600560205260409020805460ff1916911515919091179055565b60006108ea3361050c565b6040516340c10f1960e01b81526001600160a01b038681166004830152602482018490528791908216906340c10f19906044016020604051808303816000875af115801561093c573d6000803e3d6000fd5b505050506040513d601f19601f8201168201806040525081019061096091906115fa565b506040516340c10f1960e01b81526001600160a01b038581166004830152602482018590528616906340c10f1990604401600060405180830381600087803b1580156109ab57600080fd5b505af11580156109bf573d6000803e3d6000fd5b50506040516397b53ca360e01b81526001600160a01b038a8116600483015260248201879052891692506397b53ca39150604401600060405180830381600087803b158015610a0d57600080fd5b505af1158015610a21573d6000803e3d6000fd5b5050604080516001600160a01b03888116825260208201889052808a1694508a811693508b16917f4f210daf637a00b98720665c8394937fc30dae4b1933e50fc868b32f82051da8910160405180910390a45060019695505050505050565b610a8b600133610c5f565b610aa75760405162461bcd60e51b815260040161040e90611596565b60405163095ea7b360e01b81526001600160a01b0383811660048301526024820183905284169063095ea7b39060440161044e565b610ae53361050c565b60405163f2fde38b60e01b81526001600160a01b03828116600483015283169063f2fde38b90602401600060405180830381600087803b158015610b2857600080fd5b505af1158015610b3c573d6000803e3d6000fd5b505050505050565b60606103e26001610ef1565b610b5b600133610c5f565b610b775760405162461bcd60e51b815260040161040e90611596565b60405163a9059cbb60e01b81526001600160a01b0383811660048301526024820183905284169063a9059cbb9060440161044e565b610bb7600133610c5f565b610bd35760405162461bcd60e51b815260040161040e90611596565b6040516323b872dd60e01b81526001600160a01b0384811660048301528381166024830152604482018390528516906323b872dd906064016020604051808303816000875af1158015610c2a573d6000803e3d6000fd5b505050506040513d601f19601f82011682018060405250810190610c4e91906115dd565b5050505050565b60006103d0825490565b6001600160a01b038116600090815260018301602052604081205415155b9392505050565b6000610c7d836001600160a01b038416610efe565b600080610ccf610cb16003546001600160a01b031690565b8630610cc160046000898b611634565b610cca916116ff565b610ff1565b9150915081610c4e5763ffffffff811615610d6f576003805460ff60a01b198116600160a01b17909155604051634a63ebf760e11b81526001600160a01b03909116906394c7d7ee90610d2a9088908890889060040161172d565b600060405180830381600087803b158015610d4457600080fd5b505af1158015610d58573d6000803e3d6000fd5b50506003805460ff60a01b1916905550610c4e9050565b60405162d1953b60e31b81526001600160a01b038616600482015260240161040e565b60008054610da06001610c55565b1115610de05760405162461bcd60e51b815260206004820152600f60248201526e1bdddb995c9cc8195e18d959591959608a1b604482015260640161040e565b610deb6001836110fd565b6040519091506001600160a01b038316907f994a936646fe87ffe4f1e469d3d6aa417d6b855598397f323de5b449f765f0c390600090a2919050565b600380546001600160a01b0319166001600160a01b0383169081179091556040519081527f2f658b440c35314f52658ea8a740e05b284cdc84dc9ae01e891f21b8933e7cad9060200160405180910390a150565b6060600080846001600160a01b031684604051610e98919061176d565b600060405180830381855af49150503d8060008114610ed3576040519150601f19603f3d011682016040523d82523d6000602084013e610ed8565b606091505b5091509150610ee8858383611112565b95945050505050565b60606000610c7d8361116e565b60008181526001830160205260408120548015610fe7576000610f22600183611613565b8554909150600090610f3690600190611613565b9050808214610f9b576000866000018281548110610f5657610f56611674565b9060005260206000200154905080876000018481548110610f7957610f79611674565b6000918252602080832090910192909255918252600188019052604090208390555b8554869080610fac57610fac611789565b6001900381819060005260206000200160009055905585600101600086815260200190815260200160002060009055600193505050506103d0565b60009150506103d0565b6040516001600160a01b03848116602483015283811660448301526001600160e01b03198316606483015260009182918291829189169060840160408051601f198184030181529181526020820180516001600160e01b031663b700961360e01b17905251611060919061176d565b600060405180830381855afa9150503d806000811461109b576040519150601f19603f3d011682016040523d82523d6000602084013e6110a0565b606091505b509150915081156110f25760408151106110d257808060200190518101906110c8919061179f565b90945092506110f2565b60208151106110f257808060200190518101906110ef91906115dd565b93505b505094509492505050565b6000610c7d836001600160a01b0384166111ca565b6060826111275761112282611219565b610c7d565b815115801561113e57506001600160a01b0384163b155b1561116757604051639996b31560e01b81526001600160a01b038516600482015260240161040e565b5092915050565b6060816000018054806020026020016040519081016040528092919081815260200182805480156111be57602002820191906000526020600020905b8154815260200190600101908083116111aa575b50505050509050919050565b6000818152600183016020526040812054611211575081546001818101845560008481526020808220909301849055845484825282860190935260409020919091556103d0565b5060006103d0565b8051156112295780518082602001fd5b604051630a12f52160e11b815260040160405180910390fd5b50565b60006020828403121561125757600080fd5b81356001600160e01b031981168114610c7d57600080fd5b80356001600160a01b03811681146106ad57600080fd5b60008060006060848603121561129b57600080fd5b6112a48461126f565b92506112b26020850161126f565b9150604084013590509250925092565b6000602082840312156112d457600080fd5b610c7d8261126f565b600080604083850312156112f057600080fd5b6112f98361126f565b91506106726020840161126f565b6000806040838503121561131a57600080fd5b6113238361126f565b946020939093013593505050565b6000806020838503121561134457600080fd5b823567ffffffffffffffff8082111561135c57600080fd5b818501915085601f83011261137057600080fd5b81358181111561137f57600080fd5b8660208260051b850101111561139457600080fd5b60209290920196919550909350505050565b60005b838110156113c15781810151838201526020016113a9565b50506000910152565b6000602080830181845280855180835260408601915060408160051b870101925083870160005b8281101561143757878503603f1901845281518051808752611418818989018a85016113a6565b601f01601f1916959095018601945092850192908501906001016113f1565b5092979650505050505050565b801515811461124257600080fd5b6000806040838503121561146557600080fd5b61146e8361126f565b9150602083013561147e81611444565b809150509250929050565b600080600080600060a086880312156114a157600080fd5b6114aa8661126f565b94506114b86020870161126f565b93506114c66040870161126f565b92506114d46060870161126f565b949793965091946080013592915050565b6020808252825182820181905260009190848201906040850190845b818110156115265783516001600160a01b031683529284019291840191600101611501565b50909695505050505050565b60006020828403121561154457600080fd5b5035919050565b6000806000806080858703121561156157600080fd5b61156a8561126f565b93506115786020860161126f565b92506115866040860161126f565b9396929550929360600135925050565b60208082526027908201527f4f6e6c79206f776e65722063616e20657865637574652074686973207472616e60408201526639b0b1ba34b7b760c91b606082015260800190565b6000602082840312156115ef57600080fd5b8151610c7d81611444565b60006020828403121561160c57600080fd5b5051919050565b818103818111156103d057634e487b7160e01b600052601160045260246000fd5b6000808585111561164457600080fd5b8386111561165157600080fd5b5050820193919092039150565b634e487b7160e01b600052604160045260246000fd5b634e487b7160e01b600052603260045260246000fd5b6000808335601e198436030181126116a157600080fd5b83018035915067ffffffffffffffff8211156116bc57600080fd5b6020019150368190038213156116d157600080fd5b9250929050565b8284823760008382016000815283516116f58183602088016113a6565b0195945050505050565b6001600160e01b031981358181169160048510156108a35760049490940360031b84901b1690921692915050565b6001600160a01b03841681526040602082018190528101829052818360608301376000818301606090810191909152601f909201601f1916010192915050565b6000825161177f8184602087016113a6565b9190910192915050565b634e487b7160e01b600052603160045260246000fd5b600080604083850312156117b257600080fd5b82516117bd81611444565b602084015190925063ffffffff8116811461147e57600080fdfea26469706673582212209f1c74e38df90dafc0521c9a5a332bb7ae9dd731728e7a24fb3ef3d851a4fa0864736f6c63430008170033",
  "linkReferences": {},
  "deployedLinkReferences": {}
}