{
  "_format": "hh-sol-artifact-1",
  "contractName": "RahatToken",
  "sourceName": "src/contracts/RahatToken.sol",
  "abi": [
    {
      "inputs": [
        {
          "internalType": "address",
          "name": "_forwarder",
          "type": "address"
        },
        {
          "internalType": "string",
          "name": "_name",
          "type": "string"
        },
        {
          "internalType": "string",
          "name": "_symbol",
          "type": "string"
        },
        {
          "internalType": "address",
          "name": "_admin",
          "type": "address"
        },
        {
          "internalType": "uint8",
          "name": "_decimals",
          "type": "uint8"
        }
      ],
      "stateMutability": "nonpayable",
      "type": "constructor"
    },
    {
      "inputs": [
        {
          "internalType": "address",
          "name": "target",
          "type": "address"
        }
      ],
      "name": "AddressEmptyCode",
      "type": "error"
    },
    {
      "inputs": [
        {
          "internalType": "address",
          "name": "spender",
          "type": "address"
        },
        {
          "internalType": "uint256",
          "name": "allowance",
          "type": "uint256"
        },
        {
          "internalType": "uint256",
          "name": "needed",
          "type": "uint256"
        }
      ],
      "name": "ERC20InsufficientAllowance",
      "type": "error"
    },
    {
      "inputs": [
        {
          "internalType": "address",
          "name": "sender",
          "type": "address"
        },
        {
          "internalType": "uint256",
          "name": "balance",
          "type": "uint256"
        },
        {
          "internalType": "uint256",
          "name": "needed",
          "type": "uint256"
        }
      ],
      "name": "ERC20InsufficientBalance",
      "type": "error"
    },
    {
      "inputs": [
        {
          "internalType": "address",
          "name": "approver",
          "type": "address"
        }
      ],
      "name": "ERC20InvalidApprover",
      "type": "error"
    },
    {
      "inputs": [
        {
          "internalType": "address",
          "name": "receiver",
          "type": "address"
        }
      ],
      "name": "ERC20InvalidReceiver",
      "type": "error"
    },
    {
      "inputs": [
        {
          "internalType": "address",
          "name": "sender",
          "type": "address"
        }
      ],
      "name": "ERC20InvalidSender",
      "type": "error"
    },
    {
      "inputs": [
        {
          "internalType": "address",
          "name": "spender",
          "type": "address"
        }
      ],
      "name": "ERC20InvalidSpender",
      "type": "error"
    },
    {
      "inputs": [],
      "name": "FailedInnerCall",
      "type": "error"
    },
    {
      "anonymous": false,
      "inputs": [
        {
          "indexed": true,
          "internalType": "address",
          "name": "owner",
          "type": "address"
        },
        {
          "indexed": true,
          "internalType": "address",
          "name": "spender",
          "type": "address"
        },
        {
          "indexed": false,
          "internalType": "uint256",
          "name": "value",
          "type": "uint256"
        }
      ],
      "name": "Approval",
      "type": "event"
    },
    {
      "anonymous": false,
      "inputs": [
        {
          "indexed": true,
          "internalType": "address",
          "name": "",
          "type": "address"
        }
      ],
      "name": "OwnerAdded",
      "type": "event"
    },
    {
      "anonymous": false,
      "inputs": [
        {
          "indexed": true,
          "internalType": "address",
          "name": "",
          "type": "address"
        }
      ],
      "name": "OwnerRemoved",
      "type": "event"
    },
    {
      "anonymous": false,
      "inputs": [
        {
          "indexed": true,
          "internalType": "address",
          "name": "from",
          "type": "address"
        },
        {
          "indexed": true,
          "internalType": "address",
          "name": "to",
          "type": "address"
        },
        {
          "indexed": false,
          "internalType": "uint256",
          "name": "value",
          "type": "uint256"
        }
      ],
      "name": "Transfer",
      "type": "event"
    },
    {
      "anonymous": false,
      "inputs": [
        {
          "indexed": false,
          "internalType": "address",
          "name": "updatedBy",
          "type": "address"
        },
        {
          "indexed": false,
          "internalType": "string",
          "name": "description",
          "type": "string"
        }
      ],
      "name": "UpdatedDescription",
      "type": "event"
    },
    {
      "anonymous": false,
      "inputs": [
        {
          "indexed": false,
          "internalType": "string",
          "name": "currency",
          "type": "string"
        },
        {
          "indexed": false,
          "internalType": "uint256",
          "name": "price",
          "type": "uint256"
        }
      ],
      "name": "UpdatedTokenParams",
      "type": "event"
    },
    {
      "inputs": [
        {
          "internalType": "address",
          "name": "_address",
          "type": "address"
        }
      ],
      "name": "addOwner",
      "outputs": [
        {
          "internalType": "bool",
          "name": "success",
          "type": "bool"
        }
      ],
      "stateMutability": "nonpayable",
      "type": "function"
    },
    {
      "inputs": [
        {
          "internalType": "address",
          "name": "owner",
          "type": "address"
        },
        {
          "internalType": "address",
          "name": "spender",
          "type": "address"
        }
      ],
      "name": "allowance",
      "outputs": [
        {
          "internalType": "uint256",
          "name": "",
          "type": "uint256"
        }
      ],
      "stateMutability": "view",
      "type": "function"
    },
    {
      "inputs": [
        {
          "internalType": "address",
          "name": "spender",
          "type": "address"
        },
        {
          "internalType": "uint256",
          "name": "value",
          "type": "uint256"
        }
      ],
      "name": "approve",
      "outputs": [
        {
          "internalType": "bool",
          "name": "",
          "type": "bool"
        }
      ],
      "stateMutability": "nonpayable",
      "type": "function"
    },
    {
      "inputs": [
        {
          "internalType": "address",
          "name": "account",
          "type": "address"
        }
      ],
      "name": "balanceOf",
      "outputs": [
        {
          "internalType": "uint256",
          "name": "",
          "type": "uint256"
        }
      ],
      "stateMutability": "view",
      "type": "function"
    },
    {
      "inputs": [
        {
          "internalType": "uint256",
          "name": "value",
          "type": "uint256"
        }
      ],
      "name": "burn",
      "outputs": [],
      "stateMutability": "nonpayable",
      "type": "function"
    },
    {
      "inputs": [
        {
          "internalType": "address",
          "name": "_account",
          "type": "address"
        },
        {
          "internalType": "uint256",
          "name": "_value",
          "type": "uint256"
        }
      ],
      "name": "burnFrom",
      "outputs": [],
      "stateMutability": "nonpayable",
      "type": "function"
    },
    {
      "inputs": [],
      "name": "currency",
      "outputs": [
        {
          "internalType": "string",
          "name": "",
          "type": "string"
        }
      ],
      "stateMutability": "view",
      "type": "function"
    },
    {
      "inputs": [],
      "name": "decimals",
      "outputs": [
        {
          "internalType": "uint8",
          "name": "",
          "type": "uint8"
        }
      ],
      "stateMutability": "view",
      "type": "function"
    },
    {
      "inputs": [],
      "name": "description",
      "outputs": [
        {
          "internalType": "string",
          "name": "",
          "type": "string"
        }
      ],
      "stateMutability": "view",
      "type": "function"
    },
    {
      "inputs": [
        {
          "internalType": "address",
          "name": "_address",
          "type": "address"
        }
      ],
      "name": "isOwner",
      "outputs": [
        {
          "internalType": "bool",
          "name": "",
          "type": "bool"
        }
      ],
      "stateMutability": "view",
      "type": "function"
    },
    {
      "inputs": [
        {
          "internalType": "address",
          "name": "forwarder",
          "type": "address"
        }
      ],
      "name": "isTrustedForwarder",
      "outputs": [
        {
          "internalType": "bool",
          "name": "",
          "type": "bool"
        }
      ],
      "stateMutability": "view",
      "type": "function"
    },
    {
      "inputs": [],
      "name": "listOwners",
      "outputs": [
        {
          "internalType": "address[]",
          "name": "",
          "type": "address[]"
        }
      ],
      "stateMutability": "view",
      "type": "function"
    },
    {
      "inputs": [
        {
          "internalType": "address",
          "name": "_address",
          "type": "address"
        },
        {
          "internalType": "uint256",
          "name": "_amount",
          "type": "uint256"
        }
      ],
      "name": "mint",
      "outputs": [
        {
          "internalType": "uint256",
          "name": "",
          "type": "uint256"
        }
      ],
      "stateMutability": "nonpayable",
      "type": "function"
    },
    {
      "inputs": [
        {
          "internalType": "bytes[]",
          "name": "data",
          "type": "bytes[]"
        }
      ],
      "name": "multicall",
      "outputs": [
        {
          "internalType": "bytes[]",
          "name": "results",
          "type": "bytes[]"
        }
      ],
      "stateMutability": "nonpayable",
      "type": "function"
    },
    {
      "inputs": [],
      "name": "name",
      "outputs": [
        {
          "internalType": "string",
          "name": "",
          "type": "string"
        }
      ],
      "stateMutability": "view",
      "type": "function"
    },
    {
      "inputs": [],
      "name": "ownerCount",
      "outputs": [
        {
          "internalType": "uint256",
          "name": "",
          "type": "uint256"
        }
      ],
      "stateMutability": "view",
      "type": "function"
    },
    {
      "inputs": [],
      "name": "price",
      "outputs": [
        {
          "internalType": "uint256",
          "name": "",
          "type": "uint256"
        }
      ],
      "stateMutability": "view",
      "type": "function"
    },
    {
      "inputs": [
        {
          "internalType": "address",
          "name": "_address",
          "type": "address"
        }
      ],
      "name": "removeOwner",
      "outputs": [
        {
          "internalType": "bool",
          "name": "success",
          "type": "bool"
        }
      ],
      "stateMutability": "nonpayable",
      "type": "function"
    },
    {
      "inputs": [],
      "name": "symbol",
      "outputs": [
        {
          "internalType": "string",
          "name": "",
          "type": "string"
        }
      ],
      "stateMutability": "view",
      "type": "function"
    },
    {
      "inputs": [],
      "name": "totalSupply",
      "outputs": [
        {
          "internalType": "uint256",
          "name": "",
          "type": "uint256"
        }
      ],
      "stateMutability": "view",
      "type": "function"
    },
    {
      "inputs": [
        {
          "internalType": "address",
          "name": "to",
          "type": "address"
        },
        {
          "internalType": "uint256",
          "name": "value",
          "type": "uint256"
        }
      ],
      "name": "transfer",
      "outputs": [
        {
          "internalType": "bool",
          "name": "",
          "type": "bool"
        }
      ],
      "stateMutability": "nonpayable",
      "type": "function"
    },
    {
      "inputs": [
        {
          "internalType": "address",
          "name": "from",
          "type": "address"
        },
        {
          "internalType": "address",
          "name": "to",
          "type": "address"
        },
        {
          "internalType": "uint256",
          "name": "value",
          "type": "uint256"
        }
      ],
      "name": "transferFrom",
      "outputs": [
        {
          "internalType": "bool",
          "name": "",
          "type": "bool"
        }
      ],
      "stateMutability": "nonpayable",
      "type": "function"
    },
    {
      "inputs": [],
      "name": "trustedForwarder",
      "outputs": [
        {
          "internalType": "address",
          "name": "",
          "type": "address"
        }
      ],
      "stateMutability": "view",
      "type": "function"
    },
    {
      "inputs": [
        {
          "internalType": "string",
          "name": "_description",
          "type": "string"
        }
      ],
      "name": "updateDescription",
      "outputs": [],
      "stateMutability": "nonpayable",
      "type": "function"
    },
    {
      "inputs": [
        {
          "internalType": "string",
          "name": "_currency",
          "type": "string"
        },
        {
          "internalType": "uint256",
          "name": "_price",
          "type": "uint256"
        },
        {
          "internalType": "string",
          "name": "_description",
          "type": "string"
        }
      ],
      "name": "updateTokenParams",
      "outputs": [],
      "stateMutability": "nonpayable",
      "type": "function"
    }
  ],
  "bytecode": "0x60a060405260326000553480156200001657600080fd5b5060405162001c9c38038062001c9c833981016040819052620000399162000297565b84848460066200004a8382620003d4565b506007620000598282620003d4565b5050506001600160a01b0316608052620000738262000093565b506008805460ff191660ff9290921691909117905550620004a092505050565b60008054620000a3600162000131565b1115620000e85760405162461bcd60e51b815260206004820152600f60248201526e1bdddb995c9cc8195e18d959591959608a1b604482015260640160405180910390fd5b620000f560018362000142565b6040519091506001600160a01b038316907f994a936646fe87ffe4f1e469d3d6aa417d6b855598397f323de5b449f765f0c390600090a2919050565b60006200013c825490565b92915050565b600062000159836001600160a01b03841662000160565b9392505050565b6000818152600183016020526040812054620001a9575081546001818101845560008481526020808220909301849055845484825282860190935260409020919091556200013c565b5060006200013c565b80516001600160a01b0381168114620001ca57600080fd5b919050565b634e487b7160e01b600052604160045260246000fd5b600082601f830112620001f757600080fd5b81516001600160401b0380821115620002145762000214620001cf565b604051601f8301601f19908116603f011681019082821181831017156200023f576200023f620001cf565b81604052838152602092508660208588010111156200025d57600080fd5b600091505b8382101562000281578582018301518183018401529082019062000262565b6000602085830101528094505050505092915050565b600080600080600060a08688031215620002b057600080fd5b620002bb86620001b2565b60208701519095506001600160401b0380821115620002d957600080fd5b620002e789838a01620001e5565b95506040880151915080821115620002fe57600080fd5b506200030d88828901620001e5565b9350506200031e60608701620001b2565b9150608086015160ff811681146200033557600080fd5b809150509295509295909350565b600181811c908216806200035857607f821691505b6020821081036200037957634e487b7160e01b600052602260045260246000fd5b50919050565b601f821115620003cf576000816000526020600020601f850160051c81016020861015620003aa5750805b601f850160051c820191505b81811015620003cb57828155600101620003b6565b5050505b505050565b81516001600160401b03811115620003f057620003f0620001cf565b620004088162000401845462000343565b846200037f565b602080601f831160018114620004405760008415620004275750858301515b600019600386901b1c1916600185901b178555620003cb565b600085815260208120601f198616915b82811015620004715788860151825594840194600190910190840162000450565b5085821015620004905787850151600019600388901b60f8161c191681555b5050505050600190811b01905550565b6080516117d2620004ca6000396000818161025d015281816102f10152610baa01526117d26000f3fe608060405234801561001057600080fd5b50600436106101735760003560e01c806370a08231116100de578063a9059cbb11610097578063dd62ed3e11610071578063dd62ed3e14610372578063e5a6b10f146103ab578063e735b48a146103b3578063ed60c0fc146103c657600080fd5b8063a9059cbb1461032c578063ac9650d81461033f578063c6e0e0f71461035f57600080fd5b806370a08231146102a05780637284e416146102c957806379cc6790146102d15780637da0a877146102e457806395d89b411461031b578063a035b1fe1461032357600080fd5b80632f54bf6e116101305780632f54bf6e146101fd578063313ce5671461021057806340c10f191461022557806342966c6814610238578063572b6c051461024d5780637065cb481461028d57600080fd5b806306fdde0314610178578063095ea7b3146101965780630db02622146101b9578063173825d9146101cf57806318160ddd146101e257806323b872dd146101ea575b600080fd5b6101806103db565b60405161018d9190611096565b60405180910390f35b6101a96101a43660046110c0565b61046d565b604051901515815260200161018d565b6101c1610491565b60405190815260200161018d565b6101a96101dd3660046110ea565b6104a2565b6005546101c1565b6101a96101f8366004611105565b61051b565b6101a961020b3660046110ea565b61054b565b60085460405160ff909116815260200161018d565b6101c16102333660046110c0565b610558565b61024b610246366004611141565b610591565b005b6101a961025b3660046110ea565b7f00000000000000000000000000000000000000000000000000000000000000006001600160a01b0390811691161490565b6101a961029b3660046110ea565b6105a5565b6101c16102ae3660046110ea565b6001600160a01b031660009081526003602052604090205490565b6101806105dc565b61024b6102df3660046110c0565b61066a565b6040516001600160a01b037f000000000000000000000000000000000000000000000000000000000000000016815260200161018d565b610180610678565b6101c1600a5481565b6101a961033a3660046110c0565b610687565b61035261034d36600461115a565b61069f565b60405161018d91906111cf565b61024b61036d3660046112d6565b6107fe565b6101c1610380366004611343565b6001600160a01b03918216600090815260046020908152604080832093909416825291909152205490565b61018061085e565b61024b6103c1366004611376565b61086b565b6103ce6108b4565b60405161018d91906113b3565b6060600680546103ea90611400565b80601f016020809104026020016040519081016040528092919081815260200182805461041690611400565b80156104635780601f1061043857610100808354040283529160200191610463565b820191906000526020600020905b81548152906001019060200180831161044657829003601f168201915b5050505050905090565b6000806104786108c0565b90506104858185856108ca565b60019150505b92915050565b600061049d60016108dc565b905090565b60006104af6001336108e6565b6104d45760405162461bcd60e51b81526004016104cb90611434565b60405180910390fd5b6104df600183610908565b6040519091506001600160a01b038316907f58619076adf5bb0943d100ef88d52d7c3fd691b19d3a9071b555b651fbf418da90600090a2919050565b6000806105266108c0565b905061053385828561091d565b61053e85858561099b565b60019150505b9392505050565b600061048b6001836108e6565b60006105656001336108e6565b6105815760405162461bcd60e51b81526004016104cb90611434565b61058b83836109fa565b50919050565b6105a261059c6108c0565b82610a30565b50565b60006105b26001336108e6565b6105ce5760405162461bcd60e51b81526004016104cb90611434565b61048b82610a66565b919050565b600980546105e990611400565b80601f016020809104026020016040519081016040528092919081815260200182805461061590611400565b80156106625780601f1061063757610100808354040283529160200191610662565b820191906000526020600020905b81548152906001019060200180831161064557829003601f168201915b505050505081565b6106748282610afb565b5050565b6060600780546103ea90611400565b6000806106926108c0565b905061048581858561099b565b606060006106ab6108c0565b6001600160a01b0316336001600160a01b031614610716576000366106d1601482611491565b6106dc9282906114a4565b8080601f01602080910402602001604051908101604052809392919081815260200183838082843760009201919091525061072692505050565b6040805160008152602081019091525b90508267ffffffffffffffff81111561074157610741611233565b60405190808252806020026020018201604052801561077457816020015b606081526020019060019003908161075f5790505b50915060005b838110156107f6576107d130868684818110610798576107986114ce565b90506020028101906107aa91906114e4565b856040516020016107bd93929190611532565b604051602081830303815290604052610b17565b8382815181106107e3576107e36114ce565b602090810291909101015260010161077a565b505092915050565b600a829055600b61080f84826115a9565b50600961081c82826115a9565b507fd451c21e76a309508868143bc431a6c4c3a3d0ce8412f749b963b6ff89f68bc6600b600a54604051610851929190611669565b60405180910390a1505050565b600b80546105e990611400565b600961087782826115a9565b507ff2cd56bf14028012848e205a2d01ce23158607be1f97f7c50d82100876af787a33826040516108a9929190611700565b60405180910390a150565b606061049d6001610b8d565b600061049d610b9a565b6108d78383836001610c0f565b505050565b600061048b825490565b6001600160a01b03811660009081526001830160205260408120541515610544565b6000610544836001600160a01b038416610ce4565b6001600160a01b038381166000908152600460209081526040808320938616835292905220546000198114610995578181101561098657604051637dc7a0d960e11b81526001600160a01b038416600482015260248101829052604481018390526064016104cb565b61099584848484036000610c0f565b50505050565b6001600160a01b0383166109c557604051634b637e8f60e11b8152600060048201526024016104cb565b6001600160a01b0382166109ef5760405163ec442f0560e01b8152600060048201526024016104cb565b6108d7838383610dd7565b6001600160a01b038216610a245760405163ec442f0560e01b8152600060048201526024016104cb565b61067460008383610dd7565b6001600160a01b038216610a5a57604051634b637e8f60e11b8152600060048201526024016104cb565b61067482600083610dd7565b60008054610a7460016108dc565b1115610ab45760405162461bcd60e51b815260206004820152600f60248201526e1bdddb995c9cc8195e18d959591959608a1b60448201526064016104cb565b610abf600183610f01565b6040519091506001600160a01b038316907f994a936646fe87ffe4f1e469d3d6aa417d6b855598397f323de5b449f765f0c390600090a2919050565b610b0d82610b076108c0565b8361091d565b6106748282610a30565b6060600080846001600160a01b031684604051610b349190611724565b600060405180830381855af49150503d8060008114610b6f576040519150601f19603f3d011682016040523d82523d6000602084013e610b74565b606091505b5091509150610b84858383610f16565b95945050505050565b6060600061054483610f72565b6000366014336001600160a01b037f000000000000000000000000000000000000000000000000000000000000000016148015610bd75750808210155b15610c0757600036610be98385611491565b610bf49282906114a4565b610bfd91611740565b60601c9250505090565b339250505090565b6001600160a01b038416610c395760405163e602df0560e01b8152600060048201526024016104cb565b6001600160a01b038316610c6357604051634a1406b160e11b8152600060048201526024016104cb565b6001600160a01b038085166000908152600460209081526040808320938716835292905220829055801561099557826001600160a01b0316846001600160a01b03167f8c5be1e5ebec7d5bd14f71427d1e84f3dd0314c0f7b2291e5b200ac8c7c3b92584604051610cd691815260200190565b60405180910390a350505050565b60008181526001830160205260408120548015610dcd576000610d08600183611491565b8554909150600090610d1c90600190611491565b9050808214610d81576000866000018281548110610d3c57610d3c6114ce565b9060005260206000200154905080876000018481548110610d5f57610d5f6114ce565b6000918252602080832090910192909255918252600188019052604090208390555b8554869080610d9257610d92611773565b60019003818190600052602060002001600090559055856001016000868152602001908152602001600020600090556001935050505061048b565b600091505061048b565b6001600160a01b038316610e02578060056000828254610df79190611789565b90915550610e749050565b6001600160a01b03831660009081526003602052604090205481811015610e555760405163391434e360e21b81526001600160a01b038516600482015260248101829052604481018390526064016104cb565b6001600160a01b03841660009081526003602052604090209082900390555b6001600160a01b038216610e9057600580548290039055610eaf565b6001600160a01b03821660009081526003602052604090208054820190555b816001600160a01b0316836001600160a01b03167fddf252ad1be2c89b69c2b068fc378daa952ba7f163c4a11628f55a4df523b3ef83604051610ef491815260200190565b60405180910390a3505050565b6000610544836001600160a01b038416610fce565b606082610f2b57610f268261101d565b610544565b8151158015610f4257506001600160a01b0384163b155b15610f6b57604051639996b31560e01b81526001600160a01b03851660048201526024016104cb565b5080610544565b606081600001805480602002602001604051908101604052809291908181526020018280548015610fc257602002820191906000526020600020905b815481526020019060010190808311610fae575b50505050509050919050565b60008181526001830160205260408120546110155750815460018181018455600084815260208082209093018490558454848252828601909352604090209190915561048b565b50600061048b565b80511561102d5780518082602001fd5b604051630a12f52160e11b815260040160405180910390fd5b60005b83811015611061578181015183820152602001611049565b50506000910152565b60008151808452611082816020860160208601611046565b601f01601f19169290920160200192915050565b602081526000610544602083018461106a565b80356001600160a01b03811681146105d757600080fd5b600080604083850312156110d357600080fd5b6110dc836110a9565b946020939093013593505050565b6000602082840312156110fc57600080fd5b610544826110a9565b60008060006060848603121561111a57600080fd5b611123846110a9565b9250611131602085016110a9565b9150604084013590509250925092565b60006020828403121561115357600080fd5b5035919050565b6000806020838503121561116d57600080fd5b823567ffffffffffffffff8082111561118557600080fd5b818501915085601f83011261119957600080fd5b8135818111156111a857600080fd5b8660208260051b85010111156111bd57600080fd5b60209290920196919550909350505050565b600060208083016020845280855180835260408601915060408160051b87010192506020870160005b8281101561122657603f1988860301845261121485835161106a565b945092850192908501906001016111f8565b5092979650505050505050565b634e487b7160e01b600052604160045260246000fd5b600082601f83011261125a57600080fd5b813567ffffffffffffffff8082111561127557611275611233565b604051601f8301601f19908116603f0116810190828211818310171561129d5761129d611233565b816040528381528660208588010111156112b657600080fd5b836020870160208301376000602085830101528094505050505092915050565b6000806000606084860312156112eb57600080fd5b833567ffffffffffffffff8082111561130357600080fd5b61130f87838801611249565b945060208601359350604086013591508082111561132c57600080fd5b5061133986828701611249565b9150509250925092565b6000806040838503121561135657600080fd5b61135f836110a9565b915061136d602084016110a9565b90509250929050565b60006020828403121561138857600080fd5b813567ffffffffffffffff81111561139f57600080fd5b6113ab84828501611249565b949350505050565b6020808252825182820181905260009190848201906040850190845b818110156113f45783516001600160a01b0316835292840192918401916001016113cf565b50909695505050505050565b600181811c9082168061141457607f821691505b60208210810361058b57634e487b7160e01b600052602260045260246000fd5b60208082526027908201527f4f6e6c79206f776e65722063616e20657865637574652074686973207472616e60408201526639b0b1ba34b7b760c91b606082015260800190565b634e487b7160e01b600052601160045260246000fd5b8181038181111561048b5761048b61147b565b600080858511156114b457600080fd5b838611156114c157600080fd5b5050820193919092039150565b634e487b7160e01b600052603260045260246000fd5b6000808335601e198436030181126114fb57600080fd5b83018035915067ffffffffffffffff82111561151657600080fd5b60200191503681900382131561152b57600080fd5b9250929050565b82848237600083820160008152835161154f818360208801611046565b0195945050505050565b601f8211156108d7576000816000526020600020601f850160051c810160208610156115825750805b601f850160051c820191505b818110156115a15782815560010161158e565b505050505050565b815167ffffffffffffffff8111156115c3576115c3611233565b6115d7816115d18454611400565b84611559565b602080601f83116001811461160c57600084156115f45750858301515b600019600386901b1c1916600185901b1785556115a1565b600085815260208120601f198616915b8281101561163b5788860151825594840194600190910190840161161c565b50858210156116595787850151600019600388901b60f8161c191681555b5050505050600190811b01905550565b60408152600080845461167b81611400565b806040860152606060018084166000811461169d57600181146116b9576116eb565b60ff1985166060890152606084151560051b89010195506116eb565b8960005260208060002060005b868110156116e15781548b82018701529084019082016116c6565b8a01606001975050505b50505050506020929092019290925292915050565b6001600160a01b03831681526040602082018190526000906113ab9083018461106a565b60008251611736818460208701611046565b9190910192915050565b6bffffffffffffffffffffffff1981358181169160148510156107f65760149490940360031b84901b1690921692915050565b634e487b7160e01b600052603160045260246000fd5b8082018082111561048b5761048b61147b56fea2646970667358221220f0e1e07ff726c31d019275d6245161284cd2f3f6be4852ff22176a4eafa33c8a64736f6c63430008170033",
  "linkReferences": {},
  "deployedLinkReferences": {}
}