{
  "_format": "hh-sol-artifact-1",
  "contractName": "AAProject",
  "sourceName": "src/contracts/AAProject.sol",
  "abi": [
    {
      "inputs": [
        {
          "internalType": "string",
          "name": "_name",
          "type": "string"
        },
        {
          "internalType": "address",
          "name": "_defaultToken",
          "type": "address"
        },
        {
          "internalType": "address",
          "name": "_forwarder",
          "type": "address"
        },
        {
          "internalType": "address",
          "name": "_accessManager",
          "type": "address"
        },
        {
          "internalType": "address",
          "name": "_accessManager",
          "type": "address"
        },
        {
          "internalType": "address",
          "name": "_triggerManager",
          "type": "address"
        }
      ],
      "stateMutability": "nonpayable",
      "type": "constructor"
    },
    {
      "inputs": [
        {
          "internalType": "address",
          "name": "authority",
          "type": "address"
        }
      ],
      "name": "AccessManagedInvalidAuthority",
      "type": "error"
    },
    {
      "inputs": [
        {
          "internalType": "address",
          "name": "caller",
          "type": "address"
        },
        {
          "internalType": "uint32",
          "name": "delay",
          "type": "uint32"
        }
      ],
      "name": "AccessManagedRequiredDelay",
      "type": "error"
    },
    {
      "inputs": [
        {
          "internalType": "address",
          "name": "caller",
          "type": "address"
        }
      ],
      "name": "AccessManagedUnauthorized",
      "type": "error"
    },
    {
      "inputs": [
        {
          "internalType": "address",
          "name": "authority",
          "type": "address"
        }
      ],
      "name": "AccessManagedInvalidAuthority",
      "type": "error"
    },
    {
      "inputs": [
        {
          "internalType": "address",
          "name": "caller",
          "type": "address"
        },
        {
          "internalType": "uint32",
          "name": "delay",
          "type": "uint32"
        }
      ],
      "name": "AccessManagedRequiredDelay",
      "type": "error"
    },
    {
      "inputs": [
        {
          "internalType": "address",
          "name": "caller",
          "type": "address"
        }
      ],
      "name": "AccessManagedUnauthorized",
      "type": "error"
    },
    {
      "inputs": [
        {
          "internalType": "address",
          "name": "target",
          "type": "address"
        }
      ],
      "name": "AddressEmptyCode",
      "type": "error"
    },
    {
      "inputs": [],
      "name": "FailedInnerCall",
      "type": "error"
    },
    {
      "anonymous": false,
      "inputs": [
        {
          "indexed": false,
          "internalType": "address",
          "name": "authority",
          "type": "address"
        }
      ],
      "name": "AuthorityUpdated",
      "type": "event"
    },
    {
      "anonymous": false,
      "inputs": [
        {
          "indexed": false,
          "internalType": "address",
          "name": "authority",
          "type": "address"
        }
      ],
      "name": "AuthorityUpdated",
      "type": "event"
    },
    {
      "anonymous": false,
      "inputs": [
        {
          "indexed": true,
          "internalType": "address",
          "name": "beneficiary",
          "type": "address"
        },
        {
          "indexed": true,
          "internalType": "uint256",
          "name": "amount",
          "type": "uint256"
        }
      ],
      "name": "BenTokensAssigned",
      "type": "event"
    },
    {
      "anonymous": false,
      "inputs": [
        {
          "indexed": true,
          "internalType": "address",
          "name": "",
          "type": "address"
        }
      ],
      "name": "BeneficiaryAdded",
      "type": "event"
    },
    {
      "anonymous": false,
      "inputs": [
        {
          "indexed": true,
          "internalType": "address",
          "name": "",
          "type": "address"
        }
      ],
      "name": "BeneficiaryRemoved",
      "type": "event"
    },
    {
      "anonymous": false,
      "inputs": [
        {
          "indexed": true,
          "internalType": "address",
          "name": "beneficiary",
          "type": "address"
        },
        {
          "indexed": true,
          "internalType": "address",
          "name": "token",
          "type": "address"
        },
        {
          "indexed": true,
          "internalType": "address",
          "name": "assigner",
          "type": "address"
        }
      ],
      "name": "ClaimAssigned",
      "type": "event"
    },
    {
      "anonymous": false,
      "inputs": [
        {
          "indexed": true,
          "internalType": "address",
          "name": "tokenAddress",
          "type": "address"
        },
        {
          "indexed": false,
          "internalType": "uint256",
          "name": "amount",
          "type": "uint256"
        }
      ],
      "name": "TokenBudgetDecrease",
      "type": "event"
    },
    {
      "anonymous": false,
      "inputs": [
        {
          "indexed": true,
          "internalType": "address",
          "name": "tokenAddress",
          "type": "address"
        },
        {
          "indexed": false,
          "internalType": "uint256",
          "name": "amount",
          "type": "uint256"
        }
      ],
      "name": "TokenBudgetIncrease",
      "type": "event"
    },
    {
      "anonymous": false,
      "inputs": [
        {
          "indexed": true,
          "internalType": "address",
          "name": "token",
          "type": "address"
        },
        {
          "indexed": true,
          "internalType": "address",
          "name": "from",
          "type": "address"
        },
        {
          "indexed": false,
          "internalType": "uint256",
          "name": "amount",
          "type": "uint256"
        }
      ],
      "name": "TokenReceived",
      "type": "event"
    },
    {
      "anonymous": false,
      "inputs": [
        {
          "indexed": true,
          "internalType": "address",
          "name": "tokenAddress",
          "type": "address"
        }
      ],
      "name": "TokenRegistered",
      "type": "event"
    },
    {
      "anonymous": false,
      "inputs": [
        {
          "indexed": true,
          "internalType": "address",
          "name": "token",
          "type": "address"
        },
        {
          "indexed": true,
          "internalType": "address",
          "name": "to",
          "type": "address"
        },
        {
          "indexed": false,
          "internalType": "uint256",
          "name": "amount",
          "type": "uint256"
        }
      ],
      "name": "TokenTransfer",
      "type": "event"
    },
    {
      "anonymous": false,
      "inputs": [
        {
          "indexed": true,
          "internalType": "address",
          "name": "beneficiary",
          "type": "address"
        },
        {
          "indexed": true,
          "internalType": "address",
          "name": "vendor",
          "type": "address"
        },
        {
          "indexed": true,
          "internalType": "uint256",
          "name": "amount",
          "type": "uint256"
        }
      ],
      "name": "TokenTransferred",
      "type": "event"
    },
    {
      "anonymous": false,
      "inputs": [
        {
          "indexed": true,
          "internalType": "address",
          "name": "vendorAddress",
          "type": "address"
        },
        {
          "indexed": false,
          "internalType": "bool",
          "name": "status",
          "type": "bool"
        }
      ],
      "name": "VendorUpdated",
      "type": "event"
    },
    {
      "inputs": [],
      "name": "IID_RAHAT_PROJECT",
      "outputs": [
        {
          "internalType": "bytes4",
          "name": "",
          "type": "bytes4"
        }
      ],
      "stateMutability": "view",
      "type": "function"
    },
    {
      "inputs": [],
      "name": "TriggerManager",
      "outputs": [
        {
          "internalType": "contract ITriggerManager",
          "name": "",
          "type": "address"
        }
      ],
      "stateMutability": "view",
      "type": "function"
    },
    {
      "inputs": [
        {
          "internalType": "address",
          "name": "_address",
          "type": "address"
        }
      ],
      "name": "addBeneficiary",
      "outputs": [],
      "stateMutability": "nonpayable",
      "type": "function"
    },
    {
      "inputs": [
        {
          "internalType": "address",
          "name": "_beneficiary",
          "type": "address"
        },
        {
          "internalType": "uint256",
          "name": "_tokenAssigned",
          "type": "uint256"
        }
      ],
      "name": "assignClaims",
      "outputs": [],
      "stateMutability": "nonpayable",
      "type": "function"
    },
    {
      "inputs": [
        {
          "internalType": "address",
          "name": "_address",
          "type": "address"
        },
        {
          "internalType": "uint256",
          "name": "_amount",
          "type": "uint256"
        }
      ],
      "name": "assignTokenToBeneficiary",
      "outputs": [],
      "stateMutability": "nonpayable",
      "type": "function"
    },
    {
      "inputs": [],
      "name": "authority",
      "outputs": [
        {
          "internalType": "address",
          "name": "",
          "type": "address"
        }
      ],
      "stateMutability": "view",
      "type": "function"
    },
    {
      "inputs": [],
      "name": "authority",
      "outputs": [
        {
          "internalType": "address",
          "name": "",
          "type": "address"
        }
      ],
      "stateMutability": "view",
      "type": "function"
    },
    {
      "inputs": [
        {
          "internalType": "address",
          "name": "",
          "type": "address"
        }
      ],
      "name": "benTokens",
      "outputs": [
        {
          "internalType": "uint256",
          "name": "",
          "type": "uint256"
        }
      ],
      "stateMutability": "view",
      "type": "function"
    },
    {
      "inputs": [],
      "name": "beneficiaryCount",
      "outputs": [
        {
          "internalType": "uint256",
          "name": "",
          "type": "uint256"
        }
      ],
      "stateMutability": "view",
      "type": "function"
    },
    {
      "inputs": [
        {
          "internalType": "address",
          "name": "_address",
          "type": "address"
        }
      ],
      "name": "checkVendorStatus",
      "outputs": [
        {
          "internalType": "bool",
          "name": "_vendorStatus",
          "type": "bool"
        }
      ],
      "stateMutability": "view",
      "type": "function"
    },
    {
      "inputs": [],
      "name": "defaultToken",
      "outputs": [
        {
          "internalType": "address",
          "name": "",
          "type": "address"
        }
      ],
      "stateMutability": "view",
      "type": "function"
    },
    {
      "inputs": [
        {
          "internalType": "address",
          "name": "_tokenAddress",
          "type": "address"
        },
        {
          "internalType": "uint256",
          "name": "_amount",
          "type": "uint256"
        }
      ],
      "name": "increaseTokenBudget",
      "outputs": [],
      "stateMutability": "nonpayable",
      "type": "function"
    },
    {
      "inputs": [
        {
          "internalType": "address",
          "name": "_address",
          "type": "address"
        }
      ],
      "name": "isBeneficiary",
      "outputs": [
        {
          "internalType": "bool",
          "name": "",
          "type": "bool"
        }
      ],
      "stateMutability": "view",
      "type": "function"
    },
    {
      "inputs": [],
      "name": "isConsumingScheduledOp",
      "outputs": [
        {
          "internalType": "bytes4",
          "name": "",
          "type": "bytes4"
        }
      ],
      "stateMutability": "view",
      "type": "function"
    },
    {
      "inputs": [],
      "name": "isConsumingScheduledOp",
      "outputs": [
        {
          "internalType": "bytes4",
          "name": "",
          "type": "bytes4"
        }
      ],
      "stateMutability": "view",
      "type": "function"
    },
    {
      "inputs": [
        {
          "internalType": "address",
          "name": "forwarder",
          "type": "address"
        }
      ],
      "name": "isTrustedForwarder",
      "outputs": [
        {
          "internalType": "bool",
          "name": "",
          "type": "bool"
        }
      ],
      "stateMutability": "view",
      "type": "function"
    },
    {
      "inputs": [
        {
          "internalType": "bytes[]",
          "name": "data",
          "type": "bytes[]"
        }
      ],
      "name": "multicall",
      "outputs": [
        {
          "internalType": "bytes[]",
          "name": "results",
          "type": "bytes[]"
        }
      ],
      "stateMutability": "nonpayable",
      "type": "function"
    },
    {
      "inputs": [],
      "name": "name",
      "outputs": [
        {
          "internalType": "string",
          "name": "",
          "type": "string"
        }
      ],
      "stateMutability": "view",
      "type": "function"
    },
    {
      "inputs": [
        {
          "internalType": "address",
          "name": "",
          "type": "address"
        }
      ],
      "name": "registeredTokens",
      "outputs": [
        {
          "internalType": "bool",
          "name": "",
          "type": "bool"
        }
      ],
      "stateMutability": "view",
      "type": "function"
    },
    {
      "inputs": [
        {
          "internalType": "address",
          "name": "_address",
          "type": "address"
        }
      ],
      "name": "removeBeneficiary",
      "outputs": [],
      "stateMutability": "nonpayable",
      "type": "function"
    },
    {
      "inputs": [
        {
          "internalType": "address",
          "name": "newAuthority",
          "type": "address"
        }
      ],
      "name": "setAuthority",
      "outputs": [],
      "stateMutability": "nonpayable",
      "type": "function"
    },
    {
      "inputs": [
        {
          "internalType": "address",
          "name": "newAuthority",
          "type": "address"
        }
      ],
      "name": "setAuthority",
      "outputs": [],
      "stateMutability": "nonpayable",
      "type": "function"
    },
    {
      "inputs": [
        {
          "internalType": "bytes4",
          "name": "interfaceId",
          "type": "bytes4"
        }
      ],
      "name": "supportsInterface",
      "outputs": [
        {
          "internalType": "bool",
          "name": "",
          "type": "bool"
        }
      ],
      "stateMutability": "view",
      "type": "function"
    },
    {
      "inputs": [
        {
          "internalType": "address",
          "name": "_tokenAddress",
          "type": "address"
        }
      ],
      "name": "tokenBudget",
      "outputs": [
        {
          "internalType": "uint256",
          "name": "",
          "type": "uint256"
        }
      ],
      "stateMutability": "view",
      "type": "function"
    },
    {
      "inputs": [],
      "name": "totalClaimsAssigned",
      "outputs": [
        {
          "internalType": "uint256",
          "name": "_totalClaims",
          "type": "uint256"
        }
      ],
      "stateMutability": "view",
      "type": "function"
    },
    {
      "inputs": [
        {
          "internalType": "address",
          "name": "_benAddress",
          "type": "address"
        },
        {
          "internalType": "address",
          "name": "_vendorAddress",
          "type": "address"
        },
        {
          "internalType": "uint256",
          "name": "_amount",
          "type": "uint256"
        }
      ],
      "name": "transferTokenToVendor",
      "outputs": [],
      "stateMutability": "nonpayable",
      "type": "function"
    },
    {
      "inputs": [],
      "name": "trustedForwarder",
      "outputs": [
        {
          "internalType": "address",
          "name": "",
          "type": "address"
        }
      ],
      "stateMutability": "view",
      "type": "function"
    }
  ],
  "bytecode": "0x60a06040523480156200001157600080fd5b506040516200193c3803806200193c83398101604081905262000034916200011d565b8183866004620000458282620002ce565b50506001600160a01b03166080526200005e8162000096565b50600980546001600160a01b039586166001600160a01b0319918216179091556008805492909516911617909255506200039a915050565b600780546001600160a01b0319166001600160a01b0383169081179091556040519081527f2f658b440c35314f52658ea8a740e05b284cdc84dc9ae01e891f21b8933e7cad9060200160405180910390a150565b634e487b7160e01b600052604160045260246000fd5b80516001600160a01b03811681146200011857600080fd5b919050565b600080600080600060a086880312156200013657600080fd5b85516001600160401b03808211156200014e57600080fd5b818801915088601f8301126200016357600080fd5b815181811115620001785762000178620000ea565b604051601f8201601f19908116603f01168101908382118183101715620001a357620001a3620000ea565b81604052828152602093508b84848701011115620001c057600080fd5b600091505b82821015620001e45784820184015181830185015290830190620001c5565b6000848483010152809950505050620001ff81890162000100565b95505050620002116040870162000100565b9250620002216060870162000100565b9150620002316080870162000100565b90509295509295909350565b600181811c908216806200025257607f821691505b6020821081036200027357634e487b7160e01b600052602260045260246000fd5b50919050565b601f821115620002c9576000816000526020600020601f850160051c81016020861015620002a45750805b601f850160051c820191505b81811015620002c557828155600101620002b0565b5050505b505050565b81516001600160401b03811115620002ea57620002ea620000ea565b6200030281620002fb84546200023d565b8462000279565b602080601f8311600181146200033a5760008415620003215750858301515b600019600386901b1c1916600185901b178555620002c5565b600085815260208120601f198616915b828110156200036b578886015182559484019460019091019084016200034a565b50858210156200038a5787850151600019600388901b60f8161c191681555b5050505050600190811b01905550565b608051611578620003c4600039600081816102430152818161030a0152610f3201526115786000f3fe608060405234801561001057600080fd5b50600436106101585760003560e01c806374c13fda116100c35780639d19b2261161007c5780639d19b2261461036c578063aa12214f1461037f578063ac9650d814610392578063bf7e214f146103b2578063cd9f35af146103c3578063eb681e62146103d657600080fd5b806374c13fda146102e25780637a9e5e4b146102f55780637da0a877146103085780638c0bd9161461032e5780638fb360371461035157806397b53ca31461035957600080fd5b8063572b6c0511610115578063572b6c05146102335780635926651d1461027357806359633a1c1461028857806364c20dc11461029b5780636f4efa36146102ae578063734b2a7c146102da57600080fd5b806301ffc9a71461015d57806306fdde03146101965780631fe9497c146101ab5780634fc3171b146101d65780634fe21571146101ec578063501773ba14610213575b600080fd5b61018161016b36600461115e565b6001600160e01b031916634bf831d160e11b1490565b60405190151581526020015b60405180910390f35b61019e6103ff565b60405161018d91906111d8565b6008546101be906001600160a01b031681565b6040516001600160a01b03909116815260200161018d565b6101de61048d565b60405190815260200161018d565b6101fa634bf831d160e11b81565b6040516001600160e01b0319909116815260200161018d565b6101de610221366004611207565b600d6020526000908152604090205481565b610181610241366004611207565b7f00000000000000000000000000000000000000000000000000000000000000006001600160a01b0390811691161490565b610286610281366004611207565b6104e3565b005b610286610296366004611207565b6104ef565b6102866102a9366004611222565b6104f8565b6101816102bc366004611207565b6001600160a01b031660009081526003602052604090205460ff1690565b6101de61051c565b6009546101be906001600160a01b031681565b610286610303366004611207565b61052d565b7f00000000000000000000000000000000000000000000000000000000000000006101be565b61018161033c366004611207565b600c6020526000908152604090205460ff1681565b6101fa6105ca565b610286610367366004611222565b6105f0565b61018161037a366004611207565b6106d2565b61028661038d366004611222565b6106e5565b6103a56103a036600461124c565b61081b565b60405161018d91906112c1565b6007546001600160a01b03166101be565b6102866103d1366004611325565b61097a565b6101de6103e4366004611207565b6001600160a01b031660009081526001602052604090205490565b6004805461040c90611361565b80601f016020809104026020016040519081016040528092919081815260200182805461043890611361565b80156104855780601f1061045a57610100808354040283529160200191610485565b820191906000526020600020905b81548152906001019060200180831161046857829003601f168201915b505050505081565b6000805b61049b6005610afe565b8110156104df57600d60006104b1600584610b08565b6001600160a01b031681526020810191909152604001600020546104d590836113b1565b9150600101610491565b5090565b6104ec81610b1b565b50565b6104ec81610b6a565b6009546105189083906001600160a01b031683610513610bba565b610bc4565b5050565b60006105286005610afe565b905090565b6000610537610bba565b905061054b6007546001600160a01b031690565b6001600160a01b0316816001600160a01b03161461058b5760405162d1953b60e31b81526001600160a01b03821660048201526024015b60405180910390fd5b816001600160a01b03163b6000036105c1576040516361798f2f60e11b81526001600160a01b0383166004820152602401610582565b61051882610d0a565b600754600090600160a01b900460ff166105e45750600090565b50638fb3603760e01b90565b6001600160a01b03821660009081526001602052604090205461061382826113b1565b836001600160a01b03166318160ddd6040518163ffffffff1660e01b8152600401602060405180830381865afa158015610651573d6000803e3d6000fd5b505050506040513d601f19601f8201168201806040525081019061067591906113c4565b10156106c35760405162461bcd60e51b815260206004820152601960248201527f47726561746572207468616e20746f74616c20737570706c79000000000000006044820152606401610582565b6106cd8383610d5e565b505050565b60006106df600583610e36565b92915050565b806106ee61048d565b6106f891906113b1565b6009546040516370a0823160e01b81523060048201526001600160a01b03909116906370a0823190602401602060405180830381865afa158015610740573d6000803e3d6000fd5b505050506040513d601f19601f8201168201806040525081019061076491906113c4565b10156107a65760405162461bcd60e51b81526020600482015260116024820152706e6f7420656e6f75676820746f6b656e7360781b6044820152606401610582565b6107af82610b1b565b6001600160a01b0382166000908152600d60205260409020546107d39082906113b1565b6001600160a01b0383166000818152600d602052604080822093909355915183927fef5648f5b1a6a7e4e9314d032b440a9f2c124b6e584c8fb4eb8d057f11b0069591a35050565b60606000610827610bba565b6001600160a01b0316336001600160a01b0316146108925760003661084d6014826113dd565b6108589282906113f0565b8080601f0160208091040260200160405190810160405280939291908181526020018383808284376000920191909152506108a292505050565b6040805160008152602081019091525b90508267ffffffffffffffff8111156108bd576108bd61141a565b6040519080825280602002602001820160405280156108f057816020015b60608152602001906001900390816108db5790505b50915060005b838110156109725761094d3086868481811061091457610914611430565b90506020028101906109269190611446565b8560405160200161093993929190611494565b604051602081830303815290604052610e58565b83828151811061095f5761095f611430565b60209081029190910101526001016108f6565b505092915050565b6001600160a01b0383166000908152600d60205260409020548111156109d65760405162461bcd60e51b81526020600482015260116024820152706e6f7420656e6f7567682062616c61636560781b6044820152606401610582565b6001600160a01b0383166000908152600d6020526040812080548392906109fe9084906113dd565b909155505060095460405163a9059cbb60e01b81526001600160a01b038481166004830152602482018490529091169063a9059cbb906044016020604051808303816000875af1158015610a56573d6000803e3d6000fd5b505050506040513d601f19601f82011682018060405250810190610a7a91906114bb565b610ab85760405162461bcd60e51b815260206004820152600f60248201526e1d1c985b9cd9995c8819985a5b1959608a1b6044820152606401610582565b80826001600160a01b0316846001600160a01b03167f9c8515990fd8c61431c4ac8db9b81475f90c292a1dda77731e56c22e64fc764360405160405180910390a4505050565b60006106df825490565b6000610b148383610ece565b9392505050565b610b26600582610e36565b610b5f576040516001600160a01b038216907fc3e089fc6227e049d0e41c3d7a383d57efe69c1955c5752f7e5a9b5f1f11302090600090a25b610518600582610ef8565b610b75600582610e36565b15610baf576040516001600160a01b038216907f72977dad29432f655f11c2f0e72ef5124bb9ade7a512fb7a43a9f504df22342890600090a25b610518600582610f0d565b6000610528610f22565b6001600160a01b0384166000908152600d6020526040902054821115610c215760405162461bcd60e51b81526020600482015260126024820152716e6f7420656e6f7567682062616c616e636560701b6044820152606401610582565b60405163a9059cbb60e01b81526001600160a01b0385811660048301526024820184905284169063a9059cbb906044016020604051808303816000875af1158015610c70573d6000803e3d6000fd5b505050506040513d601f19601f82011682018060405250810190610c9491906114bb565b506001600160a01b0384166000908152600d6020526040902054610cb99083906113dd565b6001600160a01b038086166000818152600d602052604080822094909455925184831693928716927feb1af03631473cb26a0692e7db7c4284c5cb931143431dde2ba575fdb1cdb0bf91a450505050565b600780546001600160a01b0319166001600160a01b0383169081179091556040519081527f2f658b440c35314f52658ea8a740e05b284cdc84dc9ae01e891f21b8933e7cad9060200160405180910390a150565b6001600160a01b03821660009081526001602052604081208054839290610d869084906113b1565b90915550506040518181526001600160a01b038316907fe49f42d07d8046279c22af872fe6bc5678c4dfc38ace0f43b8e8d5a03d0e8f109060200160405180910390a26001600160a01b03821660009081526002602052604090205460ff16610518576001600160a01b038216600081815260026020526040808220805460ff19166001179055517f158412daecdc1456d01568828bcdb18464cc7f1ce0215ddbc3f3cfede9d1e63d9190a25050565b6001600160a01b03811660009081526001830160205260408120541515610b14565b6060600080846001600160a01b031684604051610e7591906114dd565b600060405180830381855af49150503d8060008114610eb0576040519150601f19603f3d011682016040523d82523d6000602084013e610eb5565b606091505b5091509150610ec5858383610f97565b95945050505050565b6000826000018281548110610ee557610ee5611430565b9060005260206000200154905092915050565b6000610b14836001600160a01b038416610ff3565b6000610b14836001600160a01b038416611042565b6000366014336001600160a01b037f000000000000000000000000000000000000000000000000000000000000000016148015610f5f5750808210155b15610f8f57600036610f7183856113dd565b610f7c9282906113f0565b610f85916114f9565b60601c9250505090565b339250505090565b606082610fac57610fa782611135565b610b14565b8151158015610fc357506001600160a01b0384163b155b15610fec57604051639996b31560e01b81526001600160a01b0385166004820152602401610582565b5092915050565b600081815260018301602052604081205461103a575081546001818101845560008481526020808220909301849055845484825282860190935260409020919091556106df565b5060006106df565b6000818152600183016020526040812054801561112b5760006110666001836113dd565b855490915060009061107a906001906113dd565b90508082146110df57600086600001828154811061109a5761109a611430565b90600052602060002001549050808760000184815481106110bd576110bd611430565b6000918252602080832090910192909255918252600188019052604090208390555b85548690806110f0576110f061152c565b6001900381819060005260206000200160009055905585600101600086815260200190815260200160002060009055600193505050506106df565b60009150506106df565b8051156111455780518082602001fd5b604051630a12f52160e11b815260040160405180910390fd5b60006020828403121561117057600080fd5b81356001600160e01b031981168114610b1457600080fd5b60005b838110156111a357818101518382015260200161118b565b50506000910152565b600081518084526111c4816020860160208601611188565b601f01601f19169290920160200192915050565b602081526000610b1460208301846111ac565b80356001600160a01b038116811461120257600080fd5b919050565b60006020828403121561121957600080fd5b610b14826111eb565b6000806040838503121561123557600080fd5b61123e836111eb565b946020939093013593505050565b6000806020838503121561125f57600080fd5b823567ffffffffffffffff8082111561127757600080fd5b818501915085601f83011261128b57600080fd5b81358181111561129a57600080fd5b8660208260051b85010111156112af57600080fd5b60209290920196919550909350505050565b600060208083016020845280855180835260408601915060408160051b87010192506020870160005b8281101561131857603f198886030184526113068583516111ac565b945092850192908501906001016112ea565b5092979650505050505050565b60008060006060848603121561133a57600080fd5b611343846111eb565b9250611351602085016111eb565b9150604084013590509250925092565b600181811c9082168061137557607f821691505b60208210810361139557634e487b7160e01b600052602260045260246000fd5b50919050565b634e487b7160e01b600052601160045260246000fd5b808201808211156106df576106df61139b565b6000602082840312156113d657600080fd5b5051919050565b818103818111156106df576106df61139b565b6000808585111561140057600080fd5b8386111561140d57600080fd5b5050820193919092039150565b634e487b7160e01b600052604160045260246000fd5b634e487b7160e01b600052603260045260246000fd5b6000808335601e1984360301811261145d57600080fd5b83018035915067ffffffffffffffff82111561147857600080fd5b60200191503681900382131561148d57600080fd5b9250929050565b8284823760008382016000815283516114b1818360208801611188565b0195945050505050565b6000602082840312156114cd57600080fd5b81518015158114610b1457600080fd5b600082516114ef818460208701611188565b9190910192915050565b6bffffffffffffffffffffffff1981358181169160148510156109725760149490940360031b84901b1690921692915050565b634e487b7160e01b600052603160045260246000fdfea2646970667358221220926c479dd832063bbafdf255a9da0933b3a156bc3e1fd1c8de94c7d62425b67e64736f6c63430008170033",
  "linkReferences": {},
  "deployedLinkReferences": {}
}