{
  "_format": "hh-sol-artifact-1",
  "contractName": "AAProject",
  "sourceName": "src/contracts/AAProject.sol",
  "abi": [
    {
      "inputs": [
        {
          "internalType": "string",
          "name": "_name",
          "type": "string"
        },
        {
          "internalType": "address",
          "name": "_defaultToken",
          "type": "address"
        },
        {
          "internalType": "address",
          "name": "_forwarder",
          "type": "address"
        },
        {
          "internalType": "address",
          "name": "_accessManager",
          "type": "address"
        },
        {
          "internalType": "address",
          "name": "_triggerManager",
          "type": "address"
        }
      ],
      "stateMutability": "nonpayable",
      "type": "constructor"
    },
    {
      "inputs": [
        {
          "internalType": "address",
          "name": "target",
          "type": "address"
        }
      ],
      "name": "AddressEmptyCode",
      "type": "error"
    },
    {
      "inputs": [],
      "name": "FailedInnerCall",
      "type": "error"
    },
    {
      "anonymous": false,
      "inputs": [
        {
          "indexed": true,
          "internalType": "address",
          "name": "beneficiary",
          "type": "address"
        },
        {
          "indexed": true,
          "internalType": "uint256",
          "name": "amount",
          "type": "uint256"
        }
      ],
      "name": "BenTokensAssigned",
      "type": "event"
    },
    {
      "anonymous": false,
      "inputs": [
        {
          "indexed": true,
          "internalType": "address",
          "name": "",
          "type": "address"
        }
      ],
      "name": "BeneficiaryAdded",
      "type": "event"
    },
    {
      "anonymous": false,
      "inputs": [
        {
          "indexed": true,
          "internalType": "address",
          "name": "",
          "type": "address"
        }
      ],
      "name": "BeneficiaryRemoved",
      "type": "event"
    },
    {
      "anonymous": false,
      "inputs": [
        {
          "indexed": true,
          "internalType": "address",
          "name": "beneficiary",
          "type": "address"
        },
        {
          "indexed": true,
          "internalType": "address",
          "name": "token",
          "type": "address"
        },
        {
          "indexed": true,
          "internalType": "address",
          "name": "assigner",
          "type": "address"
        }
      ],
      "name": "ClaimAssigned",
      "type": "event"
    },
    {
      "anonymous": false,
      "inputs": [
        {
          "indexed": true,
          "internalType": "address",
          "name": "tokenAddress",
          "type": "address"
        },
        {
          "indexed": false,
          "internalType": "uint256",
          "name": "amount",
          "type": "uint256"
        }
      ],
      "name": "TokenBudgetDecrease",
      "type": "event"
    },
    {
      "anonymous": false,
      "inputs": [
        {
          "indexed": true,
          "internalType": "address",
          "name": "tokenAddress",
          "type": "address"
        },
        {
          "indexed": false,
          "internalType": "uint256",
          "name": "amount",
          "type": "uint256"
        }
      ],
      "name": "TokenBudgetIncrease",
      "type": "event"
    },
    {
      "anonymous": false,
      "inputs": [
        {
          "indexed": true,
          "internalType": "address",
          "name": "token",
          "type": "address"
        },
        {
          "indexed": true,
          "internalType": "address",
          "name": "from",
          "type": "address"
        },
        {
          "indexed": false,
          "internalType": "uint256",
          "name": "amount",
          "type": "uint256"
        }
      ],
      "name": "TokenReceived",
      "type": "event"
    },
    {
      "anonymous": false,
      "inputs": [
        {
          "indexed": true,
          "internalType": "address",
          "name": "tokenAddress",
          "type": "address"
        }
      ],
      "name": "TokenRegistered",
      "type": "event"
    },
    {
      "anonymous": false,
      "inputs": [
        {
          "indexed": true,
          "internalType": "address",
          "name": "token",
          "type": "address"
        },
        {
          "indexed": true,
          "internalType": "address",
          "name": "to",
          "type": "address"
        },
        {
          "indexed": false,
          "internalType": "uint256",
          "name": "amount",
          "type": "uint256"
        }
      ],
      "name": "TokenTransfer",
      "type": "event"
    },
    {
      "anonymous": false,
      "inputs": [
        {
          "indexed": true,
          "internalType": "address",
          "name": "vendorAddress",
          "type": "address"
        },
        {
          "indexed": false,
          "internalType": "bool",
          "name": "status",
          "type": "bool"
        }
      ],
      "name": "VendorUpdated",
      "type": "event"
    },
    {
      "inputs": [],
      "name": "AccessManager",
      "outputs": [
        {
          "internalType": "contract IAccessManager",
          "name": "",
          "type": "address"
        }
      ],
      "stateMutability": "view",
      "type": "function"
    },
    {
      "inputs": [],
      "name": "IID_RAHAT_PROJECT",
      "outputs": [
        {
          "internalType": "bytes4",
          "name": "",
          "type": "bytes4"
        }
      ],
      "stateMutability": "view",
      "type": "function"
    },
    {
      "inputs": [],
      "name": "TriggerManager",
      "outputs": [
        {
          "internalType": "contract ITriggerManager",
          "name": "",
          "type": "address"
        }
      ],
      "stateMutability": "view",
      "type": "function"
    },
    {
      "inputs": [
        {
          "internalType": "address",
          "name": "_address",
          "type": "address"
        }
      ],
      "name": "addBeneficiary",
      "outputs": [],
      "stateMutability": "nonpayable",
      "type": "function"
    },
    {
      "inputs": [
        {
          "internalType": "address",
          "name": "_beneficiary",
          "type": "address"
        },
        {
          "internalType": "uint256",
          "name": "_tokenAssigned",
          "type": "uint256"
        }
      ],
      "name": "assignClaims",
      "outputs": [],
      "stateMutability": "nonpayable",
      "type": "function"
    },
    {
      "inputs": [
        {
          "internalType": "address",
          "name": "_address",
          "type": "address"
        },
        {
          "internalType": "uint256",
          "name": "_amount",
          "type": "uint256"
        }
      ],
      "name": "assignTokenToBeneficiary",
      "outputs": [],
      "stateMutability": "nonpayable",
      "type": "function"
    },
    {
      "inputs": [
        {
          "internalType": "address",
          "name": "",
          "type": "address"
        }
      ],
      "name": "benTokens",
      "outputs": [
        {
          "internalType": "uint256",
          "name": "",
          "type": "uint256"
        }
      ],
      "stateMutability": "view",
      "type": "function"
    },
    {
      "inputs": [],
      "name": "beneficiaryCount",
      "outputs": [
        {
          "internalType": "uint256",
          "name": "",
          "type": "uint256"
        }
      ],
      "stateMutability": "view",
      "type": "function"
    },
    {
      "inputs": [
        {
          "internalType": "address",
          "name": "_address",
          "type": "address"
        }
      ],
      "name": "checkVendorStatus",
      "outputs": [
        {
          "internalType": "bool",
          "name": "_vendorStatus",
          "type": "bool"
        }
      ],
      "stateMutability": "view",
      "type": "function"
    },
    {
      "inputs": [],
      "name": "defaultToken",
      "outputs": [
        {
          "internalType": "address",
          "name": "",
          "type": "address"
        }
      ],
      "stateMutability": "view",
      "type": "function"
    },
    {
      "inputs": [
        {
          "internalType": "address",
          "name": "_tokenAddress",
          "type": "address"
        },
        {
          "internalType": "uint256",
          "name": "_amount",
          "type": "uint256"
        }
      ],
      "name": "increaseTokenBudget",
      "outputs": [],
      "stateMutability": "nonpayable",
      "type": "function"
    },
    {
      "inputs": [
        {
          "internalType": "address",
          "name": "_address",
          "type": "address"
        }
      ],
      "name": "isBeneficiary",
      "outputs": [
        {
          "internalType": "bool",
          "name": "",
          "type": "bool"
        }
      ],
      "stateMutability": "view",
      "type": "function"
    },
    {
      "inputs": [
        {
          "internalType": "address",
          "name": "forwarder",
          "type": "address"
        }
      ],
      "name": "isTrustedForwarder",
      "outputs": [
        {
          "internalType": "bool",
          "name": "",
          "type": "bool"
        }
      ],
      "stateMutability": "view",
      "type": "function"
    },
    {
      "inputs": [
        {
          "internalType": "bytes[]",
          "name": "data",
          "type": "bytes[]"
        }
      ],
      "name": "multicall",
      "outputs": [
        {
          "internalType": "bytes[]",
          "name": "results",
          "type": "bytes[]"
        }
      ],
      "stateMutability": "nonpayable",
      "type": "function"
    },
    {
      "inputs": [],
      "name": "name",
      "outputs": [
        {
          "internalType": "string",
          "name": "",
          "type": "string"
        }
      ],
      "stateMutability": "view",
      "type": "function"
    },
    {
      "inputs": [
        {
          "internalType": "address",
          "name": "",
          "type": "address"
        }
      ],
      "name": "registeredTokens",
      "outputs": [
        {
          "internalType": "bool",
          "name": "",
          "type": "bool"
        }
      ],
      "stateMutability": "view",
      "type": "function"
    },
    {
      "inputs": [
        {
          "internalType": "address",
          "name": "_address",
          "type": "address"
        }
      ],
      "name": "removeBeneficiary",
      "outputs": [],
      "stateMutability": "nonpayable",
      "type": "function"
    },
    {
      "inputs": [
        {
          "internalType": "bytes4",
          "name": "interfaceId",
          "type": "bytes4"
        }
      ],
      "name": "supportsInterface",
      "outputs": [
        {
          "internalType": "bool",
          "name": "",
          "type": "bool"
        }
      ],
      "stateMutability": "view",
      "type": "function"
    },
    {
      "inputs": [
        {
          "internalType": "address",
          "name": "_tokenAddress",
          "type": "address"
        }
      ],
      "name": "tokenBudget",
      "outputs": [
        {
          "internalType": "uint256",
          "name": "",
          "type": "uint256"
        }
      ],
      "stateMutability": "view",
      "type": "function"
    },
    {
      "inputs": [],
      "name": "totalClaimsAssigned",
      "outputs": [
        {
          "internalType": "uint256",
          "name": "_totalClaims",
          "type": "uint256"
        }
      ],
      "stateMutability": "view",
      "type": "function"
    },
    {
      "inputs": [],
      "name": "trustedForwarder",
      "outputs": [
        {
          "internalType": "address",
          "name": "",
          "type": "address"
        }
      ],
      "stateMutability": "view",
      "type": "function"
    }
  ],
  "bytecode": "0x60a06040523480156200001157600080fd5b506040516200190a3803806200190a8339810160408190526200003491620000c6565b8285600462000044828262000277565b50506001600160a01b03908116608052600980546001600160a01b0319908116968316969096179055600780548616938216939093179092556008805490941691161790915550620003439050565b634e487b7160e01b600052604160045260246000fd5b80516001600160a01b0381168114620000c157600080fd5b919050565b600080600080600060a08688031215620000df57600080fd5b85516001600160401b0380821115620000f757600080fd5b818801915088601f8301126200010c57600080fd5b81518181111562000121576200012162000093565b604051601f8201601f19908116603f011681019083821181831017156200014c576200014c62000093565b81604052828152602093508b848487010111156200016957600080fd5b600091505b828210156200018d57848201840151818301850152908301906200016e565b6000848483010152809950505050620001a8818901620000a9565b95505050620001ba60408701620000a9565b9250620001ca60608701620000a9565b9150620001da60808701620000a9565b90509295509295909350565b600181811c90821680620001fb57607f821691505b6020821081036200021c57634e487b7160e01b600052602260045260246000fd5b50919050565b601f82111562000272576000816000526020600020601f850160051c810160208610156200024d5750805b601f850160051c820191505b818110156200026e5782815560010162000259565b5050505b505050565b81516001600160401b0381111562000293576200029362000093565b620002ab81620002a48454620001e6565b8462000222565b602080601f831160018114620002e35760008415620002ca5750858301515b600019600386901b1c1916600185901b1785556200026e565b600085815260208120601f198616915b828110156200031457888601518255948401946001909101908401620002f3565b5085821015620003335787850151600019600388901b60f8161c191681555b5050505050600190811b01905550565b60805161159d6200036d60003960008181610235015281816102e90152610f3a015261159d6000f3fe608060405234801561001057600080fd5b50600436106101375760003560e01c806364c20dc1116100b85780638c0bd9161161007c5780638c0bd9161461030d57806397b53ca3146103305780639d19b22614610343578063aa12214f14610356578063ac9650d814610369578063eb681e621461038957600080fd5b806364c20dc11461028d5780636f4efa36146102a0578063734b2a7c146102cc57806374c13fda146102d45780637da0a877146102e757600080fd5b80634fe21571116100ff5780634fe21571146101de578063501773ba14610205578063572b6c05146102255780635926651d1461026557806359633a1c1461027a57600080fd5b806301ffc9a71461013c57806306fdde03146101755780630af2a89b1461018a5780631fe9497c146101b55780634fc3171b146101c8575b600080fd5b61016061014a366004611190565b6001600160e01b031916634bf831d160e11b1490565b60405190151581526020015b60405180910390f35b61017d6103b2565b60405161016c919061120a565b60075461019d906001600160a01b031681565b6040516001600160a01b03909116815260200161016c565b60085461019d906001600160a01b031681565b6101d0610440565b60405190815260200161016c565b6101ec634bf831d160e11b81565b6040516001600160e01b0319909116815260200161016c565b6101d0610213366004611239565b600d6020526000908152604090205481565b610160610233366004611239565b7f00000000000000000000000000000000000000000000000000000000000000006001600160a01b0390811691161490565b610278610273366004611239565b610496565b005b610278610288366004611239565b610548565b61027861029b366004611254565b6105ee565b6101606102ae366004611239565b6001600160a01b031660009081526003602052604090205460ff1690565b6101d06106af565b60095461019d906001600160a01b031681565b7f000000000000000000000000000000000000000000000000000000000000000061019d565b61016061031b366004611239565b600c6020526000908152604090205460ff1681565b61027861033e366004611254565b6106c0565b610160610351366004611239565b61083f565b610278610364366004611254565b610852565b61037c61037736600461127e565b610a25565b60405161016c91906112f3565b6101d0610397366004611239565b6001600160a01b031660009081526001602052604090205490565b600480546103bf90611357565b80601f01602080910402602001604051908101604052809291908181526020018280546103eb90611357565b80156104385780601f1061040d57610100808354040283529160200191610438565b820191906000526020600020905b81548152906001019060200180831161041b57829003601f168201915b505050505081565b6000805b61044e6005610b84565b81101561049257600d6000610464600584610b8e565b6001600160a01b0316815260208101919091526040016000205461048890836113a7565b9150600101610444565b5090565b6007546001600160a01b03166324d7806c6104af610ba1565b6040516001600160e01b031960e084901b1681526001600160a01b039091166004820152602401602060405180830381865afa1580156104f3573d6000803e3d6000fd5b505050506040513d601f19601f8201168201806040525081019061051791906113ba565b61053c5760405162461bcd60e51b8152600401610533906113dc565b60405180910390fd5b61054581610bab565b50565b6007546001600160a01b03166324d7806c610561610ba1565b6040516001600160e01b031960e084901b1681526001600160a01b039091166004820152602401602060405180830381865afa1580156105a5573d6000803e3d6000fd5b505050506040513d601f19601f820116820180604052508101906105c991906113ba565b6105e55760405162461bcd60e51b8152600401610533906113dc565b61054581610bfa565b6007546001600160a01b03166324d7806c610607610ba1565b6040516001600160e01b031960e084901b1681526001600160a01b039091166004820152602401602060405180830381865afa15801561064b573d6000803e3d6000fd5b505050506040513d601f19601f8201168201806040525081019061066f91906113ba565b61068b5760405162461bcd60e51b8152600401610533906113dc565b6009546106ab9083906001600160a01b0316836106a6610ba1565b610c4a565b5050565b60006106bb6005610b84565b905090565b6007546001600160a01b03166324d7806c6106d9610ba1565b6040516001600160e01b031960e084901b1681526001600160a01b039091166004820152602401602060405180830381865afa15801561071d573d6000803e3d6000fd5b505050506040513d601f19601f8201168201806040525081019061074191906113ba565b61075d5760405162461bcd60e51b8152600401610533906113dc565b6001600160a01b03821660009081526001602052604090205461078082826113a7565b836001600160a01b03166318160ddd6040518163ffffffff1660e01b8152600401602060405180830381865afa1580156107be573d6000803e3d6000fd5b505050506040513d601f19601f820116820180604052508101906107e2919061140b565b10156108305760405162461bcd60e51b815260206004820152601960248201527f47726561746572207468616e20746f74616c20737570706c79000000000000006044820152606401610533565b61083a8383610d90565b505050565b600061084c600583610e68565b92915050565b6007546001600160a01b03166324d7806c61086b610ba1565b6040516001600160e01b031960e084901b1681526001600160a01b039091166004820152602401602060405180830381865afa1580156108af573d6000803e3d6000fd5b505050506040513d601f19601f820116820180604052508101906108d391906113ba565b6108ef5760405162461bcd60e51b8152600401610533906113dc565b806108f8610440565b61090291906113a7565b6009546040516370a0823160e01b81523060048201526001600160a01b03909116906370a0823190602401602060405180830381865afa15801561094a573d6000803e3d6000fd5b505050506040513d601f19601f8201168201806040525081019061096e919061140b565b10156109b05760405162461bcd60e51b81526020600482015260116024820152706e6f7420656e6f75676820746f6b656e7360781b6044820152606401610533565b6109b982610bab565b6001600160a01b0382166000908152600d60205260409020546109dd9082906113a7565b6001600160a01b0383166000818152600d602052604080822093909355915183927fef5648f5b1a6a7e4e9314d032b440a9f2c124b6e584c8fb4eb8d057f11b0069591a35050565b60606000610a31610ba1565b6001600160a01b0316336001600160a01b031614610a9c57600036610a57601482611424565b610a62928290611437565b8080601f016020809104026020016040519081016040528093929190818152602001838380828437600092019190915250610aac92505050565b6040805160008152602081019091525b90508267ffffffffffffffff811115610ac757610ac7611461565b604051908082528060200260200182016040528015610afa57816020015b6060815260200190600190039081610ae55790505b50915060005b83811015610b7c57610b5730868684818110610b1e57610b1e611477565b9050602002810190610b30919061148d565b85604051602001610b43939291906114db565b604051602081830303815290604052610e8a565b838281518110610b6957610b69611477565b6020908102919091010152600101610b00565b505092915050565b600061084c825490565b6000610b9a8383610f00565b9392505050565b60006106bb610f2a565b610bb6600582610e68565b610bef576040516001600160a01b038216907fc3e089fc6227e049d0e41c3d7a383d57efe69c1955c5752f7e5a9b5f1f11302090600090a25b6106ab600582610f9f565b610c05600582610e68565b15610c3f576040516001600160a01b038216907f72977dad29432f655f11c2f0e72ef5124bb9ade7a512fb7a43a9f504df22342890600090a25b6106ab600582610fb4565b6001600160a01b0384166000908152600d6020526040902054821115610ca75760405162461bcd60e51b81526020600482015260126024820152716e6f7420656e6f7567682062616c616e636560701b6044820152606401610533565b60405163a9059cbb60e01b81526001600160a01b0385811660048301526024820184905284169063a9059cbb906044016020604051808303816000875af1158015610cf6573d6000803e3d6000fd5b505050506040513d601f19601f82011682018060405250810190610d1a91906113ba565b506001600160a01b0384166000908152600d6020526040902054610d3f908390611424565b6001600160a01b038086166000818152600d602052604080822094909455925184831693928716927feb1af03631473cb26a0692e7db7c4284c5cb931143431dde2ba575fdb1cdb0bf91a450505050565b6001600160a01b03821660009081526001602052604081208054839290610db89084906113a7565b90915550506040518181526001600160a01b038316907fe49f42d07d8046279c22af872fe6bc5678c4dfc38ace0f43b8e8d5a03d0e8f109060200160405180910390a26001600160a01b03821660009081526002602052604090205460ff166106ab576001600160a01b038216600081815260026020526040808220805460ff19166001179055517f158412daecdc1456d01568828bcdb18464cc7f1ce0215ddbc3f3cfede9d1e63d9190a25050565b6001600160a01b03811660009081526001830160205260408120541515610b9a565b6060600080846001600160a01b031684604051610ea79190611502565b600060405180830381855af49150503d8060008114610ee2576040519150601f19603f3d011682016040523d82523d6000602084013e610ee7565b606091505b5091509150610ef7858383610fc9565b95945050505050565b6000826000018281548110610f1757610f17611477565b9060005260206000200154905092915050565b6000366014336001600160a01b037f000000000000000000000000000000000000000000000000000000000000000016148015610f675750808210155b15610f9757600036610f798385611424565b610f84928290611437565b610f8d9161151e565b60601c9250505090565b339250505090565b6000610b9a836001600160a01b038416611025565b6000610b9a836001600160a01b038416611074565b606082610fde57610fd982611167565b610b9a565b8151158015610ff557506001600160a01b0384163b155b1561101e57604051639996b31560e01b81526001600160a01b0385166004820152602401610533565b5092915050565b600081815260018301602052604081205461106c5750815460018181018455600084815260208082209093018490558454848252828601909352604090209190915561084c565b50600061084c565b6000818152600183016020526040812054801561115d576000611098600183611424565b85549091506000906110ac90600190611424565b90508082146111115760008660000182815481106110cc576110cc611477565b90600052602060002001549050808760000184815481106110ef576110ef611477565b6000918252602080832090910192909255918252600188019052604090208390555b855486908061112257611122611551565b60019003818190600052602060002001600090559055856001016000868152602001908152602001600020600090556001935050505061084c565b600091505061084c565b8051156111775780518082602001fd5b604051630a12f52160e11b815260040160405180910390fd5b6000602082840312156111a257600080fd5b81356001600160e01b031981168114610b9a57600080fd5b60005b838110156111d55781810151838201526020016111bd565b50506000910152565b600081518084526111f68160208601602086016111ba565b601f01601f19169290920160200192915050565b602081526000610b9a60208301846111de565b80356001600160a01b038116811461123457600080fd5b919050565b60006020828403121561124b57600080fd5b610b9a8261121d565b6000806040838503121561126757600080fd5b6112708361121d565b946020939093013593505050565b6000806020838503121561129157600080fd5b823567ffffffffffffffff808211156112a957600080fd5b818501915085601f8301126112bd57600080fd5b8135818111156112cc57600080fd5b8660208260051b85010111156112e157600080fd5b60209290920196919550909350505050565b600060208083016020845280855180835260408601915060408160051b87010192506020870160005b8281101561134a57603f198886030184526113388583516111de565b9450928501929085019060010161131c565b5092979650505050505050565b600181811c9082168061136b57607f821691505b60208210810361138b57634e487b7160e01b600052602260045260246000fd5b50919050565b634e487b7160e01b600052601160045260246000fd5b8082018082111561084c5761084c611391565b6000602082840312156113cc57600080fd5b81518015158114610b9a57600080fd5b6020808252601590820152744f6e6c792041646d696e2063616e2061636365737360581b604082015260600190565b60006020828403121561141d57600080fd5b5051919050565b8181038181111561084c5761084c611391565b6000808585111561144757600080fd5b8386111561145457600080fd5b5050820193919092039150565b634e487b7160e01b600052604160045260246000fd5b634e487b7160e01b600052603260045260246000fd5b6000808335601e198436030181126114a457600080fd5b83018035915067ffffffffffffffff8211156114bf57600080fd5b6020019150368190038213156114d457600080fd5b9250929050565b8284823760008382016000815283516114f88183602088016111ba565b0195945050505050565b600082516115148184602087016111ba565b9190910192915050565b6bffffffffffffffffffffffff198135818116916014851015610b7c5760149490940360031b84901b1690921692915050565b634e487b7160e01b600052603160045260246000fdfea26469706673582212203221dbf33cce7537aa4e50b79bdfd7973dcdc1eb2d83dc1504db6f1044a2420d64736f6c63430008170033",
  "linkReferences": {},
  "deployedLinkReferences": {}
}