{
  "_format": "hh-sol-artifact-1",
  "contractName": "AAProject",
  "sourceName": "src/contracts/AAProject.sol",
  "abi": [
    {
      "inputs": [
        {
          "internalType": "string",
          "name": "_name",
          "type": "string"
        },
        {
          "internalType": "address",
          "name": "_defaultToken",
          "type": "address"
        },
        {
          "internalType": "address",
          "name": "_forwarder",
          "type": "address"
        },
        {
          "internalType": "address",
          "name": "_accessManager",
          "type": "address"
        },
        {
          "internalType": "address",
          "name": "_triggerManager",
          "type": "address"
        }
      ],
      "stateMutability": "nonpayable",
      "type": "constructor"
    },
    {
      "inputs": [
        {
          "internalType": "address",
          "name": "target",
          "type": "address"
        }
      ],
      "name": "AddressEmptyCode",
      "type": "error"
    },
    {
      "inputs": [],
      "name": "FailedInnerCall",
      "type": "error"
    },
    {
      "anonymous": false,
      "inputs": [
        {
          "indexed": true,
          "internalType": "address",
          "name": "beneficiary",
          "type": "address"
        },
        {
          "indexed": true,
          "internalType": "uint256",
          "name": "amount",
          "type": "uint256"
        }
      ],
      "name": "BenTokensAssigned",
      "type": "event"
    },
    {
      "anonymous": false,
      "inputs": [
        {
          "indexed": true,
          "internalType": "address",
          "name": "",
          "type": "address"
        }
      ],
      "name": "BeneficiaryAdded",
      "type": "event"
    },
    {
      "anonymous": false,
      "inputs": [
        {
          "indexed": true,
          "internalType": "address",
          "name": "",
          "type": "address"
        }
      ],
      "name": "BeneficiaryRemoved",
      "type": "event"
    },
    {
      "anonymous": false,
      "inputs": [
        {
          "indexed": true,
          "internalType": "address",
          "name": "beneficiary",
          "type": "address"
        },
        {
          "indexed": true,
          "internalType": "address",
          "name": "token",
          "type": "address"
        },
        {
          "indexed": true,
          "internalType": "address",
          "name": "assigner",
          "type": "address"
        }
      ],
      "name": "ClaimAssigned",
      "type": "event"
    },
    {
      "anonymous": false,
      "inputs": [
        {
          "indexed": true,
          "internalType": "address",
          "name": "tokenAddress",
          "type": "address"
        },
        {
          "indexed": false,
          "internalType": "uint256",
          "name": "amount",
          "type": "uint256"
        }
      ],
      "name": "TokenBudgetDecrease",
      "type": "event"
    },
    {
      "anonymous": false,
      "inputs": [
        {
          "indexed": true,
          "internalType": "address",
          "name": "tokenAddress",
          "type": "address"
        },
        {
          "indexed": false,
          "internalType": "uint256",
          "name": "amount",
          "type": "uint256"
        }
      ],
      "name": "TokenBudgetIncrease",
      "type": "event"
    },
    {
      "anonymous": false,
      "inputs": [
        {
          "indexed": true,
          "internalType": "address",
          "name": "token",
          "type": "address"
        },
        {
          "indexed": true,
          "internalType": "address",
          "name": "from",
          "type": "address"
        },
        {
          "indexed": false,
          "internalType": "uint256",
          "name": "amount",
          "type": "uint256"
        }
      ],
      "name": "TokenReceived",
      "type": "event"
    },
    {
      "anonymous": false,
      "inputs": [
        {
          "indexed": true,
          "internalType": "address",
          "name": "tokenAddress",
          "type": "address"
        }
      ],
      "name": "TokenRegistered",
      "type": "event"
    },
    {
      "anonymous": false,
      "inputs": [
        {
          "indexed": true,
          "internalType": "address",
          "name": "token",
          "type": "address"
        },
        {
          "indexed": true,
          "internalType": "address",
          "name": "to",
          "type": "address"
        },
        {
          "indexed": false,
          "internalType": "uint256",
          "name": "amount",
          "type": "uint256"
        }
      ],
      "name": "TokenTransfer",
      "type": "event"
    },
    {
      "anonymous": false,
      "inputs": [
        {
          "indexed": true,
          "internalType": "address",
          "name": "vendorAddress",
          "type": "address"
        },
        {
          "indexed": false,
          "internalType": "bool",
          "name": "status",
          "type": "bool"
        }
      ],
      "name": "VendorUpdated",
      "type": "event"
    },
    {
      "inputs": [],
      "name": "AccessManager",
      "outputs": [
        {
          "internalType": "contract IAccessManager",
          "name": "",
          "type": "address"
        }
      ],
      "stateMutability": "view",
      "type": "function"
    },
    {
      "inputs": [],
      "name": "IID_RAHAT_PROJECT",
      "outputs": [
        {
          "internalType": "bytes4",
          "name": "",
          "type": "bytes4"
        }
      ],
      "stateMutability": "view",
      "type": "function"
    },
    {
      "inputs": [],
      "name": "TriggerManager",
      "outputs": [
        {
          "internalType": "contract ITriggerManager",
          "name": "",
          "type": "address"
        }
      ],
      "stateMutability": "view",
      "type": "function"
    },
    {
      "inputs": [
        {
          "internalType": "address",
          "name": "_address",
          "type": "address"
        }
      ],
      "name": "addBeneficiary",
      "outputs": [],
      "stateMutability": "nonpayable",
      "type": "function"
    },
    {
      "inputs": [
        {
          "internalType": "address",
          "name": "_beneficiary",
          "type": "address"
        },
        {
          "internalType": "uint256",
          "name": "_tokenAssigned",
          "type": "uint256"
        }
      ],
      "name": "assignClaims",
      "outputs": [],
      "stateMutability": "nonpayable",
      "type": "function"
    },
    {
      "inputs": [
        {
          "internalType": "address",
          "name": "_address",
          "type": "address"
        },
        {
          "internalType": "uint256",
          "name": "_amount",
          "type": "uint256"
        }
      ],
      "name": "assignTokenToBeneficiary",
      "outputs": [],
      "stateMutability": "nonpayable",
      "type": "function"
    },
    {
      "inputs": [
        {
          "internalType": "address",
          "name": "",
          "type": "address"
        }
      ],
      "name": "benTokens",
      "outputs": [
        {
          "internalType": "uint256",
          "name": "",
          "type": "uint256"
        }
      ],
      "stateMutability": "view",
      "type": "function"
    },
    {
      "inputs": [],
      "name": "beneficiaryCount",
      "outputs": [
        {
          "internalType": "uint256",
          "name": "",
          "type": "uint256"
        }
      ],
      "stateMutability": "view",
      "type": "function"
    },
    {
      "inputs": [
        {
          "internalType": "address",
          "name": "_address",
          "type": "address"
        }
      ],
      "name": "checkVendorStatus",
      "outputs": [
        {
          "internalType": "bool",
          "name": "_vendorStatus",
          "type": "bool"
        }
      ],
      "stateMutability": "view",
      "type": "function"
    },
    {
      "inputs": [],
      "name": "defaultToken",
      "outputs": [
        {
          "internalType": "address",
          "name": "",
          "type": "address"
        }
      ],
      "stateMutability": "view",
      "type": "function"
    },
    {
      "inputs": [
        {
          "internalType": "address",
          "name": "_tokenAddress",
          "type": "address"
        },
        {
          "internalType": "uint256",
          "name": "_amount",
          "type": "uint256"
        }
      ],
      "name": "increaseTokenBudget",
      "outputs": [],
      "stateMutability": "nonpayable",
      "type": "function"
    },
    {
      "inputs": [
        {
          "internalType": "address",
          "name": "_address",
          "type": "address"
        }
      ],
      "name": "isBeneficiary",
      "outputs": [
        {
          "internalType": "bool",
          "name": "",
          "type": "bool"
        }
      ],
      "stateMutability": "view",
      "type": "function"
    },
    {
      "inputs": [
        {
          "internalType": "address",
          "name": "forwarder",
          "type": "address"
        }
      ],
      "name": "isTrustedForwarder",
      "outputs": [
        {
          "internalType": "bool",
          "name": "",
          "type": "bool"
        }
      ],
      "stateMutability": "view",
      "type": "function"
    },
    {
      "inputs": [
        {
          "internalType": "bytes[]",
          "name": "data",
          "type": "bytes[]"
        }
      ],
      "name": "multicall",
      "outputs": [
        {
          "internalType": "bytes[]",
          "name": "results",
          "type": "bytes[]"
        }
      ],
      "stateMutability": "nonpayable",
      "type": "function"
    },
    {
      "inputs": [],
      "name": "name",
      "outputs": [
        {
          "internalType": "string",
          "name": "",
          "type": "string"
        }
      ],
      "stateMutability": "view",
      "type": "function"
    },
    {
      "inputs": [
        {
          "internalType": "address",
          "name": "",
          "type": "address"
        }
      ],
      "name": "registeredTokens",
      "outputs": [
        {
          "internalType": "bool",
          "name": "",
          "type": "bool"
        }
      ],
      "stateMutability": "view",
      "type": "function"
    },
    {
      "inputs": [
        {
          "internalType": "address",
          "name": "_address",
          "type": "address"
        }
      ],
      "name": "removeBeneficiary",
      "outputs": [],
      "stateMutability": "nonpayable",
      "type": "function"
    },
    {
      "inputs": [
        {
          "internalType": "bytes4",
          "name": "interfaceId",
          "type": "bytes4"
        }
      ],
      "name": "supportsInterface",
      "outputs": [
        {
          "internalType": "bool",
          "name": "",
          "type": "bool"
        }
      ],
      "stateMutability": "view",
      "type": "function"
    },
    {
      "inputs": [
        {
          "internalType": "address",
          "name": "_tokenAddress",
          "type": "address"
        }
      ],
      "name": "tokenBudget",
      "outputs": [
        {
          "internalType": "uint256",
          "name": "",
          "type": "uint256"
        }
      ],
      "stateMutability": "view",
      "type": "function"
    },
    {
      "inputs": [],
      "name": "totalClaimsAssigned",
      "outputs": [
        {
          "internalType": "uint256",
          "name": "_totalClaims",
          "type": "uint256"
        }
      ],
      "stateMutability": "view",
      "type": "function"
    },
    {
      "inputs": [],
      "name": "trustedForwarder",
      "outputs": [
        {
          "internalType": "address",
          "name": "",
          "type": "address"
        }
      ],
      "stateMutability": "view",
      "type": "function"
    }
  ],
  "bytecode": "0x60a06040523480156200001157600080fd5b50604051620018e2380380620018e28339810160408190526200003491620000c6565b8285600462000044828262000277565b50506001600160a01b03908116608052600980546001600160a01b0319908116968316969096179055600780548616938216939093179092556008805490941691161790915550620003439050565b634e487b7160e01b600052604160045260246000fd5b80516001600160a01b0381168114620000c157600080fd5b919050565b600080600080600060a08688031215620000df57600080fd5b85516001600160401b0380821115620000f757600080fd5b818801915088601f8301126200010c57600080fd5b81518181111562000121576200012162000093565b604051601f8201601f19908116603f011681019083821181831017156200014c576200014c62000093565b81604052828152602093508b848487010111156200016957600080fd5b600091505b828210156200018d57848201840151818301850152908301906200016e565b6000848483010152809950505050620001a8818901620000a9565b95505050620001ba60408701620000a9565b9250620001ca60608701620000a9565b9150620001da60808701620000a9565b90509295509295909350565b600181811c90821680620001fb57607f821691505b6020821081036200021c57634e487b7160e01b600052602260045260246000fd5b50919050565b601f82111562000272576000816000526020600020601f850160051c810160208610156200024d5750805b601f850160051c820191505b818110156200026e5782815560010162000259565b5050505b505050565b81516001600160401b0381111562000293576200029362000093565b620002ab81620002a48454620001e6565b8462000222565b602080601f831160018114620002e35760008415620002ca5750858301515b600019600386901b1c1916600185901b1785556200026e565b600085815260208120601f198616915b828110156200031457888601518255948401946001909101908401620002f3565b5085821015620003335787850151600019600388901b60f8161c191681555b5050505050600190811b01905550565b6080516115756200036d60003960008181610235015281816102e90152610f1201526115756000f3fe608060405234801561001057600080fd5b50600436106101375760003560e01c806364c20dc1116100b85780638c0bd9161161007c5780638c0bd9161461030d57806397b53ca3146103305780639d19b22614610343578063aa12214f14610356578063ac9650d814610369578063eb681e621461038957600080fd5b806364c20dc11461028d5780636f4efa36146102a0578063734b2a7c146102cc57806374c13fda146102d45780637da0a877146102e757600080fd5b80634fe21571116100ff5780634fe21571146101de578063501773ba14610205578063572b6c05146102255780635926651d1461026557806359633a1c1461027a57600080fd5b806301ffc9a71461013c57806306fdde03146101755780630af2a89b1461018a5780631fe9497c146101b55780634fc3171b146101c8575b600080fd5b61016061014a366004611168565b6001600160e01b031916634bf831d160e11b1490565b60405190151581526020015b60405180910390f35b61017d6103b2565b60405161016c91906111e2565b60075461019d906001600160a01b031681565b6040516001600160a01b03909116815260200161016c565b60085461019d906001600160a01b031681565b6101d0610440565b60405190815260200161016c565b6101ec634bf831d160e11b81565b6040516001600160e01b0319909116815260200161016c565b6101d0610213366004611211565b600d6020526000908152604090205481565b610160610233366004611211565b7f00000000000000000000000000000000000000000000000000000000000000006001600160a01b0390811691161490565b610278610273366004611211565b610496565b005b610278610288366004611211565b610548565b61027861029b36600461122c565b6105ee565b6101606102ae366004611211565b6001600160a01b031660009081526003602052604090205460ff1690565b6101d06106af565b60095461019d906001600160a01b031681565b7f000000000000000000000000000000000000000000000000000000000000000061019d565b61016061031b366004611211565b600c6020526000908152604090205460ff1681565b61027861033e36600461122c565b6106c0565b610160610351366004611211565b61083f565b61027861036436600461122c565b610852565b61037c610377366004611256565b6109fd565b60405161016c91906112cb565b6101d0610397366004611211565b6001600160a01b031660009081526001602052604090205490565b600480546103bf9061132f565b80601f01602080910402602001604051908101604052809291908181526020018280546103eb9061132f565b80156104385780601f1061040d57610100808354040283529160200191610438565b820191906000526020600020905b81548152906001019060200180831161041b57829003601f168201915b505050505081565b6000805b61044e6005610b5c565b81101561049257600d6000610464600584610b66565b6001600160a01b03168152602081019190915260400160002054610488908361137f565b9150600101610444565b5090565b6007546001600160a01b03166324d7806c6104af610b79565b6040516001600160e01b031960e084901b1681526001600160a01b039091166004820152602401602060405180830381865afa1580156104f3573d6000803e3d6000fd5b505050506040513d601f19601f820116820180604052508101906105179190611392565b61053c5760405162461bcd60e51b8152600401610533906113b4565b60405180910390fd5b61054581610b83565b50565b6007546001600160a01b03166324d7806c610561610b79565b6040516001600160e01b031960e084901b1681526001600160a01b039091166004820152602401602060405180830381865afa1580156105a5573d6000803e3d6000fd5b505050506040513d601f19601f820116820180604052508101906105c99190611392565b6105e55760405162461bcd60e51b8152600401610533906113b4565b61054581610bd2565b6007546001600160a01b03166324d7806c610607610b79565b6040516001600160e01b031960e084901b1681526001600160a01b039091166004820152602401602060405180830381865afa15801561064b573d6000803e3d6000fd5b505050506040513d601f19601f8201168201806040525081019061066f9190611392565b61068b5760405162461bcd60e51b8152600401610533906113b4565b6009546106ab9083906001600160a01b0316836106a6610b79565b610c22565b5050565b60006106bb6005610b5c565b905090565b6007546001600160a01b03166324d7806c6106d9610b79565b6040516001600160e01b031960e084901b1681526001600160a01b039091166004820152602401602060405180830381865afa15801561071d573d6000803e3d6000fd5b505050506040513d601f19601f820116820180604052508101906107419190611392565b61075d5760405162461bcd60e51b8152600401610533906113b4565b6001600160a01b038216600090815260016020526040902054610780828261137f565b836001600160a01b03166318160ddd6040518163ffffffff1660e01b8152600401602060405180830381865afa1580156107be573d6000803e3d6000fd5b505050506040513d601f19601f820116820180604052508101906107e291906113e3565b10156108305760405162461bcd60e51b815260206004820152601960248201527f47726561746572207468616e20746f74616c20737570706c79000000000000006044820152606401610533565b61083a8383610d68565b505050565b600061084c600583610e40565b92915050565b6007546001600160a01b03166324d7806c61086b610b79565b6040516001600160e01b031960e084901b1681526001600160a01b039091166004820152602401602060405180830381865afa1580156108af573d6000803e3d6000fd5b505050506040513d601f19601f820116820180604052508101906108d39190611392565b6108ef5760405162461bcd60e51b8152600401610533906113b4565b806108f8610440565b610902919061137f565b6009546040516370a0823160e01b81523060048201526001600160a01b03909116906370a0823190602401602060405180830381865afa15801561094a573d6000803e3d6000fd5b505050506040513d601f19601f8201168201806040525081019061096e91906113e3565b10156109b05760405162461bcd60e51b81526020600482015260116024820152706e6f7420656e6f75676820746f6b656e7360781b6044820152606401610533565b6109b982610b83565b6001600160a01b0382166000908152600d60205260409020546109dd90829061137f565b6001600160a01b039092166000908152600d602052604090209190915550565b60606000610a09610b79565b6001600160a01b0316336001600160a01b031614610a7457600036610a2f6014826113fc565b610a3a92829061140f565b8080601f016020809104026020016040519081016040528093929190818152602001838380828437600092019190915250610a8492505050565b6040805160008152602081019091525b90508267ffffffffffffffff811115610a9f57610a9f611439565b604051908082528060200260200182016040528015610ad257816020015b6060815260200190600190039081610abd5790505b50915060005b83811015610b5457610b2f30868684818110610af657610af661144f565b9050602002810190610b089190611465565b85604051602001610b1b939291906114b3565b604051602081830303815290604052610e62565b838281518110610b4157610b4161144f565b6020908102919091010152600101610ad8565b505092915050565b600061084c825490565b6000610b728383610ed8565b9392505050565b60006106bb610f02565b610b8e600582610e40565b610bc7576040516001600160a01b038216907fc3e089fc6227e049d0e41c3d7a383d57efe69c1955c5752f7e5a9b5f1f11302090600090a25b6106ab600582610f77565b610bdd600582610e40565b15610c17576040516001600160a01b038216907f72977dad29432f655f11c2f0e72ef5124bb9ade7a512fb7a43a9f504df22342890600090a25b6106ab600582610f8c565b6001600160a01b0384166000908152600d6020526040902054821115610c7f5760405162461bcd60e51b81526020600482015260126024820152716e6f7420656e6f7567682062616c616e636560701b6044820152606401610533565b60405163a9059cbb60e01b81526001600160a01b0385811660048301526024820184905284169063a9059cbb906044016020604051808303816000875af1158015610cce573d6000803e3d6000fd5b505050506040513d601f19601f82011682018060405250810190610cf29190611392565b506001600160a01b0384166000908152600d6020526040902054610d179083906113fc565b6001600160a01b038086166000818152600d602052604080822094909455925184831693928716927feb1af03631473cb26a0692e7db7c4284c5cb931143431dde2ba575fdb1cdb0bf91a450505050565b6001600160a01b03821660009081526001602052604081208054839290610d9090849061137f565b90915550506040518181526001600160a01b038316907fe49f42d07d8046279c22af872fe6bc5678c4dfc38ace0f43b8e8d5a03d0e8f109060200160405180910390a26001600160a01b03821660009081526002602052604090205460ff166106ab576001600160a01b038216600081815260026020526040808220805460ff19166001179055517f158412daecdc1456d01568828bcdb18464cc7f1ce0215ddbc3f3cfede9d1e63d9190a25050565b6001600160a01b03811660009081526001830160205260408120541515610b72565b6060600080846001600160a01b031684604051610e7f91906114da565b600060405180830381855af49150503d8060008114610eba576040519150601f19603f3d011682016040523d82523d6000602084013e610ebf565b606091505b5091509150610ecf858383610fa1565b95945050505050565b6000826000018281548110610eef57610eef61144f565b9060005260206000200154905092915050565b6000366014336001600160a01b037f000000000000000000000000000000000000000000000000000000000000000016148015610f3f5750808210155b15610f6f57600036610f5183856113fc565b610f5c92829061140f565b610f65916114f6565b60601c9250505090565b339250505090565b6000610b72836001600160a01b038416610ffd565b6000610b72836001600160a01b03841661104c565b606082610fb657610fb18261113f565b610b72565b8151158015610fcd57506001600160a01b0384163b155b15610ff657604051639996b31560e01b81526001600160a01b0385166004820152602401610533565b5092915050565b60008181526001830160205260408120546110445750815460018181018455600084815260208082209093018490558454848252828601909352604090209190915561084c565b50600061084c565b600081815260018301602052604081205480156111355760006110706001836113fc565b8554909150600090611084906001906113fc565b90508082146110e95760008660000182815481106110a4576110a461144f565b90600052602060002001549050808760000184815481106110c7576110c761144f565b6000918252602080832090910192909255918252600188019052604090208390555b85548690806110fa576110fa611529565b60019003818190600052602060002001600090559055856001016000868152602001908152602001600020600090556001935050505061084c565b600091505061084c565b80511561114f5780518082602001fd5b604051630a12f52160e11b815260040160405180910390fd5b60006020828403121561117a57600080fd5b81356001600160e01b031981168114610b7257600080fd5b60005b838110156111ad578181015183820152602001611195565b50506000910152565b600081518084526111ce816020860160208601611192565b601f01601f19169290920160200192915050565b602081526000610b7260208301846111b6565b80356001600160a01b038116811461120c57600080fd5b919050565b60006020828403121561122357600080fd5b610b72826111f5565b6000806040838503121561123f57600080fd5b611248836111f5565b946020939093013593505050565b6000806020838503121561126957600080fd5b823567ffffffffffffffff8082111561128157600080fd5b818501915085601f83011261129557600080fd5b8135818111156112a457600080fd5b8660208260051b85010111156112b957600080fd5b60209290920196919550909350505050565b600060208083016020845280855180835260408601915060408160051b87010192506020870160005b8281101561132257603f198886030184526113108583516111b6565b945092850192908501906001016112f4565b5092979650505050505050565b600181811c9082168061134357607f821691505b60208210810361136357634e487b7160e01b600052602260045260246000fd5b50919050565b634e487b7160e01b600052601160045260246000fd5b8082018082111561084c5761084c611369565b6000602082840312156113a457600080fd5b81518015158114610b7257600080fd5b6020808252601590820152744f6e6c792041646d696e2063616e2061636365737360581b604082015260600190565b6000602082840312156113f557600080fd5b5051919050565b8181038181111561084c5761084c611369565b6000808585111561141f57600080fd5b8386111561142c57600080fd5b5050820193919092039150565b634e487b7160e01b600052604160045260246000fd5b634e487b7160e01b600052603260045260246000fd5b6000808335601e1984360301811261147c57600080fd5b83018035915067ffffffffffffffff82111561149757600080fd5b6020019150368190038213156114ac57600080fd5b9250929050565b8284823760008382016000815283516114d0818360208801611192565b0195945050505050565b600082516114ec818460208701611192565b9190910192915050565b6bffffffffffffffffffffffff198135818116916014851015610b545760149490940360031b84901b1690921692915050565b634e487b7160e01b600052603160045260246000fdfea2646970667358221220e91e776fac828e80fea144627908f64ae3ea0d9b151aa80fd88aec2f7b65a6f264736f6c63430008170033",
  "linkReferences": {},
  "deployedLinkReferences": {}
}