{
  "_format": "hh-sol-artifact-1",
  "contractName": "AccessManager",
  "sourceName": "src/contracts/AccessManager.sol",
  "abi": [
    {
      "inputs": [
        {
          "internalType": "address[]",
          "name": "_adminAddress",
          "type": "address[]"
        }
      ],
      "stateMutability": "nonpayable",
      "type": "constructor"
    },
    {
      "inputs": [
        {
          "internalType": "address",
          "name": "target",
          "type": "address"
        }
      ],
      "name": "AddressEmptyCode",
      "type": "error"
    },
    {
      "inputs": [],
      "name": "FailedInnerCall",
      "type": "error"
    },
    {
      "inputs": [
        {
          "internalType": "address",
          "name": "_address",
          "type": "address"
        }
      ],
      "name": "isAdmin",
      "outputs": [
        {
          "internalType": "bool",
          "name": "_status",
          "type": "bool"
        }
      ],
      "stateMutability": "view",
      "type": "function"
    },
    {
      "inputs": [
        {
          "internalType": "address",
          "name": "_address",
          "type": "address"
        }
      ],
      "name": "isDonor",
      "outputs": [
        {
          "internalType": "bool",
          "name": "_status",
          "type": "bool"
        }
      ],
      "stateMutability": "view",
      "type": "function"
    },
    {
      "inputs": [
        {
          "internalType": "address",
          "name": "_address",
          "type": "address"
        }
      ],
      "name": "isProjectManager",
      "outputs": [
        {
          "internalType": "bool",
          "name": "_status",
          "type": "bool"
        }
      ],
      "stateMutability": "view",
      "type": "function"
    },
    {
      "inputs": [
        {
          "internalType": "bytes[]",
          "name": "data",
          "type": "bytes[]"
        }
      ],
      "name": "multicall",
      "outputs": [
        {
          "internalType": "bytes[]",
          "name": "results",
          "type": "bytes[]"
        }
      ],
      "stateMutability": "nonpayable",
      "type": "function"
    },
    {
      "inputs": [
        {
          "internalType": "address",
          "name": "_address",
          "type": "address"
        },
        {
          "internalType": "bool",
          "name": "_status",
          "type": "bool"
        }
      ],
      "name": "updateAdmin",
      "outputs": [],
      "stateMutability": "nonpayable",
      "type": "function"
    },
    {
      "inputs": [
        {
          "internalType": "address",
          "name": "_address",
          "type": "address"
        },
        {
          "internalType": "bool",
          "name": "_status",
          "type": "bool"
        }
      ],
      "name": "updateDonor",
      "outputs": [],
      "stateMutability": "nonpayable",
      "type": "function"
    },
    {
      "inputs": [
        {
          "internalType": "address",
          "name": "_address",
          "type": "address"
        },
        {
          "internalType": "bool",
          "name": "_status",
          "type": "bool"
        }
      ],
      "name": "updateProjectManager",
      "outputs": [],
      "stateMutability": "nonpayable",
      "type": "function"
    }
  ],
  "bytecode": "0x608060405234801561001057600080fd5b5060405161091738038061091783398101604081905261002f916100c5565b60005b815181101561008c57600160008084848151811061005257610052610189565b6020908102919091018101516001600160a01b03168252810191909152604001600020805460ff1916911515919091179055600101610032565b505061019f565b634e487b7160e01b600052604160045260246000fd5b80516001600160a01b03811681146100c057600080fd5b919050565b600060208083850312156100d857600080fd5b82516001600160401b03808211156100ef57600080fd5b818501915085601f83011261010357600080fd5b81518181111561011557610115610093565b8060051b604051601f19603f8301168101818110858211171561013a5761013a610093565b60405291825284820192508381018501918883111561015857600080fd5b938501935b8285101561017d5761016e856100a9565b8452938501939285019261015d565b98975050505050505050565b634e487b7160e01b600052603260045260246000fd5b610769806101ae6000396000f3fe608060405234801561001057600080fd5b506004361061007d5760003560e01c8063670a6fd91161005b578063670a6fd9146100eb578063836bd2bf146100fe578063a31ce01414610111578063ac9650d81461012457600080fd5b806324d7806c146100825780632bc3d7aa146100c357806358f3d5a6146100d6575b600080fd5b6100ae6100903660046104e6565b6001600160a01b031660009081526020819052604090205460ff1690565b60405190151581526020015b60405180910390f35b6100ae6100d13660046104e6565b610144565b6100e96100e4366004610501565b610189565b005b6100e96100f9366004610501565b6101ed565b6100ae61010c3660046104e6565b610248565b6100e961011f366004610501565b610289565b61013761013236600461053d565b6102e4565b6040516100ba91906105d6565b6001600160a01b03811660009081526001602052604081205460ff168061018357506001600160a01b03821660009081526020819052604090205460ff165b92915050565b3360008181526020819052604090205460ff166101c15760405162461bcd60e51b81526004016101b890610650565b60405180910390fd5b506001600160a01b03919091166000908152600260205260409020805460ff1916911515919091179055565b3360008181526020819052604090205460ff1661021c5760405162461bcd60e51b81526004016101b890610650565b506001600160a01b03919091166000908152602081905260409020805460ff1916911515919091179055565b6001600160a01b03811660009081526002602052604081205460ff16806101835750506001600160a01b031660009081526020819052604090205460ff1690565b3360008181526020819052604090205460ff166102b85760405162461bcd60e51b81526004016101b890610650565b506001600160a01b03919091166000908152600160205260409020805460ff1916911515919091179055565b6040805160008152602081019091526060908267ffffffffffffffff81111561030f5761030f610676565b60405190808252806020026020018201604052801561034257816020015b606081526020019060019003908161032d5790505b50915060005b838110156103c45761039f308686848181106103665761036661068c565b905060200281019061037891906106a2565b8560405160200161038b939291906106f0565b6040516020818303038152906040526103cc565b8382815181106103b1576103b161068c565b6020908102919091010152600101610348565b505092915050565b6060600080846001600160a01b0316846040516103e99190610717565b600060405180830381855af49150503d8060008114610424576040519150601f19603f3d011682016040523d82523d6000602084013e610429565b606091505b5091509150610439858383610442565b95945050505050565b60608261045757610452826104a1565b61049a565b815115801561046e57506001600160a01b0384163b155b1561049757604051639996b31560e01b81526001600160a01b03851660048201526024016101b8565b50805b9392505050565b8051156104b15780518082602001fd5b604051630a12f52160e11b815260040160405180910390fd5b80356001600160a01b03811681146104e157600080fd5b919050565b6000602082840312156104f857600080fd5b61049a826104ca565b6000806040838503121561051457600080fd5b61051d836104ca565b91506020830135801515811461053257600080fd5b809150509250929050565b6000806020838503121561055057600080fd5b823567ffffffffffffffff8082111561056857600080fd5b818501915085601f83011261057c57600080fd5b81358181111561058b57600080fd5b8660208260051b85010111156105a057600080fd5b60209290920196919550909350505050565b60005b838110156105cd5781810151838201526020016105b5565b50506000910152565b6000602080830181845280855180835260408601915060408160051b870101925083870160005b8281101561064357878503603f1901845281518051808752610624818989018a85016105b2565b601f01601f1916959095018601945092850192908501906001016105fd565b5092979650505050505050565b6020808252600c908201526b3737ba1030b71030b236b4b760a11b604082015260600190565b634e487b7160e01b600052604160045260246000fd5b634e487b7160e01b600052603260045260246000fd5b6000808335601e198436030181126106b957600080fd5b83018035915067ffffffffffffffff8211156106d457600080fd5b6020019150368190038213156106e957600080fd5b9250929050565b82848237600083820160008152835161070d8183602088016105b2565b0195945050505050565b600082516107298184602087016105b2565b919091019291505056fea264697066735822122028efb2486c61ef5c51baf027d56786021973de9fa02cd8b8346c92c0795b063e64736f6c63430008170033",
  "linkReferences": {},
  "deployedLinkReferences": {}
}