{
  "_format": "hh-sol-artifact-1",
  "contractName": "RahatDonor",
  "sourceName": "src/contracts/RahatDonor.sol",
  "abi": [
    {
      "inputs": [
        {
          "internalType": "address",
          "name": "_admin",
          "type": "address"
        },
        {
          "internalType": "address",
          "name": "_accessManager",
          "type": "address"
        }
      ],
      "stateMutability": "nonpayable",
      "type": "constructor"
    },
    {
      "inputs": [
        {
          "internalType": "address",
          "name": "authority",
          "type": "address"
        }
      ],
      "name": "AccessManagedInvalidAuthority",
      "type": "error"
    },
    {
      "inputs": [
        {
          "internalType": "address",
          "name": "caller",
          "type": "address"
        },
        {
          "internalType": "uint32",
          "name": "delay",
          "type": "uint32"
        }
      ],
      "name": "AccessManagedRequiredDelay",
      "type": "error"
    },
    {
      "inputs": [
        {
          "internalType": "address",
          "name": "caller",
          "type": "address"
        }
      ],
      "name": "AccessManagedUnauthorized",
      "type": "error"
    },
    {
      "inputs": [
        {
          "internalType": "address",
          "name": "target",
          "type": "address"
        }
      ],
      "name": "AddressEmptyCode",
      "type": "error"
    },
    {
      "inputs": [],
      "name": "FailedInnerCall",
      "type": "error"
    },
    {
      "anonymous": false,
      "inputs": [
        {
          "indexed": false,
          "internalType": "address",
          "name": "authority",
          "type": "address"
        }
      ],
      "name": "AuthorityUpdated",
      "type": "event"
    },
    {
      "anonymous": false,
      "inputs": [
        {
          "indexed": true,
          "internalType": "address",
          "name": "",
          "type": "address"
        }
      ],
      "name": "OwnerAdded",
      "type": "event"
    },
    {
      "anonymous": false,
      "inputs": [
        {
          "indexed": true,
          "internalType": "address",
          "name": "",
          "type": "address"
        }
      ],
      "name": "OwnerRemoved",
      "type": "event"
    },
    {
      "anonymous": false,
      "inputs": [
        {
          "indexed": true,
          "internalType": "address",
          "name": "tokenAddress",
          "type": "address"
        }
      ],
      "name": "TokenCreated",
      "type": "event"
    },
    {
      "anonymous": false,
      "inputs": [
        {
          "indexed": true,
          "internalType": "address",
          "name": "tokenAddress",
          "type": "address"
        },
        {
          "indexed": true,
          "internalType": "address",
          "name": "approveAddress",
          "type": "address"
        },
        {
          "indexed": false,
          "internalType": "uint256",
          "name": "amount",
          "type": "uint256"
        }
      ],
      "name": "TokenMintedAndApproved",
      "type": "event"
    },
    {
      "inputs": [],
      "name": "IID_RAHAT_DONOR",
      "outputs": [
        {
          "internalType": "bytes4",
          "name": "",
          "type": "bytes4"
        }
      ],
      "stateMutability": "view",
      "type": "function"
    },
    {
      "inputs": [],
      "name": "RahatTreasury",
      "outputs": [
        {
          "internalType": "contract IRahatTreasury",
          "name": "",
          "type": "address"
        }
      ],
      "stateMutability": "view",
      "type": "function"
    },
    {
      "inputs": [
        {
          "internalType": "address",
          "name": "",
          "type": "address"
        }
      ],
      "name": "_registeredProject",
      "outputs": [
        {
          "internalType": "bool",
          "name": "",
          "type": "bool"
        }
      ],
      "stateMutability": "view",
      "type": "function"
    },
    {
      "inputs": [
        {
          "internalType": "address",
          "name": "_address",
          "type": "address"
        }
      ],
      "name": "addOwner",
      "outputs": [
        {
          "internalType": "bool",
          "name": "success",
          "type": "bool"
        }
      ],
      "stateMutability": "nonpayable",
      "type": "function"
    },
    {
      "inputs": [
        {
          "internalType": "address",
          "name": "_token",
          "type": "address"
        },
        {
          "internalType": "address",
          "name": "_ownerAddress",
          "type": "address"
        }
      ],
      "name": "addTokenOwner",
      "outputs": [],
      "stateMutability": "nonpayable",
      "type": "function"
    },
    {
      "inputs": [
        {
          "internalType": "address",
          "name": "_token",
          "type": "address"
        },
        {
          "internalType": "address",
          "name": "_spender",
          "type": "address"
        },
        {
          "internalType": "uint256",
          "name": "_amount",
          "type": "uint256"
        }
      ],
      "name": "approveToken",
      "outputs": [],
      "stateMutability": "nonpayable",
      "type": "function"
    },
    {
      "inputs": [],
      "name": "authority",
      "outputs": [
        {
          "internalType": "address",
          "name": "",
          "type": "address"
        }
      ],
      "stateMutability": "view",
      "type": "function"
    },
    {
      "inputs": [
        {
          "internalType": "address",
          "name": "_token",
          "type": "address"
        },
        {
          "internalType": "address",
          "name": "_from",
          "type": "address"
        },
        {
          "internalType": "uint256",
          "name": "_amount",
          "type": "uint256"
        }
      ],
      "name": "claimToken",
      "outputs": [],
      "stateMutability": "nonpayable",
      "type": "function"
    },
    {
      "inputs": [
        {
          "internalType": "address",
          "name": "_token",
          "type": "address"
        },
        {
          "internalType": "address",
          "name": "_from",
          "type": "address"
        }
      ],
      "name": "getAllowanceAndBalance",
      "outputs": [
        {
          "internalType": "uint256",
          "name": "allowance",
          "type": "uint256"
        },
        {
          "internalType": "uint256",
          "name": "balance",
          "type": "uint256"
        }
      ],
      "stateMutability": "view",
      "type": "function"
    },
    {
      "inputs": [],
      "name": "isConsumingScheduledOp",
      "outputs": [
        {
          "internalType": "bytes4",
          "name": "",
          "type": "bytes4"
        }
      ],
      "stateMutability": "view",
      "type": "function"
    },
    {
      "inputs": [
        {
          "internalType": "address",
          "name": "_address",
          "type": "address"
        }
      ],
      "name": "isOwner",
      "outputs": [
        {
          "internalType": "bool",
          "name": "",
          "type": "bool"
        }
      ],
      "stateMutability": "view",
      "type": "function"
    },
    {
      "inputs": [],
      "name": "listOwners",
      "outputs": [
        {
          "internalType": "address[]",
          "name": "",
          "type": "address[]"
        }
      ],
      "stateMutability": "view",
      "type": "function"
    },
    {
      "inputs": [
        {
          "internalType": "address",
          "name": "_token",
          "type": "address"
        },
        {
          "internalType": "uint256",
          "name": "_amount",
          "type": "uint256"
        }
      ],
      "name": "mintToken",
      "outputs": [],
      "stateMutability": "nonpayable",
      "type": "function"
    },
    {
      "inputs": [
        {
          "internalType": "address",
          "name": "_token",
          "type": "address"
        },
        {
          "internalType": "address",
          "name": "_projectAddress",
          "type": "address"
        },
        {
          "internalType": "uint256",
          "name": "_amount",
          "type": "uint256"
        }
      ],
      "name": "mintTokens",
      "outputs": [
        {
          "internalType": "bool",
          "name": "",
          "type": "bool"
        }
      ],
      "stateMutability": "nonpayable",
      "type": "function"
    },
    {
      "inputs": [
        {
          "internalType": "bytes[]",
          "name": "data",
          "type": "bytes[]"
        }
      ],
      "name": "multicall",
      "outputs": [
        {
          "internalType": "bytes[]",
          "name": "results",
          "type": "bytes[]"
        }
      ],
      "stateMutability": "nonpayable",
      "type": "function"
    },
    {
      "inputs": [],
      "name": "ownerCount",
      "outputs": [
        {
          "internalType": "uint256",
          "name": "",
          "type": "uint256"
        }
      ],
      "stateMutability": "view",
      "type": "function"
    },
    {
      "inputs": [
        {
          "internalType": "address",
          "name": "_projectAddress",
          "type": "address"
        },
        {
          "internalType": "bool",
          "name": "status",
          "type": "bool"
        }
      ],
      "name": "registerProject",
      "outputs": [],
      "stateMutability": "nonpayable",
      "type": "function"
    },
    {
      "inputs": [
        {
          "internalType": "address",
          "name": "_address",
          "type": "address"
        }
      ],
      "name": "removeOwner",
      "outputs": [
        {
          "internalType": "bool",
          "name": "success",
          "type": "bool"
        }
      ],
      "stateMutability": "nonpayable",
      "type": "function"
    },
    {
      "inputs": [
        {
          "internalType": "address",
          "name": "newAuthority",
          "type": "address"
        }
      ],
      "name": "setAuthority",
      "outputs": [],
      "stateMutability": "nonpayable",
      "type": "function"
    },
    {
      "inputs": [
        {
          "internalType": "bytes4",
          "name": "interfaceId",
          "type": "bytes4"
        }
      ],
      "name": "supportsInterface",
      "outputs": [
        {
          "internalType": "bool",
          "name": "",
          "type": "bool"
        }
      ],
      "stateMutability": "view",
      "type": "function"
    },
    {
      "inputs": [
        {
          "internalType": "uint256",
          "name": "",
          "type": "uint256"
        }
      ],
      "name": "tokenToDollarValue",
      "outputs": [
        {
          "internalType": "uint256",
          "name": "",
          "type": "uint256"
        }
      ],
      "stateMutability": "view",
      "type": "function"
    },
    {
      "inputs": [
        {
          "internalType": "address",
          "name": "_token",
          "type": "address"
        },
        {
          "internalType": "address",
          "name": "_from",
          "type": "address"
        },
        {
          "internalType": "address",
          "name": "_to",
          "type": "address"
        },
        {
          "internalType": "uint256",
          "name": "_amount",
          "type": "uint256"
        }
      ],
      "name": "transferFromToken",
      "outputs": [],
      "stateMutability": "nonpayable",
      "type": "function"
    },
    {
      "inputs": [
        {
          "internalType": "address",
          "name": "_token",
          "type": "address"
        },
        {
          "internalType": "address",
          "name": "_to",
          "type": "address"
        },
        {
          "internalType": "uint256",
          "name": "_amount",
          "type": "uint256"
        }
      ],
      "name": "transferToken",
      "outputs": [],
      "stateMutability": "nonpayable",
      "type": "function"
    }
  ],
  "bytecode": "0x608060405260326000553480156200001657600080fd5b50604051620015fe380380620015fe8339810160408190526200003991620001ea565b8062000045816200005a565b506200005182620000ae565b50505062000222565b600380546001600160a01b0319166001600160a01b0383169081179091556040519081527f2f658b440c35314f52658ea8a740e05b284cdc84dc9ae01e891f21b8933e7cad9060200160405180910390a150565b60008054620000be60016200014c565b1115620001035760405162461bcd60e51b815260206004820152600f60248201526e1bdddb995c9cc8195e18d959591959608a1b604482015260640160405180910390fd5b620001106001836200015d565b6040519091506001600160a01b038316907f994a936646fe87ffe4f1e469d3d6aa417d6b855598397f323de5b449f765f0c390600090a2919050565b600062000157825490565b92915050565b600062000174836001600160a01b0384166200017b565b9392505050565b6000818152600183016020526040812054620001c45750815460018181018455600084815260208082209093018490558454848252828601909352604090209190915562000157565b50600062000157565b80516001600160a01b0381168114620001e557600080fd5b919050565b60008060408385031215620001fe57600080fd5b6200020983620001cd565b91506200021960208401620001cd565b90509250929050565b6113cc80620002326000396000f3fe608060405234801561001057600080fd5b506004361061014d5760003560e01c80638fb36037116100c3578063d293cf251161007c578063d293cf2514610300578063da3e339714610339578063ed60c0fc1461034c578063f36307cf14610361578063f5537ede14610381578063fb3c0d701461039457600080fd5b80638fb360371461025257806390476063146102735780639a7b612a1461029e578063a80f5612146102ac578063ac9650d8146102cf578063bf7e214f146102ef57600080fd5b80632f54bf6e116101155780632f54bf6e146101cb5780634937b174146101de5780636fc98ee1146102065780637065cb481461021957806379c650681461022c5780637a9e5e4b1461023f57600080fd5b806301ffc9a7146101525780630db026221461017a578063125bfb6614610190578063173825d9146101a55780632cb5568e146101b8575b600080fd5b610165610160366004610f30565b6103a7565b60405190151581526020015b60405180910390f35b6101826103de565b604051908152602001610171565b6101a361019e366004610f71565b6103ef565b005b6101656101b3366004610fad565b61049f565b6101a36101c6366004610fc8565b61050f565b6101656101d9366004610fad565b610580565b6101f16101ec366004610fc8565b61058d565b60408051928352602083019190915201610171565b610165610214366004610f71565b610676565b610165610227366004610fad565b6107ab565b6101a361023a366004610ff2565b6107e2565b6101a361024d366004610fad565b610853565b61025a6108cd565b6040516001600160e01b03199091168152602001610171565b600654610286906001600160a01b031681565b6040516001600160a01b039091168152602001610171565b61025a630ae9aa6960e31b81565b6101656102ba366004610fad565b60056020526000908152604090205460ff1681565b6102e26102dd36600461101c565b6108f3565b60405161017191906110b5565b6003546001600160a01b0316610286565b6101a361030e36600461113d565b6001600160a01b03919091166000908152600560205260409020805460ff1916911515919091179055565b6101a3610347366004610f71565b6109db565b610354610a37565b6040516101719190611174565b61018261036f3660046111c1565b60046020526000908152604090205481565b6101a361038f366004610f71565b610a43565b6101a36103a23660046111da565b610a9f565b60006001600160e01b03198216630ae9aa6960e31b14806103d857506301ffc9a760e01b6001600160e01b03198316145b92915050565b60006103ea6001610b48565b905090565b6103fa600133610b52565b61041f5760405162461bcd60e51b815260040161041690611225565b60405180910390fd5b6040516323b872dd60e01b81526001600160a01b038381166004830152306024830152604482018390528416906323b872dd906064015b6020604051808303816000875af1158015610475573d6000803e3d6000fd5b505050506040513d601f19601f82011682018060405250810190610499919061126c565b50505050565b60006104ac600133610b52565b6104c85760405162461bcd60e51b815260040161041690611225565b6104d3600183610b74565b6040519091506001600160a01b038316907f58619076adf5bb0943d100ef88d52d7c3fd691b19d3a9071b555b651fbf418da90600090a2919050565b604051630e0cb96960e31b81526001600160a01b038281166004830152831690637065cb48906024016020604051808303816000875af1158015610557573d6000803e3d6000fd5b505050506040513d601f19601f8201168201806040525081019061057b919061126c565b505050565b60006103d8600183610b52565b604051636eb1769f60e11b81526001600160a01b038281166004830152306024830152600091829185169063dd62ed3e90604401602060405180830381865afa1580156105de573d6000803e3d6000fd5b505050506040513d601f19601f820116820180604052508101906106029190611289565b6040516370a0823160e01b81523060048201529092506001600160a01b038516906370a0823190602401602060405180830381865afa158015610649573d6000803e3d6000fd5b505050506040513d601f19601f8201168201806040525081019061066d9190611289565b90509250929050565b6040516340c10f1960e01b81526001600160a01b0383811660048301526024820183905260009185918216906340c10f19906044016020604051808303816000875af11580156106ca573d6000803e3d6000fd5b505050506040513d601f19601f820116820180604052508101906106ee9190611289565b506040516397b53ca360e01b81526001600160a01b038681166004830152602482018590528516906397b53ca390604401600060405180830381600087803b15801561073957600080fd5b505af115801561074d573d6000803e3d6000fd5b50505050836001600160a01b0316856001600160a01b03167fdc6904c4e8e3746f835eb600662c644c895c758995784a4b39c68f75355b2d278560405161079691815260200190565b60405180910390a360019150505b9392505050565b60006107b8600133610b52565b6107d45760405162461bcd60e51b815260040161041690611225565b6103d882610b89565b919050565b6040516340c10f1960e01b8152306004820152602481018290526001600160a01b038316906340c10f19906044016020604051808303816000875af115801561082f573d6000803e3d6000fd5b505050506040513d601f19601f8201168201806040525081019061057b9190611289565b60035433906001600160a01b0316811461088a5760405162d1953b60e31b81526001600160a01b0382166004820152602401610416565b816001600160a01b03163b6000036108c0576040516361798f2f60e11b81526001600160a01b0383166004820152602401610416565b6108c982610c1e565b5050565b600354600090600160a01b900460ff166108e75750600090565b50638fb3603760e01b90565b6040805160008152602081019091526060908267ffffffffffffffff81111561091e5761091e6112c3565b60405190808252806020026020018201604052801561095157816020015b606081526020019060019003908161093c5790505b50915060005b838110156109d3576109ae30868684818110610975576109756112d9565b905060200281019061098791906112ef565b8560405160200161099a9392919061133d565b604051602081830303815290604052610c72565b8382815181106109c0576109c06112d9565b6020908102919091010152600101610957565b505092915050565b6109e6600133610b52565b610a025760405162461bcd60e51b815260040161041690611225565b60405163095ea7b360e01b81526001600160a01b0383811660048301526024820183905284169063095ea7b390604401610456565b60606103ea6001610ce8565b610a4e600133610b52565b610a6a5760405162461bcd60e51b815260040161041690611225565b60405163a9059cbb60e01b81526001600160a01b0383811660048301526024820183905284169063a9059cbb90604401610456565b610aaa600133610b52565b610ac65760405162461bcd60e51b815260040161041690611225565b6040516323b872dd60e01b81526001600160a01b0384811660048301528381166024830152604482018390528516906323b872dd906064016020604051808303816000875af1158015610b1d573d6000803e3d6000fd5b505050506040513d601f19601f82011682018060405250810190610b41919061126c565b5050505050565b60006103d8825490565b6001600160a01b038116600090815260018301602052604081205415156107a4565b60006107a4836001600160a01b038416610cf5565b60008054610b976001610b48565b1115610bd75760405162461bcd60e51b815260206004820152600f60248201526e1bdddb995c9cc8195e18d959591959608a1b6044820152606401610416565b610be2600183610de8565b6040519091506001600160a01b038316907f994a936646fe87ffe4f1e469d3d6aa417d6b855598397f323de5b449f765f0c390600090a2919050565b600380546001600160a01b0319166001600160a01b0383169081179091556040519081527f2f658b440c35314f52658ea8a740e05b284cdc84dc9ae01e891f21b8933e7cad9060200160405180910390a150565b6060600080846001600160a01b031684604051610c8f9190611364565b600060405180830381855af49150503d8060008114610cca576040519150601f19603f3d011682016040523d82523d6000602084013e610ccf565b606091505b5091509150610cdf858383610dfd565b95945050505050565b606060006107a483610e59565b60008181526001830160205260408120548015610dde576000610d196001836112a2565b8554909150600090610d2d906001906112a2565b9050808214610d92576000866000018281548110610d4d57610d4d6112d9565b9060005260206000200154905080876000018481548110610d7057610d706112d9565b6000918252602080832090910192909255918252600188019052604090208390555b8554869080610da357610da3611380565b6001900381819060005260206000200160009055905585600101600086815260200190815260200160002060009055600193505050506103d8565b60009150506103d8565b60006107a4836001600160a01b038416610eb5565b606082610e1257610e0d82610f04565b6107a4565b8151158015610e2957506001600160a01b0384163b155b15610e5257604051639996b31560e01b81526001600160a01b0385166004820152602401610416565b50806107a4565b606081600001805480602002602001604051908101604052809291908181526020018280548015610ea957602002820191906000526020600020905b815481526020019060010190808311610e95575b50505050509050919050565b6000818152600183016020526040812054610efc575081546001818101845560008481526020808220909301849055845484825282860190935260409020919091556103d8565b5060006103d8565b805115610f145780518082602001fd5b604051630a12f52160e11b815260040160405180910390fd5b50565b600060208284031215610f4257600080fd5b81356001600160e01b0319811681146107a457600080fd5b80356001600160a01b03811681146107dd57600080fd5b600080600060608486031215610f8657600080fd5b610f8f84610f5a565b9250610f9d60208501610f5a565b9150604084013590509250925092565b600060208284031215610fbf57600080fd5b6107a482610f5a565b60008060408385031215610fdb57600080fd5b610fe483610f5a565b915061066d60208401610f5a565b6000806040838503121561100557600080fd5b61100e83610f5a565b946020939093013593505050565b6000806020838503121561102f57600080fd5b823567ffffffffffffffff8082111561104757600080fd5b818501915085601f83011261105b57600080fd5b81358181111561106a57600080fd5b8660208260051b850101111561107f57600080fd5b60209290920196919550909350505050565b60005b838110156110ac578181015183820152602001611094565b50506000910152565b6000602080830181845280855180835260408601915060408160051b870101925083870160005b8281101561112257878503603f1901845281518051808752611103818989018a8501611091565b601f01601f1916959095018601945092850192908501906001016110dc565b5092979650505050505050565b8015158114610f2d57600080fd5b6000806040838503121561115057600080fd5b61115983610f5a565b915060208301356111698161112f565b809150509250929050565b6020808252825182820181905260009190848201906040850190845b818110156111b55783516001600160a01b031683529284019291840191600101611190565b50909695505050505050565b6000602082840312156111d357600080fd5b5035919050565b600080600080608085870312156111f057600080fd5b6111f985610f5a565b935061120760208601610f5a565b925061121560408601610f5a565b9396929550929360600135925050565b60208082526027908201527f4f6e6c79206f776e65722063616e20657865637574652074686973207472616e60408201526639b0b1ba34b7b760c91b606082015260800190565b60006020828403121561127e57600080fd5b81516107a48161112f565b60006020828403121561129b57600080fd5b5051919050565b818103818111156103d857634e487b7160e01b600052601160045260246000fd5b634e487b7160e01b600052604160045260246000fd5b634e487b7160e01b600052603260045260246000fd5b6000808335601e1984360301811261130657600080fd5b83018035915067ffffffffffffffff82111561132157600080fd5b60200191503681900382131561133657600080fd5b9250929050565b82848237600083820160008152835161135a818360208801611091565b0195945050505050565b60008251611376818460208701611091565b9190910192915050565b634e487b7160e01b600052603160045260246000fdfea26469706673582212207baf9828110185c8e5f796ffea7c8ee25766bda974a3974335bde57d7210c61c64736f6c63430008170033",
  "linkReferences": {},
  "deployedLinkReferences": {}
}